ARM GAS  C:\Users\locurtoj\AppData\Local\Temp\ccchhJlE.s 			page 1


   1              		.syntax unified
   2              		.cpu cortex-m3
   3              		.fpu softvfp
   4              		.eabi_attribute 20, 1
   5              		.eabi_attribute 21, 1
   6              		.eabi_attribute 23, 3
   7              		.eabi_attribute 24, 1
   8              		.eabi_attribute 25, 1
   9              		.eabi_attribute 26, 1
  10              		.eabi_attribute 30, 1
  11              		.eabi_attribute 34, 1
  12              		.eabi_attribute 18, 4
  13              		.thumb
  14              		.syntax unified
  15              		.file	"main.c"
  16              		.text
  17              	.Ltext0:
  18              		.cfi_sections	.debug_frame
  19              		.syntax unified
  20              		.global _printf_float
  21              		.thumb
  22              		.syntax unified
  23              		.section	.text.main,"ax",%progbits
  24              		.align	2
  25              		.global	main
  26              		.thumb
  27              		.thumb_func
  28              		.type	main, %function
  29              	main:
  30              	.LFB64:
  31              		.file 1 "main.c"
   1:main.c        **** /*******************************************************************************
   2:main.c        **** * File Name: main.c
   3:main.c        **** *
   4:main.c        **** * Version: 2.0
   5:main.c        **** *
   6:main.c        **** * Description:
   7:main.c        **** *   The component is enumerated as a Virtual Com port. Receives data from the 
   8:main.c        **** *   hyper terminal, then sends back the received data.
   9:main.c        **** *   For PSoC3/PSoC5LP, the LCD shows the line settings.
  10:main.c        **** *
  11:main.c        **** * Related Document:
  12:main.c        **** *  Universal Serial Bus Specification Revision 2.0
  13:main.c        **** *  Universal Serial Bus Class Definitions for Communications Devices
  14:main.c        **** *  Revision 1.2
  15:main.c        **** *
  16:main.c        **** ********************************************************************************
  17:main.c        **** * Copyright 2015, Cypress Semiconductor Corporation. All rights reserved.
  18:main.c        **** * This software is owned by Cypress Semiconductor Corporation and is protected
  19:main.c        **** * by and subject to worldwide patent and copyright laws and treaties.
  20:main.c        **** * Therefore, you may use this software only as provided in the license agreement
  21:main.c        **** * accompanying the software package from which you obtained this software.
  22:main.c        **** * CYPRESS AND ITS SUPPLIERS MAKE NO WARRANTY OF ANY KIND, EXPRESS OR IMPLIED,
  23:main.c        **** * WITH REGARD TO THIS SOFTWARE, INCLUDING, BUT NOT LIMITED TO, NONINFRINGEMENT,
  24:main.c        **** * IMPLIED WARRANTIES OF MERCHANTABILITY AND FITNESS FOR A PARTICULAR PURPOSE.
  25:main.c        **** *******************************************************************************/
  26:main.c        **** 
ARM GAS  C:\Users\locurtoj\AppData\Local\Temp\ccchhJlE.s 			page 2


  27:main.c        **** #include "project.h"
  28:main.c        **** #include "stdio.h"
  29:main.c        **** 
  30:main.c        **** #if defined (__GNUC__)
  31:main.c        ****     /* Add an explicit reference to the floating point printf library */
  32:main.c        ****     /* to allow usage of the floating point conversion specifiers. */
  33:main.c        ****     /* This is not linked in by default with the newlib-nano library. */
  34:main.c        ****     asm (".global _printf_float");
  35:main.c        **** #endif
  36:main.c        **** 
  37:main.c        **** #define USBFS_DEVICE    (0u)
  38:main.c        **** 
  39:main.c        **** /* The buffer size is equal to the maximum packet size of the IN and OUT bulk
  40:main.c        **** * endpoints.
  41:main.c        **** */
  42:main.c        **** #define USBUART_BUFFER_SIZE (64u)
  43:main.c        **** #define LINE_STR_LENGTH     (20u)
  44:main.c        **** 
  45:main.c        **** char8* parity[] = {"None", "Odd", "Even", "Mark", "Space"};
  46:main.c        **** char8* stop[]   = {"1", "1.5", "2"};
  47:main.c        **** 
  48:main.c        **** 
  49:main.c        **** /*******************************************************************************
  50:main.c        **** * Function Name: main
  51:main.c        **** ********************************************************************************
  52:main.c        **** *
  53:main.c        **** * Summary:
  54:main.c        **** *  The main function performs the following actions:
  55:main.c        **** *   1. Waits until VBUS becomes valid and starts the USBFS component which is
  56:main.c        **** *      enumerated as virtual Com port.
  57:main.c        **** *   2. Waits until the device is enumerated by the host.
  58:main.c        **** *   3. Waits for data coming from the hyper terminal and sends it back.
  59:main.c        **** *   4. PSoC3/PSoC5LP: the LCD shows the line settings.
  60:main.c        **** *
  61:main.c        **** * Parameters:
  62:main.c        **** *  None.
  63:main.c        **** *
  64:main.c        **** * Return:
  65:main.c        **** *  None.
  66:main.c        **** *
  67:main.c        **** *******************************************************************************/
  68:main.c        **** int main()
  69:main.c        **** {
  32              		.loc 1 69 0
  33              		.cfi_startproc
  34              		@ args = 0, pretend = 0, frame = 88
  35              		@ frame_needed = 0, uses_anonymous_args = 0
  36 0000 2DE9F041 		push	{r4, r5, r6, r7, r8, lr}
  37              		.cfi_def_cfa_offset 24
  38              		.cfi_offset 4, -24
  39              		.cfi_offset 5, -20
  40              		.cfi_offset 6, -16
  41              		.cfi_offset 7, -12
  42              		.cfi_offset 8, -8
  43              		.cfi_offset 14, -4
  44 0004 98B0     		sub	sp, sp, #96
  45              		.cfi_def_cfa_offset 120
ARM GAS  C:\Users\locurtoj\AppData\Local\Temp\ccchhJlE.s 			page 3


  70:main.c        ****     uint16 count;
  71:main.c        ****     uint8 buffer[USBUART_BUFFER_SIZE];
  72:main.c        ****     
  73:main.c        **** #if (CY_PSOC3 || CY_PSOC5LP)
  74:main.c        ****     uint8 state;
  75:main.c        ****     char8 lineStr[LINE_STR_LENGTH];
  76:main.c        ****     
  77:main.c        ****     LCD_Start();
  46              		.loc 1 77 0
  47 0006 FFF7FEFF 		bl	LCD_Start
  48              	.LVL0:
  78:main.c        **** #endif /* (CY_PSOC3 || CY_PSOC5LP) */
  79:main.c        ****     
  80:main.c        ****     CyGlobalIntEnable;
  49              		.loc 1 80 0
  50              		.syntax unified
  51              	@ 80 "main.c" 1
  52 000a 62B6     		CPSIE   i
  53              	@ 0 "" 2
  81:main.c        **** 
  82:main.c        ****     /* Start USBFS operation with 5-V operation. */
  83:main.c        ****     USBUART_Start(USBFS_DEVICE, USBUART_5V_OPERATION);
  54              		.loc 1 83 0
  55              		.thumb
  56              		.syntax unified
  57 000c 0121     		movs	r1, #1
  58 000e 0020     		movs	r0, #0
  59 0010 FFF7FEFF 		bl	USBUART_Start
  60              	.LVL1:
  61              	.L3:
  84:main.c        ****     
  85:main.c        ****     for(;;)
  86:main.c        ****     {
  87:main.c        ****         /* Host can send double SET_INTERFACE request. */
  88:main.c        ****         if (0u != USBUART_IsConfigurationChanged())
  62              		.loc 1 88 0
  63 0014 FFF7FEFF 		bl	USBUART_IsConfigurationChanged
  64              	.LVL2:
  65 0018 20B1     		cbz	r0, .L2
  89:main.c        ****         {
  90:main.c        ****             /* Initialize IN endpoints when device is configured. */
  91:main.c        ****             if (0u != USBUART_GetConfiguration())
  66              		.loc 1 91 0
  67 001a FFF7FEFF 		bl	USBUART_GetConfiguration
  68              	.LVL3:
  69 001e 08B1     		cbz	r0, .L2
  92:main.c        ****             {
  93:main.c        ****                 /* Enumeration is done, enable OUT endpoint to receive data 
  94:main.c        ****                  * from host. */
  95:main.c        ****                 USBUART_CDC_Init();
  70              		.loc 1 95 0
  71 0020 FFF7FEFF 		bl	USBUART_CDC_Init
  72              	.LVL4:
  73              	.L2:
  96:main.c        ****             }
  97:main.c        ****         }
  98:main.c        **** 
ARM GAS  C:\Users\locurtoj\AppData\Local\Temp\ccchhJlE.s 			page 4


  99:main.c        ****         /* Service USB CDC when device is configured. */
 100:main.c        ****         if (0u != USBUART_GetConfiguration())
  74              		.loc 1 100 0
  75 0024 FFF7FEFF 		bl	USBUART_GetConfiguration
  76              	.LVL5:
  77 0028 0028     		cmp	r0, #0
  78 002a F3D0     		beq	.L3
 101:main.c        ****         {
 102:main.c        ****             /* Check for input data from host. */
 103:main.c        ****             if (0u != USBUART_DataIsReady())
  79              		.loc 1 103 0
  80 002c FFF7FEFF 		bl	USBUART_DataIsReady
  81              	.LVL6:
  82 0030 B0B1     		cbz	r0, .L4
 104:main.c        ****             {
 105:main.c        ****                 /* Read received data and re-enable OUT endpoint. */
 106:main.c        ****                 count = USBUART_GetAll(buffer);
  83              		.loc 1 106 0
  84 0032 08A8     		add	r0, sp, #32
  85 0034 FFF7FEFF 		bl	USBUART_GetAll
  86              	.LVL7:
 107:main.c        **** 
 108:main.c        ****                 if (0u != count)
  87              		.loc 1 108 0
  88 0038 0446     		mov	r4, r0
  89 003a 88B1     		cbz	r0, .L4
  90              	.LVL8:
  91              	.L5:
 109:main.c        ****                 {
 110:main.c        ****                     /* Wait until component is ready to send data to host. */
 111:main.c        ****                     while (0u == USBUART_CDCIsReady())
  92              		.loc 1 111 0 discriminator 1
  93 003c FFF7FEFF 		bl	USBUART_CDCIsReady
  94              	.LVL9:
  95 0040 0028     		cmp	r0, #0
  96 0042 FBD0     		beq	.L5
 112:main.c        ****                     {
 113:main.c        ****                     }
 114:main.c        **** 
 115:main.c        ****                     /* Send data back to host. */
 116:main.c        ****                     USBUART_PutData(buffer, count);
  97              		.loc 1 116 0
  98 0044 2146     		mov	r1, r4
  99 0046 08A8     		add	r0, sp, #32
 100 0048 FFF7FEFF 		bl	USBUART_PutData
 101              	.LVL10:
 117:main.c        **** 
 118:main.c        ****                     /* If the last sent packet is exactly the maximum packet 
 119:main.c        ****                     *  size, it is followed by a zero-length packet to assure
 120:main.c        ****                     *  that the end of the segment is properly identified by 
 121:main.c        ****                     *  the terminal.
 122:main.c        ****                     */
 123:main.c        ****                     if (USBUART_BUFFER_SIZE == count)
 102              		.loc 1 123 0
 103 004c 402C     		cmp	r4, #64
 104 004e 07D1     		bne	.L4
 105              	.L6:
ARM GAS  C:\Users\locurtoj\AppData\Local\Temp\ccchhJlE.s 			page 5


 124:main.c        ****                     {
 125:main.c        ****                         /* Wait until component is ready to send data to PC. */
 126:main.c        ****                         while (0u == USBUART_CDCIsReady())
 106              		.loc 1 126 0 discriminator 1
 107 0050 FFF7FEFF 		bl	USBUART_CDCIsReady
 108              	.LVL11:
 109 0054 0028     		cmp	r0, #0
 110 0056 FBD0     		beq	.L6
 127:main.c        ****                         {
 128:main.c        ****                         }
 129:main.c        **** 
 130:main.c        ****                         /* Send zero-length packet to PC. */
 131:main.c        ****                         USBUART_PutData(NULL, 0u);
 111              		.loc 1 131 0
 112 0058 0021     		movs	r1, #0
 113 005a 0846     		mov	r0, r1
 114 005c FFF7FEFF 		bl	USBUART_PutData
 115              	.LVL12:
 116              	.L4:
 132:main.c        ****                     }
 133:main.c        ****                 }
 134:main.c        ****             }
 135:main.c        **** 
 136:main.c        **** 
 137:main.c        ****         #if (CY_PSOC3 || CY_PSOC5LP)
 138:main.c        ****             /* Check for Line settings change. */
 139:main.c        ****             state = USBUART_IsLineChanged();
 117              		.loc 1 139 0
 118 0060 FFF7FEFF 		bl	USBUART_IsLineChanged
 119              	.LVL13:
 140:main.c        ****             if (0u != state)
 120              		.loc 1 140 0
 121 0064 0446     		mov	r4, r0
 122 0066 0028     		cmp	r0, #0
 123 0068 D4D0     		beq	.L3
 141:main.c        ****             {
 142:main.c        ****                 /* Output on LCD Line Coding settings. */
 143:main.c        ****                 if (0u != (state & USBUART_LINE_CODING_CHANGED))
 124              		.loc 1 143 0
 125 006a 10F0010F 		tst	r0, #1
 126 006e 28D0     		beq	.L8
 144:main.c        ****                 {                  
 145:main.c        ****                     /* Get string to output. */
 146:main.c        ****                     sprintf(lineStr,"BR:%4ld %d%c%s", USBUART_GetDTERate(),\
 127              		.loc 1 146 0
 128 0070 FFF7FEFF 		bl	USBUART_GetDTERate
 129              	.LVL14:
 130 0074 0646     		mov	r6, r0
 147:main.c        ****                                    (uint16) USBUART_GetDataBits(),\
 131              		.loc 1 147 0
 132 0076 FFF7FEFF 		bl	USBUART_GetDataBits
 133              	.LVL15:
 134 007a 0746     		mov	r7, r0
 148:main.c        ****                                    parity[(uint16) USBUART_GetParityType()][0],\
 135              		.loc 1 148 0
 136 007c FFF7FEFF 		bl	USBUART_GetParityType
 137              	.LVL16:
ARM GAS  C:\Users\locurtoj\AppData\Local\Temp\ccchhJlE.s 			page 6


 138 0080 224D     		ldr	r5, .L16
 139 0082 55F82030 		ldr	r3, [r5, r0, lsl #2]
 140 0086 93F80080 		ldrb	r8, [r3]	@ zero_extendqisi2
 149:main.c        ****                                    stop[(uint16) USBUART_GetCharFormat()]);
 141              		.loc 1 149 0
 142 008a FFF7FEFF 		bl	USBUART_GetCharFormat
 143              	.LVL17:
 146:main.c        ****                                    (uint16) USBUART_GetDataBits(),\
 144              		.loc 1 146 0
 145 008e 05EB8000 		add	r0, r5, r0, lsl #2
 146 0092 4369     		ldr	r3, [r0, #20]
 147 0094 0193     		str	r3, [sp, #4]
 148 0096 CDF80080 		str	r8, [sp]
 149 009a 3B46     		mov	r3, r7
 150 009c 3246     		mov	r2, r6
 151 009e 1C49     		ldr	r1, .L16+4
 152 00a0 03A8     		add	r0, sp, #12
 153 00a2 FFF7FEFF 		bl	sprintf
 154              	.LVL18:
 150:main.c        **** 
 151:main.c        ****                     /* Clear LCD line. */
 152:main.c        ****                     LCD_Position(0u, 0u);
 155              		.loc 1 152 0
 156 00a6 0021     		movs	r1, #0
 157 00a8 0846     		mov	r0, r1
 158 00aa FFF7FEFF 		bl	LCD_Position
 159              	.LVL19:
 153:main.c        ****                     LCD_PrintString("                    ");
 160              		.loc 1 153 0
 161 00ae 1948     		ldr	r0, .L16+8
 162 00b0 FFF7FEFF 		bl	LCD_PrintString
 163              	.LVL20:
 154:main.c        **** 
 155:main.c        ****                     /* Output string on LCD. */
 156:main.c        ****                     LCD_Position(0u, 0u);
 164              		.loc 1 156 0
 165 00b4 0021     		movs	r1, #0
 166 00b6 0846     		mov	r0, r1
 167 00b8 FFF7FEFF 		bl	LCD_Position
 168              	.LVL21:
 157:main.c        ****                     LCD_PrintString(lineStr);
 169              		.loc 1 157 0
 170 00bc 03A8     		add	r0, sp, #12
 171 00be FFF7FEFF 		bl	LCD_PrintString
 172              	.LVL22:
 173              	.L8:
 158:main.c        ****                 }
 159:main.c        **** 
 160:main.c        ****                 /* Output on LCD Line Control settings. */
 161:main.c        ****                 if (0u != (state & USBUART_LINE_CONTROL_CHANGED))
 174              		.loc 1 161 0
 175 00c2 14F0020F 		tst	r4, #2
 176 00c6 A5D0     		beq	.L3
 162:main.c        ****                 {                   
 163:main.c        ****                     /* Get string to output. */
 164:main.c        ****                     state = USBUART_GetLineControl();
 177              		.loc 1 164 0
ARM GAS  C:\Users\locurtoj\AppData\Local\Temp\ccchhJlE.s 			page 7


 178 00c8 FFF7FEFF 		bl	USBUART_GetLineControl
 179              	.LVL23:
 180 00cc C0B2     		uxtb	r0, r0
 181              	.LVL24:
 165:main.c        ****                     sprintf(lineStr,"DTR:%s,RTS:%s",  (0u != (state & USBUART_LINE_CONTROL_DTR)) ? 
 182              		.loc 1 165 0
 183 00ce 10F0010F 		tst	r0, #1
 184 00d2 01D0     		beq	.L13
 185 00d4 104A     		ldr	r2, .L16+12
 186 00d6 00E0     		b	.L10
 187              	.L13:
 188 00d8 104A     		ldr	r2, .L16+16
 189              	.L10:
 190              		.loc 1 165 0 is_stmt 0 discriminator 4
 191 00da 10F0020F 		tst	r0, #2
 192 00de 01D0     		beq	.L14
 193              		.loc 1 165 0
 194 00e0 0D4B     		ldr	r3, .L16+12
 195 00e2 00E0     		b	.L11
 196              	.L14:
 197 00e4 0D4B     		ldr	r3, .L16+16
 198              	.L11:
 199              		.loc 1 165 0 discriminator 8
 200 00e6 0E49     		ldr	r1, .L16+20
 201 00e8 03A8     		add	r0, sp, #12
 202              	.LVL25:
 203 00ea FFF7FEFF 		bl	sprintf
 204              	.LVL26:
 166:main.c        ****                                                       (0u != (state & USBUART_LINE_CONTROL_RTS)) ? 
 167:main.c        **** 
 168:main.c        ****                     /* Clear LCD line. */
 169:main.c        ****                     LCD_Position(1u, 0u);
 205              		.loc 1 169 0 is_stmt 1 discriminator 8
 206 00ee 0021     		movs	r1, #0
 207 00f0 0120     		movs	r0, #1
 208 00f2 FFF7FEFF 		bl	LCD_Position
 209              	.LVL27:
 170:main.c        ****                     LCD_PrintString("                    ");
 210              		.loc 1 170 0 discriminator 8
 211 00f6 0748     		ldr	r0, .L16+8
 212 00f8 FFF7FEFF 		bl	LCD_PrintString
 213              	.LVL28:
 171:main.c        **** 
 172:main.c        ****                     /* Output string on LCD. */
 173:main.c        ****                     LCD_Position(1u, 0u);
 214              		.loc 1 173 0 discriminator 8
 215 00fc 0021     		movs	r1, #0
 216 00fe 0120     		movs	r0, #1
 217 0100 FFF7FEFF 		bl	LCD_Position
 218              	.LVL29:
 174:main.c        ****                     LCD_PrintString(lineStr);
 219              		.loc 1 174 0 discriminator 8
 220 0104 03A8     		add	r0, sp, #12
 221 0106 FFF7FEFF 		bl	LCD_PrintString
 222              	.LVL30:
 223 010a 83E7     		b	.L3
 224              	.L17:
ARM GAS  C:\Users\locurtoj\AppData\Local\Temp\ccchhJlE.s 			page 8


 225              		.align	2
 226              	.L16:
 227 010c 00000000 		.word	.LANCHOR0
 228 0110 08000000 		.word	.LC2
 229 0114 18000000 		.word	.LC3
 230 0118 00000000 		.word	.LC0
 231 011c 04000000 		.word	.LC1
 232 0120 30000000 		.word	.LC4
 233              		.cfi_endproc
 234              	.LFE64:
 235              		.size	main, .-main
 236              		.global	stop
 237              		.global	parity
 238              		.data
 239              		.align	2
 240              		.set	.LANCHOR0,. + 0
 241              		.type	parity, %object
 242              		.size	parity, 20
 243              	parity:
 244 0000 4C000000 		.word	.LC8
 245 0004 54000000 		.word	.LC9
 246 0008 58000000 		.word	.LC10
 247 000c 60000000 		.word	.LC11
 248 0010 68000000 		.word	.LC12
 249              		.type	stop, %object
 250              		.size	stop, 12
 251              	stop:
 252 0014 40000000 		.word	.LC5
 253 0018 44000000 		.word	.LC6
 254 001c 48000000 		.word	.LC7
 255              		.section	.rodata.str1.4,"aMS",%progbits,1
 256              		.align	2
 257              	.LC0:
 258 0000 4F4E00   		.ascii	"ON\000"
 259 0003 00       		.space	1
 260              	.LC1:
 261 0004 4F464600 		.ascii	"OFF\000"
 262              	.LC2:
 263 0008 42523A25 		.ascii	"BR:%4ld %d%c%s\000"
 263      346C6420 
 263      25642563 
 263      257300
 264 0017 00       		.space	1
 265              	.LC3:
 266 0018 20202020 		.ascii	"                    \000"
 266      20202020 
 266      20202020 
 266      20202020 
 266      20202020 
 267 002d 000000   		.space	3
 268              	.LC4:
 269 0030 4454523A 		.ascii	"DTR:%s,RTS:%s\000"
 269      25732C52 
 269      54533A25 
 269      7300
 270 003e 0000     		.space	2
 271              	.LC5:
ARM GAS  C:\Users\locurtoj\AppData\Local\Temp\ccchhJlE.s 			page 9


 272 0040 3100     		.ascii	"1\000"
 273 0042 0000     		.space	2
 274              	.LC6:
 275 0044 312E3500 		.ascii	"1.5\000"
 276              	.LC7:
 277 0048 3200     		.ascii	"2\000"
 278 004a 0000     		.space	2
 279              	.LC8:
 280 004c 4E6F6E65 		.ascii	"None\000"
 280      00
 281 0051 000000   		.space	3
 282              	.LC9:
 283 0054 4F646400 		.ascii	"Odd\000"
 284              	.LC10:
 285 0058 4576656E 		.ascii	"Even\000"
 285      00
 286 005d 000000   		.space	3
 287              	.LC11:
 288 0060 4D61726B 		.ascii	"Mark\000"
 288      00
 289 0065 000000   		.space	3
 290              	.LC12:
 291 0068 53706163 		.ascii	"Space\000"
 291      6500
 292              		.text
 293              	.Letext0:
 294              		.file 2 "c:\\program files (x86)\\cypress\\psoc creator\\4.1\\psoc creator\\import\\gnu\\arm\\5.4.
 295              		.file 3 "c:\\program files (x86)\\cypress\\psoc creator\\4.1\\psoc creator\\import\\gnu\\arm\\5.4.
 296              		.file 4 "Generated_Source\\PSoC5/cytypes.h"
 297              		.file 5 "Generated_Source\\PSoC5/core_cm3.h"
 298              		.file 6 "Generated_Source\\PSoC5/LCD.h"
 299              		.file 7 "Generated_Source\\PSoC5/USBUART.h"
 300              		.file 8 "Generated_Source\\PSoC5/USBUART_cdc.h"
 301              		.file 9 "c:\\program files (x86)\\cypress\\psoc creator\\4.1\\psoc creator\\import\\gnu\\arm\\5.4.
