ARM GAS  C:\Users\locurtoj\AppData\Local\Temp\ccxinz00.s 			page 1


   1              		.syntax unified
   2              		.cpu cortex-m3
   3              		.fpu softvfp
   4              		.eabi_attribute 20, 1
   5              		.eabi_attribute 21, 1
   6              		.eabi_attribute 23, 3
   7              		.eabi_attribute 24, 1
   8              		.eabi_attribute 25, 1
   9              		.eabi_attribute 26, 1
  10              		.eabi_attribute 30, 1
  11              		.eabi_attribute 34, 1
  12              		.eabi_attribute 18, 4
  13              		.thumb
  14              		.syntax unified
  15              		.file	"USBUART_drv.c"
  16              		.text
  17              	.Ltext0:
  18              		.cfi_sections	.debug_frame
  19              		.section	.text.USBUART_LoadEP0,"ax",%progbits
  20              		.align	2
  21              		.global	USBUART_LoadEP0
  22              		.thumb
  23              		.thumb_func
  24              		.type	USBUART_LoadEP0, %function
  25              	USBUART_LoadEP0:
  26              	.LFB4:
  27              		.file 1 "Generated_Source\\PSoC5\\USBUART_drv.c"
   1:Generated_Source\PSoC5/USBUART_drv.c **** /***************************************************************************//**
   2:Generated_Source\PSoC5/USBUART_drv.c **** * \file USBUART_drv.c
   3:Generated_Source\PSoC5/USBUART_drv.c **** * \version 3.10
   4:Generated_Source\PSoC5/USBUART_drv.c **** *
   5:Generated_Source\PSoC5/USBUART_drv.c **** * \brief
   6:Generated_Source\PSoC5/USBUART_drv.c **** *  This file contains the Endpoint 0 Driver for the USBFS Component.  
   7:Generated_Source\PSoC5/USBUART_drv.c **** *
   8:Generated_Source\PSoC5/USBUART_drv.c **** ********************************************************************************
   9:Generated_Source\PSoC5/USBUART_drv.c **** * \copyright
  10:Generated_Source\PSoC5/USBUART_drv.c **** * Copyright 2008-2016, Cypress Semiconductor Corporation.  All rights reserved.
  11:Generated_Source\PSoC5/USBUART_drv.c **** * You may use this file only in accordance with the license, terms, conditions,
  12:Generated_Source\PSoC5/USBUART_drv.c **** * disclaimers, and limitations in the end user license agreement accompanying
  13:Generated_Source\PSoC5/USBUART_drv.c **** * the software package with which this file was provided.
  14:Generated_Source\PSoC5/USBUART_drv.c **** *******************************************************************************/
  15:Generated_Source\PSoC5/USBUART_drv.c **** 
  16:Generated_Source\PSoC5/USBUART_drv.c **** #include "USBUART_pvt.h"
  17:Generated_Source\PSoC5/USBUART_drv.c **** #include "cyapicallbacks.h"
  18:Generated_Source\PSoC5/USBUART_drv.c **** 
  19:Generated_Source\PSoC5/USBUART_drv.c **** 
  20:Generated_Source\PSoC5/USBUART_drv.c **** /***************************************
  21:Generated_Source\PSoC5/USBUART_drv.c **** * Global data allocation
  22:Generated_Source\PSoC5/USBUART_drv.c **** ***************************************/
  23:Generated_Source\PSoC5/USBUART_drv.c **** 
  24:Generated_Source\PSoC5/USBUART_drv.c **** volatile T_USBUART_EP_CTL_BLOCK USBUART_EP[USBUART_MAX_EP];
  25:Generated_Source\PSoC5/USBUART_drv.c **** 
  26:Generated_Source\PSoC5/USBUART_drv.c **** /** Contains the current configuration number, which is set by the host using a 
  27:Generated_Source\PSoC5/USBUART_drv.c ****  * SET_CONFIGURATION request. This variable is initialized to zero in 
  28:Generated_Source\PSoC5/USBUART_drv.c ****  * USBFS_InitComponent() API and can be read by the USBFS_GetConfiguration() 
  29:Generated_Source\PSoC5/USBUART_drv.c ****  * API.*/
  30:Generated_Source\PSoC5/USBUART_drv.c **** volatile uint8 USBUART_configuration;
ARM GAS  C:\Users\locurtoj\AppData\Local\Temp\ccxinz00.s 			page 2


  31:Generated_Source\PSoC5/USBUART_drv.c **** 
  32:Generated_Source\PSoC5/USBUART_drv.c **** /** Contains the current interface number.*/
  33:Generated_Source\PSoC5/USBUART_drv.c **** volatile uint8 USBUART_interfaceNumber;
  34:Generated_Source\PSoC5/USBUART_drv.c **** 
  35:Generated_Source\PSoC5/USBUART_drv.c **** /** This variable is set to one after SET_CONFIGURATION and SET_INTERFACE 
  36:Generated_Source\PSoC5/USBUART_drv.c ****  *requests. It can be read by the USBFS_IsConfigurationChanged() API */
  37:Generated_Source\PSoC5/USBUART_drv.c **** volatile uint8 USBUART_configurationChanged;
  38:Generated_Source\PSoC5/USBUART_drv.c **** 
  39:Generated_Source\PSoC5/USBUART_drv.c **** /** Contains the current device address.*/
  40:Generated_Source\PSoC5/USBUART_drv.c **** volatile uint8 USBUART_deviceAddress;
  41:Generated_Source\PSoC5/USBUART_drv.c **** 
  42:Generated_Source\PSoC5/USBUART_drv.c **** /** This is a two-bit variable that contains power status in the bit 0 
  43:Generated_Source\PSoC5/USBUART_drv.c ****  * (DEVICE_STATUS_BUS_POWERED or DEVICE_STATUS_SELF_POWERED) and remote wakeup 
  44:Generated_Source\PSoC5/USBUART_drv.c ****  * status (DEVICE_STATUS_REMOTE_WAKEUP) in the bit 1. This variable is 
  45:Generated_Source\PSoC5/USBUART_drv.c ****  * initialized to zero in USBFS_InitComponent() API, configured by the 
  46:Generated_Source\PSoC5/USBUART_drv.c ****  * USBFS_SetPowerStatus() API. The remote wakeup status cannot be set using the 
  47:Generated_Source\PSoC5/USBUART_drv.c ****  * API SetPowerStatus(). */
  48:Generated_Source\PSoC5/USBUART_drv.c **** volatile uint8 USBUART_deviceStatus;
  49:Generated_Source\PSoC5/USBUART_drv.c **** 
  50:Generated_Source\PSoC5/USBUART_drv.c **** volatile uint8 USBUART_interfaceSetting[USBUART_MAX_INTERFACES_NUMBER];
  51:Generated_Source\PSoC5/USBUART_drv.c **** volatile uint8 USBUART_interfaceSetting_last[USBUART_MAX_INTERFACES_NUMBER];
  52:Generated_Source\PSoC5/USBUART_drv.c **** volatile uint8 USBUART_interfaceStatus[USBUART_MAX_INTERFACES_NUMBER];
  53:Generated_Source\PSoC5/USBUART_drv.c **** 
  54:Generated_Source\PSoC5/USBUART_drv.c **** /** Contains the started device number. This variable is set by the 
  55:Generated_Source\PSoC5/USBUART_drv.c ****  * USBFS_Start() or USBFS_InitComponent() APIs.*/
  56:Generated_Source\PSoC5/USBUART_drv.c **** volatile uint8 USBUART_device;
  57:Generated_Source\PSoC5/USBUART_drv.c **** 
  58:Generated_Source\PSoC5/USBUART_drv.c **** /** Initialized class array for each interface. It is used for handling Class 
  59:Generated_Source\PSoC5/USBUART_drv.c ****  * specific requests depend on interface class. Different classes in multiple 
  60:Generated_Source\PSoC5/USBUART_drv.c ****  * alternate settings are not supported.*/
  61:Generated_Source\PSoC5/USBUART_drv.c **** const uint8 CYCODE *USBUART_interfaceClass;
  62:Generated_Source\PSoC5/USBUART_drv.c **** 
  63:Generated_Source\PSoC5/USBUART_drv.c **** 
  64:Generated_Source\PSoC5/USBUART_drv.c **** /***************************************
  65:Generated_Source\PSoC5/USBUART_drv.c **** * Local data allocation
  66:Generated_Source\PSoC5/USBUART_drv.c **** ***************************************/
  67:Generated_Source\PSoC5/USBUART_drv.c **** 
  68:Generated_Source\PSoC5/USBUART_drv.c **** volatile uint8  USBUART_ep0Toggle;
  69:Generated_Source\PSoC5/USBUART_drv.c **** volatile uint8  USBUART_lastPacketSize;
  70:Generated_Source\PSoC5/USBUART_drv.c **** 
  71:Generated_Source\PSoC5/USBUART_drv.c **** /** This variable is used by the communication functions to handle the current 
  72:Generated_Source\PSoC5/USBUART_drv.c **** * transfer state.
  73:Generated_Source\PSoC5/USBUART_drv.c **** * Initialized to TRANS_STATE_IDLE in the USBFS_InitComponent() API and after a 
  74:Generated_Source\PSoC5/USBUART_drv.c **** * complete transfer in the status stage.
  75:Generated_Source\PSoC5/USBUART_drv.c **** * Changed to the TRANS_STATE_CONTROL_READ or TRANS_STATE_CONTROL_WRITE in setup 
  76:Generated_Source\PSoC5/USBUART_drv.c **** * transaction depending on the request type.
  77:Generated_Source\PSoC5/USBUART_drv.c **** */
  78:Generated_Source\PSoC5/USBUART_drv.c **** volatile uint8  USBUART_transferState;
  79:Generated_Source\PSoC5/USBUART_drv.c **** volatile T_USBUART_TD USBUART_currentTD;
  80:Generated_Source\PSoC5/USBUART_drv.c **** volatile uint8  USBUART_ep0Mode;
  81:Generated_Source\PSoC5/USBUART_drv.c **** volatile uint8  USBUART_ep0Count;
  82:Generated_Source\PSoC5/USBUART_drv.c **** volatile uint16 USBUART_transferByteCount;
  83:Generated_Source\PSoC5/USBUART_drv.c **** 
  84:Generated_Source\PSoC5/USBUART_drv.c **** 
  85:Generated_Source\PSoC5/USBUART_drv.c **** /*******************************************************************************
  86:Generated_Source\PSoC5/USBUART_drv.c **** * Function Name: USBUART_ep_0_Interrupt
  87:Generated_Source\PSoC5/USBUART_drv.c **** ****************************************************************************//**
ARM GAS  C:\Users\locurtoj\AppData\Local\Temp\ccxinz00.s 			page 3


  88:Generated_Source\PSoC5/USBUART_drv.c **** *
  89:Generated_Source\PSoC5/USBUART_drv.c **** *  This Interrupt Service Routine handles Endpoint 0 (Control Pipe) traffic.
  90:Generated_Source\PSoC5/USBUART_drv.c **** *  It dispatches setup requests and handles the data and status stages.
  91:Generated_Source\PSoC5/USBUART_drv.c **** *
  92:Generated_Source\PSoC5/USBUART_drv.c **** *
  93:Generated_Source\PSoC5/USBUART_drv.c **** *******************************************************************************/
  94:Generated_Source\PSoC5/USBUART_drv.c **** CY_ISR(USBUART_EP_0_ISR)
  95:Generated_Source\PSoC5/USBUART_drv.c **** {
  96:Generated_Source\PSoC5/USBUART_drv.c ****     uint8 tempReg;
  97:Generated_Source\PSoC5/USBUART_drv.c ****     uint8 modifyReg;
  98:Generated_Source\PSoC5/USBUART_drv.c **** 
  99:Generated_Source\PSoC5/USBUART_drv.c **** #ifdef USBUART_EP_0_ISR_ENTRY_CALLBACK
 100:Generated_Source\PSoC5/USBUART_drv.c ****     USBUART_EP_0_ISR_EntryCallback();
 101:Generated_Source\PSoC5/USBUART_drv.c **** #endif /* (USBUART_EP_0_ISR_ENTRY_CALLBACK) */
 102:Generated_Source\PSoC5/USBUART_drv.c ****     
 103:Generated_Source\PSoC5/USBUART_drv.c ****     tempReg = USBUART_EP0_CR_REG;
 104:Generated_Source\PSoC5/USBUART_drv.c ****     if ((tempReg & USBUART_MODE_ACKD) != 0u)
 105:Generated_Source\PSoC5/USBUART_drv.c ****     {
 106:Generated_Source\PSoC5/USBUART_drv.c ****         modifyReg = 1u;
 107:Generated_Source\PSoC5/USBUART_drv.c ****         if ((tempReg & USBUART_MODE_SETUP_RCVD) != 0u)
 108:Generated_Source\PSoC5/USBUART_drv.c ****         {
 109:Generated_Source\PSoC5/USBUART_drv.c ****             if ((tempReg & USBUART_MODE_MASK) != USBUART_MODE_NAK_IN_OUT)
 110:Generated_Source\PSoC5/USBUART_drv.c ****             {
 111:Generated_Source\PSoC5/USBUART_drv.c ****                 /* Mode not equal to NAK_IN_OUT: invalid setup */
 112:Generated_Source\PSoC5/USBUART_drv.c ****                 modifyReg = 0u;
 113:Generated_Source\PSoC5/USBUART_drv.c ****             }
 114:Generated_Source\PSoC5/USBUART_drv.c ****             else
 115:Generated_Source\PSoC5/USBUART_drv.c ****             {
 116:Generated_Source\PSoC5/USBUART_drv.c ****                 USBUART_HandleSetup();
 117:Generated_Source\PSoC5/USBUART_drv.c ****                 
 118:Generated_Source\PSoC5/USBUART_drv.c ****                 if ((USBUART_ep0Mode & USBUART_MODE_SETUP_RCVD) != 0u)
 119:Generated_Source\PSoC5/USBUART_drv.c ****                 {
 120:Generated_Source\PSoC5/USBUART_drv.c ****                     /* SETUP bit set: exit without mode modificaiton */
 121:Generated_Source\PSoC5/USBUART_drv.c ****                     modifyReg = 0u;
 122:Generated_Source\PSoC5/USBUART_drv.c ****                 }
 123:Generated_Source\PSoC5/USBUART_drv.c ****             }
 124:Generated_Source\PSoC5/USBUART_drv.c ****         }
 125:Generated_Source\PSoC5/USBUART_drv.c ****         else if ((tempReg & USBUART_MODE_IN_RCVD) != 0u)
 126:Generated_Source\PSoC5/USBUART_drv.c ****         {
 127:Generated_Source\PSoC5/USBUART_drv.c ****             USBUART_HandleIN();
 128:Generated_Source\PSoC5/USBUART_drv.c ****         }
 129:Generated_Source\PSoC5/USBUART_drv.c ****         else if ((tempReg & USBUART_MODE_OUT_RCVD) != 0u)
 130:Generated_Source\PSoC5/USBUART_drv.c ****         {
 131:Generated_Source\PSoC5/USBUART_drv.c ****             USBUART_HandleOUT();
 132:Generated_Source\PSoC5/USBUART_drv.c ****         }
 133:Generated_Source\PSoC5/USBUART_drv.c ****         else
 134:Generated_Source\PSoC5/USBUART_drv.c ****         {
 135:Generated_Source\PSoC5/USBUART_drv.c ****             modifyReg = 0u;
 136:Generated_Source\PSoC5/USBUART_drv.c ****         }
 137:Generated_Source\PSoC5/USBUART_drv.c ****         
 138:Generated_Source\PSoC5/USBUART_drv.c ****         /* Modify the EP0_CR register */
 139:Generated_Source\PSoC5/USBUART_drv.c ****         if (modifyReg != 0u)
 140:Generated_Source\PSoC5/USBUART_drv.c ****         {
 141:Generated_Source\PSoC5/USBUART_drv.c ****             
 142:Generated_Source\PSoC5/USBUART_drv.c ****             tempReg = USBUART_EP0_CR_REG;
 143:Generated_Source\PSoC5/USBUART_drv.c ****             
 144:Generated_Source\PSoC5/USBUART_drv.c ****             /* Make sure that SETUP bit is cleared before modification */
ARM GAS  C:\Users\locurtoj\AppData\Local\Temp\ccxinz00.s 			page 4


 145:Generated_Source\PSoC5/USBUART_drv.c ****             if ((tempReg & USBUART_MODE_SETUP_RCVD) == 0u)
 146:Generated_Source\PSoC5/USBUART_drv.c ****             {
 147:Generated_Source\PSoC5/USBUART_drv.c ****                 /* Update count register */
 148:Generated_Source\PSoC5/USBUART_drv.c ****                 tempReg = (uint8) USBUART_ep0Toggle | USBUART_ep0Count;
 149:Generated_Source\PSoC5/USBUART_drv.c ****                 USBUART_EP0_CNT_REG = tempReg;
 150:Generated_Source\PSoC5/USBUART_drv.c ****                
 151:Generated_Source\PSoC5/USBUART_drv.c ****                 /* Make sure that previous write operaiton was successful */
 152:Generated_Source\PSoC5/USBUART_drv.c ****                 if (tempReg == USBUART_EP0_CNT_REG)
 153:Generated_Source\PSoC5/USBUART_drv.c ****                 {
 154:Generated_Source\PSoC5/USBUART_drv.c ****                     /* Repeat until next successful write operation */
 155:Generated_Source\PSoC5/USBUART_drv.c ****                     do
 156:Generated_Source\PSoC5/USBUART_drv.c ****                     {
 157:Generated_Source\PSoC5/USBUART_drv.c ****                         /* Init temporary variable */
 158:Generated_Source\PSoC5/USBUART_drv.c ****                         modifyReg = USBUART_ep0Mode;
 159:Generated_Source\PSoC5/USBUART_drv.c ****                         
 160:Generated_Source\PSoC5/USBUART_drv.c ****                         /* Unlock register */
 161:Generated_Source\PSoC5/USBUART_drv.c ****                         tempReg = (uint8) (USBUART_EP0_CR_REG & USBUART_MODE_SETUP_RCVD);
 162:Generated_Source\PSoC5/USBUART_drv.c ****                         
 163:Generated_Source\PSoC5/USBUART_drv.c ****                         /* Check if SETUP bit is not set */
 164:Generated_Source\PSoC5/USBUART_drv.c ****                         if (0u == tempReg)
 165:Generated_Source\PSoC5/USBUART_drv.c ****                         {
 166:Generated_Source\PSoC5/USBUART_drv.c ****                             /* Set the Mode Register  */
 167:Generated_Source\PSoC5/USBUART_drv.c ****                             USBUART_EP0_CR_REG = USBUART_ep0Mode;
 168:Generated_Source\PSoC5/USBUART_drv.c ****                             
 169:Generated_Source\PSoC5/USBUART_drv.c ****                             /* Writing check */
 170:Generated_Source\PSoC5/USBUART_drv.c ****                             modifyReg = USBUART_EP0_CR_REG & USBUART_MODE_MASK;
 171:Generated_Source\PSoC5/USBUART_drv.c ****                         }
 172:Generated_Source\PSoC5/USBUART_drv.c ****                     }
 173:Generated_Source\PSoC5/USBUART_drv.c ****                     while (modifyReg != USBUART_ep0Mode);
 174:Generated_Source\PSoC5/USBUART_drv.c ****                 }
 175:Generated_Source\PSoC5/USBUART_drv.c ****             }
 176:Generated_Source\PSoC5/USBUART_drv.c ****         }
 177:Generated_Source\PSoC5/USBUART_drv.c ****     }
 178:Generated_Source\PSoC5/USBUART_drv.c **** 
 179:Generated_Source\PSoC5/USBUART_drv.c ****     USBUART_ClearSieInterruptSource(USBUART_INTR_SIE_EP0_INTR);
 180:Generated_Source\PSoC5/USBUART_drv.c **** 	
 181:Generated_Source\PSoC5/USBUART_drv.c **** #ifdef USBUART_EP_0_ISR_EXIT_CALLBACK
 182:Generated_Source\PSoC5/USBUART_drv.c ****     USBUART_EP_0_ISR_ExitCallback();
 183:Generated_Source\PSoC5/USBUART_drv.c **** #endif /* (USBUART_EP_0_ISR_EXIT_CALLBACK) */
 184:Generated_Source\PSoC5/USBUART_drv.c **** }
 185:Generated_Source\PSoC5/USBUART_drv.c **** 
 186:Generated_Source\PSoC5/USBUART_drv.c **** 
 187:Generated_Source\PSoC5/USBUART_drv.c **** /*******************************************************************************
 188:Generated_Source\PSoC5/USBUART_drv.c **** * Function Name: USBUART_HandleSetup
 189:Generated_Source\PSoC5/USBUART_drv.c **** ****************************************************************************//**
 190:Generated_Source\PSoC5/USBUART_drv.c **** *
 191:Generated_Source\PSoC5/USBUART_drv.c **** *  This Routine dispatches requests for the four USB request types
 192:Generated_Source\PSoC5/USBUART_drv.c **** *
 193:Generated_Source\PSoC5/USBUART_drv.c **** *
 194:Generated_Source\PSoC5/USBUART_drv.c **** * \reentrant
 195:Generated_Source\PSoC5/USBUART_drv.c **** *  No.
 196:Generated_Source\PSoC5/USBUART_drv.c **** *
 197:Generated_Source\PSoC5/USBUART_drv.c **** *******************************************************************************/
 198:Generated_Source\PSoC5/USBUART_drv.c **** void USBUART_HandleSetup(void) 
 199:Generated_Source\PSoC5/USBUART_drv.c **** {
 200:Generated_Source\PSoC5/USBUART_drv.c ****     uint8 requestHandled;
 201:Generated_Source\PSoC5/USBUART_drv.c ****     
ARM GAS  C:\Users\locurtoj\AppData\Local\Temp\ccxinz00.s 			page 5


 202:Generated_Source\PSoC5/USBUART_drv.c ****     /* Clear register lock by SIE (read register) and clear setup bit 
 203:Generated_Source\PSoC5/USBUART_drv.c ****     * (write any value in register).
 204:Generated_Source\PSoC5/USBUART_drv.c ****     */
 205:Generated_Source\PSoC5/USBUART_drv.c ****     requestHandled = (uint8) USBUART_EP0_CR_REG;
 206:Generated_Source\PSoC5/USBUART_drv.c ****     USBUART_EP0_CR_REG = (uint8) requestHandled;
 207:Generated_Source\PSoC5/USBUART_drv.c ****     requestHandled = (uint8) USBUART_EP0_CR_REG;
 208:Generated_Source\PSoC5/USBUART_drv.c **** 
 209:Generated_Source\PSoC5/USBUART_drv.c ****     if ((requestHandled & USBUART_MODE_SETUP_RCVD) != 0u)
 210:Generated_Source\PSoC5/USBUART_drv.c ****     {
 211:Generated_Source\PSoC5/USBUART_drv.c ****         /* SETUP bit is set: exit without mode modification. */
 212:Generated_Source\PSoC5/USBUART_drv.c ****         USBUART_ep0Mode = requestHandled;
 213:Generated_Source\PSoC5/USBUART_drv.c ****     }
 214:Generated_Source\PSoC5/USBUART_drv.c ****     else
 215:Generated_Source\PSoC5/USBUART_drv.c ****     {
 216:Generated_Source\PSoC5/USBUART_drv.c ****         /* In case the previous transfer did not complete, close it out */
 217:Generated_Source\PSoC5/USBUART_drv.c ****         USBUART_UpdateStatusBlock(USBUART_XFER_PREMATURE);
 218:Generated_Source\PSoC5/USBUART_drv.c **** 
 219:Generated_Source\PSoC5/USBUART_drv.c ****         /* Check request type. */
 220:Generated_Source\PSoC5/USBUART_drv.c ****         switch (USBUART_bmRequestTypeReg & USBUART_RQST_TYPE_MASK)
 221:Generated_Source\PSoC5/USBUART_drv.c ****         {
 222:Generated_Source\PSoC5/USBUART_drv.c ****             case USBUART_RQST_TYPE_STD:
 223:Generated_Source\PSoC5/USBUART_drv.c ****                 requestHandled = USBUART_HandleStandardRqst();
 224:Generated_Source\PSoC5/USBUART_drv.c ****                 break;
 225:Generated_Source\PSoC5/USBUART_drv.c ****                 
 226:Generated_Source\PSoC5/USBUART_drv.c ****             case USBUART_RQST_TYPE_CLS:
 227:Generated_Source\PSoC5/USBUART_drv.c ****                 requestHandled = USBUART_DispatchClassRqst();
 228:Generated_Source\PSoC5/USBUART_drv.c ****                 break;
 229:Generated_Source\PSoC5/USBUART_drv.c ****                 
 230:Generated_Source\PSoC5/USBUART_drv.c ****             case USBUART_RQST_TYPE_VND:
 231:Generated_Source\PSoC5/USBUART_drv.c ****                 requestHandled = USBUART_HandleVendorRqst();
 232:Generated_Source\PSoC5/USBUART_drv.c ****                 break;
 233:Generated_Source\PSoC5/USBUART_drv.c ****                 
 234:Generated_Source\PSoC5/USBUART_drv.c ****             default:
 235:Generated_Source\PSoC5/USBUART_drv.c ****                 requestHandled = USBUART_FALSE;
 236:Generated_Source\PSoC5/USBUART_drv.c ****                 break;
 237:Generated_Source\PSoC5/USBUART_drv.c ****         }
 238:Generated_Source\PSoC5/USBUART_drv.c ****         
 239:Generated_Source\PSoC5/USBUART_drv.c ****         /* If request is not recognized. Stall endpoint 0 IN and OUT. */
 240:Generated_Source\PSoC5/USBUART_drv.c ****         if (requestHandled == USBUART_FALSE)
 241:Generated_Source\PSoC5/USBUART_drv.c ****         {
 242:Generated_Source\PSoC5/USBUART_drv.c ****             USBUART_ep0Mode = USBUART_MODE_STALL_IN_OUT;
 243:Generated_Source\PSoC5/USBUART_drv.c ****         }
 244:Generated_Source\PSoC5/USBUART_drv.c ****     }
 245:Generated_Source\PSoC5/USBUART_drv.c **** }
 246:Generated_Source\PSoC5/USBUART_drv.c **** 
 247:Generated_Source\PSoC5/USBUART_drv.c **** 
 248:Generated_Source\PSoC5/USBUART_drv.c **** /*******************************************************************************
 249:Generated_Source\PSoC5/USBUART_drv.c **** * Function Name: USBUART_HandleIN
 250:Generated_Source\PSoC5/USBUART_drv.c **** ****************************************************************************//**
 251:Generated_Source\PSoC5/USBUART_drv.c **** *
 252:Generated_Source\PSoC5/USBUART_drv.c **** *  This routine handles EP0 IN transfers.
 253:Generated_Source\PSoC5/USBUART_drv.c **** *
 254:Generated_Source\PSoC5/USBUART_drv.c **** *
 255:Generated_Source\PSoC5/USBUART_drv.c **** * \reentrant
 256:Generated_Source\PSoC5/USBUART_drv.c **** *  No.
 257:Generated_Source\PSoC5/USBUART_drv.c **** *
 258:Generated_Source\PSoC5/USBUART_drv.c **** *******************************************************************************/
ARM GAS  C:\Users\locurtoj\AppData\Local\Temp\ccxinz00.s 			page 6


 259:Generated_Source\PSoC5/USBUART_drv.c **** void USBUART_HandleIN(void) 
 260:Generated_Source\PSoC5/USBUART_drv.c **** {
 261:Generated_Source\PSoC5/USBUART_drv.c ****     switch (USBUART_transferState)
 262:Generated_Source\PSoC5/USBUART_drv.c ****     {
 263:Generated_Source\PSoC5/USBUART_drv.c ****         case USBUART_TRANS_STATE_IDLE:
 264:Generated_Source\PSoC5/USBUART_drv.c ****             break;
 265:Generated_Source\PSoC5/USBUART_drv.c ****         
 266:Generated_Source\PSoC5/USBUART_drv.c ****         case USBUART_TRANS_STATE_CONTROL_READ:
 267:Generated_Source\PSoC5/USBUART_drv.c ****             USBUART_ControlReadDataStage();
 268:Generated_Source\PSoC5/USBUART_drv.c ****             break;
 269:Generated_Source\PSoC5/USBUART_drv.c ****             
 270:Generated_Source\PSoC5/USBUART_drv.c ****         case USBUART_TRANS_STATE_CONTROL_WRITE:
 271:Generated_Source\PSoC5/USBUART_drv.c ****             USBUART_ControlWriteStatusStage();
 272:Generated_Source\PSoC5/USBUART_drv.c ****             break;
 273:Generated_Source\PSoC5/USBUART_drv.c ****             
 274:Generated_Source\PSoC5/USBUART_drv.c ****         case USBUART_TRANS_STATE_NO_DATA_CONTROL:
 275:Generated_Source\PSoC5/USBUART_drv.c ****             USBUART_NoDataControlStatusStage();
 276:Generated_Source\PSoC5/USBUART_drv.c ****             break;
 277:Generated_Source\PSoC5/USBUART_drv.c ****             
 278:Generated_Source\PSoC5/USBUART_drv.c ****         default:    /* there are no more states */
 279:Generated_Source\PSoC5/USBUART_drv.c ****             break;
 280:Generated_Source\PSoC5/USBUART_drv.c ****     }
 281:Generated_Source\PSoC5/USBUART_drv.c **** }
 282:Generated_Source\PSoC5/USBUART_drv.c **** 
 283:Generated_Source\PSoC5/USBUART_drv.c **** 
 284:Generated_Source\PSoC5/USBUART_drv.c **** /*******************************************************************************
 285:Generated_Source\PSoC5/USBUART_drv.c **** * Function Name: USBUART_HandleOUT
 286:Generated_Source\PSoC5/USBUART_drv.c **** ****************************************************************************//**
 287:Generated_Source\PSoC5/USBUART_drv.c **** *
 288:Generated_Source\PSoC5/USBUART_drv.c **** *  This routine handles EP0 OUT transfers.
 289:Generated_Source\PSoC5/USBUART_drv.c **** *
 290:Generated_Source\PSoC5/USBUART_drv.c **** *
 291:Generated_Source\PSoC5/USBUART_drv.c **** * \reentrant
 292:Generated_Source\PSoC5/USBUART_drv.c **** *  No.
 293:Generated_Source\PSoC5/USBUART_drv.c **** *
 294:Generated_Source\PSoC5/USBUART_drv.c **** *******************************************************************************/
 295:Generated_Source\PSoC5/USBUART_drv.c **** void USBUART_HandleOUT(void) 
 296:Generated_Source\PSoC5/USBUART_drv.c **** {
 297:Generated_Source\PSoC5/USBUART_drv.c ****     switch (USBUART_transferState)
 298:Generated_Source\PSoC5/USBUART_drv.c ****     {
 299:Generated_Source\PSoC5/USBUART_drv.c ****         case USBUART_TRANS_STATE_IDLE:
 300:Generated_Source\PSoC5/USBUART_drv.c ****             break;
 301:Generated_Source\PSoC5/USBUART_drv.c ****         
 302:Generated_Source\PSoC5/USBUART_drv.c ****         case USBUART_TRANS_STATE_CONTROL_READ:
 303:Generated_Source\PSoC5/USBUART_drv.c ****             USBUART_ControlReadStatusStage();
 304:Generated_Source\PSoC5/USBUART_drv.c ****             break;
 305:Generated_Source\PSoC5/USBUART_drv.c ****             
 306:Generated_Source\PSoC5/USBUART_drv.c ****         case USBUART_TRANS_STATE_CONTROL_WRITE:
 307:Generated_Source\PSoC5/USBUART_drv.c ****             USBUART_ControlWriteDataStage();
 308:Generated_Source\PSoC5/USBUART_drv.c ****             break;
 309:Generated_Source\PSoC5/USBUART_drv.c ****             
 310:Generated_Source\PSoC5/USBUART_drv.c ****         case USBUART_TRANS_STATE_NO_DATA_CONTROL:
 311:Generated_Source\PSoC5/USBUART_drv.c ****             /* Update the completion block */
 312:Generated_Source\PSoC5/USBUART_drv.c ****             USBUART_UpdateStatusBlock(USBUART_XFER_ERROR);
 313:Generated_Source\PSoC5/USBUART_drv.c ****             
 314:Generated_Source\PSoC5/USBUART_drv.c ****             /* We expect no more data, so stall INs and OUTs */
 315:Generated_Source\PSoC5/USBUART_drv.c ****             USBUART_ep0Mode = USBUART_MODE_STALL_IN_OUT;
ARM GAS  C:\Users\locurtoj\AppData\Local\Temp\ccxinz00.s 			page 7


 316:Generated_Source\PSoC5/USBUART_drv.c ****             break;
 317:Generated_Source\PSoC5/USBUART_drv.c ****             
 318:Generated_Source\PSoC5/USBUART_drv.c ****         default:    
 319:Generated_Source\PSoC5/USBUART_drv.c ****             /* There are no more states */
 320:Generated_Source\PSoC5/USBUART_drv.c ****             break;
 321:Generated_Source\PSoC5/USBUART_drv.c ****     }
 322:Generated_Source\PSoC5/USBUART_drv.c **** }
 323:Generated_Source\PSoC5/USBUART_drv.c **** 
 324:Generated_Source\PSoC5/USBUART_drv.c **** 
 325:Generated_Source\PSoC5/USBUART_drv.c **** /*******************************************************************************
 326:Generated_Source\PSoC5/USBUART_drv.c **** * Function Name: USBUART_LoadEP0
 327:Generated_Source\PSoC5/USBUART_drv.c **** ****************************************************************************//**
 328:Generated_Source\PSoC5/USBUART_drv.c **** *
 329:Generated_Source\PSoC5/USBUART_drv.c **** *  This routine loads the EP0 data registers for OUT transfers. It uses the
 330:Generated_Source\PSoC5/USBUART_drv.c **** *  currentTD (previously initialized by the _InitControlWrite function and
 331:Generated_Source\PSoC5/USBUART_drv.c **** *  updated for each OUT transfer, and the bLastPacketSize) to determine how
 332:Generated_Source\PSoC5/USBUART_drv.c **** *  many uint8s to transfer on the current OUT.
 333:Generated_Source\PSoC5/USBUART_drv.c **** *
 334:Generated_Source\PSoC5/USBUART_drv.c **** *  If the number of uint8s remaining is zero and the last transfer was full,
 335:Generated_Source\PSoC5/USBUART_drv.c **** *  we need to send a zero length packet.  Otherwise we send the minimum
 336:Generated_Source\PSoC5/USBUART_drv.c **** *  of the control endpoint size (8) or remaining number of uint8s for the
 337:Generated_Source\PSoC5/USBUART_drv.c **** *  transaction.
 338:Generated_Source\PSoC5/USBUART_drv.c **** *
 339:Generated_Source\PSoC5/USBUART_drv.c **** *
 340:Generated_Source\PSoC5/USBUART_drv.c **** * \globalvars
 341:Generated_Source\PSoC5/USBUART_drv.c **** *  USBUART_transferByteCount - Update the transfer byte count from the
 342:Generated_Source\PSoC5/USBUART_drv.c **** *     last transaction.
 343:Generated_Source\PSoC5/USBUART_drv.c **** *  USBUART_ep0Count - counts the data loaded to the SIE memory in
 344:Generated_Source\PSoC5/USBUART_drv.c **** *     current packet.
 345:Generated_Source\PSoC5/USBUART_drv.c **** *  USBUART_lastPacketSize - remembers the USBFS_ep0Count value for the
 346:Generated_Source\PSoC5/USBUART_drv.c **** *     next packet.
 347:Generated_Source\PSoC5/USBUART_drv.c **** *  USBUART_transferByteCount - sum of the previous bytes transferred
 348:Generated_Source\PSoC5/USBUART_drv.c **** *     on previous packets(sum of USBFS_lastPacketSize)
 349:Generated_Source\PSoC5/USBUART_drv.c **** *  USBUART_ep0Toggle - inverted
 350:Generated_Source\PSoC5/USBUART_drv.c **** *  USBUART_ep0Mode  - prepare for mode register content.
 351:Generated_Source\PSoC5/USBUART_drv.c **** *  USBUART_transferState - set to TRANS_STATE_CONTROL_READ
 352:Generated_Source\PSoC5/USBUART_drv.c **** *
 353:Generated_Source\PSoC5/USBUART_drv.c **** * \reentrant
 354:Generated_Source\PSoC5/USBUART_drv.c **** *  No.
 355:Generated_Source\PSoC5/USBUART_drv.c **** *
 356:Generated_Source\PSoC5/USBUART_drv.c **** *******************************************************************************/
 357:Generated_Source\PSoC5/USBUART_drv.c **** void USBUART_LoadEP0(void) 
 358:Generated_Source\PSoC5/USBUART_drv.c **** {
  28              		.loc 1 358 0
  29              		.cfi_startproc
  30              		@ args = 0, pretend = 0, frame = 0
  31              		@ frame_needed = 0, uses_anonymous_args = 0
  32              		@ link register save eliminated.
  33              	.LVL0:
 359:Generated_Source\PSoC5/USBUART_drv.c ****     uint8 ep0Count = 0u;
 360:Generated_Source\PSoC5/USBUART_drv.c **** 
 361:Generated_Source\PSoC5/USBUART_drv.c ****     /* Update the transfer byte count from the last transaction */
 362:Generated_Source\PSoC5/USBUART_drv.c ****     USBUART_transferByteCount += USBUART_lastPacketSize;
  34              		.loc 1 362 0
  35 0000 1D4B     		ldr	r3, .L8
  36 0002 1978     		ldrb	r1, [r3]	@ zero_extendqisi2
  37 0004 1D4A     		ldr	r2, .L8+4
ARM GAS  C:\Users\locurtoj\AppData\Local\Temp\ccxinz00.s 			page 8


  38 0006 1388     		ldrh	r3, [r2]
  39 0008 9BB2     		uxth	r3, r3
  40 000a 0B44     		add	r3, r3, r1
  41 000c 9BB2     		uxth	r3, r3
  42 000e 1380     		strh	r3, [r2]	@ movhi
 359:Generated_Source\PSoC5/USBUART_drv.c ****     uint8 ep0Count = 0u;
  43              		.loc 1 359 0
  44 0010 0022     		movs	r2, #0
 363:Generated_Source\PSoC5/USBUART_drv.c **** 
 364:Generated_Source\PSoC5/USBUART_drv.c ****     /* Now load the next transaction */
 365:Generated_Source\PSoC5/USBUART_drv.c ****     while ((USBUART_currentTD.count > 0u) && (ep0Count < 8u))
  45              		.loc 1 365 0
  46 0012 0FE0     		b	.L2
  47              	.LVL1:
  48              	.L4:
 366:Generated_Source\PSoC5/USBUART_drv.c ****     {
 367:Generated_Source\PSoC5/USBUART_drv.c ****         USBUART_EP0_DR_BASE.epData[ep0Count] = (uint8) *USBUART_currentTD.pData;
  49              		.loc 1 367 0
  50 0014 1A49     		ldr	r1, .L8+8
  51 0016 4B68     		ldr	r3, [r1, #4]
  52 0018 1B78     		ldrb	r3, [r3]	@ zero_extendqisi2
  53 001a DBB2     		uxtb	r3, r3
  54 001c 1948     		ldr	r0, .L8+12
  55 001e 8354     		strb	r3, [r0, r2]
 368:Generated_Source\PSoC5/USBUART_drv.c ****         USBUART_currentTD.pData = &USBUART_currentTD.pData[1u];
  56              		.loc 1 368 0
  57 0020 4B68     		ldr	r3, [r1, #4]
  58 0022 0133     		adds	r3, r3, #1
  59 0024 4B60     		str	r3, [r1, #4]
 369:Generated_Source\PSoC5/USBUART_drv.c ****         ep0Count++;
  60              		.loc 1 369 0
  61 0026 0132     		adds	r2, r2, #1
  62              	.LVL2:
  63 0028 D2B2     		uxtb	r2, r2
  64              	.LVL3:
 370:Generated_Source\PSoC5/USBUART_drv.c ****         USBUART_currentTD.count--;
  65              		.loc 1 370 0
  66 002a 0B88     		ldrh	r3, [r1]
  67 002c 9BB2     		uxth	r3, r3
  68 002e 013B     		subs	r3, r3, #1
  69 0030 9BB2     		uxth	r3, r3
  70 0032 0B80     		strh	r3, [r1]	@ movhi
  71              	.LVL4:
  72              	.L2:
 365:Generated_Source\PSoC5/USBUART_drv.c ****     {
  73              		.loc 1 365 0
  74 0034 124B     		ldr	r3, .L8+8
  75 0036 1B88     		ldrh	r3, [r3]
  76 0038 9BB2     		uxth	r3, r3
  77 003a 0BB1     		cbz	r3, .L3
 365:Generated_Source\PSoC5/USBUART_drv.c ****     {
  78              		.loc 1 365 0 is_stmt 0 discriminator 1
  79 003c 072A     		cmp	r2, #7
  80 003e E9D9     		bls	.L4
  81              	.L3:
 371:Generated_Source\PSoC5/USBUART_drv.c ****     }
 372:Generated_Source\PSoC5/USBUART_drv.c **** 
ARM GAS  C:\Users\locurtoj\AppData\Local\Temp\ccxinz00.s 			page 9


 373:Generated_Source\PSoC5/USBUART_drv.c ****     /* Support zero-length packet */
 374:Generated_Source\PSoC5/USBUART_drv.c ****     if ((USBUART_lastPacketSize == 8u) || (ep0Count > 0u))
  82              		.loc 1 374 0 is_stmt 1
  83 0040 0D4B     		ldr	r3, .L8
  84 0042 1B78     		ldrb	r3, [r3]	@ zero_extendqisi2
  85 0044 DBB2     		uxtb	r3, r3
  86 0046 082B     		cmp	r3, #8
  87 0048 00D0     		beq	.L5
  88              		.loc 1 374 0 is_stmt 0 discriminator 1
  89 004a 5AB1     		cbz	r2, .L6
  90              	.L5:
 375:Generated_Source\PSoC5/USBUART_drv.c ****     {
 376:Generated_Source\PSoC5/USBUART_drv.c ****         /* Update the data toggle */
 377:Generated_Source\PSoC5/USBUART_drv.c ****         USBUART_ep0Toggle ^= USBUART_EP0_CNT_DATA_TOGGLE;
  91              		.loc 1 377 0 is_stmt 1
  92 004c 0E49     		ldr	r1, .L8+16
  93 004e 0B78     		ldrb	r3, [r1]	@ zero_extendqisi2
  94 0050 83F08003 		eor	r3, r3, #128
  95 0054 0B70     		strb	r3, [r1]
 378:Generated_Source\PSoC5/USBUART_drv.c ****         /* Set the Mode Register  */
 379:Generated_Source\PSoC5/USBUART_drv.c ****         USBUART_ep0Mode = USBUART_MODE_ACK_IN_STATUS_OUT;
  96              		.loc 1 379 0
  97 0056 0F21     		movs	r1, #15
  98 0058 0C4B     		ldr	r3, .L8+20
  99 005a 1970     		strb	r1, [r3]
 380:Generated_Source\PSoC5/USBUART_drv.c ****         /* Update the state (or stay the same) */
 381:Generated_Source\PSoC5/USBUART_drv.c ****         USBUART_transferState = USBUART_TRANS_STATE_CONTROL_READ;
 100              		.loc 1 381 0
 101 005c 0221     		movs	r1, #2
 102 005e 0C4B     		ldr	r3, .L8+24
 103 0060 1970     		strb	r1, [r3]
 104 0062 04E0     		b	.L7
 105              	.L6:
 382:Generated_Source\PSoC5/USBUART_drv.c ****     }
 383:Generated_Source\PSoC5/USBUART_drv.c ****     else
 384:Generated_Source\PSoC5/USBUART_drv.c ****     {
 385:Generated_Source\PSoC5/USBUART_drv.c ****         /* Expect Status Stage Out */
 386:Generated_Source\PSoC5/USBUART_drv.c ****         USBUART_ep0Mode = USBUART_MODE_STATUS_OUT_ONLY;
 106              		.loc 1 386 0
 107 0064 0223     		movs	r3, #2
 108 0066 0949     		ldr	r1, .L8+20
 109 0068 0B70     		strb	r3, [r1]
 387:Generated_Source\PSoC5/USBUART_drv.c ****         /* Update the state (or stay the same) */
 388:Generated_Source\PSoC5/USBUART_drv.c ****         USBUART_transferState = USBUART_TRANS_STATE_CONTROL_READ;
 110              		.loc 1 388 0
 111 006a 0949     		ldr	r1, .L8+24
 112 006c 0B70     		strb	r3, [r1]
 113              	.L7:
 389:Generated_Source\PSoC5/USBUART_drv.c ****     }
 390:Generated_Source\PSoC5/USBUART_drv.c **** 
 391:Generated_Source\PSoC5/USBUART_drv.c ****     /* Save the packet size for next time */
 392:Generated_Source\PSoC5/USBUART_drv.c ****     USBUART_ep0Count =       (uint8) ep0Count;
 114              		.loc 1 392 0
 115 006e 094B     		ldr	r3, .L8+28
 116 0070 1A70     		strb	r2, [r3]
 393:Generated_Source\PSoC5/USBUART_drv.c ****     USBUART_lastPacketSize = (uint8) ep0Count;
 117              		.loc 1 393 0
ARM GAS  C:\Users\locurtoj\AppData\Local\Temp\ccxinz00.s 			page 10


 118 0072 014B     		ldr	r3, .L8
 119 0074 1A70     		strb	r2, [r3]
 120 0076 7047     		bx	lr
 121              	.L9:
 122              		.align	2
 123              	.L8:
 124 0078 00000000 		.word	USBUART_lastPacketSize
 125 007c 00000000 		.word	USBUART_transferByteCount
 126 0080 00000000 		.word	USBUART_currentTD
 127 0084 00600040 		.word	1073766400
 128 0088 00000000 		.word	USBUART_ep0Toggle
 129 008c 00000000 		.word	USBUART_ep0Mode
 130 0090 00000000 		.word	USBUART_transferState
 131 0094 00000000 		.word	USBUART_ep0Count
 132              		.cfi_endproc
 133              	.LFE4:
 134              		.size	USBUART_LoadEP0, .-USBUART_LoadEP0
 135              		.section	.text.USBUART_InitZeroLengthControlTransfer,"ax",%progbits
 136              		.align	2
 137              		.global	USBUART_InitZeroLengthControlTransfer
 138              		.thumb
 139              		.thumb_func
 140              		.type	USBUART_InitZeroLengthControlTransfer, %function
 141              	USBUART_InitZeroLengthControlTransfer:
 142              	.LFB6:
 394:Generated_Source\PSoC5/USBUART_drv.c **** }
 395:Generated_Source\PSoC5/USBUART_drv.c **** 
 396:Generated_Source\PSoC5/USBUART_drv.c **** 
 397:Generated_Source\PSoC5/USBUART_drv.c **** /*******************************************************************************
 398:Generated_Source\PSoC5/USBUART_drv.c **** * Function Name: USBUART_InitControlRead
 399:Generated_Source\PSoC5/USBUART_drv.c **** ****************************************************************************//**
 400:Generated_Source\PSoC5/USBUART_drv.c **** *
 401:Generated_Source\PSoC5/USBUART_drv.c **** *  Initialize a control read transaction. It is used to send data to the host.
 402:Generated_Source\PSoC5/USBUART_drv.c **** *  The following global variables should be initialized before this function
 403:Generated_Source\PSoC5/USBUART_drv.c **** *  called. To send zero length packet use InitZeroLengthControlTransfer
 404:Generated_Source\PSoC5/USBUART_drv.c **** *  function.
 405:Generated_Source\PSoC5/USBUART_drv.c **** *
 406:Generated_Source\PSoC5/USBUART_drv.c **** *
 407:Generated_Source\PSoC5/USBUART_drv.c **** * \return
 408:Generated_Source\PSoC5/USBUART_drv.c **** *  requestHandled state.
 409:Generated_Source\PSoC5/USBUART_drv.c **** *
 410:Generated_Source\PSoC5/USBUART_drv.c **** * \globalvars
 411:Generated_Source\PSoC5/USBUART_drv.c **** *  USBUART_currentTD.count - counts of data to be sent.
 412:Generated_Source\PSoC5/USBUART_drv.c **** *  USBUART_currentTD.pData - data pointer.
 413:Generated_Source\PSoC5/USBUART_drv.c **** *
 414:Generated_Source\PSoC5/USBUART_drv.c **** * \reentrant
 415:Generated_Source\PSoC5/USBUART_drv.c **** *  No.
 416:Generated_Source\PSoC5/USBUART_drv.c **** *
 417:Generated_Source\PSoC5/USBUART_drv.c **** *******************************************************************************/
 418:Generated_Source\PSoC5/USBUART_drv.c **** uint8 USBUART_InitControlRead(void) 
 419:Generated_Source\PSoC5/USBUART_drv.c **** {
 420:Generated_Source\PSoC5/USBUART_drv.c ****     uint16 xferCount;
 421:Generated_Source\PSoC5/USBUART_drv.c **** 
 422:Generated_Source\PSoC5/USBUART_drv.c ****     if (USBUART_currentTD.count == 0u)
 423:Generated_Source\PSoC5/USBUART_drv.c ****     {
 424:Generated_Source\PSoC5/USBUART_drv.c ****         (void) USBUART_InitZeroLengthControlTransfer();
 425:Generated_Source\PSoC5/USBUART_drv.c ****     }
ARM GAS  C:\Users\locurtoj\AppData\Local\Temp\ccxinz00.s 			page 11


 426:Generated_Source\PSoC5/USBUART_drv.c ****     else
 427:Generated_Source\PSoC5/USBUART_drv.c ****     {
 428:Generated_Source\PSoC5/USBUART_drv.c ****         /* Set up the state machine */
 429:Generated_Source\PSoC5/USBUART_drv.c ****         USBUART_transferState = USBUART_TRANS_STATE_CONTROL_READ;
 430:Generated_Source\PSoC5/USBUART_drv.c ****         
 431:Generated_Source\PSoC5/USBUART_drv.c ****         /* Set the toggle, it gets updated in LoadEP */
 432:Generated_Source\PSoC5/USBUART_drv.c ****         USBUART_ep0Toggle = 0u;
 433:Generated_Source\PSoC5/USBUART_drv.c ****         
 434:Generated_Source\PSoC5/USBUART_drv.c ****         /* Initialize the Status Block */
 435:Generated_Source\PSoC5/USBUART_drv.c ****         USBUART_InitializeStatusBlock();
 436:Generated_Source\PSoC5/USBUART_drv.c ****         
 437:Generated_Source\PSoC5/USBUART_drv.c ****         xferCount = ((uint16)((uint16) USBUART_lengthHiReg << 8u) | ((uint16) USBUART_lengthLoReg))
 438:Generated_Source\PSoC5/USBUART_drv.c **** 
 439:Generated_Source\PSoC5/USBUART_drv.c ****         if (USBUART_currentTD.count > xferCount)
 440:Generated_Source\PSoC5/USBUART_drv.c ****         {
 441:Generated_Source\PSoC5/USBUART_drv.c ****             USBUART_currentTD.count = xferCount;
 442:Generated_Source\PSoC5/USBUART_drv.c ****         }
 443:Generated_Source\PSoC5/USBUART_drv.c ****         
 444:Generated_Source\PSoC5/USBUART_drv.c ****         USBUART_LoadEP0();
 445:Generated_Source\PSoC5/USBUART_drv.c ****     }
 446:Generated_Source\PSoC5/USBUART_drv.c **** 
 447:Generated_Source\PSoC5/USBUART_drv.c ****     return (USBUART_TRUE);
 448:Generated_Source\PSoC5/USBUART_drv.c **** }
 449:Generated_Source\PSoC5/USBUART_drv.c **** 
 450:Generated_Source\PSoC5/USBUART_drv.c **** 
 451:Generated_Source\PSoC5/USBUART_drv.c **** /*******************************************************************************
 452:Generated_Source\PSoC5/USBUART_drv.c **** * Function Name: USBUART_InitZeroLengthControlTransfer
 453:Generated_Source\PSoC5/USBUART_drv.c **** ****************************************************************************//**
 454:Generated_Source\PSoC5/USBUART_drv.c **** *
 455:Generated_Source\PSoC5/USBUART_drv.c **** *  Initialize a zero length data IN transfer.
 456:Generated_Source\PSoC5/USBUART_drv.c **** *
 457:Generated_Source\PSoC5/USBUART_drv.c **** * \return
 458:Generated_Source\PSoC5/USBUART_drv.c **** *  requestHandled state.
 459:Generated_Source\PSoC5/USBUART_drv.c **** *
 460:Generated_Source\PSoC5/USBUART_drv.c **** * \globalvars
 461:Generated_Source\PSoC5/USBUART_drv.c **** *  USBUART_ep0Toggle - set to EP0_CNT_DATA_TOGGLE
 462:Generated_Source\PSoC5/USBUART_drv.c **** *  USBUART_ep0Mode  - prepare for mode register content.
 463:Generated_Source\PSoC5/USBUART_drv.c **** *  USBUART_transferState - set to TRANS_STATE_CONTROL_READ
 464:Generated_Source\PSoC5/USBUART_drv.c **** *  USBUART_ep0Count - cleared, means the zero-length packet.
 465:Generated_Source\PSoC5/USBUART_drv.c **** *  USBUART_lastPacketSize - cleared.
 466:Generated_Source\PSoC5/USBUART_drv.c **** *
 467:Generated_Source\PSoC5/USBUART_drv.c **** * \reentrant
 468:Generated_Source\PSoC5/USBUART_drv.c **** *  No.
 469:Generated_Source\PSoC5/USBUART_drv.c **** *
 470:Generated_Source\PSoC5/USBUART_drv.c **** *******************************************************************************/
 471:Generated_Source\PSoC5/USBUART_drv.c **** uint8 USBUART_InitZeroLengthControlTransfer(void)
 472:Generated_Source\PSoC5/USBUART_drv.c ****                                                 
 473:Generated_Source\PSoC5/USBUART_drv.c **** {
 143              		.loc 1 473 0
 144              		.cfi_startproc
 145              		@ args = 0, pretend = 0, frame = 0
 146              		@ frame_needed = 0, uses_anonymous_args = 0
 147              		@ link register save eliminated.
 474:Generated_Source\PSoC5/USBUART_drv.c ****     /* Update the state */
 475:Generated_Source\PSoC5/USBUART_drv.c ****     USBUART_transferState = USBUART_TRANS_STATE_CONTROL_READ;
 148              		.loc 1 475 0
 149 0000 0222     		movs	r2, #2
ARM GAS  C:\Users\locurtoj\AppData\Local\Temp\ccxinz00.s 			page 12


 150 0002 074B     		ldr	r3, .L11
 151 0004 1A70     		strb	r2, [r3]
 476:Generated_Source\PSoC5/USBUART_drv.c ****     
 477:Generated_Source\PSoC5/USBUART_drv.c ****     /* Set the data toggle */
 478:Generated_Source\PSoC5/USBUART_drv.c ****     USBUART_ep0Toggle = USBUART_EP0_CNT_DATA_TOGGLE;
 152              		.loc 1 478 0
 153 0006 8022     		movs	r2, #128
 154 0008 064B     		ldr	r3, .L11+4
 155 000a 1A70     		strb	r2, [r3]
 479:Generated_Source\PSoC5/USBUART_drv.c ****     
 480:Generated_Source\PSoC5/USBUART_drv.c ****     /* Set the Mode Register  */
 481:Generated_Source\PSoC5/USBUART_drv.c ****     USBUART_ep0Mode = USBUART_MODE_ACK_IN_STATUS_OUT;
 156              		.loc 1 481 0
 157 000c 0F22     		movs	r2, #15
 158 000e 064B     		ldr	r3, .L11+8
 159 0010 1A70     		strb	r2, [r3]
 482:Generated_Source\PSoC5/USBUART_drv.c ****     
 483:Generated_Source\PSoC5/USBUART_drv.c ****     /* Save the packet size for next time */
 484:Generated_Source\PSoC5/USBUART_drv.c ****     USBUART_lastPacketSize = 0u;
 160              		.loc 1 484 0
 161 0012 0023     		movs	r3, #0
 162 0014 054A     		ldr	r2, .L11+12
 163 0016 1370     		strb	r3, [r2]
 485:Generated_Source\PSoC5/USBUART_drv.c ****     
 486:Generated_Source\PSoC5/USBUART_drv.c ****     USBUART_ep0Count = 0u;
 164              		.loc 1 486 0
 165 0018 054A     		ldr	r2, .L11+16
 166 001a 1370     		strb	r3, [r2]
 487:Generated_Source\PSoC5/USBUART_drv.c **** 
 488:Generated_Source\PSoC5/USBUART_drv.c ****     return (USBUART_TRUE);
 489:Generated_Source\PSoC5/USBUART_drv.c **** }
 167              		.loc 1 489 0
 168 001c 0120     		movs	r0, #1
 169 001e 7047     		bx	lr
 170              	.L12:
 171              		.align	2
 172              	.L11:
 173 0020 00000000 		.word	USBUART_transferState
 174 0024 00000000 		.word	USBUART_ep0Toggle
 175 0028 00000000 		.word	USBUART_ep0Mode
 176 002c 00000000 		.word	USBUART_lastPacketSize
 177 0030 00000000 		.word	USBUART_ep0Count
 178              		.cfi_endproc
 179              	.LFE6:
 180              		.size	USBUART_InitZeroLengthControlTransfer, .-USBUART_InitZeroLengthControlTransfer
 181              		.section	.text.USBUART_ControlReadDataStage,"ax",%progbits
 182              		.align	2
 183              		.global	USBUART_ControlReadDataStage
 184              		.thumb
 185              		.thumb_func
 186              		.type	USBUART_ControlReadDataStage, %function
 187              	USBUART_ControlReadDataStage:
 188              	.LFB7:
 490:Generated_Source\PSoC5/USBUART_drv.c **** 
 491:Generated_Source\PSoC5/USBUART_drv.c **** 
 492:Generated_Source\PSoC5/USBUART_drv.c **** /*******************************************************************************
 493:Generated_Source\PSoC5/USBUART_drv.c **** * Function Name: USBUART_ControlReadDataStage
ARM GAS  C:\Users\locurtoj\AppData\Local\Temp\ccxinz00.s 			page 13


 494:Generated_Source\PSoC5/USBUART_drv.c **** ****************************************************************************//**
 495:Generated_Source\PSoC5/USBUART_drv.c **** *
 496:Generated_Source\PSoC5/USBUART_drv.c **** *  Handle the Data Stage of a control read transfer.
 497:Generated_Source\PSoC5/USBUART_drv.c **** *
 498:Generated_Source\PSoC5/USBUART_drv.c **** *
 499:Generated_Source\PSoC5/USBUART_drv.c **** * \reentrant
 500:Generated_Source\PSoC5/USBUART_drv.c **** *  No.
 501:Generated_Source\PSoC5/USBUART_drv.c **** *
 502:Generated_Source\PSoC5/USBUART_drv.c **** *******************************************************************************/
 503:Generated_Source\PSoC5/USBUART_drv.c **** void USBUART_ControlReadDataStage(void) 
 504:Generated_Source\PSoC5/USBUART_drv.c **** 
 505:Generated_Source\PSoC5/USBUART_drv.c **** {
 189              		.loc 1 505 0
 190              		.cfi_startproc
 191              		@ args = 0, pretend = 0, frame = 0
 192              		@ frame_needed = 0, uses_anonymous_args = 0
 193 0000 08B5     		push	{r3, lr}
 194              		.cfi_def_cfa_offset 8
 195              		.cfi_offset 3, -8
 196              		.cfi_offset 14, -4
 506:Generated_Source\PSoC5/USBUART_drv.c ****     USBUART_LoadEP0();
 197              		.loc 1 506 0
 198 0002 FFF7FEFF 		bl	USBUART_LoadEP0
 199              	.LVL5:
 200 0006 08BD     		pop	{r3, pc}
 201              		.cfi_endproc
 202              	.LFE7:
 203              		.size	USBUART_ControlReadDataStage, .-USBUART_ControlReadDataStage
 204              		.section	.text.USBUART_ControlWriteDataStage,"ax",%progbits
 205              		.align	2
 206              		.global	USBUART_ControlWriteDataStage
 207              		.thumb
 208              		.thumb_func
 209              		.type	USBUART_ControlWriteDataStage, %function
 210              	USBUART_ControlWriteDataStage:
 211              	.LFB10:
 507:Generated_Source\PSoC5/USBUART_drv.c **** }
 508:Generated_Source\PSoC5/USBUART_drv.c **** 
 509:Generated_Source\PSoC5/USBUART_drv.c **** 
 510:Generated_Source\PSoC5/USBUART_drv.c **** /*******************************************************************************
 511:Generated_Source\PSoC5/USBUART_drv.c **** * Function Name: USBUART_ControlReadStatusStage
 512:Generated_Source\PSoC5/USBUART_drv.c **** ****************************************************************************//**
 513:Generated_Source\PSoC5/USBUART_drv.c **** *
 514:Generated_Source\PSoC5/USBUART_drv.c **** *  Handle the Status Stage of a control read transfer.
 515:Generated_Source\PSoC5/USBUART_drv.c **** *
 516:Generated_Source\PSoC5/USBUART_drv.c **** *
 517:Generated_Source\PSoC5/USBUART_drv.c **** * \globalvars
 518:Generated_Source\PSoC5/USBUART_drv.c **** *  USBUART_USBFS_transferByteCount - updated with last packet size.
 519:Generated_Source\PSoC5/USBUART_drv.c **** *  USBUART_transferState - set to TRANS_STATE_IDLE.
 520:Generated_Source\PSoC5/USBUART_drv.c **** *  USBUART_ep0Mode  - set to MODE_STALL_IN_OUT.
 521:Generated_Source\PSoC5/USBUART_drv.c **** *
 522:Generated_Source\PSoC5/USBUART_drv.c **** * \reentrant
 523:Generated_Source\PSoC5/USBUART_drv.c **** *  No.
 524:Generated_Source\PSoC5/USBUART_drv.c **** *
 525:Generated_Source\PSoC5/USBUART_drv.c **** *******************************************************************************/
 526:Generated_Source\PSoC5/USBUART_drv.c **** void USBUART_ControlReadStatusStage(void) 
 527:Generated_Source\PSoC5/USBUART_drv.c **** {
ARM GAS  C:\Users\locurtoj\AppData\Local\Temp\ccxinz00.s 			page 14


 528:Generated_Source\PSoC5/USBUART_drv.c ****     /* Update the transfer byte count */
 529:Generated_Source\PSoC5/USBUART_drv.c ****     USBUART_transferByteCount += USBUART_lastPacketSize;
 530:Generated_Source\PSoC5/USBUART_drv.c ****     
 531:Generated_Source\PSoC5/USBUART_drv.c ****     /* Go Idle */
 532:Generated_Source\PSoC5/USBUART_drv.c ****     USBUART_transferState = USBUART_TRANS_STATE_IDLE;
 533:Generated_Source\PSoC5/USBUART_drv.c ****     
 534:Generated_Source\PSoC5/USBUART_drv.c ****     /* Update the completion block */
 535:Generated_Source\PSoC5/USBUART_drv.c ****     USBUART_UpdateStatusBlock(USBUART_XFER_STATUS_ACK);
 536:Generated_Source\PSoC5/USBUART_drv.c ****     
 537:Generated_Source\PSoC5/USBUART_drv.c ****     /* We expect no more data, so stall INs and OUTs */
 538:Generated_Source\PSoC5/USBUART_drv.c ****     USBUART_ep0Mode = USBUART_MODE_STALL_IN_OUT;
 539:Generated_Source\PSoC5/USBUART_drv.c **** }
 540:Generated_Source\PSoC5/USBUART_drv.c **** 
 541:Generated_Source\PSoC5/USBUART_drv.c **** 
 542:Generated_Source\PSoC5/USBUART_drv.c **** /*******************************************************************************
 543:Generated_Source\PSoC5/USBUART_drv.c **** * Function Name: USBUART_InitControlWrite
 544:Generated_Source\PSoC5/USBUART_drv.c **** ****************************************************************************//**
 545:Generated_Source\PSoC5/USBUART_drv.c **** *
 546:Generated_Source\PSoC5/USBUART_drv.c **** *  Initialize a control write transaction
 547:Generated_Source\PSoC5/USBUART_drv.c **** *
 548:Generated_Source\PSoC5/USBUART_drv.c **** * \return
 549:Generated_Source\PSoC5/USBUART_drv.c **** *  requestHandled state.
 550:Generated_Source\PSoC5/USBUART_drv.c **** *
 551:Generated_Source\PSoC5/USBUART_drv.c **** * \globalvars
 552:Generated_Source\PSoC5/USBUART_drv.c **** *  USBUART_USBFS_transferState - set to TRANS_STATE_CONTROL_WRITE
 553:Generated_Source\PSoC5/USBUART_drv.c **** *  USBUART_ep0Toggle - set to EP0_CNT_DATA_TOGGLE
 554:Generated_Source\PSoC5/USBUART_drv.c **** *  USBUART_ep0Mode  - set to MODE_ACK_OUT_STATUS_IN
 555:Generated_Source\PSoC5/USBUART_drv.c **** *
 556:Generated_Source\PSoC5/USBUART_drv.c **** * \reentrant
 557:Generated_Source\PSoC5/USBUART_drv.c **** *  No.
 558:Generated_Source\PSoC5/USBUART_drv.c **** *
 559:Generated_Source\PSoC5/USBUART_drv.c **** *******************************************************************************/
 560:Generated_Source\PSoC5/USBUART_drv.c **** uint8 USBUART_InitControlWrite(void) 
 561:Generated_Source\PSoC5/USBUART_drv.c **** {
 562:Generated_Source\PSoC5/USBUART_drv.c ****     uint16 xferCount;
 563:Generated_Source\PSoC5/USBUART_drv.c **** 
 564:Generated_Source\PSoC5/USBUART_drv.c ****     /* Set up the state machine */
 565:Generated_Source\PSoC5/USBUART_drv.c ****     USBUART_transferState = USBUART_TRANS_STATE_CONTROL_WRITE;
 566:Generated_Source\PSoC5/USBUART_drv.c ****     
 567:Generated_Source\PSoC5/USBUART_drv.c ****     /* This might not be necessary */
 568:Generated_Source\PSoC5/USBUART_drv.c ****     USBUART_ep0Toggle = USBUART_EP0_CNT_DATA_TOGGLE;
 569:Generated_Source\PSoC5/USBUART_drv.c ****     
 570:Generated_Source\PSoC5/USBUART_drv.c ****     /* Initialize the Status Block */
 571:Generated_Source\PSoC5/USBUART_drv.c ****     USBUART_InitializeStatusBlock();
 572:Generated_Source\PSoC5/USBUART_drv.c **** 
 573:Generated_Source\PSoC5/USBUART_drv.c ****     xferCount = ((uint16)((uint16) USBUART_lengthHiReg << 8u) | ((uint16) USBUART_lengthLoReg));
 574:Generated_Source\PSoC5/USBUART_drv.c **** 
 575:Generated_Source\PSoC5/USBUART_drv.c ****     if (USBUART_currentTD.count > xferCount)
 576:Generated_Source\PSoC5/USBUART_drv.c ****     {
 577:Generated_Source\PSoC5/USBUART_drv.c ****         USBUART_currentTD.count = xferCount;
 578:Generated_Source\PSoC5/USBUART_drv.c ****     }
 579:Generated_Source\PSoC5/USBUART_drv.c **** 
 580:Generated_Source\PSoC5/USBUART_drv.c ****     /* Expect Data or Status Stage */
 581:Generated_Source\PSoC5/USBUART_drv.c ****     USBUART_ep0Mode = USBUART_MODE_ACK_OUT_STATUS_IN;
 582:Generated_Source\PSoC5/USBUART_drv.c **** 
 583:Generated_Source\PSoC5/USBUART_drv.c ****     return(USBUART_TRUE);
 584:Generated_Source\PSoC5/USBUART_drv.c **** }
ARM GAS  C:\Users\locurtoj\AppData\Local\Temp\ccxinz00.s 			page 15


 585:Generated_Source\PSoC5/USBUART_drv.c **** 
 586:Generated_Source\PSoC5/USBUART_drv.c **** 
 587:Generated_Source\PSoC5/USBUART_drv.c **** /*******************************************************************************
 588:Generated_Source\PSoC5/USBUART_drv.c **** * Function Name: USBUART_ControlWriteDataStage
 589:Generated_Source\PSoC5/USBUART_drv.c **** ****************************************************************************//**
 590:Generated_Source\PSoC5/USBUART_drv.c **** *
 591:Generated_Source\PSoC5/USBUART_drv.c **** *  Handle the Data Stage of a control write transfer
 592:Generated_Source\PSoC5/USBUART_drv.c **** *       1. Get the data (We assume the destination was validated previously)
 593:Generated_Source\PSoC5/USBUART_drv.c **** *       2. Update the count and data toggle
 594:Generated_Source\PSoC5/USBUART_drv.c **** *       3. Update the mode register for the next transaction
 595:Generated_Source\PSoC5/USBUART_drv.c **** *
 596:Generated_Source\PSoC5/USBUART_drv.c **** *
 597:Generated_Source\PSoC5/USBUART_drv.c **** * \globalvars
 598:Generated_Source\PSoC5/USBUART_drv.c **** *  USBUART_transferByteCount - Update the transfer byte count from the
 599:Generated_Source\PSoC5/USBUART_drv.c **** *    last transaction.
 600:Generated_Source\PSoC5/USBUART_drv.c **** *  USBUART_ep0Count - counts the data loaded from the SIE memory
 601:Generated_Source\PSoC5/USBUART_drv.c **** *    in current packet.
 602:Generated_Source\PSoC5/USBUART_drv.c **** *  USBUART_transferByteCount - sum of the previous bytes transferred
 603:Generated_Source\PSoC5/USBUART_drv.c **** *    on previous packets(sum of USBFS_lastPacketSize)
 604:Generated_Source\PSoC5/USBUART_drv.c **** *  USBUART_ep0Toggle - inverted
 605:Generated_Source\PSoC5/USBUART_drv.c **** *  USBUART_ep0Mode  - set to MODE_ACK_OUT_STATUS_IN.
 606:Generated_Source\PSoC5/USBUART_drv.c **** *
 607:Generated_Source\PSoC5/USBUART_drv.c **** * \reentrant
 608:Generated_Source\PSoC5/USBUART_drv.c **** *  No.
 609:Generated_Source\PSoC5/USBUART_drv.c **** *
 610:Generated_Source\PSoC5/USBUART_drv.c **** *******************************************************************************/
 611:Generated_Source\PSoC5/USBUART_drv.c **** void USBUART_ControlWriteDataStage(void) 
 612:Generated_Source\PSoC5/USBUART_drv.c **** {
 212              		.loc 1 612 0
 213              		.cfi_startproc
 214              		@ args = 0, pretend = 0, frame = 0
 215              		@ frame_needed = 0, uses_anonymous_args = 0
 216              		@ link register save eliminated.
 217 0000 10B4     		push	{r4}
 218              		.cfi_def_cfa_offset 4
 219              		.cfi_offset 4, -4
 220              	.LVL6:
 613:Generated_Source\PSoC5/USBUART_drv.c ****     uint8 ep0Count;
 614:Generated_Source\PSoC5/USBUART_drv.c ****     uint8 regIndex = 0u;
 615:Generated_Source\PSoC5/USBUART_drv.c **** 
 616:Generated_Source\PSoC5/USBUART_drv.c ****     ep0Count = (USBUART_EP0_CNT_REG & USBUART_EPX_CNT0_MASK) - USBUART_EPX_CNTX_CRC_COUNT;
 221              		.loc 1 616 0
 222 0002 194B     		ldr	r3, .L20
 223 0004 1978     		ldrb	r1, [r3]	@ zero_extendqisi2
 224 0006 01F00F01 		and	r1, r1, #15
 225 000a 0239     		subs	r1, r1, #2
 226 000c C9B2     		uxtb	r1, r1
 227              	.LVL7:
 617:Generated_Source\PSoC5/USBUART_drv.c **** 
 618:Generated_Source\PSoC5/USBUART_drv.c ****     USBUART_transferByteCount += (uint8)ep0Count;
 228              		.loc 1 618 0
 229 000e 174A     		ldr	r2, .L20+4
 230 0010 1388     		ldrh	r3, [r2]
 231 0012 9BB2     		uxth	r3, r3
 232 0014 0B44     		add	r3, r3, r1
 233 0016 9BB2     		uxth	r3, r3
 234 0018 1380     		strh	r3, [r2]	@ movhi
ARM GAS  C:\Users\locurtoj\AppData\Local\Temp\ccxinz00.s 			page 16


 614:Generated_Source\PSoC5/USBUART_drv.c **** 
 235              		.loc 1 614 0
 236 001a 0020     		movs	r0, #0
 619:Generated_Source\PSoC5/USBUART_drv.c **** 
 620:Generated_Source\PSoC5/USBUART_drv.c ****     while ((USBUART_currentTD.count > 0u) && (ep0Count > 0u))
 237              		.loc 1 620 0
 238 001c 11E0     		b	.L16
 239              	.LVL8:
 240              	.L18:
 621:Generated_Source\PSoC5/USBUART_drv.c ****     {
 622:Generated_Source\PSoC5/USBUART_drv.c ****         *USBUART_currentTD.pData = (uint8) USBUART_EP0_DR_BASE.epData[regIndex];
 241              		.loc 1 622 0
 242 001e 144A     		ldr	r2, .L20+8
 243 0020 5468     		ldr	r4, [r2, #4]
 244 0022 144B     		ldr	r3, .L20+12
 245 0024 1B5C     		ldrb	r3, [r3, r0]	@ zero_extendqisi2
 246 0026 DBB2     		uxtb	r3, r3
 247 0028 2370     		strb	r3, [r4]
 623:Generated_Source\PSoC5/USBUART_drv.c ****         USBUART_currentTD.pData = &USBUART_currentTD.pData[1u];
 248              		.loc 1 623 0
 249 002a 5368     		ldr	r3, [r2, #4]
 250 002c 0133     		adds	r3, r3, #1
 251 002e 5360     		str	r3, [r2, #4]
 624:Generated_Source\PSoC5/USBUART_drv.c ****         regIndex++;
 252              		.loc 1 624 0
 253 0030 0130     		adds	r0, r0, #1
 254              	.LVL9:
 255 0032 C0B2     		uxtb	r0, r0
 256              	.LVL10:
 625:Generated_Source\PSoC5/USBUART_drv.c ****         ep0Count--;
 257              		.loc 1 625 0
 258 0034 0139     		subs	r1, r1, #1
 259              	.LVL11:
 260 0036 C9B2     		uxtb	r1, r1
 261              	.LVL12:
 626:Generated_Source\PSoC5/USBUART_drv.c ****         USBUART_currentTD.count--;
 262              		.loc 1 626 0
 263 0038 1388     		ldrh	r3, [r2]
 264 003a 9BB2     		uxth	r3, r3
 265 003c 013B     		subs	r3, r3, #1
 266 003e 9BB2     		uxth	r3, r3
 267 0040 1380     		strh	r3, [r2]	@ movhi
 268              	.LVL13:
 269              	.L16:
 620:Generated_Source\PSoC5/USBUART_drv.c ****     {
 270              		.loc 1 620 0
 271 0042 0B4B     		ldr	r3, .L20+8
 272 0044 1B88     		ldrh	r3, [r3]
 273 0046 9BB2     		uxth	r3, r3
 274 0048 0BB1     		cbz	r3, .L17
 620:Generated_Source\PSoC5/USBUART_drv.c ****     {
 275              		.loc 1 620 0 is_stmt 0 discriminator 1
 276 004a 0029     		cmp	r1, #0
 277 004c E7D1     		bne	.L18
 278              	.L17:
 627:Generated_Source\PSoC5/USBUART_drv.c ****     }
 628:Generated_Source\PSoC5/USBUART_drv.c ****     
ARM GAS  C:\Users\locurtoj\AppData\Local\Temp\ccxinz00.s 			page 17


 629:Generated_Source\PSoC5/USBUART_drv.c ****     USBUART_ep0Count = (uint8)ep0Count;
 279              		.loc 1 629 0 is_stmt 1
 280 004e 0A4B     		ldr	r3, .L20+16
 281 0050 1970     		strb	r1, [r3]
 630:Generated_Source\PSoC5/USBUART_drv.c ****     
 631:Generated_Source\PSoC5/USBUART_drv.c ****     /* Update the data toggle */
 632:Generated_Source\PSoC5/USBUART_drv.c ****     USBUART_ep0Toggle ^= USBUART_EP0_CNT_DATA_TOGGLE;
 282              		.loc 1 632 0
 283 0052 0A4A     		ldr	r2, .L20+20
 284 0054 1378     		ldrb	r3, [r2]	@ zero_extendqisi2
 285 0056 83F08003 		eor	r3, r3, #128
 286 005a 1370     		strb	r3, [r2]
 633:Generated_Source\PSoC5/USBUART_drv.c ****     
 634:Generated_Source\PSoC5/USBUART_drv.c ****     /* Expect Data or Status Stage */
 635:Generated_Source\PSoC5/USBUART_drv.c ****     USBUART_ep0Mode = USBUART_MODE_ACK_OUT_STATUS_IN;
 287              		.loc 1 635 0
 288 005c 0B22     		movs	r2, #11
 289 005e 084B     		ldr	r3, .L20+24
 290 0060 1A70     		strb	r2, [r3]
 636:Generated_Source\PSoC5/USBUART_drv.c **** }
 291              		.loc 1 636 0
 292 0062 10BC     		pop	{r4}
 293              		.cfi_restore 4
 294              		.cfi_def_cfa_offset 0
 295 0064 7047     		bx	lr
 296              	.L21:
 297 0066 00BF     		.align	2
 298              	.L20:
 299 0068 29600040 		.word	1073766441
 300 006c 00000000 		.word	USBUART_transferByteCount
 301 0070 00000000 		.word	USBUART_currentTD
 302 0074 00600040 		.word	1073766400
 303 0078 00000000 		.word	USBUART_ep0Count
 304 007c 00000000 		.word	USBUART_ep0Toggle
 305 0080 00000000 		.word	USBUART_ep0Mode
 306              		.cfi_endproc
 307              	.LFE10:
 308              		.size	USBUART_ControlWriteDataStage, .-USBUART_ControlWriteDataStage
 309              		.section	.text.USBUART_InitNoDataControlTransfer,"ax",%progbits
 310              		.align	2
 311              		.global	USBUART_InitNoDataControlTransfer
 312              		.thumb
 313              		.thumb_func
 314              		.type	USBUART_InitNoDataControlTransfer, %function
 315              	USBUART_InitNoDataControlTransfer:
 316              	.LFB12:
 637:Generated_Source\PSoC5/USBUART_drv.c **** 
 638:Generated_Source\PSoC5/USBUART_drv.c **** 
 639:Generated_Source\PSoC5/USBUART_drv.c **** /*******************************************************************************
 640:Generated_Source\PSoC5/USBUART_drv.c **** * Function Name: USBUART_ControlWriteStatusStage
 641:Generated_Source\PSoC5/USBUART_drv.c **** ****************************************************************************//**
 642:Generated_Source\PSoC5/USBUART_drv.c **** *
 643:Generated_Source\PSoC5/USBUART_drv.c **** *  Handle the Status Stage of a control write transfer
 644:Generated_Source\PSoC5/USBUART_drv.c **** *
 645:Generated_Source\PSoC5/USBUART_drv.c **** * \globalvars
 646:Generated_Source\PSoC5/USBUART_drv.c **** *  USBUART_transferState - set to TRANS_STATE_IDLE.
 647:Generated_Source\PSoC5/USBUART_drv.c **** *  USBUART_USBFS_ep0Mode  - set to MODE_STALL_IN_OUT.
ARM GAS  C:\Users\locurtoj\AppData\Local\Temp\ccxinz00.s 			page 18


 648:Generated_Source\PSoC5/USBUART_drv.c **** *
 649:Generated_Source\PSoC5/USBUART_drv.c **** * \reentrant
 650:Generated_Source\PSoC5/USBUART_drv.c **** *  No.
 651:Generated_Source\PSoC5/USBUART_drv.c **** *
 652:Generated_Source\PSoC5/USBUART_drv.c **** *******************************************************************************/
 653:Generated_Source\PSoC5/USBUART_drv.c **** void USBUART_ControlWriteStatusStage(void) 
 654:Generated_Source\PSoC5/USBUART_drv.c **** {
 655:Generated_Source\PSoC5/USBUART_drv.c ****     /* Go Idle */
 656:Generated_Source\PSoC5/USBUART_drv.c ****     USBUART_transferState = USBUART_TRANS_STATE_IDLE;
 657:Generated_Source\PSoC5/USBUART_drv.c ****     
 658:Generated_Source\PSoC5/USBUART_drv.c ****     /* Update the completion block */    
 659:Generated_Source\PSoC5/USBUART_drv.c ****     USBUART_UpdateStatusBlock(USBUART_XFER_STATUS_ACK);
 660:Generated_Source\PSoC5/USBUART_drv.c ****     
 661:Generated_Source\PSoC5/USBUART_drv.c ****     /* We expect no more data, so stall INs and OUTs */
 662:Generated_Source\PSoC5/USBUART_drv.c ****     USBUART_ep0Mode = USBUART_MODE_STALL_IN_OUT;
 663:Generated_Source\PSoC5/USBUART_drv.c **** }
 664:Generated_Source\PSoC5/USBUART_drv.c **** 
 665:Generated_Source\PSoC5/USBUART_drv.c **** 
 666:Generated_Source\PSoC5/USBUART_drv.c **** /*******************************************************************************
 667:Generated_Source\PSoC5/USBUART_drv.c **** * Function Name: USBUART_InitNoDataControlTransfer
 668:Generated_Source\PSoC5/USBUART_drv.c **** ****************************************************************************//**
 669:Generated_Source\PSoC5/USBUART_drv.c **** *
 670:Generated_Source\PSoC5/USBUART_drv.c **** *  Initialize a no data control transfer
 671:Generated_Source\PSoC5/USBUART_drv.c **** *
 672:Generated_Source\PSoC5/USBUART_drv.c **** * \return
 673:Generated_Source\PSoC5/USBUART_drv.c **** *  requestHandled state.
 674:Generated_Source\PSoC5/USBUART_drv.c **** *
 675:Generated_Source\PSoC5/USBUART_drv.c **** * \globalvars
 676:Generated_Source\PSoC5/USBUART_drv.c **** *  USBUART_transferState - set to TRANS_STATE_NO_DATA_CONTROL.
 677:Generated_Source\PSoC5/USBUART_drv.c **** *  USBUART_ep0Mode  - set to MODE_STATUS_IN_ONLY.
 678:Generated_Source\PSoC5/USBUART_drv.c **** *  USBUART_ep0Count - cleared.
 679:Generated_Source\PSoC5/USBUART_drv.c **** *  USBUART_ep0Toggle - set to EP0_CNT_DATA_TOGGLE
 680:Generated_Source\PSoC5/USBUART_drv.c **** *
 681:Generated_Source\PSoC5/USBUART_drv.c **** * \reentrant
 682:Generated_Source\PSoC5/USBUART_drv.c **** *  No.
 683:Generated_Source\PSoC5/USBUART_drv.c **** *
 684:Generated_Source\PSoC5/USBUART_drv.c **** *******************************************************************************/
 685:Generated_Source\PSoC5/USBUART_drv.c **** uint8 USBUART_InitNoDataControlTransfer(void) 
 686:Generated_Source\PSoC5/USBUART_drv.c **** {
 317              		.loc 1 686 0
 318              		.cfi_startproc
 319              		@ args = 0, pretend = 0, frame = 0
 320              		@ frame_needed = 0, uses_anonymous_args = 0
 321              		@ link register save eliminated.
 687:Generated_Source\PSoC5/USBUART_drv.c ****     USBUART_transferState = USBUART_TRANS_STATE_NO_DATA_CONTROL;
 322              		.loc 1 687 0
 323 0000 0623     		movs	r3, #6
 324 0002 064A     		ldr	r2, .L23
 325 0004 1370     		strb	r3, [r2]
 688:Generated_Source\PSoC5/USBUART_drv.c ****     USBUART_ep0Mode       = USBUART_MODE_STATUS_IN_ONLY;
 326              		.loc 1 688 0
 327 0006 064A     		ldr	r2, .L23+4
 328 0008 1370     		strb	r3, [r2]
 689:Generated_Source\PSoC5/USBUART_drv.c ****     USBUART_ep0Toggle     = USBUART_EP0_CNT_DATA_TOGGLE;
 329              		.loc 1 689 0
 330 000a 8022     		movs	r2, #128
 331 000c 054B     		ldr	r3, .L23+8
ARM GAS  C:\Users\locurtoj\AppData\Local\Temp\ccxinz00.s 			page 19


 332 000e 1A70     		strb	r2, [r3]
 690:Generated_Source\PSoC5/USBUART_drv.c ****     USBUART_ep0Count      = 0u;
 333              		.loc 1 690 0
 334 0010 0022     		movs	r2, #0
 335 0012 054B     		ldr	r3, .L23+12
 336 0014 1A70     		strb	r2, [r3]
 691:Generated_Source\PSoC5/USBUART_drv.c **** 
 692:Generated_Source\PSoC5/USBUART_drv.c ****     return (USBUART_TRUE);
 693:Generated_Source\PSoC5/USBUART_drv.c **** }
 337              		.loc 1 693 0
 338 0016 0120     		movs	r0, #1
 339 0018 7047     		bx	lr
 340              	.L24:
 341 001a 00BF     		.align	2
 342              	.L23:
 343 001c 00000000 		.word	USBUART_transferState
 344 0020 00000000 		.word	USBUART_ep0Mode
 345 0024 00000000 		.word	USBUART_ep0Toggle
 346 0028 00000000 		.word	USBUART_ep0Count
 347              		.cfi_endproc
 348              	.LFE12:
 349              		.size	USBUART_InitNoDataControlTransfer, .-USBUART_InitNoDataControlTransfer
 350              		.section	.text.USBUART_UpdateStatusBlock,"ax",%progbits
 351              		.align	2
 352              		.global	USBUART_UpdateStatusBlock
 353              		.thumb
 354              		.thumb_func
 355              		.type	USBUART_UpdateStatusBlock, %function
 356              	USBUART_UpdateStatusBlock:
 357              	.LFB14:
 694:Generated_Source\PSoC5/USBUART_drv.c **** 
 695:Generated_Source\PSoC5/USBUART_drv.c **** 
 696:Generated_Source\PSoC5/USBUART_drv.c **** /*******************************************************************************
 697:Generated_Source\PSoC5/USBUART_drv.c **** * Function Name: USBUART_NoDataControlStatusStage
 698:Generated_Source\PSoC5/USBUART_drv.c **** ****************************************************************************//**
 699:Generated_Source\PSoC5/USBUART_drv.c **** *  Handle the Status Stage of a no data control transfer.
 700:Generated_Source\PSoC5/USBUART_drv.c **** *
 701:Generated_Source\PSoC5/USBUART_drv.c **** *  SET_ADDRESS is special, since we need to receive the status stage with
 702:Generated_Source\PSoC5/USBUART_drv.c **** *  the old address.
 703:Generated_Source\PSoC5/USBUART_drv.c **** *
 704:Generated_Source\PSoC5/USBUART_drv.c **** * \globalvars
 705:Generated_Source\PSoC5/USBUART_drv.c **** *  USBUART_transferState - set to TRANS_STATE_IDLE.
 706:Generated_Source\PSoC5/USBUART_drv.c **** *  USBUART_ep0Mode  - set to MODE_STALL_IN_OUT.
 707:Generated_Source\PSoC5/USBUART_drv.c **** *  USBUART_ep0Toggle - set to EP0_CNT_DATA_TOGGLE
 708:Generated_Source\PSoC5/USBUART_drv.c **** *  USBUART_deviceAddress - used to set new address and cleared
 709:Generated_Source\PSoC5/USBUART_drv.c **** *
 710:Generated_Source\PSoC5/USBUART_drv.c **** * \reentrant
 711:Generated_Source\PSoC5/USBUART_drv.c **** *  No.
 712:Generated_Source\PSoC5/USBUART_drv.c **** *
 713:Generated_Source\PSoC5/USBUART_drv.c **** *******************************************************************************/
 714:Generated_Source\PSoC5/USBUART_drv.c **** void USBUART_NoDataControlStatusStage(void) 
 715:Generated_Source\PSoC5/USBUART_drv.c **** {
 716:Generated_Source\PSoC5/USBUART_drv.c ****     if (0u != USBUART_deviceAddress)
 717:Generated_Source\PSoC5/USBUART_drv.c ****     {
 718:Generated_Source\PSoC5/USBUART_drv.c ****         /* Update device address if we got new address. */
 719:Generated_Source\PSoC5/USBUART_drv.c ****         USBUART_CR0_REG = (uint8) USBUART_deviceAddress | USBUART_CR0_ENABLE;
 720:Generated_Source\PSoC5/USBUART_drv.c ****         USBUART_deviceAddress = 0u;
ARM GAS  C:\Users\locurtoj\AppData\Local\Temp\ccxinz00.s 			page 20


 721:Generated_Source\PSoC5/USBUART_drv.c ****     }
 722:Generated_Source\PSoC5/USBUART_drv.c **** 
 723:Generated_Source\PSoC5/USBUART_drv.c ****     USBUART_transferState = USBUART_TRANS_STATE_IDLE;
 724:Generated_Source\PSoC5/USBUART_drv.c ****     
 725:Generated_Source\PSoC5/USBUART_drv.c ****     /* Update the completion block. */
 726:Generated_Source\PSoC5/USBUART_drv.c ****     USBUART_UpdateStatusBlock(USBUART_XFER_STATUS_ACK);
 727:Generated_Source\PSoC5/USBUART_drv.c ****     
 728:Generated_Source\PSoC5/USBUART_drv.c ****     /* Stall IN and OUT, no more data is expected. */
 729:Generated_Source\PSoC5/USBUART_drv.c ****     USBUART_ep0Mode = USBUART_MODE_STALL_IN_OUT;
 730:Generated_Source\PSoC5/USBUART_drv.c **** }
 731:Generated_Source\PSoC5/USBUART_drv.c **** 
 732:Generated_Source\PSoC5/USBUART_drv.c **** 
 733:Generated_Source\PSoC5/USBUART_drv.c **** /*******************************************************************************
 734:Generated_Source\PSoC5/USBUART_drv.c **** * Function Name: USBUART_UpdateStatusBlock
 735:Generated_Source\PSoC5/USBUART_drv.c **** ****************************************************************************//**
 736:Generated_Source\PSoC5/USBUART_drv.c **** *
 737:Generated_Source\PSoC5/USBUART_drv.c **** *  Update the Completion Status Block for a Request.  The block is updated
 738:Generated_Source\PSoC5/USBUART_drv.c **** *  with the completion code the USBUART_transferByteCount.  The
 739:Generated_Source\PSoC5/USBUART_drv.c **** *  StatusBlock Pointer is set to NULL.
 740:Generated_Source\PSoC5/USBUART_drv.c **** *
 741:Generated_Source\PSoC5/USBUART_drv.c **** *  completionCode - status.
 742:Generated_Source\PSoC5/USBUART_drv.c **** *
 743:Generated_Source\PSoC5/USBUART_drv.c **** *
 744:Generated_Source\PSoC5/USBUART_drv.c **** * \globalvars
 745:Generated_Source\PSoC5/USBUART_drv.c **** *  USBUART_currentTD.pStatusBlock->status - updated by the
 746:Generated_Source\PSoC5/USBUART_drv.c **** *    completionCode parameter.
 747:Generated_Source\PSoC5/USBUART_drv.c **** *  USBUART_currentTD.pStatusBlock->length - updated.
 748:Generated_Source\PSoC5/USBUART_drv.c **** *  USBUART_currentTD.pStatusBlock - cleared.
 749:Generated_Source\PSoC5/USBUART_drv.c **** *
 750:Generated_Source\PSoC5/USBUART_drv.c **** * \reentrant
 751:Generated_Source\PSoC5/USBUART_drv.c **** *  No.
 752:Generated_Source\PSoC5/USBUART_drv.c **** *
 753:Generated_Source\PSoC5/USBUART_drv.c **** *******************************************************************************/
 754:Generated_Source\PSoC5/USBUART_drv.c **** void USBUART_UpdateStatusBlock(uint8 completionCode) 
 755:Generated_Source\PSoC5/USBUART_drv.c **** {
 358              		.loc 1 755 0
 359              		.cfi_startproc
 360              		@ args = 0, pretend = 0, frame = 0
 361              		@ frame_needed = 0, uses_anonymous_args = 0
 362              		@ link register save eliminated.
 363              	.LVL14:
 756:Generated_Source\PSoC5/USBUART_drv.c ****     if (USBUART_currentTD.pStatusBlock != NULL)
 364              		.loc 1 756 0
 365 0000 064B     		ldr	r3, .L27
 366 0002 9B68     		ldr	r3, [r3, #8]
 367 0004 43B1     		cbz	r3, .L25
 757:Generated_Source\PSoC5/USBUART_drv.c ****     {
 758:Generated_Source\PSoC5/USBUART_drv.c ****         USBUART_currentTD.pStatusBlock->status = completionCode;
 368              		.loc 1 758 0
 369 0006 054B     		ldr	r3, .L27
 370 0008 9A68     		ldr	r2, [r3, #8]
 371 000a 1070     		strb	r0, [r2]
 759:Generated_Source\PSoC5/USBUART_drv.c ****         USBUART_currentTD.pStatusBlock->length = USBUART_transferByteCount;
 372              		.loc 1 759 0
 373 000c 9A68     		ldr	r2, [r3, #8]
 374 000e 0449     		ldr	r1, .L27+4
 375 0010 0988     		ldrh	r1, [r1]
ARM GAS  C:\Users\locurtoj\AppData\Local\Temp\ccxinz00.s 			page 21


 376 0012 5180     		strh	r1, [r2, #2]	@ movhi
 760:Generated_Source\PSoC5/USBUART_drv.c ****         USBUART_currentTD.pStatusBlock = NULL;
 377              		.loc 1 760 0
 378 0014 0022     		movs	r2, #0
 379 0016 9A60     		str	r2, [r3, #8]
 380              	.L25:
 381 0018 7047     		bx	lr
 382              	.L28:
 383 001a 00BF     		.align	2
 384              	.L27:
 385 001c 00000000 		.word	USBUART_currentTD
 386 0020 00000000 		.word	USBUART_transferByteCount
 387              		.cfi_endproc
 388              	.LFE14:
 389              		.size	USBUART_UpdateStatusBlock, .-USBUART_UpdateStatusBlock
 390              		.section	.text.USBUART_HandleSetup,"ax",%progbits
 391              		.align	2
 392              		.global	USBUART_HandleSetup
 393              		.thumb
 394              		.thumb_func
 395              		.type	USBUART_HandleSetup, %function
 396              	USBUART_HandleSetup:
 397              	.LFB1:
 199:Generated_Source\PSoC5/USBUART_drv.c ****     uint8 requestHandled;
 398              		.loc 1 199 0
 399              		.cfi_startproc
 400              		@ args = 0, pretend = 0, frame = 0
 401              		@ frame_needed = 0, uses_anonymous_args = 0
 402 0000 08B5     		push	{r3, lr}
 403              		.cfi_def_cfa_offset 8
 404              		.cfi_offset 3, -8
 405              		.cfi_offset 14, -4
 205:Generated_Source\PSoC5/USBUART_drv.c ****     USBUART_EP0_CR_REG = (uint8) requestHandled;
 406              		.loc 1 205 0
 407 0002 134B     		ldr	r3, .L39
 408 0004 1A78     		ldrb	r2, [r3]	@ zero_extendqisi2
 409 0006 D2B2     		uxtb	r2, r2
 410              	.LVL15:
 206:Generated_Source\PSoC5/USBUART_drv.c ****     requestHandled = (uint8) USBUART_EP0_CR_REG;
 411              		.loc 1 206 0
 412 0008 1A70     		strb	r2, [r3]
 207:Generated_Source\PSoC5/USBUART_drv.c **** 
 413              		.loc 1 207 0
 414 000a 1B78     		ldrb	r3, [r3]	@ zero_extendqisi2
 415 000c DBB2     		uxtb	r3, r3
 416              	.LVL16:
 209:Generated_Source\PSoC5/USBUART_drv.c ****     {
 417              		.loc 1 209 0
 418 000e 13F0800F 		tst	r3, #128
 419 0012 02D0     		beq	.L30
 212:Generated_Source\PSoC5/USBUART_drv.c ****     }
 420              		.loc 1 212 0
 421 0014 0F4A     		ldr	r2, .L39+4
 422 0016 1370     		strb	r3, [r2]
 423 0018 08BD     		pop	{r3, pc}
 424              	.LVL17:
 425              	.L30:
ARM GAS  C:\Users\locurtoj\AppData\Local\Temp\ccxinz00.s 			page 22


 217:Generated_Source\PSoC5/USBUART_drv.c **** 
 426              		.loc 1 217 0
 427 001a 0220     		movs	r0, #2
 428 001c FFF7FEFF 		bl	USBUART_UpdateStatusBlock
 429              	.LVL18:
 220:Generated_Source\PSoC5/USBUART_drv.c ****         {
 430              		.loc 1 220 0
 431 0020 0D4B     		ldr	r3, .L39+8
 432 0022 1B78     		ldrb	r3, [r3]	@ zero_extendqisi2
 433 0024 03F06003 		and	r3, r3, #96
 434 0028 202B     		cmp	r3, #32
 435 002a 05D0     		beq	.L33
 436 002c 402B     		cmp	r3, #64
 437 002e 06D0     		beq	.L34
 438 0030 43B9     		cbnz	r3, .L37
 223:Generated_Source\PSoC5/USBUART_drv.c ****                 break;
 439              		.loc 1 223 0
 440 0032 FFF7FEFF 		bl	USBUART_HandleStandardRqst
 441              	.LVL19:
 224:Generated_Source\PSoC5/USBUART_drv.c ****                 
 442              		.loc 1 224 0
 443 0036 06E0     		b	.L32
 444              	.LVL20:
 445              	.L33:
 227:Generated_Source\PSoC5/USBUART_drv.c ****                 break;
 446              		.loc 1 227 0
 447 0038 FFF7FEFF 		bl	USBUART_DispatchClassRqst
 448              	.LVL21:
 228:Generated_Source\PSoC5/USBUART_drv.c ****                 
 449              		.loc 1 228 0
 450 003c 03E0     		b	.L32
 451              	.LVL22:
 452              	.L34:
 231:Generated_Source\PSoC5/USBUART_drv.c ****                 break;
 453              		.loc 1 231 0
 454 003e FFF7FEFF 		bl	USBUART_HandleVendorRqst
 455              	.LVL23:
 232:Generated_Source\PSoC5/USBUART_drv.c ****                 
 456              		.loc 1 232 0
 457 0042 00E0     		b	.L32
 458              	.LVL24:
 459              	.L37:
 235:Generated_Source\PSoC5/USBUART_drv.c ****                 break;
 460              		.loc 1 235 0
 461 0044 0020     		movs	r0, #0
 462              	.L32:
 463              	.LVL25:
 240:Generated_Source\PSoC5/USBUART_drv.c ****         {
 464              		.loc 1 240 0
 465 0046 10B9     		cbnz	r0, .L29
 242:Generated_Source\PSoC5/USBUART_drv.c ****         }
 466              		.loc 1 242 0
 467 0048 0322     		movs	r2, #3
 468 004a 024B     		ldr	r3, .L39+4
 469 004c 1A70     		strb	r2, [r3]
 470              	.L29:
 471 004e 08BD     		pop	{r3, pc}
ARM GAS  C:\Users\locurtoj\AppData\Local\Temp\ccxinz00.s 			page 23


 472              	.L40:
 473              		.align	2
 474              	.L39:
 475 0050 28600040 		.word	1073766440
 476 0054 00000000 		.word	USBUART_ep0Mode
 477 0058 00600040 		.word	1073766400
 478              		.cfi_endproc
 479              	.LFE1:
 480              		.size	USBUART_HandleSetup, .-USBUART_HandleSetup
 481              		.section	.text.USBUART_ControlReadStatusStage,"ax",%progbits
 482              		.align	2
 483              		.global	USBUART_ControlReadStatusStage
 484              		.thumb
 485              		.thumb_func
 486              		.type	USBUART_ControlReadStatusStage, %function
 487              	USBUART_ControlReadStatusStage:
 488              	.LFB8:
 527:Generated_Source\PSoC5/USBUART_drv.c ****     /* Update the transfer byte count */
 489              		.loc 1 527 0
 490              		.cfi_startproc
 491              		@ args = 0, pretend = 0, frame = 0
 492              		@ frame_needed = 0, uses_anonymous_args = 0
 493 0000 08B5     		push	{r3, lr}
 494              		.cfi_def_cfa_offset 8
 495              		.cfi_offset 3, -8
 496              		.cfi_offset 14, -4
 529:Generated_Source\PSoC5/USBUART_drv.c ****     
 497              		.loc 1 529 0
 498 0002 094B     		ldr	r3, .L43
 499 0004 1978     		ldrb	r1, [r3]	@ zero_extendqisi2
 500 0006 094A     		ldr	r2, .L43+4
 501 0008 1388     		ldrh	r3, [r2]
 502 000a 9BB2     		uxth	r3, r3
 503 000c 0B44     		add	r3, r3, r1
 504 000e 9BB2     		uxth	r3, r3
 505 0010 1380     		strh	r3, [r2]	@ movhi
 532:Generated_Source\PSoC5/USBUART_drv.c ****     
 506              		.loc 1 532 0
 507 0012 0022     		movs	r2, #0
 508 0014 064B     		ldr	r3, .L43+8
 509 0016 1A70     		strb	r2, [r3]
 535:Generated_Source\PSoC5/USBUART_drv.c ****     
 510              		.loc 1 535 0
 511 0018 0120     		movs	r0, #1
 512 001a FFF7FEFF 		bl	USBUART_UpdateStatusBlock
 513              	.LVL26:
 538:Generated_Source\PSoC5/USBUART_drv.c **** }
 514              		.loc 1 538 0
 515 001e 0322     		movs	r2, #3
 516 0020 044B     		ldr	r3, .L43+12
 517 0022 1A70     		strb	r2, [r3]
 518 0024 08BD     		pop	{r3, pc}
 519              	.L44:
 520 0026 00BF     		.align	2
 521              	.L43:
 522 0028 00000000 		.word	USBUART_lastPacketSize
 523 002c 00000000 		.word	USBUART_transferByteCount
ARM GAS  C:\Users\locurtoj\AppData\Local\Temp\ccxinz00.s 			page 24


 524 0030 00000000 		.word	USBUART_transferState
 525 0034 00000000 		.word	USBUART_ep0Mode
 526              		.cfi_endproc
 527              	.LFE8:
 528              		.size	USBUART_ControlReadStatusStage, .-USBUART_ControlReadStatusStage
 529              		.section	.text.USBUART_HandleOUT,"ax",%progbits
 530              		.align	2
 531              		.global	USBUART_HandleOUT
 532              		.thumb
 533              		.thumb_func
 534              		.type	USBUART_HandleOUT, %function
 535              	USBUART_HandleOUT:
 536              	.LFB3:
 296:Generated_Source\PSoC5/USBUART_drv.c ****     switch (USBUART_transferState)
 537              		.loc 1 296 0
 538              		.cfi_startproc
 539              		@ args = 0, pretend = 0, frame = 0
 540              		@ frame_needed = 0, uses_anonymous_args = 0
 541 0000 08B5     		push	{r3, lr}
 542              		.cfi_def_cfa_offset 8
 543              		.cfi_offset 3, -8
 544              		.cfi_offset 14, -4
 297:Generated_Source\PSoC5/USBUART_drv.c ****     {
 545              		.loc 1 297 0
 546 0002 0B4B     		ldr	r3, .L51
 547 0004 1B78     		ldrb	r3, [r3]	@ zero_extendqisi2
 548 0006 DBB2     		uxtb	r3, r3
 549 0008 042B     		cmp	r3, #4
 550 000a 06D0     		beq	.L47
 551 000c 062B     		cmp	r3, #6
 552 000e 07D0     		beq	.L48
 553 0010 022B     		cmp	r3, #2
 554 0012 0BD1     		bne	.L45
 303:Generated_Source\PSoC5/USBUART_drv.c ****             break;
 555              		.loc 1 303 0
 556 0014 FFF7FEFF 		bl	USBUART_ControlReadStatusStage
 557              	.LVL27:
 304:Generated_Source\PSoC5/USBUART_drv.c ****             
 558              		.loc 1 304 0
 559 0018 08BD     		pop	{r3, pc}
 560              	.L47:
 307:Generated_Source\PSoC5/USBUART_drv.c ****             break;
 561              		.loc 1 307 0
 562 001a FFF7FEFF 		bl	USBUART_ControlWriteDataStage
 563              	.LVL28:
 308:Generated_Source\PSoC5/USBUART_drv.c ****             
 564              		.loc 1 308 0
 565 001e 08BD     		pop	{r3, pc}
 566              	.L48:
 312:Generated_Source\PSoC5/USBUART_drv.c ****             
 567              		.loc 1 312 0
 568 0020 0320     		movs	r0, #3
 569 0022 FFF7FEFF 		bl	USBUART_UpdateStatusBlock
 570              	.LVL29:
 315:Generated_Source\PSoC5/USBUART_drv.c ****             break;
 571              		.loc 1 315 0
 572 0026 0322     		movs	r2, #3
ARM GAS  C:\Users\locurtoj\AppData\Local\Temp\ccxinz00.s 			page 25


 573 0028 024B     		ldr	r3, .L51+4
 574 002a 1A70     		strb	r2, [r3]
 575              	.L45:
 576 002c 08BD     		pop	{r3, pc}
 577              	.L52:
 578 002e 00BF     		.align	2
 579              	.L51:
 580 0030 00000000 		.word	USBUART_transferState
 581 0034 00000000 		.word	USBUART_ep0Mode
 582              		.cfi_endproc
 583              	.LFE3:
 584              		.size	USBUART_HandleOUT, .-USBUART_HandleOUT
 585              		.section	.text.USBUART_ControlWriteStatusStage,"ax",%progbits
 586              		.align	2
 587              		.global	USBUART_ControlWriteStatusStage
 588              		.thumb
 589              		.thumb_func
 590              		.type	USBUART_ControlWriteStatusStage, %function
 591              	USBUART_ControlWriteStatusStage:
 592              	.LFB11:
 654:Generated_Source\PSoC5/USBUART_drv.c ****     /* Go Idle */
 593              		.loc 1 654 0
 594              		.cfi_startproc
 595              		@ args = 0, pretend = 0, frame = 0
 596              		@ frame_needed = 0, uses_anonymous_args = 0
 597 0000 08B5     		push	{r3, lr}
 598              		.cfi_def_cfa_offset 8
 599              		.cfi_offset 3, -8
 600              		.cfi_offset 14, -4
 656:Generated_Source\PSoC5/USBUART_drv.c ****     
 601              		.loc 1 656 0
 602 0002 0022     		movs	r2, #0
 603 0004 044B     		ldr	r3, .L55
 604 0006 1A70     		strb	r2, [r3]
 659:Generated_Source\PSoC5/USBUART_drv.c ****     
 605              		.loc 1 659 0
 606 0008 0120     		movs	r0, #1
 607 000a FFF7FEFF 		bl	USBUART_UpdateStatusBlock
 608              	.LVL30:
 662:Generated_Source\PSoC5/USBUART_drv.c **** }
 609              		.loc 1 662 0
 610 000e 0322     		movs	r2, #3
 611 0010 024B     		ldr	r3, .L55+4
 612 0012 1A70     		strb	r2, [r3]
 613 0014 08BD     		pop	{r3, pc}
 614              	.L56:
 615 0016 00BF     		.align	2
 616              	.L55:
 617 0018 00000000 		.word	USBUART_transferState
 618 001c 00000000 		.word	USBUART_ep0Mode
 619              		.cfi_endproc
 620              	.LFE11:
 621              		.size	USBUART_ControlWriteStatusStage, .-USBUART_ControlWriteStatusStage
 622              		.section	.text.USBUART_NoDataControlStatusStage,"ax",%progbits
 623              		.align	2
 624              		.global	USBUART_NoDataControlStatusStage
 625              		.thumb
ARM GAS  C:\Users\locurtoj\AppData\Local\Temp\ccxinz00.s 			page 26


 626              		.thumb_func
 627              		.type	USBUART_NoDataControlStatusStage, %function
 628              	USBUART_NoDataControlStatusStage:
 629              	.LFB13:
 715:Generated_Source\PSoC5/USBUART_drv.c ****     if (0u != USBUART_deviceAddress)
 630              		.loc 1 715 0
 631              		.cfi_startproc
 632              		@ args = 0, pretend = 0, frame = 0
 633              		@ frame_needed = 0, uses_anonymous_args = 0
 634 0000 08B5     		push	{r3, lr}
 635              		.cfi_def_cfa_offset 8
 636              		.cfi_offset 3, -8
 637              		.cfi_offset 14, -4
 716:Generated_Source\PSoC5/USBUART_drv.c ****     {
 638              		.loc 1 716 0
 639 0002 0B4B     		ldr	r3, .L60
 640 0004 1B78     		ldrb	r3, [r3]	@ zero_extendqisi2
 641 0006 13F0FF0F 		tst	r3, #255
 642 000a 07D0     		beq	.L58
 719:Generated_Source\PSoC5/USBUART_drv.c ****         USBUART_deviceAddress = 0u;
 643              		.loc 1 719 0
 644 000c 084A     		ldr	r2, .L60
 645 000e 1378     		ldrb	r3, [r2]	@ zero_extendqisi2
 646 0010 43F08003 		orr	r3, r3, #128
 647 0014 0749     		ldr	r1, .L60+4
 648 0016 0B70     		strb	r3, [r1]
 720:Generated_Source\PSoC5/USBUART_drv.c ****     }
 649              		.loc 1 720 0
 650 0018 0023     		movs	r3, #0
 651 001a 1370     		strb	r3, [r2]
 652              	.L58:
 723:Generated_Source\PSoC5/USBUART_drv.c ****     
 653              		.loc 1 723 0
 654 001c 0022     		movs	r2, #0
 655 001e 064B     		ldr	r3, .L60+8
 656 0020 1A70     		strb	r2, [r3]
 726:Generated_Source\PSoC5/USBUART_drv.c ****     
 657              		.loc 1 726 0
 658 0022 0120     		movs	r0, #1
 659 0024 FFF7FEFF 		bl	USBUART_UpdateStatusBlock
 660              	.LVL31:
 729:Generated_Source\PSoC5/USBUART_drv.c **** }
 661              		.loc 1 729 0
 662 0028 0322     		movs	r2, #3
 663 002a 044B     		ldr	r3, .L60+12
 664 002c 1A70     		strb	r2, [r3]
 665 002e 08BD     		pop	{r3, pc}
 666              	.L61:
 667              		.align	2
 668              	.L60:
 669 0030 00000000 		.word	USBUART_deviceAddress
 670 0034 08600040 		.word	1073766408
 671 0038 00000000 		.word	USBUART_transferState
 672 003c 00000000 		.word	USBUART_ep0Mode
 673              		.cfi_endproc
 674              	.LFE13:
 675              		.size	USBUART_NoDataControlStatusStage, .-USBUART_NoDataControlStatusStage
ARM GAS  C:\Users\locurtoj\AppData\Local\Temp\ccxinz00.s 			page 27


 676              		.section	.text.USBUART_HandleIN,"ax",%progbits
 677              		.align	2
 678              		.global	USBUART_HandleIN
 679              		.thumb
 680              		.thumb_func
 681              		.type	USBUART_HandleIN, %function
 682              	USBUART_HandleIN:
 683              	.LFB2:
 260:Generated_Source\PSoC5/USBUART_drv.c ****     switch (USBUART_transferState)
 684              		.loc 1 260 0
 685              		.cfi_startproc
 686              		@ args = 0, pretend = 0, frame = 0
 687              		@ frame_needed = 0, uses_anonymous_args = 0
 688 0000 08B5     		push	{r3, lr}
 689              		.cfi_def_cfa_offset 8
 690              		.cfi_offset 3, -8
 691              		.cfi_offset 14, -4
 261:Generated_Source\PSoC5/USBUART_drv.c ****     {
 692              		.loc 1 261 0
 693 0002 094B     		ldr	r3, .L68
 694 0004 1B78     		ldrb	r3, [r3]	@ zero_extendqisi2
 695 0006 DBB2     		uxtb	r3, r3
 696 0008 042B     		cmp	r3, #4
 697 000a 06D0     		beq	.L64
 698 000c 062B     		cmp	r3, #6
 699 000e 07D0     		beq	.L65
 700 0010 022B     		cmp	r3, #2
 701 0012 07D1     		bne	.L62
 267:Generated_Source\PSoC5/USBUART_drv.c ****             break;
 702              		.loc 1 267 0
 703 0014 FFF7FEFF 		bl	USBUART_ControlReadDataStage
 704              	.LVL32:
 268:Generated_Source\PSoC5/USBUART_drv.c ****             
 705              		.loc 1 268 0
 706 0018 08BD     		pop	{r3, pc}
 707              	.L64:
 271:Generated_Source\PSoC5/USBUART_drv.c ****             break;
 708              		.loc 1 271 0
 709 001a FFF7FEFF 		bl	USBUART_ControlWriteStatusStage
 710              	.LVL33:
 272:Generated_Source\PSoC5/USBUART_drv.c ****             
 711              		.loc 1 272 0
 712 001e 08BD     		pop	{r3, pc}
 713              	.L65:
 275:Generated_Source\PSoC5/USBUART_drv.c ****             break;
 714              		.loc 1 275 0
 715 0020 FFF7FEFF 		bl	USBUART_NoDataControlStatusStage
 716              	.LVL34:
 717              	.L62:
 718 0024 08BD     		pop	{r3, pc}
 719              	.L69:
 720 0026 00BF     		.align	2
 721              	.L68:
 722 0028 00000000 		.word	USBUART_transferState
 723              		.cfi_endproc
 724              	.LFE2:
 725              		.size	USBUART_HandleIN, .-USBUART_HandleIN
ARM GAS  C:\Users\locurtoj\AppData\Local\Temp\ccxinz00.s 			page 28


 726              		.section	.text.USBUART_EP_0_ISR,"ax",%progbits
 727              		.align	2
 728              		.global	USBUART_EP_0_ISR
 729              		.thumb
 730              		.thumb_func
 731              		.type	USBUART_EP_0_ISR, %function
 732              	USBUART_EP_0_ISR:
 733              	.LFB0:
  95:Generated_Source\PSoC5/USBUART_drv.c ****     uint8 tempReg;
 734              		.loc 1 95 0
 735              		.cfi_startproc
 736              		@ args = 0, pretend = 0, frame = 0
 737              		@ frame_needed = 0, uses_anonymous_args = 0
 738 0000 08B5     		push	{r3, lr}
 739              		.cfi_def_cfa_offset 8
 740              		.cfi_offset 3, -8
 741              		.cfi_offset 14, -4
 103:Generated_Source\PSoC5/USBUART_drv.c ****     if ((tempReg & USBUART_MODE_ACKD) != 0u)
 742              		.loc 1 103 0
 743 0002 284B     		ldr	r3, .L81
 744 0004 1B78     		ldrb	r3, [r3]	@ zero_extendqisi2
 745 0006 DBB2     		uxtb	r3, r3
 746              	.LVL35:
 104:Generated_Source\PSoC5/USBUART_drv.c ****     {
 747              		.loc 1 104 0
 748 0008 13F0100F 		tst	r3, #16
 749 000c 48D0     		beq	.L70
 750              	.LVL36:
 107:Generated_Source\PSoC5/USBUART_drv.c ****         {
 751              		.loc 1 107 0
 752 000e 13F0800F 		tst	r3, #128
 753 0012 0CD0     		beq	.L72
 109:Generated_Source\PSoC5/USBUART_drv.c ****             {
 754              		.loc 1 109 0
 755 0014 03F00F03 		and	r3, r3, #15
 756              	.LVL37:
 757 0018 012B     		cmp	r3, #1
 758 001a 16D1     		bne	.L77
 116:Generated_Source\PSoC5/USBUART_drv.c ****                 
 759              		.loc 1 116 0
 760 001c FFF7FEFF 		bl	USBUART_HandleSetup
 761              	.LVL38:
 118:Generated_Source\PSoC5/USBUART_drv.c ****                 {
 762              		.loc 1 118 0
 763 0020 214B     		ldr	r3, .L81+4
 764 0022 1B78     		ldrb	r3, [r3]	@ zero_extendqisi2
 765 0024 13F0800F 		tst	r3, #128
 766 0028 11D1     		bne	.L78
 106:Generated_Source\PSoC5/USBUART_drv.c ****         if ((tempReg & USBUART_MODE_SETUP_RCVD) != 0u)
 767              		.loc 1 106 0
 768 002a 0123     		movs	r3, #1
 769 002c 12E0     		b	.L73
 770              	.LVL39:
 771              	.L72:
 125:Generated_Source\PSoC5/USBUART_drv.c ****         {
 772              		.loc 1 125 0
 773 002e 13F0400F 		tst	r3, #64
ARM GAS  C:\Users\locurtoj\AppData\Local\Temp\ccxinz00.s 			page 29


 774 0032 03D0     		beq	.L74
 127:Generated_Source\PSoC5/USBUART_drv.c ****         }
 775              		.loc 1 127 0
 776 0034 FFF7FEFF 		bl	USBUART_HandleIN
 777              	.LVL40:
 106:Generated_Source\PSoC5/USBUART_drv.c ****         if ((tempReg & USBUART_MODE_SETUP_RCVD) != 0u)
 778              		.loc 1 106 0
 779 0038 0123     		movs	r3, #1
 780 003a 0BE0     		b	.L73
 781              	.LVL41:
 782              	.L74:
 129:Generated_Source\PSoC5/USBUART_drv.c ****         {
 783              		.loc 1 129 0
 784 003c 13F0200F 		tst	r3, #32
 785 0040 07D0     		beq	.L79
 131:Generated_Source\PSoC5/USBUART_drv.c ****         }
 786              		.loc 1 131 0
 787 0042 FFF7FEFF 		bl	USBUART_HandleOUT
 788              	.LVL42:
 106:Generated_Source\PSoC5/USBUART_drv.c ****         if ((tempReg & USBUART_MODE_SETUP_RCVD) != 0u)
 789              		.loc 1 106 0
 790 0046 0123     		movs	r3, #1
 791 0048 04E0     		b	.L73
 792              	.L77:
 112:Generated_Source\PSoC5/USBUART_drv.c ****             }
 793              		.loc 1 112 0
 794 004a 0023     		movs	r3, #0
 795 004c 02E0     		b	.L73
 796              	.L78:
 121:Generated_Source\PSoC5/USBUART_drv.c ****                 }
 797              		.loc 1 121 0
 798 004e 0023     		movs	r3, #0
 799 0050 00E0     		b	.L73
 800              	.LVL43:
 801              	.L79:
 135:Generated_Source\PSoC5/USBUART_drv.c ****         }
 802              		.loc 1 135 0
 803 0052 0023     		movs	r3, #0
 804              	.LVL44:
 805              	.L73:
 139:Generated_Source\PSoC5/USBUART_drv.c ****         {
 806              		.loc 1 139 0
 807 0054 23B3     		cbz	r3, .L70
 142:Generated_Source\PSoC5/USBUART_drv.c ****             
 808              		.loc 1 142 0
 809 0056 134B     		ldr	r3, .L81
 810              	.LVL45:
 811 0058 1B78     		ldrb	r3, [r3]	@ zero_extendqisi2
 812              	.LVL46:
 145:Generated_Source\PSoC5/USBUART_drv.c ****             {
 813              		.loc 1 145 0
 814 005a 13F0800F 		tst	r3, #128
 815 005e 1FD1     		bne	.L70
 148:Generated_Source\PSoC5/USBUART_drv.c ****                 USBUART_EP0_CNT_REG = tempReg;
 816              		.loc 1 148 0
 817 0060 124B     		ldr	r3, .L81+8
 818              	.LVL47:
ARM GAS  C:\Users\locurtoj\AppData\Local\Temp\ccxinz00.s 			page 30


 819 0062 1B78     		ldrb	r3, [r3]	@ zero_extendqisi2
 820 0064 124A     		ldr	r2, .L81+12
 821 0066 1278     		ldrb	r2, [r2]	@ zero_extendqisi2
 822 0068 1343     		orrs	r3, r3, r2
 823              	.LVL48:
 149:Generated_Source\PSoC5/USBUART_drv.c ****                
 824              		.loc 1 149 0
 825 006a 124A     		ldr	r2, .L81+16
 826 006c 1370     		strb	r3, [r2]
 152:Generated_Source\PSoC5/USBUART_drv.c ****                 {
 827              		.loc 1 152 0
 828 006e 1278     		ldrb	r2, [r2]	@ zero_extendqisi2
 829 0070 D2B2     		uxtb	r2, r2
 830 0072 9342     		cmp	r3, r2
 831 0074 14D1     		bne	.L70
 832              	.LVL49:
 833              	.L76:
 158:Generated_Source\PSoC5/USBUART_drv.c ****                         
 834              		.loc 1 158 0
 835 0076 0C4B     		ldr	r3, .L81+4
 836 0078 1B78     		ldrb	r3, [r3]	@ zero_extendqisi2
 837 007a DBB2     		uxtb	r3, r3
 838              	.LVL50:
 161:Generated_Source\PSoC5/USBUART_drv.c ****                         
 839              		.loc 1 161 0
 840 007c 094A     		ldr	r2, .L81
 841 007e 1278     		ldrb	r2, [r2]	@ zero_extendqisi2
 842              	.LVL51:
 164:Generated_Source\PSoC5/USBUART_drv.c ****                         {
 843              		.loc 1 164 0
 844 0080 12F0800F 		tst	r2, #128
 845 0084 07D1     		bne	.L75
 167:Generated_Source\PSoC5/USBUART_drv.c ****                             
 846              		.loc 1 167 0
 847 0086 084B     		ldr	r3, .L81+4
 848              	.LVL52:
 849 0088 1B78     		ldrb	r3, [r3]	@ zero_extendqisi2
 850 008a DBB2     		uxtb	r3, r3
 851 008c 054A     		ldr	r2, .L81
 852              	.LVL53:
 853 008e 1370     		strb	r3, [r2]
 170:Generated_Source\PSoC5/USBUART_drv.c ****                         }
 854              		.loc 1 170 0
 855 0090 1378     		ldrb	r3, [r2]	@ zero_extendqisi2
 856 0092 03F00F03 		and	r3, r3, #15
 857              	.LVL54:
 858              	.L75:
 173:Generated_Source\PSoC5/USBUART_drv.c ****                 }
 859              		.loc 1 173 0
 860 0096 044A     		ldr	r2, .L81+4
 861 0098 1278     		ldrb	r2, [r2]	@ zero_extendqisi2
 862 009a D2B2     		uxtb	r2, r2
 863 009c 9342     		cmp	r3, r2
 864 009e EAD1     		bne	.L76
 865              	.LVL55:
 866              	.L70:
 867 00a0 08BD     		pop	{r3, pc}
ARM GAS  C:\Users\locurtoj\AppData\Local\Temp\ccxinz00.s 			page 31


 868              	.L82:
 869 00a2 00BF     		.align	2
 870              	.L81:
 871 00a4 28600040 		.word	1073766440
 872 00a8 00000000 		.word	USBUART_ep0Mode
 873 00ac 00000000 		.word	USBUART_ep0Toggle
 874 00b0 00000000 		.word	USBUART_ep0Count
 875 00b4 29600040 		.word	1073766441
 876              		.cfi_endproc
 877              	.LFE0:
 878              		.size	USBUART_EP_0_ISR, .-USBUART_EP_0_ISR
 879              		.section	.text.USBUART_InitializeStatusBlock,"ax",%progbits
 880              		.align	2
 881              		.global	USBUART_InitializeStatusBlock
 882              		.thumb
 883              		.thumb_func
 884              		.type	USBUART_InitializeStatusBlock, %function
 885              	USBUART_InitializeStatusBlock:
 886              	.LFB15:
 761:Generated_Source\PSoC5/USBUART_drv.c ****     }
 762:Generated_Source\PSoC5/USBUART_drv.c **** }
 763:Generated_Source\PSoC5/USBUART_drv.c **** 
 764:Generated_Source\PSoC5/USBUART_drv.c **** 
 765:Generated_Source\PSoC5/USBUART_drv.c **** /*******************************************************************************
 766:Generated_Source\PSoC5/USBUART_drv.c **** * Function Name: USBUART_InitializeStatusBlock
 767:Generated_Source\PSoC5/USBUART_drv.c **** ****************************************************************************//**
 768:Generated_Source\PSoC5/USBUART_drv.c **** *
 769:Generated_Source\PSoC5/USBUART_drv.c **** *  Initialize the Completion Status Block for a Request.  The completion
 770:Generated_Source\PSoC5/USBUART_drv.c **** *  code is set to USB_XFER_IDLE.
 771:Generated_Source\PSoC5/USBUART_drv.c **** *
 772:Generated_Source\PSoC5/USBUART_drv.c **** *  Also, initializes USBUART_transferByteCount.  Save some space,
 773:Generated_Source\PSoC5/USBUART_drv.c **** *  this is the only consumer.
 774:Generated_Source\PSoC5/USBUART_drv.c **** *
 775:Generated_Source\PSoC5/USBUART_drv.c **** * \globalvars
 776:Generated_Source\PSoC5/USBUART_drv.c **** *  USBUART_currentTD.pStatusBlock->status - set to XFER_IDLE.
 777:Generated_Source\PSoC5/USBUART_drv.c **** *  USBUART_currentTD.pStatusBlock->length - cleared.
 778:Generated_Source\PSoC5/USBUART_drv.c **** *  USBUART_transferByteCount - cleared.
 779:Generated_Source\PSoC5/USBUART_drv.c **** *
 780:Generated_Source\PSoC5/USBUART_drv.c **** * \reentrant
 781:Generated_Source\PSoC5/USBUART_drv.c **** *  No.
 782:Generated_Source\PSoC5/USBUART_drv.c **** *
 783:Generated_Source\PSoC5/USBUART_drv.c **** *******************************************************************************/
 784:Generated_Source\PSoC5/USBUART_drv.c **** void USBUART_InitializeStatusBlock(void) 
 785:Generated_Source\PSoC5/USBUART_drv.c **** {
 887              		.loc 1 785 0
 888              		.cfi_startproc
 889              		@ args = 0, pretend = 0, frame = 0
 890              		@ frame_needed = 0, uses_anonymous_args = 0
 891              		@ link register save eliminated.
 786:Generated_Source\PSoC5/USBUART_drv.c ****     USBUART_transferByteCount = 0u;
 892              		.loc 1 786 0
 893 0000 0022     		movs	r2, #0
 894 0002 064B     		ldr	r3, .L85
 895 0004 1A80     		strh	r2, [r3]	@ movhi
 787:Generated_Source\PSoC5/USBUART_drv.c ****     
 788:Generated_Source\PSoC5/USBUART_drv.c ****     if (USBUART_currentTD.pStatusBlock != NULL)
 896              		.loc 1 788 0
ARM GAS  C:\Users\locurtoj\AppData\Local\Temp\ccxinz00.s 			page 32


 897 0006 064B     		ldr	r3, .L85+4
 898 0008 9B68     		ldr	r3, [r3, #8]
 899 000a 2BB1     		cbz	r3, .L83
 789:Generated_Source\PSoC5/USBUART_drv.c ****     {
 790:Generated_Source\PSoC5/USBUART_drv.c ****         USBUART_currentTD.pStatusBlock->status = USBUART_XFER_IDLE;
 900              		.loc 1 790 0
 901 000c 044A     		ldr	r2, .L85+4
 902 000e 9168     		ldr	r1, [r2, #8]
 903 0010 0023     		movs	r3, #0
 904 0012 0B70     		strb	r3, [r1]
 791:Generated_Source\PSoC5/USBUART_drv.c ****         USBUART_currentTD.pStatusBlock->length = 0u;
 905              		.loc 1 791 0
 906 0014 9268     		ldr	r2, [r2, #8]
 907 0016 5380     		strh	r3, [r2, #2]	@ movhi
 908              	.L83:
 909 0018 7047     		bx	lr
 910              	.L86:
 911 001a 00BF     		.align	2
 912              	.L85:
 913 001c 00000000 		.word	USBUART_transferByteCount
 914 0020 00000000 		.word	USBUART_currentTD
 915              		.cfi_endproc
 916              	.LFE15:
 917              		.size	USBUART_InitializeStatusBlock, .-USBUART_InitializeStatusBlock
 918              		.section	.text.USBUART_InitControlRead,"ax",%progbits
 919              		.align	2
 920              		.global	USBUART_InitControlRead
 921              		.thumb
 922              		.thumb_func
 923              		.type	USBUART_InitControlRead, %function
 924              	USBUART_InitControlRead:
 925              	.LFB5:
 419:Generated_Source\PSoC5/USBUART_drv.c ****     uint16 xferCount;
 926              		.loc 1 419 0
 927              		.cfi_startproc
 928              		@ args = 0, pretend = 0, frame = 0
 929              		@ frame_needed = 0, uses_anonymous_args = 0
 930 0000 08B5     		push	{r3, lr}
 931              		.cfi_def_cfa_offset 8
 932              		.cfi_offset 3, -8
 933              		.cfi_offset 14, -4
 422:Generated_Source\PSoC5/USBUART_drv.c ****     {
 934              		.loc 1 422 0
 935 0002 0F4B     		ldr	r3, .L92
 936 0004 1B88     		ldrh	r3, [r3]
 937 0006 9BB2     		uxth	r3, r3
 938 0008 13B9     		cbnz	r3, .L88
 424:Generated_Source\PSoC5/USBUART_drv.c ****     }
 939              		.loc 1 424 0
 940 000a FFF7FEFF 		bl	USBUART_InitZeroLengthControlTransfer
 941              	.LVL56:
 942 000e 15E0     		b	.L89
 943              	.L88:
 429:Generated_Source\PSoC5/USBUART_drv.c ****         
 944              		.loc 1 429 0
 945 0010 0222     		movs	r2, #2
 946 0012 0C4B     		ldr	r3, .L92+4
ARM GAS  C:\Users\locurtoj\AppData\Local\Temp\ccxinz00.s 			page 33


 947 0014 1A70     		strb	r2, [r3]
 432:Generated_Source\PSoC5/USBUART_drv.c ****         
 948              		.loc 1 432 0
 949 0016 0022     		movs	r2, #0
 950 0018 0B4B     		ldr	r3, .L92+8
 951 001a 1A70     		strb	r2, [r3]
 435:Generated_Source\PSoC5/USBUART_drv.c ****         
 952              		.loc 1 435 0
 953 001c FFF7FEFF 		bl	USBUART_InitializeStatusBlock
 954              	.LVL57:
 437:Generated_Source\PSoC5/USBUART_drv.c **** 
 955              		.loc 1 437 0
 956 0020 0A4A     		ldr	r2, .L92+12
 957 0022 D179     		ldrb	r1, [r2, #7]	@ zero_extendqisi2
 958 0024 9379     		ldrb	r3, [r2, #6]	@ zero_extendqisi2
 959 0026 43EA0123 		orr	r3, r3, r1, lsl #8
 960              	.LVL58:
 439:Generated_Source\PSoC5/USBUART_drv.c ****         {
 961              		.loc 1 439 0
 962 002a 054A     		ldr	r2, .L92
 963 002c 1288     		ldrh	r2, [r2]
 964 002e 92B2     		uxth	r2, r2
 965 0030 9342     		cmp	r3, r2
 966 0032 01D2     		bcs	.L90
 441:Generated_Source\PSoC5/USBUART_drv.c ****         }
 967              		.loc 1 441 0
 968 0034 024A     		ldr	r2, .L92
 969 0036 1380     		strh	r3, [r2]	@ movhi
 970              	.L90:
 444:Generated_Source\PSoC5/USBUART_drv.c ****     }
 971              		.loc 1 444 0
 972 0038 FFF7FEFF 		bl	USBUART_LoadEP0
 973              	.LVL59:
 974              	.L89:
 448:Generated_Source\PSoC5/USBUART_drv.c **** 
 975              		.loc 1 448 0
 976 003c 0120     		movs	r0, #1
 977 003e 08BD     		pop	{r3, pc}
 978              	.L93:
 979              		.align	2
 980              	.L92:
 981 0040 00000000 		.word	USBUART_currentTD
 982 0044 00000000 		.word	USBUART_transferState
 983 0048 00000000 		.word	USBUART_ep0Toggle
 984 004c 00600040 		.word	1073766400
 985              		.cfi_endproc
 986              	.LFE5:
 987              		.size	USBUART_InitControlRead, .-USBUART_InitControlRead
 988              		.section	.text.USBUART_InitControlWrite,"ax",%progbits
 989              		.align	2
 990              		.global	USBUART_InitControlWrite
 991              		.thumb
 992              		.thumb_func
 993              		.type	USBUART_InitControlWrite, %function
 994              	USBUART_InitControlWrite:
 995              	.LFB9:
 561:Generated_Source\PSoC5/USBUART_drv.c ****     uint16 xferCount;
ARM GAS  C:\Users\locurtoj\AppData\Local\Temp\ccxinz00.s 			page 34


 996              		.loc 1 561 0
 997              		.cfi_startproc
 998              		@ args = 0, pretend = 0, frame = 0
 999              		@ frame_needed = 0, uses_anonymous_args = 0
 1000 0000 08B5     		push	{r3, lr}
 1001              		.cfi_def_cfa_offset 8
 1002              		.cfi_offset 3, -8
 1003              		.cfi_offset 14, -4
 565:Generated_Source\PSoC5/USBUART_drv.c ****     
 1004              		.loc 1 565 0
 1005 0002 0422     		movs	r2, #4
 1006 0004 0B4B     		ldr	r3, .L97
 1007 0006 1A70     		strb	r2, [r3]
 568:Generated_Source\PSoC5/USBUART_drv.c ****     
 1008              		.loc 1 568 0
 1009 0008 8022     		movs	r2, #128
 1010 000a 0B4B     		ldr	r3, .L97+4
 1011 000c 1A70     		strb	r2, [r3]
 571:Generated_Source\PSoC5/USBUART_drv.c **** 
 1012              		.loc 1 571 0
 1013 000e FFF7FEFF 		bl	USBUART_InitializeStatusBlock
 1014              	.LVL60:
 573:Generated_Source\PSoC5/USBUART_drv.c **** 
 1015              		.loc 1 573 0
 1016 0012 0A4A     		ldr	r2, .L97+8
 1017 0014 D179     		ldrb	r1, [r2, #7]	@ zero_extendqisi2
 1018 0016 9379     		ldrb	r3, [r2, #6]	@ zero_extendqisi2
 1019 0018 43EA0123 		orr	r3, r3, r1, lsl #8
 1020              	.LVL61:
 575:Generated_Source\PSoC5/USBUART_drv.c ****     {
 1021              		.loc 1 575 0
 1022 001c 084A     		ldr	r2, .L97+12
 1023 001e 1288     		ldrh	r2, [r2]
 1024 0020 92B2     		uxth	r2, r2
 1025 0022 9342     		cmp	r3, r2
 1026 0024 01D2     		bcs	.L95
 577:Generated_Source\PSoC5/USBUART_drv.c ****     }
 1027              		.loc 1 577 0
 1028 0026 064A     		ldr	r2, .L97+12
 1029 0028 1380     		strh	r3, [r2]	@ movhi
 1030              	.L95:
 581:Generated_Source\PSoC5/USBUART_drv.c **** 
 1031              		.loc 1 581 0
 1032 002a 0B22     		movs	r2, #11
 1033 002c 054B     		ldr	r3, .L97+16
 1034              	.LVL62:
 1035 002e 1A70     		strb	r2, [r3]
 584:Generated_Source\PSoC5/USBUART_drv.c **** 
 1036              		.loc 1 584 0
 1037 0030 0120     		movs	r0, #1
 1038 0032 08BD     		pop	{r3, pc}
 1039              	.L98:
 1040              		.align	2
 1041              	.L97:
 1042 0034 00000000 		.word	USBUART_transferState
 1043 0038 00000000 		.word	USBUART_ep0Toggle
 1044 003c 00600040 		.word	1073766400
ARM GAS  C:\Users\locurtoj\AppData\Local\Temp\ccxinz00.s 			page 35


 1045 0040 00000000 		.word	USBUART_currentTD
 1046 0044 00000000 		.word	USBUART_ep0Mode
 1047              		.cfi_endproc
 1048              	.LFE9:
 1049              		.size	USBUART_InitControlWrite, .-USBUART_InitControlWrite
 1050              		.comm	USBUART_transferByteCount,2,2
 1051              		.comm	USBUART_ep0Count,1,1
 1052              		.comm	USBUART_ep0Mode,1,1
 1053              		.comm	USBUART_currentTD,12,4
 1054              		.comm	USBUART_transferState,1,1
 1055              		.comm	USBUART_lastPacketSize,1,1
 1056              		.comm	USBUART_ep0Toggle,1,1
 1057              		.comm	USBUART_interfaceClass,4,4
 1058              		.comm	USBUART_device,1,1
 1059              		.comm	USBUART_interfaceStatus,2,4
 1060              		.comm	USBUART_interfaceSettingLast,2,4
 1061              		.comm	USBUART_interfaceSetting,2,4
 1062              		.comm	USBUART_deviceStatus,1,1
 1063              		.comm	USBUART_deviceAddress,1,1
 1064              		.comm	USBUART_configurationChanged,1,1
 1065              		.comm	USBUART_interfaceNumber,1,1
 1066              		.comm	USBUART_configuration,1,1
 1067              		.comm	USBUART_EP,108,4
 1068              		.text
 1069              	.Letext0:
 1070              		.file 2 "Generated_Source\\PSoC5\\cytypes.h"
 1071              		.file 3 "Generated_Source\\PSoC5\\USBUART.h"
 1072              		.file 4 "Generated_Source\\PSoC5\\USBUART_pvt.h"
