ARM GAS  C:\Users\antarp\AppData\Local\Temp\cc6PrePa.s 			page 1


   1              		.syntax unified
   2              		.cpu cortex-m3
   3              		.fpu softvfp
   4              		.eabi_attribute 20, 1
   5              		.eabi_attribute 21, 1
   6              		.eabi_attribute 23, 3
   7              		.eabi_attribute 24, 1
   8              		.eabi_attribute 25, 1
   9              		.eabi_attribute 26, 1
  10              		.eabi_attribute 30, 1
  11              		.eabi_attribute 34, 1
  12              		.eabi_attribute 18, 4
  13              		.thumb
  14              		.syntax unified
  15              		.file	"CapSense_SMS_Wrapper.c"
  16              		.text
  17              	.Ltext0:
  18              		.cfi_sections	.debug_frame
  19              		.section	.text.SMS_LIB_ScanSensor,"ax",%progbits
  20              		.align	2
  21              		.global	SMS_LIB_ScanSensor
  22              		.thumb
  23              		.thumb_func
  24              		.type	SMS_LIB_ScanSensor, %function
  25              	SMS_LIB_ScanSensor:
  26              	.LFB0:
  27              		.file 1 "Generated_Source\\PSoC5\\CapSense_SMS_Wrapper.c"
   1:Generated_Source\PSoC5/CapSense_SMS_Wrapper.c **** /*******************************************************************************
   2:Generated_Source\PSoC5/CapSense_SMS_Wrapper.c **** * File Name: CapSense_SMS_Wrapper.c
   3:Generated_Source\PSoC5/CapSense_SMS_Wrapper.c **** * Version 3.50
   4:Generated_Source\PSoC5/CapSense_SMS_Wrapper.c **** *
   5:Generated_Source\PSoC5/CapSense_SMS_Wrapper.c **** * Description:
   6:Generated_Source\PSoC5/CapSense_SMS_Wrapper.c **** *  This file provides the source code of wrapper between CapSense CSD component 
   7:Generated_Source\PSoC5/CapSense_SMS_Wrapper.c **** *  and Auto Tuning library.
   8:Generated_Source\PSoC5/CapSense_SMS_Wrapper.c **** *
   9:Generated_Source\PSoC5/CapSense_SMS_Wrapper.c **** * Note:
  10:Generated_Source\PSoC5/CapSense_SMS_Wrapper.c **** *
  11:Generated_Source\PSoC5/CapSense_SMS_Wrapper.c **** ********************************************************************************
  12:Generated_Source\PSoC5/CapSense_SMS_Wrapper.c **** * Copyright 2008-2012, Cypress Semiconductor Corporation.  All rights reserved.
  13:Generated_Source\PSoC5/CapSense_SMS_Wrapper.c **** * You may use this file only in accordance with the license, terms, conditions,
  14:Generated_Source\PSoC5/CapSense_SMS_Wrapper.c **** * disclaimers, and limitations in the end user license agreement accompanying
  15:Generated_Source\PSoC5/CapSense_SMS_Wrapper.c **** * the software package with which this file was provided.
  16:Generated_Source\PSoC5/CapSense_SMS_Wrapper.c **** *******************************************************************************/
  17:Generated_Source\PSoC5/CapSense_SMS_Wrapper.c **** 
  18:Generated_Source\PSoC5/CapSense_SMS_Wrapper.c **** #include "CapSense.h"
  19:Generated_Source\PSoC5/CapSense_SMS_Wrapper.c **** #include "CapSense_CSHL.h"
  20:Generated_Source\PSoC5/CapSense_SMS_Wrapper.c **** 
  21:Generated_Source\PSoC5/CapSense_SMS_Wrapper.c **** #if (CapSense_TUNING_METHOD == CapSense_AUTO_TUNING)
  22:Generated_Source\PSoC5/CapSense_SMS_Wrapper.c **** 
  23:Generated_Source\PSoC5/CapSense_SMS_Wrapper.c **** extern uint8 CapSense_noiseThreshold[CapSense_WIDGET_CSHL_PARAMETERS_COUNT];
  24:Generated_Source\PSoC5/CapSense_SMS_Wrapper.c **** extern uint8 CapSense_hysteresis[CapSense_WIDGET_CSHL_PARAMETERS_COUNT];
  25:Generated_Source\PSoC5/CapSense_SMS_Wrapper.c **** extern uint8 CapSense_widgetResolution[CapSense_WIDGET_RESOLUTION_PARAMETERS_COUNT];
  26:Generated_Source\PSoC5/CapSense_SMS_Wrapper.c **** extern const uint8 CYCODE CapSense_numberOfSensors[CapSense_SENSORS_TBL_SIZE];
  27:Generated_Source\PSoC5/CapSense_SMS_Wrapper.c **** extern const uint8 CYCODE CapSense_rawDataIndex[CapSense_SENSORS_TBL_SIZE];
  28:Generated_Source\PSoC5/CapSense_SMS_Wrapper.c **** 
  29:Generated_Source\PSoC5/CapSense_SMS_Wrapper.c **** extern uint8 CapSense_fingerThreshold[CapSense_WIDGET_CSHL_PARAMETERS_COUNT];
  30:Generated_Source\PSoC5/CapSense_SMS_Wrapper.c **** extern uint8 CapSense_idacSettings[CapSense_TOTAL_SENSOR_COUNT];
ARM GAS  C:\Users\antarp\AppData\Local\Temp\cc6PrePa.s 			page 2


  31:Generated_Source\PSoC5/CapSense_SMS_Wrapper.c **** extern uint8 CapSense_analogSwitchDivider[CapSense_TOTAL_SCANSLOT_COUNT];
  32:Generated_Source\PSoC5/CapSense_SMS_Wrapper.c **** 
  33:Generated_Source\PSoC5/CapSense_SMS_Wrapper.c **** extern void SMS_LIB_V3_50_CalculateThresholds(uint8 SensorNumber);
  34:Generated_Source\PSoC5/CapSense_SMS_Wrapper.c **** extern void SMS_LIB_V3_50_AutoTune1Ch(void);
  35:Generated_Source\PSoC5/CapSense_SMS_Wrapper.c **** extern void SMS_LIB_V3_50_AutoTune2Ch(void);
  36:Generated_Source\PSoC5/CapSense_SMS_Wrapper.c **** 
  37:Generated_Source\PSoC5/CapSense_SMS_Wrapper.c **** uint8  * SMS_LIB_noiseThreshold = CapSense_noiseThreshold;
  38:Generated_Source\PSoC5/CapSense_SMS_Wrapper.c **** uint8 * SMS_LIB_hysteresis = CapSense_hysteresis;
  39:Generated_Source\PSoC5/CapSense_SMS_Wrapper.c **** 
  40:Generated_Source\PSoC5/CapSense_SMS_Wrapper.c **** uint8 * SMS_LIB_widgetResolution = CapSense_widgetResolution;
  41:Generated_Source\PSoC5/CapSense_SMS_Wrapper.c **** 
  42:Generated_Source\PSoC5/CapSense_SMS_Wrapper.c **** const uint8 CYCODE * SMS_LIB_widgetNumber = CapSense_widgetNumber;
  43:Generated_Source\PSoC5/CapSense_SMS_Wrapper.c **** const uint8 CYCODE * SMS_LIB_numberOfSensors = CapSense_numberOfSensors;
  44:Generated_Source\PSoC5/CapSense_SMS_Wrapper.c **** const uint8 CYCODE * SMS_LIB_rawDataIndex = CapSense_rawDataIndex;
  45:Generated_Source\PSoC5/CapSense_SMS_Wrapper.c **** 
  46:Generated_Source\PSoC5/CapSense_SMS_Wrapper.c **** uint8 * SMS_LIB_fingerThreshold = CapSense_fingerThreshold;
  47:Generated_Source\PSoC5/CapSense_SMS_Wrapper.c **** uint8 * SMS_LIB_idacSettings = CapSense_idacSettings;
  48:Generated_Source\PSoC5/CapSense_SMS_Wrapper.c **** uint8 * SMS_LIB_prescaler = CapSense_analogSwitchDivider;
  49:Generated_Source\PSoC5/CapSense_SMS_Wrapper.c **** 
  50:Generated_Source\PSoC5/CapSense_SMS_Wrapper.c **** uint16 * SMS_LIB_SensorRaw = CapSense_sensorRaw;
  51:Generated_Source\PSoC5/CapSense_SMS_Wrapper.c **** uint16 * SMS_LIB_SensorBaseline = CapSense_sensorBaseline;
  52:Generated_Source\PSoC5/CapSense_SMS_Wrapper.c **** 
  53:Generated_Source\PSoC5/CapSense_SMS_Wrapper.c **** const uint8 CYCODE SMS_LIB_SensorSensitivity[] = {
  54:Generated_Source\PSoC5/CapSense_SMS_Wrapper.c ****     2, 2, 2, 2, 2, 2, 
  55:Generated_Source\PSoC5/CapSense_SMS_Wrapper.c **** };
  56:Generated_Source\PSoC5/CapSense_SMS_Wrapper.c **** 
  57:Generated_Source\PSoC5/CapSense_SMS_Wrapper.c **** 
  58:Generated_Source\PSoC5/CapSense_SMS_Wrapper.c **** const uint8 CYCODE SMS_LIB_PrescalerTbl[] = {
  59:Generated_Source\PSoC5/CapSense_SMS_Wrapper.c ****     1u, 1u, 1u, 1u, 1u, 1u, 2u, 2u, 2u, 2u, 2u, 3u, 3u, 3u, 3u, 3u, 3u, 4u, 4u, 4u, 4u, 4u, 4u, 5u,
  60:Generated_Source\PSoC5/CapSense_SMS_Wrapper.c **** };
  61:Generated_Source\PSoC5/CapSense_SMS_Wrapper.c **** 
  62:Generated_Source\PSoC5/CapSense_SMS_Wrapper.c **** 
  63:Generated_Source\PSoC5/CapSense_SMS_Wrapper.c **** 
  64:Generated_Source\PSoC5/CapSense_SMS_Wrapper.c **** uint8 SMS_LIB_Table2[CapSense_TOTAL_SENSOR_COUNT];
  65:Generated_Source\PSoC5/CapSense_SMS_Wrapper.c **** uint8 SMS_LIB_Table3[CapSense_TOTAL_SENSOR_COUNT];
  66:Generated_Source\PSoC5/CapSense_SMS_Wrapper.c **** uint16 SMS_LIB_Table4[CapSense_TOTAL_SENSOR_COUNT];
  67:Generated_Source\PSoC5/CapSense_SMS_Wrapper.c **** uint16 SMS_LIB_Table5[CapSense_TOTAL_SENSOR_COUNT];
  68:Generated_Source\PSoC5/CapSense_SMS_Wrapper.c **** uint8 SMS_LIB_Table6[CapSense_TOTAL_SENSOR_COUNT];
  69:Generated_Source\PSoC5/CapSense_SMS_Wrapper.c **** uint8 SMS_LIB_Table7[CapSense_TOTAL_SENSOR_COUNT];
  70:Generated_Source\PSoC5/CapSense_SMS_Wrapper.c **** 
  71:Generated_Source\PSoC5/CapSense_SMS_Wrapper.c **** uint8 SMS_LIB_Table8[CapSense_END_OF_WIDGETS_INDEX];
  72:Generated_Source\PSoC5/CapSense_SMS_Wrapper.c **** uint8 SMS_LIB_Table9[CapSense_END_OF_WIDGETS_INDEX];
  73:Generated_Source\PSoC5/CapSense_SMS_Wrapper.c **** 
  74:Generated_Source\PSoC5/CapSense_SMS_Wrapper.c **** uint8 SMS_LIB_Var1 = (5u);
  75:Generated_Source\PSoC5/CapSense_SMS_Wrapper.c **** uint16 SMS_LIB_Var2 = (10738u);
  76:Generated_Source\PSoC5/CapSense_SMS_Wrapper.c **** 
  77:Generated_Source\PSoC5/CapSense_SMS_Wrapper.c **** uint8 SMS_LIB_TotalSnsCnt = CapSense_TOTAL_SENSOR_COUNT;
  78:Generated_Source\PSoC5/CapSense_SMS_Wrapper.c **** uint8 SMS_LIB_TotalScanSlCnt = CapSense_TOTAL_SCANSLOT_COUNT;
  79:Generated_Source\PSoC5/CapSense_SMS_Wrapper.c **** uint8 SMS_LIB_EndOfWidgInd = CapSense_END_OF_WIDGETS_INDEX;
  80:Generated_Source\PSoC5/CapSense_SMS_Wrapper.c **** 
  81:Generated_Source\PSoC5/CapSense_SMS_Wrapper.c **** #if (CapSense_DESIGN_TYPE == CapSense_TWO_CHANNELS_DESIGN)
  82:Generated_Source\PSoC5/CapSense_SMS_Wrapper.c ****     uint8 SMS_LIB_TotalSnsCnt_CH0 = CapSense_TOTAL_SENSOR_COUNT__CH0;
  83:Generated_Source\PSoC5/CapSense_SMS_Wrapper.c ****     uint8 SMS_LIB_TotalSnsCnt_CH1 = CapSense_TOTAL_SENSOR_COUNT__CH1;
  84:Generated_Source\PSoC5/CapSense_SMS_Wrapper.c **** #else
  85:Generated_Source\PSoC5/CapSense_SMS_Wrapper.c ****     uint8 SMS_LIB_TotalSnsCnt_CH0 = 0u;
  86:Generated_Source\PSoC5/CapSense_SMS_Wrapper.c ****     uint8 SMS_LIB_TotalSnsCnt_CH1 = 0u;
  87:Generated_Source\PSoC5/CapSense_SMS_Wrapper.c **** #endif  /* (CapSense_DESIGN_TYPE == CapSense_TWO_CHANNELS_DESIGN) */
ARM GAS  C:\Users\antarp\AppData\Local\Temp\cc6PrePa.s 			page 3


  88:Generated_Source\PSoC5/CapSense_SMS_Wrapper.c **** 
  89:Generated_Source\PSoC5/CapSense_SMS_Wrapper.c **** /*******************************************************************************
  90:Generated_Source\PSoC5/CapSense_SMS_Wrapper.c **** * Function Name: SMS_LIB_ScanSensor
  91:Generated_Source\PSoC5/CapSense_SMS_Wrapper.c **** ********************************************************************************
  92:Generated_Source\PSoC5/CapSense_SMS_Wrapper.c **** *
  93:Generated_Source\PSoC5/CapSense_SMS_Wrapper.c **** * Summary:
  94:Generated_Source\PSoC5/CapSense_SMS_Wrapper.c **** *  Wrapper to CapSense_ScanSensor function.
  95:Generated_Source\PSoC5/CapSense_SMS_Wrapper.c **** *
  96:Generated_Source\PSoC5/CapSense_SMS_Wrapper.c **** * Parameters:
  97:Generated_Source\PSoC5/CapSense_SMS_Wrapper.c **** *  SensorNumber:  Sensor number.
  98:Generated_Source\PSoC5/CapSense_SMS_Wrapper.c **** *
  99:Generated_Source\PSoC5/CapSense_SMS_Wrapper.c **** * Return:
 100:Generated_Source\PSoC5/CapSense_SMS_Wrapper.c **** *  None
 101:Generated_Source\PSoC5/CapSense_SMS_Wrapper.c **** *
 102:Generated_Source\PSoC5/CapSense_SMS_Wrapper.c **** * Reentrant:
 103:Generated_Source\PSoC5/CapSense_SMS_Wrapper.c **** *  No
 104:Generated_Source\PSoC5/CapSense_SMS_Wrapper.c **** *
 105:Generated_Source\PSoC5/CapSense_SMS_Wrapper.c **** *******************************************************************************/
 106:Generated_Source\PSoC5/CapSense_SMS_Wrapper.c **** void SMS_LIB_ScanSensor(uint8 SensorNumber) 
 107:Generated_Source\PSoC5/CapSense_SMS_Wrapper.c **** {
  28              		.loc 1 107 0
  29              		.cfi_startproc
  30              		@ args = 0, pretend = 0, frame = 0
  31              		@ frame_needed = 0, uses_anonymous_args = 0
  32              	.LVL0:
  33 0000 08B5     		push	{r3, lr}
  34              		.cfi_def_cfa_offset 8
  35              		.cfi_offset 3, -8
  36              		.cfi_offset 14, -4
 108:Generated_Source\PSoC5/CapSense_SMS_Wrapper.c ****     CapSense_ScanSensor(SensorNumber);
  37              		.loc 1 108 0
  38 0002 FFF7FEFF 		bl	CapSense_ScanSensor
  39              	.LVL1:
  40 0006 08BD     		pop	{r3, pc}
  41              		.cfi_endproc
  42              	.LFE0:
  43              		.size	SMS_LIB_ScanSensor, .-SMS_LIB_ScanSensor
  44              		.section	.text.SMS_LIB_IsBusy,"ax",%progbits
  45              		.align	2
  46              		.global	SMS_LIB_IsBusy
  47              		.thumb
  48              		.thumb_func
  49              		.type	SMS_LIB_IsBusy, %function
  50              	SMS_LIB_IsBusy:
  51              	.LFB1:
 109:Generated_Source\PSoC5/CapSense_SMS_Wrapper.c **** }
 110:Generated_Source\PSoC5/CapSense_SMS_Wrapper.c **** 
 111:Generated_Source\PSoC5/CapSense_SMS_Wrapper.c **** /*******************************************************************************
 112:Generated_Source\PSoC5/CapSense_SMS_Wrapper.c **** * Function Name: SMS_LIB_IsBusy
 113:Generated_Source\PSoC5/CapSense_SMS_Wrapper.c **** ********************************************************************************
 114:Generated_Source\PSoC5/CapSense_SMS_Wrapper.c **** *
 115:Generated_Source\PSoC5/CapSense_SMS_Wrapper.c **** * Summary:
 116:Generated_Source\PSoC5/CapSense_SMS_Wrapper.c **** *  Wrapper to CapSense_IsBusy function.
 117:Generated_Source\PSoC5/CapSense_SMS_Wrapper.c **** *  
 118:Generated_Source\PSoC5/CapSense_SMS_Wrapper.c **** * Parameters:
 119:Generated_Source\PSoC5/CapSense_SMS_Wrapper.c **** *  None
 120:Generated_Source\PSoC5/CapSense_SMS_Wrapper.c **** *
ARM GAS  C:\Users\antarp\AppData\Local\Temp\cc6PrePa.s 			page 4


 121:Generated_Source\PSoC5/CapSense_SMS_Wrapper.c **** * Return:
 122:Generated_Source\PSoC5/CapSense_SMS_Wrapper.c **** *  None
 123:Generated_Source\PSoC5/CapSense_SMS_Wrapper.c **** *
 124:Generated_Source\PSoC5/CapSense_SMS_Wrapper.c **** *******************************************************************************/
 125:Generated_Source\PSoC5/CapSense_SMS_Wrapper.c **** uint8 SMS_LIB_IsBusy(void) 
 126:Generated_Source\PSoC5/CapSense_SMS_Wrapper.c **** {
  52              		.loc 1 126 0
  53              		.cfi_startproc
  54              		@ args = 0, pretend = 0, frame = 0
  55              		@ frame_needed = 0, uses_anonymous_args = 0
  56 0000 08B5     		push	{r3, lr}
  57              		.cfi_def_cfa_offset 8
  58              		.cfi_offset 3, -8
  59              		.cfi_offset 14, -4
 127:Generated_Source\PSoC5/CapSense_SMS_Wrapper.c ****     return CapSense_IsBusy();
  60              		.loc 1 127 0
  61 0002 FFF7FEFF 		bl	CapSense_IsBusy
  62              	.LVL2:
 128:Generated_Source\PSoC5/CapSense_SMS_Wrapper.c **** }
  63              		.loc 1 128 0
  64 0006 08BD     		pop	{r3, pc}
  65              		.cfi_endproc
  66              	.LFE1:
  67              		.size	SMS_LIB_IsBusy, .-SMS_LIB_IsBusy
  68              		.section	.text.CapSense_CalculateThresholds,"ax",%progbits
  69              		.align	2
  70              		.global	CapSense_CalculateThresholds
  71              		.thumb
  72              		.thumb_func
  73              		.type	CapSense_CalculateThresholds, %function
  74              	CapSense_CalculateThresholds:
  75              	.LFB2:
 129:Generated_Source\PSoC5/CapSense_SMS_Wrapper.c **** 
 130:Generated_Source\PSoC5/CapSense_SMS_Wrapper.c **** 
 131:Generated_Source\PSoC5/CapSense_SMS_Wrapper.c **** /*******************************************************************************
 132:Generated_Source\PSoC5/CapSense_SMS_Wrapper.c **** * Function Name: CapSense_CalculateThresholds
 133:Generated_Source\PSoC5/CapSense_SMS_Wrapper.c **** ********************************************************************************
 134:Generated_Source\PSoC5/CapSense_SMS_Wrapper.c **** *
 135:Generated_Source\PSoC5/CapSense_SMS_Wrapper.c **** * Summary:
 136:Generated_Source\PSoC5/CapSense_SMS_Wrapper.c **** *  Wrapper to SMS_LIB_CalculateThresholds function.
 137:Generated_Source\PSoC5/CapSense_SMS_Wrapper.c **** *
 138:Generated_Source\PSoC5/CapSense_SMS_Wrapper.c **** * Parameters:
 139:Generated_Source\PSoC5/CapSense_SMS_Wrapper.c **** *  SensorNumber:  Sensor number.
 140:Generated_Source\PSoC5/CapSense_SMS_Wrapper.c **** *
 141:Generated_Source\PSoC5/CapSense_SMS_Wrapper.c **** * Return:
 142:Generated_Source\PSoC5/CapSense_SMS_Wrapper.c **** *  None
 143:Generated_Source\PSoC5/CapSense_SMS_Wrapper.c **** *
 144:Generated_Source\PSoC5/CapSense_SMS_Wrapper.c **** * Reentrant:
 145:Generated_Source\PSoC5/CapSense_SMS_Wrapper.c **** *  No
 146:Generated_Source\PSoC5/CapSense_SMS_Wrapper.c **** *
 147:Generated_Source\PSoC5/CapSense_SMS_Wrapper.c **** *******************************************************************************/
 148:Generated_Source\PSoC5/CapSense_SMS_Wrapper.c **** void CapSense_CalculateThresholds(uint8 SensorNumber) 
 149:Generated_Source\PSoC5/CapSense_SMS_Wrapper.c **** {
  76              		.loc 1 149 0
  77              		.cfi_startproc
  78              		@ args = 0, pretend = 0, frame = 0
  79              		@ frame_needed = 0, uses_anonymous_args = 0
ARM GAS  C:\Users\antarp\AppData\Local\Temp\cc6PrePa.s 			page 5


  80              	.LVL3:
  81 0000 08B5     		push	{r3, lr}
  82              		.cfi_def_cfa_offset 8
  83              		.cfi_offset 3, -8
  84              		.cfi_offset 14, -4
 150:Generated_Source\PSoC5/CapSense_SMS_Wrapper.c ****     SMS_LIB_V3_50_CalculateThresholds(SensorNumber);
  85              		.loc 1 150 0
  86 0002 FFF7FEFF 		bl	SMS_LIB_V3_50_CalculateThresholds
  87              	.LVL4:
  88 0006 08BD     		pop	{r3, pc}
  89              		.cfi_endproc
  90              	.LFE2:
  91              		.size	CapSense_CalculateThresholds, .-CapSense_CalculateThresholds
  92              		.section	.text.CapSense_AutoTune,"ax",%progbits
  93              		.align	2
  94              		.global	CapSense_AutoTune
  95              		.thumb
  96              		.thumb_func
  97              		.type	CapSense_AutoTune, %function
  98              	CapSense_AutoTune:
  99              	.LFB3:
 151:Generated_Source\PSoC5/CapSense_SMS_Wrapper.c **** }
 152:Generated_Source\PSoC5/CapSense_SMS_Wrapper.c **** 
 153:Generated_Source\PSoC5/CapSense_SMS_Wrapper.c **** 
 154:Generated_Source\PSoC5/CapSense_SMS_Wrapper.c **** /*******************************************************************************
 155:Generated_Source\PSoC5/CapSense_SMS_Wrapper.c **** * Function Name: CapSense_AutoTune
 156:Generated_Source\PSoC5/CapSense_SMS_Wrapper.c **** ********************************************************************************
 157:Generated_Source\PSoC5/CapSense_SMS_Wrapper.c **** *
 158:Generated_Source\PSoC5/CapSense_SMS_Wrapper.c **** * Summary:
 159:Generated_Source\PSoC5/CapSense_SMS_Wrapper.c **** *  Wrapper for SMS_LIB_AutoTune1Ch or SMS_LIB_AutoTune2Ch function.
 160:Generated_Source\PSoC5/CapSense_SMS_Wrapper.c **** *
 161:Generated_Source\PSoC5/CapSense_SMS_Wrapper.c **** * Parameters:
 162:Generated_Source\PSoC5/CapSense_SMS_Wrapper.c **** *  None
 163:Generated_Source\PSoC5/CapSense_SMS_Wrapper.c **** *
 164:Generated_Source\PSoC5/CapSense_SMS_Wrapper.c **** * Return:
 165:Generated_Source\PSoC5/CapSense_SMS_Wrapper.c **** *  None
 166:Generated_Source\PSoC5/CapSense_SMS_Wrapper.c **** *
 167:Generated_Source\PSoC5/CapSense_SMS_Wrapper.c **** * Reentrant:
 168:Generated_Source\PSoC5/CapSense_SMS_Wrapper.c **** *  No
 169:Generated_Source\PSoC5/CapSense_SMS_Wrapper.c **** *
 170:Generated_Source\PSoC5/CapSense_SMS_Wrapper.c **** *******************************************************************************/
 171:Generated_Source\PSoC5/CapSense_SMS_Wrapper.c **** void CapSense_AutoTune(void) 
 172:Generated_Source\PSoC5/CapSense_SMS_Wrapper.c **** {
 100              		.loc 1 172 0
 101              		.cfi_startproc
 102              		@ args = 0, pretend = 0, frame = 0
 103              		@ frame_needed = 0, uses_anonymous_args = 0
 104 0000 08B5     		push	{r3, lr}
 105              		.cfi_def_cfa_offset 8
 106              		.cfi_offset 3, -8
 107              		.cfi_offset 14, -4
 173:Generated_Source\PSoC5/CapSense_SMS_Wrapper.c ****     #if (CapSense_DESIGN_TYPE == CapSense_ONE_CHANNEL_DESIGN)
 174:Generated_Source\PSoC5/CapSense_SMS_Wrapper.c ****         SMS_LIB_V3_50_AutoTune1Ch();
 108              		.loc 1 174 0
 109 0002 FFF7FEFF 		bl	SMS_LIB_V3_50_AutoTune1Ch
 110              	.LVL5:
 111 0006 08BD     		pop	{r3, pc}
ARM GAS  C:\Users\antarp\AppData\Local\Temp\cc6PrePa.s 			page 6


 112              		.cfi_endproc
 113              	.LFE3:
 114              		.size	CapSense_AutoTune, .-CapSense_AutoTune
 115              		.section	.text.SMS_LIB_SetPrescaler,"ax",%progbits
 116              		.align	2
 117              		.global	SMS_LIB_SetPrescaler
 118              		.thumb
 119              		.thumb_func
 120              		.type	SMS_LIB_SetPrescaler, %function
 121              	SMS_LIB_SetPrescaler:
 122              	.LFB4:
 175:Generated_Source\PSoC5/CapSense_SMS_Wrapper.c ****     #elif (CapSense_DESIGN_TYPE == CapSense_TWO_CHANNELS_DESIGN)
 176:Generated_Source\PSoC5/CapSense_SMS_Wrapper.c ****         SMS_LIB_V3_50_AutoTune2Ch();
 177:Generated_Source\PSoC5/CapSense_SMS_Wrapper.c ****     #endif /* (CapSense_DESIGN_TYPE == CapSense_ONE_CHANNEL_DESIGN) */
 178:Generated_Source\PSoC5/CapSense_SMS_Wrapper.c **** }
 179:Generated_Source\PSoC5/CapSense_SMS_Wrapper.c **** 
 180:Generated_Source\PSoC5/CapSense_SMS_Wrapper.c **** /*******************************************************************************
 181:Generated_Source\PSoC5/CapSense_SMS_Wrapper.c **** * Function Name: SMS_LIB_SetPrescaler
 182:Generated_Source\PSoC5/CapSense_SMS_Wrapper.c **** ********************************************************************************
 183:Generated_Source\PSoC5/CapSense_SMS_Wrapper.c **** *
 184:Generated_Source\PSoC5/CapSense_SMS_Wrapper.c **** * Summary:
 185:Generated_Source\PSoC5/CapSense_SMS_Wrapper.c **** *  Empty wrapper for version compliance.
 186:Generated_Source\PSoC5/CapSense_SMS_Wrapper.c **** *
 187:Generated_Source\PSoC5/CapSense_SMS_Wrapper.c **** * Parameters:
 188:Generated_Source\PSoC5/CapSense_SMS_Wrapper.c **** *  prescaler:  prascaler value.
 189:Generated_Source\PSoC5/CapSense_SMS_Wrapper.c **** *
 190:Generated_Source\PSoC5/CapSense_SMS_Wrapper.c **** * Return:
 191:Generated_Source\PSoC5/CapSense_SMS_Wrapper.c **** *  None
 192:Generated_Source\PSoC5/CapSense_SMS_Wrapper.c **** *
 193:Generated_Source\PSoC5/CapSense_SMS_Wrapper.c **** *******************************************************************************/
 194:Generated_Source\PSoC5/CapSense_SMS_Wrapper.c **** void SMS_LIB_SetPrescaler(uint8 prescaler) 
 195:Generated_Source\PSoC5/CapSense_SMS_Wrapper.c **** {
 123              		.loc 1 195 0
 124              		.cfi_startproc
 125              		@ args = 0, pretend = 0, frame = 0
 126              		@ frame_needed = 0, uses_anonymous_args = 0
 127              		@ link register save eliminated.
 128              	.LVL6:
 129 0000 7047     		bx	lr
 130              		.cfi_endproc
 131              	.LFE4:
 132              		.size	SMS_LIB_SetPrescaler, .-SMS_LIB_SetPrescaler
 133 0002 00BF     		.section	.text.SMS_LIB_V3_50_SetAnalogSwitchesSrc_PRS,"ax",%progbits
 134              		.align	2
 135              		.global	SMS_LIB_V3_50_SetAnalogSwitchesSrc_PRS
 136              		.thumb
 137              		.thumb_func
 138              		.type	SMS_LIB_V3_50_SetAnalogSwitchesSrc_PRS, %function
 139              	SMS_LIB_V3_50_SetAnalogSwitchesSrc_PRS:
 140              	.LFB5:
 196:Generated_Source\PSoC5/CapSense_SMS_Wrapper.c ****     prescaler = prescaler;
 197:Generated_Source\PSoC5/CapSense_SMS_Wrapper.c **** }
 198:Generated_Source\PSoC5/CapSense_SMS_Wrapper.c **** 
 199:Generated_Source\PSoC5/CapSense_SMS_Wrapper.c **** void SMS_LIB_V3_50_SetAnalogSwitchesSrc_PRS(void) 
 200:Generated_Source\PSoC5/CapSense_SMS_Wrapper.c **** {
 141              		.loc 1 200 0
 142              		.cfi_startproc
ARM GAS  C:\Users\antarp\AppData\Local\Temp\cc6PrePa.s 			page 7


 143              		@ args = 0, pretend = 0, frame = 0
 144              		@ frame_needed = 0, uses_anonymous_args = 0
 145              		.loc 1 200 0
 146 0000 08B5     		push	{r3, lr}
 147              		.cfi_def_cfa_offset 8
 148              		.cfi_offset 3, -8
 149              		.cfi_offset 14, -4
 201:Generated_Source\PSoC5/CapSense_SMS_Wrapper.c **** 	CapSense_SetAnalogSwitchesSource(CapSense_ANALOG_SWITCHES_SRC_PRS);
 150              		.loc 1 201 0
 151 0002 0220     		movs	r0, #2
 152 0004 FFF7FEFF 		bl	CapSense_SetAnalogSwitchesSource
 153              	.LVL7:
 154 0008 08BD     		pop	{r3, pc}
 155              		.cfi_endproc
 156              	.LFE5:
 157              		.size	SMS_LIB_V3_50_SetAnalogSwitchesSrc_PRS, .-SMS_LIB_V3_50_SetAnalogSwitchesSrc_PRS
 158 000a 00BF     		.section	.text.SMS_LIB_V3_50_SetAnalogSwitchesSrc_Prescaler,"ax",%progbits
 159              		.align	2
 160              		.global	SMS_LIB_V3_50_SetAnalogSwitchesSrc_Prescaler
 161              		.thumb
 162              		.thumb_func
 163              		.type	SMS_LIB_V3_50_SetAnalogSwitchesSrc_Prescaler, %function
 164              	SMS_LIB_V3_50_SetAnalogSwitchesSrc_Prescaler:
 165              	.LFB6:
 202:Generated_Source\PSoC5/CapSense_SMS_Wrapper.c **** }
 203:Generated_Source\PSoC5/CapSense_SMS_Wrapper.c **** 
 204:Generated_Source\PSoC5/CapSense_SMS_Wrapper.c **** void SMS_LIB_V3_50_SetAnalogSwitchesSrc_Prescaler(void) 
 205:Generated_Source\PSoC5/CapSense_SMS_Wrapper.c **** {
 166              		.loc 1 205 0
 167              		.cfi_startproc
 168              		@ args = 0, pretend = 0, frame = 0
 169              		@ frame_needed = 0, uses_anonymous_args = 0
 170 0000 08B5     		push	{r3, lr}
 171              		.cfi_def_cfa_offset 8
 172              		.cfi_offset 3, -8
 173              		.cfi_offset 14, -4
 206:Generated_Source\PSoC5/CapSense_SMS_Wrapper.c **** 	CapSense_SetAnalogSwitchesSource(CapSense_ANALOG_SWITCHES_SRC_PRESCALER);
 174              		.loc 1 206 0
 175 0002 0120     		movs	r0, #1
 176 0004 FFF7FEFF 		bl	CapSense_SetAnalogSwitchesSource
 177              	.LVL8:
 178 0008 08BD     		pop	{r3, pc}
 179              		.cfi_endproc
 180              	.LFE6:
 181              		.size	SMS_LIB_V3_50_SetAnalogSwitchesSrc_Prescaler, .-SMS_LIB_V3_50_SetAnalogSwitchesSrc_Prescaler
 182              		.global	SMS_LIB_TotalSnsCnt_CH1
 183              		.global	SMS_LIB_TotalSnsCnt_CH0
 184              		.global	SMS_LIB_EndOfWidgInd
 185              		.global	SMS_LIB_TotalScanSlCnt
 186              		.global	SMS_LIB_TotalSnsCnt
 187              		.global	SMS_LIB_Var2
 188              		.global	SMS_LIB_Var1
 189              		.comm	SMS_LIB_Table9,2,4
 190              		.comm	SMS_LIB_Table8,2,4
 191              		.comm	SMS_LIB_Table7,6,4
 192              		.comm	SMS_LIB_Table6,6,4
 193              		.comm	SMS_LIB_Table5,12,4
ARM GAS  C:\Users\antarp\AppData\Local\Temp\cc6PrePa.s 			page 8


 194              		.comm	SMS_LIB_Table4,12,4
 195              		.comm	SMS_LIB_Table3,6,4
 196              		.comm	SMS_LIB_Table2,6,4
 197              		.global	SMS_LIB_PrescalerTbl
 198              		.global	SMS_LIB_SensorSensitivity
 199              		.global	SMS_LIB_SensorBaseline
 200              		.global	SMS_LIB_SensorRaw
 201              		.global	SMS_LIB_prescaler
 202              		.global	SMS_LIB_idacSettings
 203              		.global	SMS_LIB_fingerThreshold
 204              		.global	SMS_LIB_rawDataIndex
 205              		.global	SMS_LIB_numberOfSensors
 206              		.global	SMS_LIB_widgetNumber
 207              		.global	SMS_LIB_widgetResolution
 208              		.global	SMS_LIB_hysteresis
 209              		.global	SMS_LIB_noiseThreshold
 210 000a 00BF     		.section	.rodata
 211              		.align	2
 212              		.type	SMS_LIB_PrescalerTbl, %object
 213              		.size	SMS_LIB_PrescalerTbl, 32
 214              	SMS_LIB_PrescalerTbl:
 215 0000 01       		.byte	1
 216 0001 01       		.byte	1
 217 0002 01       		.byte	1
 218 0003 01       		.byte	1
 219 0004 01       		.byte	1
 220 0005 01       		.byte	1
 221 0006 02       		.byte	2
 222 0007 02       		.byte	2
 223 0008 02       		.byte	2
 224 0009 02       		.byte	2
 225 000a 02       		.byte	2
 226 000b 03       		.byte	3
 227 000c 03       		.byte	3
 228 000d 03       		.byte	3
 229 000e 03       		.byte	3
 230 000f 03       		.byte	3
 231 0010 03       		.byte	3
 232 0011 04       		.byte	4
 233 0012 04       		.byte	4
 234 0013 04       		.byte	4
 235 0014 04       		.byte	4
 236 0015 04       		.byte	4
 237 0016 04       		.byte	4
 238 0017 05       		.byte	5
 239 0018 05       		.byte	5
 240 0019 05       		.byte	5
 241 001a 05       		.byte	5
 242 001b 05       		.byte	5
 243 001c 05       		.byte	5
 244 001d 06       		.byte	6
 245 001e 06       		.byte	6
 246 001f 06       		.byte	6
 247              		.type	SMS_LIB_SensorSensitivity, %object
 248              		.size	SMS_LIB_SensorSensitivity, 6
 249              	SMS_LIB_SensorSensitivity:
 250 0020 02       		.byte	2
ARM GAS  C:\Users\antarp\AppData\Local\Temp\cc6PrePa.s 			page 9


 251 0021 02       		.byte	2
 252 0022 02       		.byte	2
 253 0023 02       		.byte	2
 254 0024 02       		.byte	2
 255 0025 02       		.byte	2
 256              		.data
 257              		.align	2
 258              		.type	SMS_LIB_EndOfWidgInd, %object
 259              		.size	SMS_LIB_EndOfWidgInd, 1
 260              	SMS_LIB_EndOfWidgInd:
 261 0000 02       		.byte	2
 262              		.type	SMS_LIB_TotalScanSlCnt, %object
 263              		.size	SMS_LIB_TotalScanSlCnt, 1
 264              	SMS_LIB_TotalScanSlCnt:
 265 0001 06       		.byte	6
 266              		.type	SMS_LIB_TotalSnsCnt, %object
 267              		.size	SMS_LIB_TotalSnsCnt, 1
 268              	SMS_LIB_TotalSnsCnt:
 269 0002 06       		.byte	6
 270 0003 00       		.space	1
 271              		.type	SMS_LIB_Var2, %object
 272              		.size	SMS_LIB_Var2, 2
 273              	SMS_LIB_Var2:
 274 0004 F229     		.short	10738
 275              		.type	SMS_LIB_Var1, %object
 276              		.size	SMS_LIB_Var1, 1
 277              	SMS_LIB_Var1:
 278 0006 05       		.byte	5
 279 0007 00       		.space	1
 280              		.type	SMS_LIB_SensorBaseline, %object
 281              		.size	SMS_LIB_SensorBaseline, 4
 282              	SMS_LIB_SensorBaseline:
 283 0008 00000000 		.word	CapSense_sensorBaseline
 284              		.type	SMS_LIB_SensorRaw, %object
 285              		.size	SMS_LIB_SensorRaw, 4
 286              	SMS_LIB_SensorRaw:
 287 000c 00000000 		.word	CapSense_sensorRaw
 288              		.type	SMS_LIB_prescaler, %object
 289              		.size	SMS_LIB_prescaler, 4
 290              	SMS_LIB_prescaler:
 291 0010 00000000 		.word	CapSense_analogSwitchDivider
 292              		.type	SMS_LIB_idacSettings, %object
 293              		.size	SMS_LIB_idacSettings, 4
 294              	SMS_LIB_idacSettings:
 295 0014 00000000 		.word	CapSense_idacSettings
 296              		.type	SMS_LIB_fingerThreshold, %object
 297              		.size	SMS_LIB_fingerThreshold, 4
 298              	SMS_LIB_fingerThreshold:
 299 0018 00000000 		.word	CapSense_fingerThreshold
 300              		.type	SMS_LIB_rawDataIndex, %object
 301              		.size	SMS_LIB_rawDataIndex, 4
 302              	SMS_LIB_rawDataIndex:
 303 001c 00000000 		.word	CapSense_rawDataIndex
 304              		.type	SMS_LIB_numberOfSensors, %object
 305              		.size	SMS_LIB_numberOfSensors, 4
 306              	SMS_LIB_numberOfSensors:
 307 0020 00000000 		.word	CapSense_numberOfSensors
ARM GAS  C:\Users\antarp\AppData\Local\Temp\cc6PrePa.s 			page 10


 308              		.type	SMS_LIB_widgetNumber, %object
 309              		.size	SMS_LIB_widgetNumber, 4
 310              	SMS_LIB_widgetNumber:
 311 0024 00000000 		.word	CapSense_widgetNumber
 312              		.type	SMS_LIB_widgetResolution, %object
 313              		.size	SMS_LIB_widgetResolution, 4
 314              	SMS_LIB_widgetResolution:
 315 0028 00000000 		.word	CapSense_widgetResolution
 316              		.type	SMS_LIB_hysteresis, %object
 317              		.size	SMS_LIB_hysteresis, 4
 318              	SMS_LIB_hysteresis:
 319 002c 00000000 		.word	CapSense_hysteresis
 320              		.type	SMS_LIB_noiseThreshold, %object
 321              		.size	SMS_LIB_noiseThreshold, 4
 322              	SMS_LIB_noiseThreshold:
 323 0030 00000000 		.word	CapSense_noiseThreshold
 324              		.bss
 325              		.type	SMS_LIB_TotalSnsCnt_CH1, %object
 326              		.size	SMS_LIB_TotalSnsCnt_CH1, 1
 327              	SMS_LIB_TotalSnsCnt_CH1:
 328 0000 00       		.space	1
 329              		.type	SMS_LIB_TotalSnsCnt_CH0, %object
 330              		.size	SMS_LIB_TotalSnsCnt_CH0, 1
 331              	SMS_LIB_TotalSnsCnt_CH0:
 332 0001 00       		.space	1
 333              		.text
 334              	.Letext0:
 335              		.file 2 "Generated_Source\\PSoC5\\cytypes.h"
 336              		.file 3 "Generated_Source\\PSoC5\\CapSense.h"
 337              		.file 4 "Generated_Source\\PSoC5\\CapSense_CSHL.h"
