ARM GAS  C:\Users\antarp\AppData\Local\Temp\ccWrKkK6.s 			page 1


   1              		.syntax unified
   2              		.cpu cortex-m3
   3              		.fpu softvfp
   4              		.eabi_attribute 20, 1
   5              		.eabi_attribute 21, 1
   6              		.eabi_attribute 23, 3
   7              		.eabi_attribute 24, 1
   8              		.eabi_attribute 25, 1
   9              		.eabi_attribute 26, 1
  10              		.eabi_attribute 30, 1
  11              		.eabi_attribute 34, 1
  12              		.eabi_attribute 18, 4
  13              		.thumb
  14              		.syntax unified
  15              		.file	"CapSense_CompCH0_PM.c"
  16              		.text
  17              	.Ltext0:
  18              		.cfi_sections	.debug_frame
  19              		.section	.text.CapSense_CompCH0_SaveConfig,"ax",%progbits
  20              		.align	2
  21              		.global	CapSense_CompCH0_SaveConfig
  22              		.thumb
  23              		.thumb_func
  24              		.type	CapSense_CompCH0_SaveConfig, %function
  25              	CapSense_CompCH0_SaveConfig:
  26              	.LFB0:
  27              		.file 1 "Generated_Source\\PSoC5\\CapSense_CompCH0_PM.c"
   1:Generated_Source\PSoC5/CapSense_CompCH0_PM.c **** /*******************************************************************************
   2:Generated_Source\PSoC5/CapSense_CompCH0_PM.c **** * File Name: CapSense_CompCH0.c
   3:Generated_Source\PSoC5/CapSense_CompCH0_PM.c **** * Version 2.0
   4:Generated_Source\PSoC5/CapSense_CompCH0_PM.c **** *
   5:Generated_Source\PSoC5/CapSense_CompCH0_PM.c **** * Description:
   6:Generated_Source\PSoC5/CapSense_CompCH0_PM.c **** *  This file provides the power management source code APIs for the
   7:Generated_Source\PSoC5/CapSense_CompCH0_PM.c **** *  Comparator.
   8:Generated_Source\PSoC5/CapSense_CompCH0_PM.c **** *
   9:Generated_Source\PSoC5/CapSense_CompCH0_PM.c **** * Note:
  10:Generated_Source\PSoC5/CapSense_CompCH0_PM.c **** *  None
  11:Generated_Source\PSoC5/CapSense_CompCH0_PM.c **** *
  12:Generated_Source\PSoC5/CapSense_CompCH0_PM.c **** ********************************************************************************
  13:Generated_Source\PSoC5/CapSense_CompCH0_PM.c **** * Copyright 2008-2012, Cypress Semiconductor Corporation.  All rights reserved.
  14:Generated_Source\PSoC5/CapSense_CompCH0_PM.c **** * You may use this file only in accordance with the license, terms, conditions, 
  15:Generated_Source\PSoC5/CapSense_CompCH0_PM.c **** * disclaimers, and limitations in the end user license agreement accompanying 
  16:Generated_Source\PSoC5/CapSense_CompCH0_PM.c **** * the software package with which this file was provided.
  17:Generated_Source\PSoC5/CapSense_CompCH0_PM.c **** *******************************************************************************/
  18:Generated_Source\PSoC5/CapSense_CompCH0_PM.c **** 
  19:Generated_Source\PSoC5/CapSense_CompCH0_PM.c **** #include "CapSense_CompCH0.h"
  20:Generated_Source\PSoC5/CapSense_CompCH0_PM.c **** 
  21:Generated_Source\PSoC5/CapSense_CompCH0_PM.c **** static CapSense_CompCH0_backupStruct CapSense_CompCH0_backup;
  22:Generated_Source\PSoC5/CapSense_CompCH0_PM.c **** 
  23:Generated_Source\PSoC5/CapSense_CompCH0_PM.c **** 
  24:Generated_Source\PSoC5/CapSense_CompCH0_PM.c **** /*******************************************************************************
  25:Generated_Source\PSoC5/CapSense_CompCH0_PM.c **** * Function Name: CapSense_CompCH0_SaveConfig
  26:Generated_Source\PSoC5/CapSense_CompCH0_PM.c **** ********************************************************************************
  27:Generated_Source\PSoC5/CapSense_CompCH0_PM.c **** *
  28:Generated_Source\PSoC5/CapSense_CompCH0_PM.c **** * Summary:
  29:Generated_Source\PSoC5/CapSense_CompCH0_PM.c **** *  Save the current user configuration
  30:Generated_Source\PSoC5/CapSense_CompCH0_PM.c **** *
ARM GAS  C:\Users\antarp\AppData\Local\Temp\ccWrKkK6.s 			page 2


  31:Generated_Source\PSoC5/CapSense_CompCH0_PM.c **** * Parameters:
  32:Generated_Source\PSoC5/CapSense_CompCH0_PM.c **** *  void:
  33:Generated_Source\PSoC5/CapSense_CompCH0_PM.c **** *
  34:Generated_Source\PSoC5/CapSense_CompCH0_PM.c **** * Return:
  35:Generated_Source\PSoC5/CapSense_CompCH0_PM.c **** *  void
  36:Generated_Source\PSoC5/CapSense_CompCH0_PM.c **** *
  37:Generated_Source\PSoC5/CapSense_CompCH0_PM.c **** *******************************************************************************/
  38:Generated_Source\PSoC5/CapSense_CompCH0_PM.c **** void CapSense_CompCH0_SaveConfig(void) 
  39:Generated_Source\PSoC5/CapSense_CompCH0_PM.c **** {
  28              		.loc 1 39 0
  29              		.cfi_startproc
  30              		@ args = 0, pretend = 0, frame = 0
  31              		@ frame_needed = 0, uses_anonymous_args = 0
  32              		@ link register save eliminated.
  33 0000 7047     		bx	lr
  34              		.cfi_endproc
  35              	.LFE0:
  36              		.size	CapSense_CompCH0_SaveConfig, .-CapSense_CompCH0_SaveConfig
  37 0002 00BF     		.section	.text.CapSense_CompCH0_RestoreConfig,"ax",%progbits
  38              		.align	2
  39              		.global	CapSense_CompCH0_RestoreConfig
  40              		.thumb
  41              		.thumb_func
  42              		.type	CapSense_CompCH0_RestoreConfig, %function
  43              	CapSense_CompCH0_RestoreConfig:
  44              	.LFB1:
  40:Generated_Source\PSoC5/CapSense_CompCH0_PM.c ****     /* Empty since all are system reset for retention flops */
  41:Generated_Source\PSoC5/CapSense_CompCH0_PM.c **** }
  42:Generated_Source\PSoC5/CapSense_CompCH0_PM.c **** 
  43:Generated_Source\PSoC5/CapSense_CompCH0_PM.c **** 
  44:Generated_Source\PSoC5/CapSense_CompCH0_PM.c **** /*******************************************************************************
  45:Generated_Source\PSoC5/CapSense_CompCH0_PM.c **** * Function Name: CapSense_CompCH0_RestoreConfig
  46:Generated_Source\PSoC5/CapSense_CompCH0_PM.c **** ********************************************************************************
  47:Generated_Source\PSoC5/CapSense_CompCH0_PM.c **** *
  48:Generated_Source\PSoC5/CapSense_CompCH0_PM.c **** * Summary:
  49:Generated_Source\PSoC5/CapSense_CompCH0_PM.c **** *  Restores the current user configuration.
  50:Generated_Source\PSoC5/CapSense_CompCH0_PM.c **** *
  51:Generated_Source\PSoC5/CapSense_CompCH0_PM.c **** * Parameters:
  52:Generated_Source\PSoC5/CapSense_CompCH0_PM.c **** *  void
  53:Generated_Source\PSoC5/CapSense_CompCH0_PM.c **** *
  54:Generated_Source\PSoC5/CapSense_CompCH0_PM.c **** * Return:
  55:Generated_Source\PSoC5/CapSense_CompCH0_PM.c **** *  void
  56:Generated_Source\PSoC5/CapSense_CompCH0_PM.c **** *
  57:Generated_Source\PSoC5/CapSense_CompCH0_PM.c **** ********************************************************************************/
  58:Generated_Source\PSoC5/CapSense_CompCH0_PM.c **** void CapSense_CompCH0_RestoreConfig(void) 
  59:Generated_Source\PSoC5/CapSense_CompCH0_PM.c **** {
  45              		.loc 1 59 0
  46              		.cfi_startproc
  47              		@ args = 0, pretend = 0, frame = 0
  48              		@ frame_needed = 0, uses_anonymous_args = 0
  49              		@ link register save eliminated.
  50 0000 7047     		bx	lr
  51              		.cfi_endproc
  52              	.LFE1:
  53              		.size	CapSense_CompCH0_RestoreConfig, .-CapSense_CompCH0_RestoreConfig
  54 0002 00BF     		.section	.text.CapSense_CompCH0_Sleep,"ax",%progbits
  55              		.align	2
ARM GAS  C:\Users\antarp\AppData\Local\Temp\ccWrKkK6.s 			page 3


  56              		.global	CapSense_CompCH0_Sleep
  57              		.thumb
  58              		.thumb_func
  59              		.type	CapSense_CompCH0_Sleep, %function
  60              	CapSense_CompCH0_Sleep:
  61              	.LFB2:
  60:Generated_Source\PSoC5/CapSense_CompCH0_PM.c ****     /* Empty since all are system reset for retention flops */    
  61:Generated_Source\PSoC5/CapSense_CompCH0_PM.c **** }
  62:Generated_Source\PSoC5/CapSense_CompCH0_PM.c **** 
  63:Generated_Source\PSoC5/CapSense_CompCH0_PM.c **** 
  64:Generated_Source\PSoC5/CapSense_CompCH0_PM.c **** /*******************************************************************************
  65:Generated_Source\PSoC5/CapSense_CompCH0_PM.c **** * Function Name: CapSense_CompCH0_Sleep
  66:Generated_Source\PSoC5/CapSense_CompCH0_PM.c **** ********************************************************************************
  67:Generated_Source\PSoC5/CapSense_CompCH0_PM.c **** *
  68:Generated_Source\PSoC5/CapSense_CompCH0_PM.c **** * Summary:
  69:Generated_Source\PSoC5/CapSense_CompCH0_PM.c **** *  Stop and Save the user configuration
  70:Generated_Source\PSoC5/CapSense_CompCH0_PM.c **** *
  71:Generated_Source\PSoC5/CapSense_CompCH0_PM.c **** * Parameters:
  72:Generated_Source\PSoC5/CapSense_CompCH0_PM.c **** *  void:
  73:Generated_Source\PSoC5/CapSense_CompCH0_PM.c **** *
  74:Generated_Source\PSoC5/CapSense_CompCH0_PM.c **** * Return:
  75:Generated_Source\PSoC5/CapSense_CompCH0_PM.c **** *  void
  76:Generated_Source\PSoC5/CapSense_CompCH0_PM.c **** *
  77:Generated_Source\PSoC5/CapSense_CompCH0_PM.c **** * Global variables:
  78:Generated_Source\PSoC5/CapSense_CompCH0_PM.c **** *  CapSense_CompCH0_backup.enableState:  Is modified depending on the enable 
  79:Generated_Source\PSoC5/CapSense_CompCH0_PM.c **** *   state of the block before entering sleep mode.
  80:Generated_Source\PSoC5/CapSense_CompCH0_PM.c **** *
  81:Generated_Source\PSoC5/CapSense_CompCH0_PM.c **** *******************************************************************************/
  82:Generated_Source\PSoC5/CapSense_CompCH0_PM.c **** void CapSense_CompCH0_Sleep(void) 
  83:Generated_Source\PSoC5/CapSense_CompCH0_PM.c **** {
  62              		.loc 1 83 0
  63              		.cfi_startproc
  64              		@ args = 0, pretend = 0, frame = 0
  65              		@ frame_needed = 0, uses_anonymous_args = 0
  66              		.loc 1 83 0
  67 0000 08B5     		push	{r3, lr}
  68              		.cfi_def_cfa_offset 8
  69              		.cfi_offset 3, -8
  70              		.cfi_offset 14, -4
  84:Generated_Source\PSoC5/CapSense_CompCH0_PM.c ****     /* Save Comp's enable state */    
  85:Generated_Source\PSoC5/CapSense_CompCH0_PM.c ****     if(CapSense_CompCH0_ACT_PWR_EN == (CapSense_CompCH0_PWRMGR & CapSense_CompCH0_ACT_PWR_EN))
  71              		.loc 1 85 0
  72 0002 074B     		ldr	r3, .L7
  73 0004 1B78     		ldrb	r3, [r3]	@ zero_extendqisi2
  74 0006 13F0010F 		tst	r3, #1
  75 000a 03D0     		beq	.L4
  86:Generated_Source\PSoC5/CapSense_CompCH0_PM.c ****     {
  87:Generated_Source\PSoC5/CapSense_CompCH0_PM.c ****         /* Comp is enabled */
  88:Generated_Source\PSoC5/CapSense_CompCH0_PM.c ****         CapSense_CompCH0_backup.enableState = 1u;
  76              		.loc 1 88 0
  77 000c 0122     		movs	r2, #1
  78 000e 054B     		ldr	r3, .L7+4
  79 0010 1A70     		strb	r2, [r3]
  80 0012 02E0     		b	.L5
  81              	.L4:
  89:Generated_Source\PSoC5/CapSense_CompCH0_PM.c ****     }
  90:Generated_Source\PSoC5/CapSense_CompCH0_PM.c ****     else
ARM GAS  C:\Users\antarp\AppData\Local\Temp\ccWrKkK6.s 			page 4


  91:Generated_Source\PSoC5/CapSense_CompCH0_PM.c ****     {
  92:Generated_Source\PSoC5/CapSense_CompCH0_PM.c ****         /* Comp is disabled */
  93:Generated_Source\PSoC5/CapSense_CompCH0_PM.c ****         CapSense_CompCH0_backup.enableState = 0u;
  82              		.loc 1 93 0
  83 0014 0022     		movs	r2, #0
  84 0016 034B     		ldr	r3, .L7+4
  85 0018 1A70     		strb	r2, [r3]
  86              	.L5:
  94:Generated_Source\PSoC5/CapSense_CompCH0_PM.c ****     }    
  95:Generated_Source\PSoC5/CapSense_CompCH0_PM.c ****     
  96:Generated_Source\PSoC5/CapSense_CompCH0_PM.c ****     CapSense_CompCH0_Stop();
  87              		.loc 1 96 0
  88 001a FFF7FEFF 		bl	CapSense_CompCH0_Stop
  89              	.LVL0:
  90 001e 08BD     		pop	{r3, pc}
  91              	.L8:
  92              		.align	2
  93              	.L7:
  94 0020 A7430040 		.word	1073759143
  95 0024 00000000 		.word	.LANCHOR0
  96              		.cfi_endproc
  97              	.LFE2:
  98              		.size	CapSense_CompCH0_Sleep, .-CapSense_CompCH0_Sleep
  99              		.section	.text.CapSense_CompCH0_Wakeup,"ax",%progbits
 100              		.align	2
 101              		.global	CapSense_CompCH0_Wakeup
 102              		.thumb
 103              		.thumb_func
 104              		.type	CapSense_CompCH0_Wakeup, %function
 105              	CapSense_CompCH0_Wakeup:
 106              	.LFB3:
  97:Generated_Source\PSoC5/CapSense_CompCH0_PM.c ****     CapSense_CompCH0_SaveConfig();
  98:Generated_Source\PSoC5/CapSense_CompCH0_PM.c **** }
  99:Generated_Source\PSoC5/CapSense_CompCH0_PM.c **** 
 100:Generated_Source\PSoC5/CapSense_CompCH0_PM.c **** 
 101:Generated_Source\PSoC5/CapSense_CompCH0_PM.c **** /*******************************************************************************
 102:Generated_Source\PSoC5/CapSense_CompCH0_PM.c **** * Function Name: CapSense_CompCH0_Wakeup
 103:Generated_Source\PSoC5/CapSense_CompCH0_PM.c **** ********************************************************************************
 104:Generated_Source\PSoC5/CapSense_CompCH0_PM.c **** *
 105:Generated_Source\PSoC5/CapSense_CompCH0_PM.c **** * Summary:
 106:Generated_Source\PSoC5/CapSense_CompCH0_PM.c **** *  Restores and enables the user configuration
 107:Generated_Source\PSoC5/CapSense_CompCH0_PM.c **** *  
 108:Generated_Source\PSoC5/CapSense_CompCH0_PM.c **** * Parameters:
 109:Generated_Source\PSoC5/CapSense_CompCH0_PM.c **** *  void
 110:Generated_Source\PSoC5/CapSense_CompCH0_PM.c **** *
 111:Generated_Source\PSoC5/CapSense_CompCH0_PM.c **** * Return:
 112:Generated_Source\PSoC5/CapSense_CompCH0_PM.c **** *  void
 113:Generated_Source\PSoC5/CapSense_CompCH0_PM.c **** *
 114:Generated_Source\PSoC5/CapSense_CompCH0_PM.c **** * Global variables:
 115:Generated_Source\PSoC5/CapSense_CompCH0_PM.c **** *  CapSense_CompCH0_backup.enableState:  Is used to restore the enable state of 
 116:Generated_Source\PSoC5/CapSense_CompCH0_PM.c **** *  block on wakeup from sleep mode.
 117:Generated_Source\PSoC5/CapSense_CompCH0_PM.c **** *
 118:Generated_Source\PSoC5/CapSense_CompCH0_PM.c **** *******************************************************************************/
 119:Generated_Source\PSoC5/CapSense_CompCH0_PM.c **** void CapSense_CompCH0_Wakeup(void) 
 120:Generated_Source\PSoC5/CapSense_CompCH0_PM.c **** {
 107              		.loc 1 120 0
 108              		.cfi_startproc
ARM GAS  C:\Users\antarp\AppData\Local\Temp\ccWrKkK6.s 			page 5


 109              		@ args = 0, pretend = 0, frame = 0
 110              		@ frame_needed = 0, uses_anonymous_args = 0
 111 0000 08B5     		push	{r3, lr}
 112              		.cfi_def_cfa_offset 8
 113              		.cfi_offset 3, -8
 114              		.cfi_offset 14, -4
 121:Generated_Source\PSoC5/CapSense_CompCH0_PM.c ****     CapSense_CompCH0_RestoreConfig();
 122:Generated_Source\PSoC5/CapSense_CompCH0_PM.c ****     
 123:Generated_Source\PSoC5/CapSense_CompCH0_PM.c ****     if(CapSense_CompCH0_backup.enableState == 1u)
 115              		.loc 1 123 0
 116 0002 034B     		ldr	r3, .L12
 117 0004 1B78     		ldrb	r3, [r3]	@ zero_extendqisi2
 118 0006 012B     		cmp	r3, #1
 119 0008 01D1     		bne	.L9
 124:Generated_Source\PSoC5/CapSense_CompCH0_PM.c ****     {
 125:Generated_Source\PSoC5/CapSense_CompCH0_PM.c ****         /* Enable Comp's operation */
 126:Generated_Source\PSoC5/CapSense_CompCH0_PM.c ****         CapSense_CompCH0_Enable();
 120              		.loc 1 126 0
 121 000a FFF7FEFF 		bl	CapSense_CompCH0_Enable
 122              	.LVL1:
 123              	.L9:
 124 000e 08BD     		pop	{r3, pc}
 125              	.L13:
 126              		.align	2
 127              	.L12:
 128 0010 00000000 		.word	.LANCHOR0
 129              		.cfi_endproc
 130              	.LFE3:
 131              		.size	CapSense_CompCH0_Wakeup, .-CapSense_CompCH0_Wakeup
 132              		.bss
 133              		.align	2
 134              		.set	.LANCHOR0,. + 0
 135              		.type	CapSense_CompCH0_backup, %object
 136              		.size	CapSense_CompCH0_backup, 1
 137              	CapSense_CompCH0_backup:
 138 0000 00       		.space	1
 139              		.text
 140              	.Letext0:
 141              		.file 2 "Generated_Source\\PSoC5\\cytypes.h"
 142              		.file 3 "Generated_Source\\PSoC5\\CapSense_CompCH0.h"
