ARM GAS  C:\Users\antarp\AppData\Local\Temp\ccWfKDCN.s 			page 1


   1              		.syntax unified
   2              		.cpu cortex-m3
   3              		.fpu softvfp
   4              		.eabi_attribute 20, 1
   5              		.eabi_attribute 21, 1
   6              		.eabi_attribute 23, 3
   7              		.eabi_attribute 24, 1
   8              		.eabi_attribute 25, 1
   9              		.eabi_attribute 26, 1
  10              		.eabi_attribute 30, 1
  11              		.eabi_attribute 34, 1
  12              		.eabi_attribute 18, 4
  13              		.thumb
  14              		.syntax unified
  15              		.file	"CyDmac.c"
  16              		.text
  17              	.Ltext0:
  18              		.cfi_sections	.debug_frame
  19              		.section	.text.CyDmacConfigure,"ax",%progbits
  20              		.align	2
  21              		.global	CyDmacConfigure
  22              		.thumb
  23              		.thumb_func
  24              		.type	CyDmacConfigure, %function
  25              	CyDmacConfigure:
  26              	.LFB0:
  27              		.file 1 "Generated_Source\\PSoC5\\CyDmac.c"
   1:Generated_Source\PSoC5/CyDmac.c **** /***************************************************************************//**
   2:Generated_Source\PSoC5/CyDmac.c **** * \file CyDmac.c
   3:Generated_Source\PSoC5/CyDmac.c **** * \version 5.60
   4:Generated_Source\PSoC5/CyDmac.c **** *
   5:Generated_Source\PSoC5/CyDmac.c **** * \brief
   6:Generated_Source\PSoC5/CyDmac.c **** * Provides an API for the DMAC component. The API includes functions for the
   7:Generated_Source\PSoC5/CyDmac.c **** * DMA controller, DMA channels and Transfer Descriptors. This API is the library
   8:Generated_Source\PSoC5/CyDmac.c **** * version not the auto generated code that gets generated when the user places a
   9:Generated_Source\PSoC5/CyDmac.c **** * DMA component on the schematic.
  10:Generated_Source\PSoC5/CyDmac.c **** *
  11:Generated_Source\PSoC5/CyDmac.c **** * The auto generated code would use the APi's in this module.
  12:Generated_Source\PSoC5/CyDmac.c **** *
  13:Generated_Source\PSoC5/CyDmac.c **** * \note This code is endian agnostic.
  14:Generated_Source\PSoC5/CyDmac.c **** *
  15:Generated_Source\PSoC5/CyDmac.c **** * \note The Transfer Descriptor memory can be used as regular memory if the
  16:Generated_Source\PSoC5/CyDmac.c **** * TD's are not being used.
  17:Generated_Source\PSoC5/CyDmac.c **** *
  18:Generated_Source\PSoC5/CyDmac.c **** * \note This code uses the first byte of each TD to manage the free list of
  19:Generated_Source\PSoC5/CyDmac.c **** * TD's. The user can overwrite this once the TD is allocated.
  20:Generated_Source\PSoC5/CyDmac.c **** *
  21:Generated_Source\PSoC5/CyDmac.c **** ********************************************************************************
  22:Generated_Source\PSoC5/CyDmac.c **** * \copyright
  23:Generated_Source\PSoC5/CyDmac.c **** * Copyright 2008-2017, Cypress Semiconductor Corporation.  All rights reserved.
  24:Generated_Source\PSoC5/CyDmac.c **** * You may use this file only in accordance with the license, terms, conditions,
  25:Generated_Source\PSoC5/CyDmac.c **** * disclaimers, and limitations in the end user license agreement accompanying
  26:Generated_Source\PSoC5/CyDmac.c **** * the software package with which this file was provided.
  27:Generated_Source\PSoC5/CyDmac.c **** *******************************************************************************/
  28:Generated_Source\PSoC5/CyDmac.c **** 
  29:Generated_Source\PSoC5/CyDmac.c **** #include "CyDmac.h"
  30:Generated_Source\PSoC5/CyDmac.c **** 
ARM GAS  C:\Users\antarp\AppData\Local\Temp\ccWfKDCN.s 			page 2


  31:Generated_Source\PSoC5/CyDmac.c **** 
  32:Generated_Source\PSoC5/CyDmac.c **** /*******************************************************************************
  33:Generated_Source\PSoC5/CyDmac.c **** * The following variables are initialized from CyDmacConfigure() function that
  34:Generated_Source\PSoC5/CyDmac.c **** * is executed from initialize_psoc() at the early initialization stage.
  35:Generated_Source\PSoC5/CyDmac.c **** * In case of IAR EW IDE, initialize_psoc() is executed before the data sections
  36:Generated_Source\PSoC5/CyDmac.c **** * are initialized. To avoid zeroing, these variables should be initialized
  37:Generated_Source\PSoC5/CyDmac.c **** * properly during segments initialization as well.
  38:Generated_Source\PSoC5/CyDmac.c **** *******************************************************************************/
  39:Generated_Source\PSoC5/CyDmac.c **** static uint8  CyDmaTdCurrentNumber = CY_DMA_NUMBEROF_TDS;           /* Current Number of free eleme
  40:Generated_Source\PSoC5/CyDmac.c **** static uint8  CyDmaTdFreeIndex = (uint8)(CY_DMA_NUMBEROF_TDS - 1u); /* Index of first available TD 
  41:Generated_Source\PSoC5/CyDmac.c **** static uint32 CyDmaChannels = DMA_CHANNELS_USED__MASK0;              /* Bit map of DMA channel owne
  42:Generated_Source\PSoC5/CyDmac.c **** 
  43:Generated_Source\PSoC5/CyDmac.c **** 
  44:Generated_Source\PSoC5/CyDmac.c **** /*******************************************************************************
  45:Generated_Source\PSoC5/CyDmac.c **** * Function Name: CyDmacConfigure
  46:Generated_Source\PSoC5/CyDmac.c **** ****************************************************************************//**
  47:Generated_Source\PSoC5/CyDmac.c **** *
  48:Generated_Source\PSoC5/CyDmac.c **** * Creates a linked list of all the TDs to be allocated. This function is called
  49:Generated_Source\PSoC5/CyDmac.c **** * by the startup code; you do not normally need to call it. You can call this
  50:Generated_Source\PSoC5/CyDmac.c **** * function if all of the DMA channels are inactive.
  51:Generated_Source\PSoC5/CyDmac.c **** *
  52:Generated_Source\PSoC5/CyDmac.c **** *******************************************************************************/
  53:Generated_Source\PSoC5/CyDmac.c **** void CyDmacConfigure(void) 
  54:Generated_Source\PSoC5/CyDmac.c **** {
  28              		.loc 1 54 0
  29              		.cfi_startproc
  30              		@ args = 0, pretend = 0, frame = 0
  31              		@ frame_needed = 0, uses_anonymous_args = 0
  32              		@ link register save eliminated.
  55:Generated_Source\PSoC5/CyDmac.c ****     uint8 dmaIndex;
  56:Generated_Source\PSoC5/CyDmac.c **** 
  57:Generated_Source\PSoC5/CyDmac.c ****     /* Set TD list variables. */
  58:Generated_Source\PSoC5/CyDmac.c ****     CyDmaTdFreeIndex     = (uint8)(CY_DMA_NUMBEROF_TDS - 1u);
  33              		.loc 1 58 0
  34 0000 0B4A     		ldr	r2, .L4
  35 0002 7F23     		movs	r3, #127
  36 0004 1370     		strb	r3, [r2]
  59:Generated_Source\PSoC5/CyDmac.c ****     CyDmaTdCurrentNumber = CY_DMA_NUMBEROF_TDS;
  37              		.loc 1 59 0
  38 0006 8021     		movs	r1, #128
  39 0008 5170     		strb	r1, [r2, #1]
  40              	.LVL0:
  60:Generated_Source\PSoC5/CyDmac.c **** 
  61:Generated_Source\PSoC5/CyDmac.c ****     /* Make TD free list. */
  62:Generated_Source\PSoC5/CyDmac.c ****     for(dmaIndex = (uint8)(CY_DMA_NUMBEROF_TDS - 1u); dmaIndex != 0u; dmaIndex--)
  41              		.loc 1 62 0
  42 000a 07E0     		b	.L2
  43              	.LVL1:
  44              	.L3:
  63:Generated_Source\PSoC5/CyDmac.c ****     {
  64:Generated_Source\PSoC5/CyDmac.c ****         CY_DMA_TDMEM_STRUCT_PTR[dmaIndex].TD0[0u] = (uint8)(dmaIndex - 1u);
  45              		.loc 1 64 0 discriminator 3
  46 000c DA00     		lsls	r2, r3, #3
  47 000e 02F18042 		add	r2, r2, #1073741824
  48 0012 02F5F042 		add	r2, r2, #30720
  49 0016 013B     		subs	r3, r3, #1
  50              	.LVL2:
ARM GAS  C:\Users\antarp\AppData\Local\Temp\ccWfKDCN.s 			page 3


  51 0018 DBB2     		uxtb	r3, r3
  52 001a 1370     		strb	r3, [r2]
  53              	.LVL3:
  54              	.L2:
  62:Generated_Source\PSoC5/CyDmac.c ****     {
  55              		.loc 1 62 0 discriminator 1
  56 001c 002B     		cmp	r3, #0
  57 001e F5D1     		bne	.L3
  65:Generated_Source\PSoC5/CyDmac.c ****     }
  66:Generated_Source\PSoC5/CyDmac.c **** 
  67:Generated_Source\PSoC5/CyDmac.c ****     /* Make last one point to zero. */
  68:Generated_Source\PSoC5/CyDmac.c ****     CY_DMA_TDMEM_STRUCT_PTR[dmaIndex].TD0[0u] = 0u;
  58              		.loc 1 68 0
  59 0020 DB00     		lsls	r3, r3, #3
  60              	.LVL4:
  61 0022 03F18043 		add	r3, r3, #1073741824
  62 0026 03F5F043 		add	r3, r3, #30720
  63 002a 0022     		movs	r2, #0
  64 002c 1A70     		strb	r2, [r3]
  65 002e 7047     		bx	lr
  66              	.L5:
  67              		.align	2
  68              	.L4:
  69 0030 00000000 		.word	.LANCHOR0
  70              		.cfi_endproc
  71              	.LFE0:
  72              		.size	CyDmacConfigure, .-CyDmacConfigure
  73              		.section	.text.CyDmacError,"ax",%progbits
  74              		.align	2
  75              		.global	CyDmacError
  76              		.thumb
  77              		.thumb_func
  78              		.type	CyDmacError, %function
  79              	CyDmacError:
  80              	.LFB1:
  69:Generated_Source\PSoC5/CyDmac.c **** }
  70:Generated_Source\PSoC5/CyDmac.c **** 
  71:Generated_Source\PSoC5/CyDmac.c **** 
  72:Generated_Source\PSoC5/CyDmac.c **** /*******************************************************************************
  73:Generated_Source\PSoC5/CyDmac.c **** * Function Name: CyDmacError
  74:Generated_Source\PSoC5/CyDmac.c **** ****************************************************************************//**
  75:Generated_Source\PSoC5/CyDmac.c **** *
  76:Generated_Source\PSoC5/CyDmac.c **** *  Returns errors of the last failed DMA transaction.
  77:Generated_Source\PSoC5/CyDmac.c **** *
  78:Generated_Source\PSoC5/CyDmac.c **** * \return Errors of the last failed DMA transaction.
  79:Generated_Source\PSoC5/CyDmac.c **** *
  80:Generated_Source\PSoC5/CyDmac.c **** *  DMAC_PERIPH_ERR:
  81:Generated_Source\PSoC5/CyDmac.c **** *   Set to 1 when a peripheral responds to a bus transaction with an error
  82:Generated_Source\PSoC5/CyDmac.c **** *   response.
  83:Generated_Source\PSoC5/CyDmac.c **** *
  84:Generated_Source\PSoC5/CyDmac.c **** *  DMAC_UNPOP_ACC:
  85:Generated_Source\PSoC5/CyDmac.c **** *   Set to 1 when an access is attempted to an invalid address.
  86:Generated_Source\PSoC5/CyDmac.c **** *
  87:Generated_Source\PSoC5/CyDmac.c **** *  DMAC_BUS_TIMEOUT:
  88:Generated_Source\PSoC5/CyDmac.c **** *   Set to 1 when a bus timeout occurs. Cleared by writing a 1. Timeout values
  89:Generated_Source\PSoC5/CyDmac.c **** *   are determined by the BUS_TIMEOUT field in the PHUBCFG register.
  90:Generated_Source\PSoC5/CyDmac.c **** *
ARM GAS  C:\Users\antarp\AppData\Local\Temp\ccWfKDCN.s 			page 4


  91:Generated_Source\PSoC5/CyDmac.c **** * Theory:
  92:Generated_Source\PSoC5/CyDmac.c **** *  Once an error occurs the error bits are sticky and are only cleared by
  93:Generated_Source\PSoC5/CyDmac.c **** *  writing 1 to the error register.
  94:Generated_Source\PSoC5/CyDmac.c **** *
  95:Generated_Source\PSoC5/CyDmac.c **** *******************************************************************************/
  96:Generated_Source\PSoC5/CyDmac.c **** uint8 CyDmacError(void) 
  97:Generated_Source\PSoC5/CyDmac.c **** {
  81              		.loc 1 97 0
  82              		.cfi_startproc
  83              		@ args = 0, pretend = 0, frame = 0
  84              		@ frame_needed = 0, uses_anonymous_args = 0
  85              		@ link register save eliminated.
  98:Generated_Source\PSoC5/CyDmac.c ****     return((uint8)(((uint32) 0x0Eu) & *CY_DMA_ERR_PTR));
  86              		.loc 1 98 0
  87 0000 024B     		ldr	r3, .L7
  88 0002 1868     		ldr	r0, [r3]
  99:Generated_Source\PSoC5/CyDmac.c **** }
  89              		.loc 1 99 0
  90 0004 00F00E00 		and	r0, r0, #14
  91 0008 7047     		bx	lr
  92              	.L8:
  93 000a 00BF     		.align	2
  94              	.L7:
  95 000c 04700040 		.word	1073770500
  96              		.cfi_endproc
  97              	.LFE1:
  98              		.size	CyDmacError, .-CyDmacError
  99              		.section	.text.CyDmacClearError,"ax",%progbits
 100              		.align	2
 101              		.global	CyDmacClearError
 102              		.thumb
 103              		.thumb_func
 104              		.type	CyDmacClearError, %function
 105              	CyDmacClearError:
 106              	.LFB2:
 100:Generated_Source\PSoC5/CyDmac.c **** 
 101:Generated_Source\PSoC5/CyDmac.c **** 
 102:Generated_Source\PSoC5/CyDmac.c **** /*******************************************************************************
 103:Generated_Source\PSoC5/CyDmac.c **** * Function Name: CyDmacClearError
 104:Generated_Source\PSoC5/CyDmac.c **** ****************************************************************************//**
 105:Generated_Source\PSoC5/CyDmac.c **** *
 106:Generated_Source\PSoC5/CyDmac.c **** *  Clears the error bits in the error register of the DMAC.
 107:Generated_Source\PSoC5/CyDmac.c **** *
 108:Generated_Source\PSoC5/CyDmac.c **** * \param error:
 109:Generated_Source\PSoC5/CyDmac.c **** *   Clears the error bits in the DMAC error register.
 110:Generated_Source\PSoC5/CyDmac.c **** *
 111:Generated_Source\PSoC5/CyDmac.c **** *  \param DMAC_PERIPH_ERR:
 112:Generated_Source\PSoC5/CyDmac.c **** *   Set to 1 when a peripheral responds to a bus transaction with an error
 113:Generated_Source\PSoC5/CyDmac.c **** *   response.
 114:Generated_Source\PSoC5/CyDmac.c **** *
 115:Generated_Source\PSoC5/CyDmac.c **** *  \param DMAC_UNPOP_ACC:
 116:Generated_Source\PSoC5/CyDmac.c **** *   Set to 1 when an access is attempted to an invalid address.
 117:Generated_Source\PSoC5/CyDmac.c **** *
 118:Generated_Source\PSoC5/CyDmac.c **** *  \param DMAC_BUS_TIMEOUT:
 119:Generated_Source\PSoC5/CyDmac.c **** *   Set to 1 when a bus timeout occurs. Cleared by writing 1. Timeout values
 120:Generated_Source\PSoC5/CyDmac.c **** *   are determined by the BUS_TIMEOUT field in the PHUBCFG register.
 121:Generated_Source\PSoC5/CyDmac.c **** *
ARM GAS  C:\Users\antarp\AppData\Local\Temp\ccWfKDCN.s 			page 5


 122:Generated_Source\PSoC5/CyDmac.c **** * Theory:
 123:Generated_Source\PSoC5/CyDmac.c **** *  Once an error occurs the error bits are sticky and are only cleared by
 124:Generated_Source\PSoC5/CyDmac.c **** *  writing 1 to the error register.
 125:Generated_Source\PSoC5/CyDmac.c **** *
 126:Generated_Source\PSoC5/CyDmac.c **** *******************************************************************************/
 127:Generated_Source\PSoC5/CyDmac.c **** void CyDmacClearError(uint8 error) 
 128:Generated_Source\PSoC5/CyDmac.c **** {
 107              		.loc 1 128 0
 108              		.cfi_startproc
 109              		@ args = 0, pretend = 0, frame = 0
 110              		@ frame_needed = 0, uses_anonymous_args = 0
 111              		@ link register save eliminated.
 112              	.LVL5:
 129:Generated_Source\PSoC5/CyDmac.c ****     *CY_DMA_ERR_PTR = (((uint32)0x0Fu) & ((uint32)error));
 113              		.loc 1 129 0
 114 0000 00F00F00 		and	r0, r0, #15
 115              	.LVL6:
 116 0004 014B     		ldr	r3, .L10
 117 0006 1860     		str	r0, [r3]
 118 0008 7047     		bx	lr
 119              	.L11:
 120 000a 00BF     		.align	2
 121              	.L10:
 122 000c 04700040 		.word	1073770500
 123              		.cfi_endproc
 124              	.LFE2:
 125              		.size	CyDmacClearError, .-CyDmacClearError
 126              		.section	.text.CyDmacErrorAddress,"ax",%progbits
 127              		.align	2
 128              		.global	CyDmacErrorAddress
 129              		.thumb
 130              		.thumb_func
 131              		.type	CyDmacErrorAddress, %function
 132              	CyDmacErrorAddress:
 133              	.LFB3:
 130:Generated_Source\PSoC5/CyDmac.c **** }
 131:Generated_Source\PSoC5/CyDmac.c **** 
 132:Generated_Source\PSoC5/CyDmac.c **** 
 133:Generated_Source\PSoC5/CyDmac.c **** /*******************************************************************************
 134:Generated_Source\PSoC5/CyDmac.c **** * Function Name: CyDmacErrorAddress
 135:Generated_Source\PSoC5/CyDmac.c **** ****************************************************************************//**
 136:Generated_Source\PSoC5/CyDmac.c **** *
 137:Generated_Source\PSoC5/CyDmac.c **** *  When DMAC_BUS_TIMEOUT, DMAC_UNPOP_ACC, and DMAC_PERIPH_ERR occur the
 138:Generated_Source\PSoC5/CyDmac.c **** *  address of the error is written to the error address register and can be read
 139:Generated_Source\PSoC5/CyDmac.c **** *  with this function.
 140:Generated_Source\PSoC5/CyDmac.c **** *
 141:Generated_Source\PSoC5/CyDmac.c **** *  If there are multiple errors, only the address of the first is saved.
 142:Generated_Source\PSoC5/CyDmac.c **** *
 143:Generated_Source\PSoC5/CyDmac.c **** * \return The address that caused the error.
 144:Generated_Source\PSoC5/CyDmac.c **** *
 145:Generated_Source\PSoC5/CyDmac.c **** *******************************************************************************/
 146:Generated_Source\PSoC5/CyDmac.c **** uint32 CyDmacErrorAddress(void) 
 147:Generated_Source\PSoC5/CyDmac.c **** {
 134              		.loc 1 147 0
 135              		.cfi_startproc
 136              		@ args = 0, pretend = 0, frame = 0
 137              		@ frame_needed = 0, uses_anonymous_args = 0
ARM GAS  C:\Users\antarp\AppData\Local\Temp\ccWfKDCN.s 			page 6


 138              		@ link register save eliminated.
 148:Generated_Source\PSoC5/CyDmac.c ****     return(CY_GET_REG32(CY_DMA_ERR_ADR_PTR));
 139              		.loc 1 148 0
 140 0000 014B     		ldr	r3, .L13
 141 0002 1868     		ldr	r0, [r3]
 149:Generated_Source\PSoC5/CyDmac.c **** }
 142              		.loc 1 149 0
 143 0004 7047     		bx	lr
 144              	.L14:
 145 0006 00BF     		.align	2
 146              	.L13:
 147 0008 08700040 		.word	1073770504
 148              		.cfi_endproc
 149              	.LFE3:
 150              		.size	CyDmacErrorAddress, .-CyDmacErrorAddress
 151              		.section	.text.CyDmaChAlloc,"ax",%progbits
 152              		.align	2
 153              		.global	CyDmaChAlloc
 154              		.thumb
 155              		.thumb_func
 156              		.type	CyDmaChAlloc, %function
 157              	CyDmaChAlloc:
 158              	.LFB4:
 150:Generated_Source\PSoC5/CyDmac.c **** 
 151:Generated_Source\PSoC5/CyDmac.c **** 
 152:Generated_Source\PSoC5/CyDmac.c **** /*******************************************************************************
 153:Generated_Source\PSoC5/CyDmac.c **** * Function Name: CyDmaChAlloc
 154:Generated_Source\PSoC5/CyDmac.c **** ****************************************************************************//**
 155:Generated_Source\PSoC5/CyDmac.c **** *
 156:Generated_Source\PSoC5/CyDmac.c **** *  Allocates a channel from the DMAC to be used in all functions that require a
 157:Generated_Source\PSoC5/CyDmac.c **** *  channel handle.
 158:Generated_Source\PSoC5/CyDmac.c **** *
 159:Generated_Source\PSoC5/CyDmac.c **** * \return The allocated channel number. Zero is a valid channel number.
 160:Generated_Source\PSoC5/CyDmac.c **** *  DMA_INVALID_CHANNEL is returned if there are no channels available.
 161:Generated_Source\PSoC5/CyDmac.c **** *
 162:Generated_Source\PSoC5/CyDmac.c **** *******************************************************************************/
 163:Generated_Source\PSoC5/CyDmac.c **** uint8 CyDmaChAlloc(void) 
 164:Generated_Source\PSoC5/CyDmac.c **** {
 159              		.loc 1 164 0
 160              		.cfi_startproc
 161              		@ args = 0, pretend = 0, frame = 0
 162              		@ frame_needed = 0, uses_anonymous_args = 0
 163 0000 10B5     		push	{r4, lr}
 164              		.cfi_def_cfa_offset 8
 165              		.cfi_offset 4, -8
 166              		.cfi_offset 14, -4
 167              	.LVL7:
 165:Generated_Source\PSoC5/CyDmac.c ****     uint8 interruptState;
 166:Generated_Source\PSoC5/CyDmac.c ****     uint8 dmaIndex;
 167:Generated_Source\PSoC5/CyDmac.c ****     uint32 channel = 1u;
 168:Generated_Source\PSoC5/CyDmac.c **** 
 169:Generated_Source\PSoC5/CyDmac.c **** 
 170:Generated_Source\PSoC5/CyDmac.c ****     /* Enter critical section! */
 171:Generated_Source\PSoC5/CyDmac.c ****     interruptState = CyEnterCriticalSection();
 168              		.loc 1 171 0
 169 0002 FFF7FEFF 		bl	CyEnterCriticalSection
 170              	.LVL8:
ARM GAS  C:\Users\antarp\AppData\Local\Temp\ccWfKDCN.s 			page 7


 167:Generated_Source\PSoC5/CyDmac.c **** 
 171              		.loc 1 167 0
 172 0006 0123     		movs	r3, #1
 172:Generated_Source\PSoC5/CyDmac.c **** 
 173:Generated_Source\PSoC5/CyDmac.c ****     /* Look for free channel. */
 174:Generated_Source\PSoC5/CyDmac.c ****     for(dmaIndex = 0u; dmaIndex < CY_DMA_NUMBEROF_CHANNELS; dmaIndex++)
 173              		.loc 1 174 0
 174 0008 0024     		movs	r4, #0
 175 000a 0AE0     		b	.L16
 176              	.LVL9:
 177              	.L19:
 175:Generated_Source\PSoC5/CyDmac.c ****     {
 176:Generated_Source\PSoC5/CyDmac.c ****         if(0uL == (CyDmaChannels & channel))
 178              		.loc 1 176 0
 179 000c 094A     		ldr	r2, .L23
 180 000e 1268     		ldr	r2, [r2]
 181 0010 1342     		tst	r3, r2
 182 0012 03D1     		bne	.L17
 177:Generated_Source\PSoC5/CyDmac.c ****         {
 178:Generated_Source\PSoC5/CyDmac.c ****             /* Mark channel as used. */
 179:Generated_Source\PSoC5/CyDmac.c ****             CyDmaChannels |= channel;
 183              		.loc 1 179 0
 184 0014 1343     		orrs	r3, r3, r2
 185              	.LVL10:
 186 0016 074A     		ldr	r2, .L23
 187 0018 1360     		str	r3, [r2]
 180:Generated_Source\PSoC5/CyDmac.c ****             break;
 188              		.loc 1 180 0
 189 001a 04E0     		b	.L18
 190              	.LVL11:
 191              	.L17:
 181:Generated_Source\PSoC5/CyDmac.c ****         }
 182:Generated_Source\PSoC5/CyDmac.c **** 
 183:Generated_Source\PSoC5/CyDmac.c ****         channel <<= 1u;
 192              		.loc 1 183 0 discriminator 2
 193 001c 5B00     		lsls	r3, r3, #1
 194              	.LVL12:
 174:Generated_Source\PSoC5/CyDmac.c ****     {
 195              		.loc 1 174 0 discriminator 2
 196 001e 0134     		adds	r4, r4, #1
 197              	.LVL13:
 198 0020 E4B2     		uxtb	r4, r4
 199              	.LVL14:
 200              	.L16:
 174:Generated_Source\PSoC5/CyDmac.c ****     {
 201              		.loc 1 174 0 is_stmt 0 discriminator 1
 202 0022 172C     		cmp	r4, #23
 203 0024 F2D9     		bls	.L19
 204              	.LVL15:
 205              	.L18:
 184:Generated_Source\PSoC5/CyDmac.c ****     }
 185:Generated_Source\PSoC5/CyDmac.c **** 
 186:Generated_Source\PSoC5/CyDmac.c ****     if(dmaIndex >= CY_DMA_NUMBEROF_CHANNELS)
 206              		.loc 1 186 0 is_stmt 1
 207 0026 172C     		cmp	r4, #23
 208 0028 00D9     		bls	.L20
 187:Generated_Source\PSoC5/CyDmac.c ****     {
ARM GAS  C:\Users\antarp\AppData\Local\Temp\ccWfKDCN.s 			page 8


 188:Generated_Source\PSoC5/CyDmac.c ****         dmaIndex = CY_DMA_INVALID_CHANNEL;
 209              		.loc 1 188 0
 210 002a FF24     		movs	r4, #255
 211              	.LVL16:
 212              	.L20:
 189:Generated_Source\PSoC5/CyDmac.c ****     }
 190:Generated_Source\PSoC5/CyDmac.c **** 
 191:Generated_Source\PSoC5/CyDmac.c ****     /* Exit critical section! */
 192:Generated_Source\PSoC5/CyDmac.c ****     CyExitCriticalSection(interruptState);
 213              		.loc 1 192 0
 214 002c FFF7FEFF 		bl	CyExitCriticalSection
 215              	.LVL17:
 193:Generated_Source\PSoC5/CyDmac.c **** 
 194:Generated_Source\PSoC5/CyDmac.c ****     return(dmaIndex);
 195:Generated_Source\PSoC5/CyDmac.c **** }
 216              		.loc 1 195 0
 217 0030 2046     		mov	r0, r4
 218 0032 10BD     		pop	{r4, pc}
 219              	.LVL18:
 220              	.L24:
 221              		.align	2
 222              	.L23:
 223 0034 00000000 		.word	.LANCHOR1
 224              		.cfi_endproc
 225              	.LFE4:
 226              		.size	CyDmaChAlloc, .-CyDmaChAlloc
 227              		.section	.text.CyDmaChFree,"ax",%progbits
 228              		.align	2
 229              		.global	CyDmaChFree
 230              		.thumb
 231              		.thumb_func
 232              		.type	CyDmaChFree, %function
 233              	CyDmaChFree:
 234              	.LFB5:
 196:Generated_Source\PSoC5/CyDmac.c **** 
 197:Generated_Source\PSoC5/CyDmac.c **** 
 198:Generated_Source\PSoC5/CyDmac.c **** /*******************************************************************************
 199:Generated_Source\PSoC5/CyDmac.c **** * Function Name: CyDmaChFree
 200:Generated_Source\PSoC5/CyDmac.c **** ****************************************************************************//**
 201:Generated_Source\PSoC5/CyDmac.c **** *
 202:Generated_Source\PSoC5/CyDmac.c **** * Frees a channel allocated by \ref DmaChAlloc().
 203:Generated_Source\PSoC5/CyDmac.c **** *
 204:Generated_Source\PSoC5/CyDmac.c **** * \param chHandle The handle previously returned by \ref CyDmaChAlloc() or \ref
 205:Generated_Source\PSoC5/CyDmac.c **** * DMA_DmaInitalize().
 206:Generated_Source\PSoC5/CyDmac.c **** *
 207:Generated_Source\PSoC5/CyDmac.c **** * \return CYRET_SUCCESS if successful.
 208:Generated_Source\PSoC5/CyDmac.c **** * \return CYRET_BAD_PARAM if chHandle is invalid.
 209:Generated_Source\PSoC5/CyDmac.c **** *
 210:Generated_Source\PSoC5/CyDmac.c **** *******************************************************************************/
 211:Generated_Source\PSoC5/CyDmac.c **** cystatus CyDmaChFree(uint8 chHandle) 
 212:Generated_Source\PSoC5/CyDmac.c **** {
 235              		.loc 1 212 0
 236              		.cfi_startproc
 237              		@ args = 0, pretend = 0, frame = 0
 238              		@ frame_needed = 0, uses_anonymous_args = 0
 239              	.LVL19:
 213:Generated_Source\PSoC5/CyDmac.c ****     cystatus status = CYRET_BAD_PARAM;
ARM GAS  C:\Users\antarp\AppData\Local\Temp\ccWfKDCN.s 			page 9


 214:Generated_Source\PSoC5/CyDmac.c ****     uint8 interruptState;
 215:Generated_Source\PSoC5/CyDmac.c **** 
 216:Generated_Source\PSoC5/CyDmac.c ****     if(chHandle < CY_DMA_NUMBEROF_CHANNELS)
 240              		.loc 1 216 0
 241 0000 1728     		cmp	r0, #23
 242 0002 0FD8     		bhi	.L27
 212:Generated_Source\PSoC5/CyDmac.c ****     cystatus status = CYRET_BAD_PARAM;
 243              		.loc 1 212 0
 244 0004 10B5     		push	{r4, lr}
 245              		.cfi_def_cfa_offset 8
 246              		.cfi_offset 4, -8
 247              		.cfi_offset 14, -4
 248 0006 0446     		mov	r4, r0
 217:Generated_Source\PSoC5/CyDmac.c ****     {
 218:Generated_Source\PSoC5/CyDmac.c ****         /* Enter critical section */
 219:Generated_Source\PSoC5/CyDmac.c ****         interruptState = CyEnterCriticalSection();
 249              		.loc 1 219 0
 250 0008 FFF7FEFF 		bl	CyEnterCriticalSection
 251              	.LVL20:
 220:Generated_Source\PSoC5/CyDmac.c **** 
 221:Generated_Source\PSoC5/CyDmac.c ****         /* Clear bit mask that keeps track of ownership. */
 222:Generated_Source\PSoC5/CyDmac.c ****         CyDmaChannels &= ~(((uint32) 1u) << chHandle);
 252              		.loc 1 222 0
 253 000c 0123     		movs	r3, #1
 254 000e 03FA04F4 		lsl	r4, r3, r4
 255 0012 054A     		ldr	r2, .L30
 256 0014 1368     		ldr	r3, [r2]
 257 0016 23EA0403 		bic	r3, r3, r4
 258 001a 1360     		str	r3, [r2]
 223:Generated_Source\PSoC5/CyDmac.c **** 
 224:Generated_Source\PSoC5/CyDmac.c ****         /* Exit critical section */
 225:Generated_Source\PSoC5/CyDmac.c ****         CyExitCriticalSection(interruptState);
 259              		.loc 1 225 0
 260 001c FFF7FEFF 		bl	CyExitCriticalSection
 261              	.LVL21:
 226:Generated_Source\PSoC5/CyDmac.c ****         status = CYRET_SUCCESS;
 262              		.loc 1 226 0
 263 0020 0020     		movs	r0, #0
 264 0022 10BD     		pop	{r4, pc}
 265              	.LVL22:
 266              	.L27:
 267              		.cfi_def_cfa_offset 0
 268              		.cfi_restore 4
 269              		.cfi_restore 14
 213:Generated_Source\PSoC5/CyDmac.c ****     uint8 interruptState;
 270              		.loc 1 213 0
 271 0024 0120     		movs	r0, #1
 272              	.LVL23:
 273 0026 7047     		bx	lr
 274              	.L31:
 275              		.align	2
 276              	.L30:
 277 0028 00000000 		.word	.LANCHOR1
 278              		.cfi_endproc
 279              	.LFE5:
 280              		.size	CyDmaChFree, .-CyDmaChFree
 281              		.section	.text.CyDmaChEnable,"ax",%progbits
ARM GAS  C:\Users\antarp\AppData\Local\Temp\ccWfKDCN.s 			page 10


 282              		.align	2
 283              		.global	CyDmaChEnable
 284              		.thumb
 285              		.thumb_func
 286              		.type	CyDmaChEnable, %function
 287              	CyDmaChEnable:
 288              	.LFB6:
 227:Generated_Source\PSoC5/CyDmac.c ****     }
 228:Generated_Source\PSoC5/CyDmac.c **** 
 229:Generated_Source\PSoC5/CyDmac.c ****     return(status);
 230:Generated_Source\PSoC5/CyDmac.c **** }
 231:Generated_Source\PSoC5/CyDmac.c **** 
 232:Generated_Source\PSoC5/CyDmac.c **** 
 233:Generated_Source\PSoC5/CyDmac.c **** /*******************************************************************************
 234:Generated_Source\PSoC5/CyDmac.c **** * Function Name: CyDmaChEnable
 235:Generated_Source\PSoC5/CyDmac.c **** ****************************************************************************//**
 236:Generated_Source\PSoC5/CyDmac.c **** *
 237:Generated_Source\PSoC5/CyDmac.c **** *  Enables the DMA channel. A software or hardware request still must happen
 238:Generated_Source\PSoC5/CyDmac.c **** *  before the channel is executed.
 239:Generated_Source\PSoC5/CyDmac.c **** *
 240:Generated_Source\PSoC5/CyDmac.c **** *  \param chHandle A handle previously returned by \ref CyDmaChAlloc() or \ref
 241:Generated_Source\PSoC5/CyDmac.c **** *  DMA_DmaInitalize().
 242:Generated_Source\PSoC5/CyDmac.c **** *
 243:Generated_Source\PSoC5/CyDmac.c **** *  \param preserveTds Preserves the original TD state when the TD has completed.
 244:Generated_Source\PSoC5/CyDmac.c **** *  This parameter applies to all TDs in the channel.
 245:Generated_Source\PSoC5/CyDmac.c **** *
 246:Generated_Source\PSoC5/CyDmac.c **** *   0 - When TD is completed, the DMAC leaves the TD configuration values in
 247:Generated_Source\PSoC5/CyDmac.c **** *   their current state, and does not restore them to their original state.
 248:Generated_Source\PSoC5/CyDmac.c **** *
 249:Generated_Source\PSoC5/CyDmac.c **** *   1 - When TD is completed, the DMAC restores the original configuration
 250:Generated_Source\PSoC5/CyDmac.c **** *   values of the TD.
 251:Generated_Source\PSoC5/CyDmac.c **** *
 252:Generated_Source\PSoC5/CyDmac.c **** *  When preserveTds is set, the TD slot that equals the channel number becomes
 253:Generated_Source\PSoC5/CyDmac.c **** *  RESERVED and that becomes where the working registers exist. So, for example,
 254:Generated_Source\PSoC5/CyDmac.c **** *  if you are using CH06 and preserveTds is set, you are not allowed to use TD
 255:Generated_Source\PSoC5/CyDmac.c **** *  slot 6. That is reclaimed by the DMA engine for its private use.
 256:Generated_Source\PSoC5/CyDmac.c **** *
 257:Generated_Source\PSoC5/CyDmac.c **** *  \note Do not chain back to a completed TD if the preserveTds for the channel
 258:Generated_Source\PSoC5/CyDmac.c **** *  is set to 0. When a TD has completed preserveTds for the channel set to 0,
 259:Generated_Source\PSoC5/CyDmac.c **** *  the transfer count will be at 0. If a TD with a transfer count of 0 is
 260:Generated_Source\PSoC5/CyDmac.c **** *  started, the TD will transfer an indefinite amount of data.
 261:Generated_Source\PSoC5/CyDmac.c **** *
 262:Generated_Source\PSoC5/CyDmac.c **** *  Take extra precautions when using the hardware request (DRQ) option when the
 263:Generated_Source\PSoC5/CyDmac.c **** *  preserveTds is set to 0, as you might be requesting the wrong data.
 264:Generated_Source\PSoC5/CyDmac.c **** *
 265:Generated_Source\PSoC5/CyDmac.c **** * \return CYRET_SUCCESS if successful.
 266:Generated_Source\PSoC5/CyDmac.c **** * \return CYRET_BAD_PARAM if chHandle is invalid.
 267:Generated_Source\PSoC5/CyDmac.c **** *
 268:Generated_Source\PSoC5/CyDmac.c **** *******************************************************************************/
 269:Generated_Source\PSoC5/CyDmac.c **** cystatus CyDmaChEnable(uint8 chHandle, uint8 preserveTds) 
 270:Generated_Source\PSoC5/CyDmac.c **** {
 289              		.loc 1 270 0
 290              		.cfi_startproc
 291              		@ args = 0, pretend = 0, frame = 0
 292              		@ frame_needed = 0, uses_anonymous_args = 0
 293              		@ link register save eliminated.
 294              	.LVL24:
ARM GAS  C:\Users\antarp\AppData\Local\Temp\ccWfKDCN.s 			page 11


 271:Generated_Source\PSoC5/CyDmac.c ****     cystatus status = CYRET_BAD_PARAM;
 272:Generated_Source\PSoC5/CyDmac.c **** 
 273:Generated_Source\PSoC5/CyDmac.c ****     if(chHandle < CY_DMA_NUMBEROF_CHANNELS)
 295              		.loc 1 273 0
 296 0000 1728     		cmp	r0, #23
 297 0002 15D8     		bhi	.L36
 274:Generated_Source\PSoC5/CyDmac.c ****     {
 275:Generated_Source\PSoC5/CyDmac.c ****         if (0u != preserveTds)
 298              		.loc 1 275 0
 299 0004 31B1     		cbz	r1, .L34
 276:Generated_Source\PSoC5/CyDmac.c ****         {
 277:Generated_Source\PSoC5/CyDmac.c ****             /* Store intermediate TD states separately in CHn_SEP_TD0/1 to
 278:Generated_Source\PSoC5/CyDmac.c ****             *  preserve original TD chain
 279:Generated_Source\PSoC5/CyDmac.c ****             */
 280:Generated_Source\PSoC5/CyDmac.c ****             CY_DMA_CH_STRUCT_PTR[chHandle].basic_cfg[0u] |= CY_DMA_CH_BASIC_CFG_WORK_SEP;
 300              		.loc 1 280 0
 301 0006 0301     		lsls	r3, r0, #4
 302 0008 0A49     		ldr	r1, .L37
 303              	.LVL25:
 304 000a 5A5C     		ldrb	r2, [r3, r1]	@ zero_extendqisi2
 305 000c 42F02002 		orr	r2, r2, #32
 306 0010 5A54     		strb	r2, [r3, r1]
 307 0012 05E0     		b	.L35
 308              	.LVL26:
 309              	.L34:
 281:Generated_Source\PSoC5/CyDmac.c ****         }
 282:Generated_Source\PSoC5/CyDmac.c ****         else
 283:Generated_Source\PSoC5/CyDmac.c ****         {
 284:Generated_Source\PSoC5/CyDmac.c ****             /* Store intermediate and final TD states on top of original TD chain */
 285:Generated_Source\PSoC5/CyDmac.c ****             CY_DMA_CH_STRUCT_PTR[chHandle].basic_cfg[0u] &= (uint8)(~CY_DMA_CH_BASIC_CFG_WORK_SEP);
 310              		.loc 1 285 0
 311 0014 0301     		lsls	r3, r0, #4
 312 0016 0749     		ldr	r1, .L37
 313              	.LVL27:
 314 0018 5A5C     		ldrb	r2, [r3, r1]	@ zero_extendqisi2
 315 001a 02F0DF02 		and	r2, r2, #223
 316 001e 5A54     		strb	r2, [r3, r1]
 317              	.L35:
 286:Generated_Source\PSoC5/CyDmac.c ****         }
 287:Generated_Source\PSoC5/CyDmac.c **** 
 288:Generated_Source\PSoC5/CyDmac.c ****         /* Enable channel */
 289:Generated_Source\PSoC5/CyDmac.c ****         CY_DMA_CH_STRUCT_PTR[chHandle].basic_cfg[0u] |= CY_DMA_CH_BASIC_CFG_EN;
 318              		.loc 1 289 0
 319 0020 0001     		lsls	r0, r0, #4
 320              	.LVL28:
 321 0022 044A     		ldr	r2, .L37
 322 0024 835C     		ldrb	r3, [r0, r2]	@ zero_extendqisi2
 323 0026 43F00103 		orr	r3, r3, #1
 324 002a 8354     		strb	r3, [r0, r2]
 325              	.LVL29:
 290:Generated_Source\PSoC5/CyDmac.c **** 
 291:Generated_Source\PSoC5/CyDmac.c ****         status = CYRET_SUCCESS;
 326              		.loc 1 291 0
 327 002c 0020     		movs	r0, #0
 328 002e 7047     		bx	lr
 329              	.LVL30:
 330              	.L36:
ARM GAS  C:\Users\antarp\AppData\Local\Temp\ccWfKDCN.s 			page 12


 271:Generated_Source\PSoC5/CyDmac.c **** 
 331              		.loc 1 271 0
 332 0030 0120     		movs	r0, #1
 333              	.LVL31:
 292:Generated_Source\PSoC5/CyDmac.c ****     }
 293:Generated_Source\PSoC5/CyDmac.c **** 
 294:Generated_Source\PSoC5/CyDmac.c ****     return(status);
 295:Generated_Source\PSoC5/CyDmac.c **** }
 334              		.loc 1 295 0
 335 0032 7047     		bx	lr
 336              	.L38:
 337              		.align	2
 338              	.L37:
 339 0034 10700040 		.word	1073770512
 340              		.cfi_endproc
 341              	.LFE6:
 342              		.size	CyDmaChEnable, .-CyDmaChEnable
 343              		.section	.text.CyDmaChDisable,"ax",%progbits
 344              		.align	2
 345              		.global	CyDmaChDisable
 346              		.thumb
 347              		.thumb_func
 348              		.type	CyDmaChDisable, %function
 349              	CyDmaChDisable:
 350              	.LFB7:
 296:Generated_Source\PSoC5/CyDmac.c **** 
 297:Generated_Source\PSoC5/CyDmac.c **** 
 298:Generated_Source\PSoC5/CyDmac.c **** /*******************************************************************************
 299:Generated_Source\PSoC5/CyDmac.c **** * Function Name: CyDmaChDisable
 300:Generated_Source\PSoC5/CyDmac.c **** ****************************************************************************//**
 301:Generated_Source\PSoC5/CyDmac.c **** *
 302:Generated_Source\PSoC5/CyDmac.c **** * Disables the DMA channel. Once this function is called, CyDmaChStatus() may
 303:Generated_Source\PSoC5/CyDmac.c **** * be called to determine when the channel is disabled and which TDs were being
 304:Generated_Source\PSoC5/CyDmac.c **** * executed.
 305:Generated_Source\PSoC5/CyDmac.c **** *
 306:Generated_Source\PSoC5/CyDmac.c **** * If it is currently executing it will allow the current burst to finish
 307:Generated_Source\PSoC5/CyDmac.c **** * naturally.
 308:Generated_Source\PSoC5/CyDmac.c **** *
 309:Generated_Source\PSoC5/CyDmac.c **** * \param chHandle A handle previously returned by \ref CyDmaChAlloc() or \ref
 310:Generated_Source\PSoC5/CyDmac.c **** * DMA_DmaInitalize().
 311:Generated_Source\PSoC5/CyDmac.c **** *
 312:Generated_Source\PSoC5/CyDmac.c **** * \return CYRET_SUCCESS if successful.
 313:Generated_Source\PSoC5/CyDmac.c **** * \return CYRET_BAD_PARAM if chHandle is invalid.
 314:Generated_Source\PSoC5/CyDmac.c **** *
 315:Generated_Source\PSoC5/CyDmac.c **** *******************************************************************************/
 316:Generated_Source\PSoC5/CyDmac.c **** cystatus CyDmaChDisable(uint8 chHandle) 
 317:Generated_Source\PSoC5/CyDmac.c **** {
 351              		.loc 1 317 0
 352              		.cfi_startproc
 353              		@ args = 0, pretend = 0, frame = 0
 354              		@ frame_needed = 0, uses_anonymous_args = 0
 355              		@ link register save eliminated.
 356              	.LVL32:
 318:Generated_Source\PSoC5/CyDmac.c ****     cystatus status = CYRET_BAD_PARAM;
 319:Generated_Source\PSoC5/CyDmac.c **** 
 320:Generated_Source\PSoC5/CyDmac.c ****     if(chHandle < CY_DMA_NUMBEROF_CHANNELS)
 357              		.loc 1 320 0
ARM GAS  C:\Users\antarp\AppData\Local\Temp\ccWfKDCN.s 			page 13


 358 0000 1728     		cmp	r0, #23
 359 0002 0BD8     		bhi	.L41
 321:Generated_Source\PSoC5/CyDmac.c ****     {
 322:Generated_Source\PSoC5/CyDmac.c ****         /***********************************************************************
 323:Generated_Source\PSoC5/CyDmac.c ****         * Should not change configuration information of a DMA channel when it
 324:Generated_Source\PSoC5/CyDmac.c ****         * is active (or vulnerable to becoming active).
 325:Generated_Source\PSoC5/CyDmac.c ****         ***********************************************************************/
 326:Generated_Source\PSoC5/CyDmac.c **** 
 327:Generated_Source\PSoC5/CyDmac.c ****         /* Disable channel */
 328:Generated_Source\PSoC5/CyDmac.c ****         CY_DMA_CH_STRUCT_PTR[chHandle].basic_cfg[0] &= ((uint8) (~CY_DMA_CH_BASIC_CFG_EN));
 360              		.loc 1 328 0
 361 0004 0001     		lsls	r0, r0, #4
 362              	.LVL33:
 363 0006 064B     		ldr	r3, .L42
 364 0008 C25C     		ldrb	r2, [r0, r3]	@ zero_extendqisi2
 365 000a 02F0FE02 		and	r2, r2, #254
 366 000e C254     		strb	r2, [r0, r3]
 329:Generated_Source\PSoC5/CyDmac.c **** 
 330:Generated_Source\PSoC5/CyDmac.c ****         /* Store intermediate and final TD states on top of original TD chain */
 331:Generated_Source\PSoC5/CyDmac.c ****         CY_DMA_CH_STRUCT_PTR[chHandle].basic_cfg[0] &= ((uint8) (~CY_DMA_CH_BASIC_CFG_WORK_SEP));
 367              		.loc 1 331 0
 368 0010 C25C     		ldrb	r2, [r0, r3]	@ zero_extendqisi2
 369 0012 02F0DF02 		and	r2, r2, #223
 370 0016 C254     		strb	r2, [r0, r3]
 371              	.LVL34:
 332:Generated_Source\PSoC5/CyDmac.c ****         status = CYRET_SUCCESS;
 372              		.loc 1 332 0
 373 0018 0020     		movs	r0, #0
 374 001a 7047     		bx	lr
 375              	.LVL35:
 376              	.L41:
 318:Generated_Source\PSoC5/CyDmac.c **** 
 377              		.loc 1 318 0
 378 001c 0120     		movs	r0, #1
 379              	.LVL36:
 333:Generated_Source\PSoC5/CyDmac.c ****     }
 334:Generated_Source\PSoC5/CyDmac.c **** 
 335:Generated_Source\PSoC5/CyDmac.c ****     return(status);
 336:Generated_Source\PSoC5/CyDmac.c **** }
 380              		.loc 1 336 0
 381 001e 7047     		bx	lr
 382              	.L43:
 383              		.align	2
 384              	.L42:
 385 0020 10700040 		.word	1073770512
 386              		.cfi_endproc
 387              	.LFE7:
 388              		.size	CyDmaChDisable, .-CyDmaChDisable
 389              		.section	.text.CyDmaClearPendingDrq,"ax",%progbits
 390              		.align	2
 391              		.global	CyDmaClearPendingDrq
 392              		.thumb
 393              		.thumb_func
 394              		.type	CyDmaClearPendingDrq, %function
 395              	CyDmaClearPendingDrq:
 396              	.LFB8:
 337:Generated_Source\PSoC5/CyDmac.c **** 
ARM GAS  C:\Users\antarp\AppData\Local\Temp\ccWfKDCN.s 			page 14


 338:Generated_Source\PSoC5/CyDmac.c **** 
 339:Generated_Source\PSoC5/CyDmac.c **** /*******************************************************************************
 340:Generated_Source\PSoC5/CyDmac.c **** * Function Name: CyDmaClearPendingDrq
 341:Generated_Source\PSoC5/CyDmac.c **** ****************************************************************************//**
 342:Generated_Source\PSoC5/CyDmac.c **** *
 343:Generated_Source\PSoC5/CyDmac.c **** * Clears pending the DMA data request.
 344:Generated_Source\PSoC5/CyDmac.c **** *
 345:Generated_Source\PSoC5/CyDmac.c **** * \param chHandle Handle to the dma channel.
 346:Generated_Source\PSoC5/CyDmac.c **** *
 347:Generated_Source\PSoC5/CyDmac.c **** * \return CYRET_SUCCESS if successful.
 348:Generated_Source\PSoC5/CyDmac.c **** * \return CYRET_BAD_PARAM if chHandle is invalid.
 349:Generated_Source\PSoC5/CyDmac.c **** *
 350:Generated_Source\PSoC5/CyDmac.c **** *******************************************************************************/
 351:Generated_Source\PSoC5/CyDmac.c **** cystatus CyDmaClearPendingDrq(uint8 chHandle) 
 352:Generated_Source\PSoC5/CyDmac.c **** {
 397              		.loc 1 352 0
 398              		.cfi_startproc
 399              		@ args = 0, pretend = 0, frame = 0
 400              		@ frame_needed = 0, uses_anonymous_args = 0
 401              		@ link register save eliminated.
 402              	.LVL37:
 353:Generated_Source\PSoC5/CyDmac.c ****     cystatus status = CYRET_BAD_PARAM;
 354:Generated_Source\PSoC5/CyDmac.c **** 
 355:Generated_Source\PSoC5/CyDmac.c ****     if(chHandle < CY_DMA_NUMBEROF_CHANNELS)
 403              		.loc 1 355 0
 404 0000 1728     		cmp	r0, #23
 405 0002 0CD8     		bhi	.L46
 356:Generated_Source\PSoC5/CyDmac.c ****     {
 357:Generated_Source\PSoC5/CyDmac.c ****         CY_DMA_CH_STRUCT_PTR[chHandle].action[0] |= CY_DMA_CPU_TERM_CHAIN;
 406              		.loc 1 357 0
 407 0004 0001     		lsls	r0, r0, #4
 408              	.LVL38:
 409 0006 074B     		ldr	r3, .L47
 410 0008 C118     		adds	r1, r0, r3
 411 000a 0A79     		ldrb	r2, [r1, #4]	@ zero_extendqisi2
 412 000c 42F00402 		orr	r2, r2, #4
 413 0010 0A71     		strb	r2, [r1, #4]
 358:Generated_Source\PSoC5/CyDmac.c ****         CY_DMA_CH_STRUCT_PTR[chHandle].basic_cfg[0] |= 0x01u;
 414              		.loc 1 358 0
 415 0012 C25C     		ldrb	r2, [r0, r3]	@ zero_extendqisi2
 416 0014 42F00102 		orr	r2, r2, #1
 417 0018 C254     		strb	r2, [r0, r3]
 418              	.LVL39:
 359:Generated_Source\PSoC5/CyDmac.c ****         status = CYRET_SUCCESS;
 419              		.loc 1 359 0
 420 001a 0020     		movs	r0, #0
 421 001c 7047     		bx	lr
 422              	.LVL40:
 423              	.L46:
 353:Generated_Source\PSoC5/CyDmac.c **** 
 424              		.loc 1 353 0
 425 001e 0120     		movs	r0, #1
 426              	.LVL41:
 360:Generated_Source\PSoC5/CyDmac.c ****     }
 361:Generated_Source\PSoC5/CyDmac.c **** 
 362:Generated_Source\PSoC5/CyDmac.c ****     return(status);
 363:Generated_Source\PSoC5/CyDmac.c **** }
ARM GAS  C:\Users\antarp\AppData\Local\Temp\ccWfKDCN.s 			page 15


 427              		.loc 1 363 0
 428 0020 7047     		bx	lr
 429              	.L48:
 430 0022 00BF     		.align	2
 431              	.L47:
 432 0024 10700040 		.word	1073770512
 433              		.cfi_endproc
 434              	.LFE8:
 435              		.size	CyDmaClearPendingDrq, .-CyDmaClearPendingDrq
 436              		.section	.text.CyDmaChPriority,"ax",%progbits
 437              		.align	2
 438              		.global	CyDmaChPriority
 439              		.thumb
 440              		.thumb_func
 441              		.type	CyDmaChPriority, %function
 442              	CyDmaChPriority:
 443              	.LFB9:
 364:Generated_Source\PSoC5/CyDmac.c **** 
 365:Generated_Source\PSoC5/CyDmac.c **** 
 366:Generated_Source\PSoC5/CyDmac.c **** /*******************************************************************************
 367:Generated_Source\PSoC5/CyDmac.c **** * Function Name: CyDmaChPriority
 368:Generated_Source\PSoC5/CyDmac.c **** ****************************************************************************//**
 369:Generated_Source\PSoC5/CyDmac.c **** *
 370:Generated_Source\PSoC5/CyDmac.c **** *  Sets the priority of a DMA channel. You can use this function when you want
 371:Generated_Source\PSoC5/CyDmac.c **** *  to change the priority at run time. If the priority remains the same for a
 372:Generated_Source\PSoC5/CyDmac.c **** *  DMA channel, then you can configure the priority in the .cydwr file.
 373:Generated_Source\PSoC5/CyDmac.c **** *
 374:Generated_Source\PSoC5/CyDmac.c **** *  \param chHandle A handle previously returned by \ref CyDmaChAlloc() or \ref
 375:Generated_Source\PSoC5/CyDmac.c **** *  DMA_DmaInitalize().
 376:Generated_Source\PSoC5/CyDmac.c **** *
 377:Generated_Source\PSoC5/CyDmac.c **** *  \param priority Priority to set the channel to, 0 - 7.
 378:Generated_Source\PSoC5/CyDmac.c **** *
 379:Generated_Source\PSoC5/CyDmac.c **** * \return CYRET_SUCCESS if successful.
 380:Generated_Source\PSoC5/CyDmac.c **** *  \return CYRET_BAD_PARAM if chHandle is invalid.
 381:Generated_Source\PSoC5/CyDmac.c **** *
 382:Generated_Source\PSoC5/CyDmac.c **** *******************************************************************************/
 383:Generated_Source\PSoC5/CyDmac.c **** cystatus CyDmaChPriority(uint8 chHandle, uint8 priority) 
 384:Generated_Source\PSoC5/CyDmac.c **** {
 444              		.loc 1 384 0
 445              		.cfi_startproc
 446              		@ args = 0, pretend = 0, frame = 0
 447              		@ frame_needed = 0, uses_anonymous_args = 0
 448              		@ link register save eliminated.
 449              	.LVL42:
 385:Generated_Source\PSoC5/CyDmac.c ****     uint8 value;
 386:Generated_Source\PSoC5/CyDmac.c ****     cystatus status = CYRET_BAD_PARAM;
 387:Generated_Source\PSoC5/CyDmac.c **** 
 388:Generated_Source\PSoC5/CyDmac.c ****     if(chHandle < CY_DMA_NUMBEROF_CHANNELS)
 450              		.loc 1 388 0
 451 0000 1728     		cmp	r0, #23
 452 0002 0BD8     		bhi	.L51
 389:Generated_Source\PSoC5/CyDmac.c ****     {
 390:Generated_Source\PSoC5/CyDmac.c ****         value = CY_DMA_CH_STRUCT_PTR[chHandle].basic_cfg[0u] & ((uint8)(~(0x0Eu)));
 453              		.loc 1 390 0
 454 0004 0001     		lsls	r0, r0, #4
 455              	.LVL43:
 456 0006 064A     		ldr	r2, .L52
ARM GAS  C:\Users\antarp\AppData\Local\Temp\ccWfKDCN.s 			page 16


 457 0008 835C     		ldrb	r3, [r0, r2]	@ zero_extendqisi2
 458 000a 03F0F103 		and	r3, r3, #241
 459              	.LVL44:
 391:Generated_Source\PSoC5/CyDmac.c **** 
 392:Generated_Source\PSoC5/CyDmac.c ****         CY_DMA_CH_STRUCT_PTR[chHandle].basic_cfg[0u] = value | ((uint8) ((priority & 0x7u) << 0x01u
 460              		.loc 1 392 0
 461 000e 4900     		lsls	r1, r1, #1
 462              	.LVL45:
 463 0010 01F00E01 		and	r1, r1, #14
 464 0014 1943     		orrs	r1, r1, r3
 465 0016 8154     		strb	r1, [r0, r2]
 466              	.LVL46:
 393:Generated_Source\PSoC5/CyDmac.c **** 
 394:Generated_Source\PSoC5/CyDmac.c ****         status = CYRET_SUCCESS;
 467              		.loc 1 394 0
 468 0018 0020     		movs	r0, #0
 469 001a 7047     		bx	lr
 470              	.LVL47:
 471              	.L51:
 386:Generated_Source\PSoC5/CyDmac.c **** 
 472              		.loc 1 386 0
 473 001c 0120     		movs	r0, #1
 474              	.LVL48:
 395:Generated_Source\PSoC5/CyDmac.c ****     }
 396:Generated_Source\PSoC5/CyDmac.c **** 
 397:Generated_Source\PSoC5/CyDmac.c ****     return(status);
 398:Generated_Source\PSoC5/CyDmac.c **** }
 475              		.loc 1 398 0
 476 001e 7047     		bx	lr
 477              	.L53:
 478              		.align	2
 479              	.L52:
 480 0020 10700040 		.word	1073770512
 481              		.cfi_endproc
 482              	.LFE9:
 483              		.size	CyDmaChPriority, .-CyDmaChPriority
 484              		.section	.text.CyDmaChSetExtendedAddress,"ax",%progbits
 485              		.align	2
 486              		.global	CyDmaChSetExtendedAddress
 487              		.thumb
 488              		.thumb_func
 489              		.type	CyDmaChSetExtendedAddress, %function
 490              	CyDmaChSetExtendedAddress:
 491              	.LFB10:
 399:Generated_Source\PSoC5/CyDmac.c **** 
 400:Generated_Source\PSoC5/CyDmac.c **** 
 401:Generated_Source\PSoC5/CyDmac.c **** /*******************************************************************************
 402:Generated_Source\PSoC5/CyDmac.c **** * Function Name: CyDmaChSetExtendedAddress
 403:Generated_Source\PSoC5/CyDmac.c **** ****************************************************************************//**
 404:Generated_Source\PSoC5/CyDmac.c **** *
 405:Generated_Source\PSoC5/CyDmac.c **** *  Sets the high 16 bits of the source and destination addresses for the DMA
 406:Generated_Source\PSoC5/CyDmac.c **** *  channel (valid for all TDs in the chain).
 407:Generated_Source\PSoC5/CyDmac.c **** *
 408:Generated_Source\PSoC5/CyDmac.c **** *  \param chHandle A handle previously returned by \ref CyDmaChAlloc() or \ref
 409:Generated_Source\PSoC5/CyDmac.c **** *  DMA_DmaInitalize().
 410:Generated_Source\PSoC5/CyDmac.c **** *
 411:Generated_Source\PSoC5/CyDmac.c **** *  \param source Upper 16 bit address of the DMA transfer source.
ARM GAS  C:\Users\antarp\AppData\Local\Temp\ccWfKDCN.s 			page 17


 412:Generated_Source\PSoC5/CyDmac.c **** *
 413:Generated_Source\PSoC5/CyDmac.c **** *  \param destination Upper 16 bit address of the DMA transfer destination.
 414:Generated_Source\PSoC5/CyDmac.c **** *
 415:Generated_Source\PSoC5/CyDmac.c **** * \return CYRET_SUCCESS if successful.
 416:Generated_Source\PSoC5/CyDmac.c **** * \return CYRET_BAD_PARAM if chHandle is invalid.
 417:Generated_Source\PSoC5/CyDmac.c **** *
 418:Generated_Source\PSoC5/CyDmac.c **** *******************************************************************************/
 419:Generated_Source\PSoC5/CyDmac.c **** cystatus CyDmaChSetExtendedAddress(uint8 chHandle, uint16 source, uint16 destination) \
 420:Generated_Source\PSoC5/CyDmac.c ****     
 421:Generated_Source\PSoC5/CyDmac.c **** {
 492              		.loc 1 421 0
 493              		.cfi_startproc
 494              		@ args = 0, pretend = 0, frame = 0
 495              		@ frame_needed = 0, uses_anonymous_args = 0
 496              		@ link register save eliminated.
 497              	.LVL49:
 422:Generated_Source\PSoC5/CyDmac.c ****     cystatus status = CYRET_BAD_PARAM;
 423:Generated_Source\PSoC5/CyDmac.c ****     reg16 *convert;
 424:Generated_Source\PSoC5/CyDmac.c **** 
 425:Generated_Source\PSoC5/CyDmac.c ****     #if(CY_PSOC5)
 426:Generated_Source\PSoC5/CyDmac.c **** 
 427:Generated_Source\PSoC5/CyDmac.c ****         /* 0x1FFF8000-0x1FFFFFFF needs to use alias at 0x20008000-0x2000FFFF */
 428:Generated_Source\PSoC5/CyDmac.c ****         if(source == 0x1FFFu)
 498              		.loc 1 428 0
 499 0000 41F6FF73 		movw	r3, #8191
 500 0004 9942     		cmp	r1, r3
 501 0006 01D1     		bne	.L55
 429:Generated_Source\PSoC5/CyDmac.c ****         {
 430:Generated_Source\PSoC5/CyDmac.c ****             source = 0x2000u;
 502              		.loc 1 430 0
 503 0008 4FF40051 		mov	r1, #8192
 504              	.LVL50:
 505              	.L55:
 431:Generated_Source\PSoC5/CyDmac.c ****         }
 432:Generated_Source\PSoC5/CyDmac.c **** 
 433:Generated_Source\PSoC5/CyDmac.c ****         if(destination == 0x1FFFu)
 506              		.loc 1 433 0
 507 000c 41F6FF73 		movw	r3, #8191
 508 0010 9A42     		cmp	r2, r3
 509 0012 01D1     		bne	.L56
 434:Generated_Source\PSoC5/CyDmac.c ****         {
 435:Generated_Source\PSoC5/CyDmac.c ****             destination = 0x2000u;
 510              		.loc 1 435 0
 511 0014 4FF40052 		mov	r2, #8192
 512              	.LVL51:
 513              	.L56:
 436:Generated_Source\PSoC5/CyDmac.c ****         }
 437:Generated_Source\PSoC5/CyDmac.c **** 
 438:Generated_Source\PSoC5/CyDmac.c ****     #endif  /* (CY_PSOC5) */
 439:Generated_Source\PSoC5/CyDmac.c **** 
 440:Generated_Source\PSoC5/CyDmac.c **** 
 441:Generated_Source\PSoC5/CyDmac.c ****     if(chHandle < CY_DMA_NUMBEROF_CHANNELS)
 514              		.loc 1 441 0
 515 0018 1728     		cmp	r0, #23
 516 001a 08D8     		bhi	.L60
 442:Generated_Source\PSoC5/CyDmac.c ****     {
 443:Generated_Source\PSoC5/CyDmac.c ****         /* Set source address */
ARM GAS  C:\Users\antarp\AppData\Local\Temp\ccWfKDCN.s 			page 18


 444:Generated_Source\PSoC5/CyDmac.c ****         convert = (reg16 *) &CY_DMA_CFGMEM_STRUCT_PTR[chHandle].CFG1[0];
 517              		.loc 1 444 0
 518 001c C000     		lsls	r0, r0, #3
 519              	.LVL52:
 520 001e 00F18040 		add	r0, r0, #1073741824
 521 0022 00F5EC40 		add	r0, r0, #30208
 522              	.LVL53:
 445:Generated_Source\PSoC5/CyDmac.c ****         CY_SET_REG16(convert, source);
 523              		.loc 1 445 0
 524 0026 8180     		strh	r1, [r0, #4]	@ movhi
 525              	.LVL54:
 446:Generated_Source\PSoC5/CyDmac.c **** 
 447:Generated_Source\PSoC5/CyDmac.c ****         /* Set destination address */
 448:Generated_Source\PSoC5/CyDmac.c ****         convert = (reg16 *) &CY_DMA_CFGMEM_STRUCT_PTR[chHandle].CFG1[2u];
 449:Generated_Source\PSoC5/CyDmac.c ****         CY_SET_REG16(convert, destination);
 526              		.loc 1 449 0
 527 0028 C280     		strh	r2, [r0, #6]	@ movhi
 528              	.LVL55:
 450:Generated_Source\PSoC5/CyDmac.c ****         status = CYRET_SUCCESS;
 529              		.loc 1 450 0
 530 002a 0020     		movs	r0, #0
 531              	.LVL56:
 532 002c 7047     		bx	lr
 533              	.LVL57:
 534              	.L60:
 422:Generated_Source\PSoC5/CyDmac.c ****     reg16 *convert;
 535              		.loc 1 422 0
 536 002e 0120     		movs	r0, #1
 537              	.LVL58:
 451:Generated_Source\PSoC5/CyDmac.c ****     }
 452:Generated_Source\PSoC5/CyDmac.c **** 
 453:Generated_Source\PSoC5/CyDmac.c ****     return(status);
 454:Generated_Source\PSoC5/CyDmac.c **** }
 538              		.loc 1 454 0
 539 0030 7047     		bx	lr
 540              		.cfi_endproc
 541              	.LFE10:
 542              		.size	CyDmaChSetExtendedAddress, .-CyDmaChSetExtendedAddress
 543 0032 00BF     		.section	.text.CyDmaChSetInitialTd,"ax",%progbits
 544              		.align	2
 545              		.global	CyDmaChSetInitialTd
 546              		.thumb
 547              		.thumb_func
 548              		.type	CyDmaChSetInitialTd, %function
 549              	CyDmaChSetInitialTd:
 550              	.LFB11:
 455:Generated_Source\PSoC5/CyDmac.c **** 
 456:Generated_Source\PSoC5/CyDmac.c **** 
 457:Generated_Source\PSoC5/CyDmac.c **** /*******************************************************************************
 458:Generated_Source\PSoC5/CyDmac.c **** * Function Name: CyDmaChSetInitialTd
 459:Generated_Source\PSoC5/CyDmac.c **** ****************************************************************************//**
 460:Generated_Source\PSoC5/CyDmac.c **** *
 461:Generated_Source\PSoC5/CyDmac.c **** * Sets the initial TD to be executed for the channel when the \ref CyDmaChEnable()
 462:Generated_Source\PSoC5/CyDmac.c **** * function is called.
 463:Generated_Source\PSoC5/CyDmac.c **** *
 464:Generated_Source\PSoC5/CyDmac.c **** * \param chHandle A handle previously returned by \ref CyDmaChAlloc() or
 465:Generated_Source\PSoC5/CyDmac.c **** * \ref DMA_DmaInitialize().
ARM GAS  C:\Users\antarp\AppData\Local\Temp\ccWfKDCN.s 			page 19


 466:Generated_Source\PSoC5/CyDmac.c **** *
 467:Generated_Source\PSoC5/CyDmac.c **** * \param startTd Set the TD index as the first TD associated with the
 468:Generated_Source\PSoC5/CyDmac.c **** * channel. Zero is a valid TD index.
 469:Generated_Source\PSoC5/CyDmac.c **** *
 470:Generated_Source\PSoC5/CyDmac.c **** * \return CYRET_SUCCESS if successful.
 471:Generated_Source\PSoC5/CyDmac.c **** * \return CYRET_BAD_PARAM if chHandle is invalid.
 472:Generated_Source\PSoC5/CyDmac.c **** *
 473:Generated_Source\PSoC5/CyDmac.c **** *******************************************************************************/
 474:Generated_Source\PSoC5/CyDmac.c **** cystatus CyDmaChSetInitialTd(uint8 chHandle, uint8 startTd) 
 475:Generated_Source\PSoC5/CyDmac.c **** {
 551              		.loc 1 475 0
 552              		.cfi_startproc
 553              		@ args = 0, pretend = 0, frame = 0
 554              		@ frame_needed = 0, uses_anonymous_args = 0
 555              		@ link register save eliminated.
 556              	.LVL59:
 476:Generated_Source\PSoC5/CyDmac.c ****     cystatus status = CYRET_BAD_PARAM;
 477:Generated_Source\PSoC5/CyDmac.c **** 
 478:Generated_Source\PSoC5/CyDmac.c ****     if(chHandle < CY_DMA_NUMBEROF_CHANNELS)
 557              		.loc 1 478 0
 558 0000 1728     		cmp	r0, #23
 559 0002 05D8     		bhi	.L63
 479:Generated_Source\PSoC5/CyDmac.c ****     {
 480:Generated_Source\PSoC5/CyDmac.c ****         CY_DMA_CH_STRUCT_PTR[chHandle].basic_status[1u] = startTd;
 560              		.loc 1 480 0
 561 0004 034B     		ldr	r3, .L64
 562 0006 03EB0010 		add	r0, r3, r0, lsl #4
 563              	.LVL60:
 564 000a 4172     		strb	r1, [r0, #9]
 565              	.LVL61:
 481:Generated_Source\PSoC5/CyDmac.c ****         status = CYRET_SUCCESS;
 566              		.loc 1 481 0
 567 000c 0020     		movs	r0, #0
 568 000e 7047     		bx	lr
 569              	.LVL62:
 570              	.L63:
 476:Generated_Source\PSoC5/CyDmac.c ****     cystatus status = CYRET_BAD_PARAM;
 571              		.loc 1 476 0
 572 0010 0120     		movs	r0, #1
 573              	.LVL63:
 482:Generated_Source\PSoC5/CyDmac.c ****     }
 483:Generated_Source\PSoC5/CyDmac.c **** 
 484:Generated_Source\PSoC5/CyDmac.c ****     return(status);
 485:Generated_Source\PSoC5/CyDmac.c **** }
 574              		.loc 1 485 0
 575 0012 7047     		bx	lr
 576              	.L65:
 577              		.align	2
 578              	.L64:
 579 0014 10700040 		.word	1073770512
 580              		.cfi_endproc
 581              	.LFE11:
 582              		.size	CyDmaChSetInitialTd, .-CyDmaChSetInitialTd
 583              		.section	.text.CyDmaChSetRequest,"ax",%progbits
 584              		.align	2
 585              		.global	CyDmaChSetRequest
 586              		.thumb
ARM GAS  C:\Users\antarp\AppData\Local\Temp\ccWfKDCN.s 			page 20


 587              		.thumb_func
 588              		.type	CyDmaChSetRequest, %function
 589              	CyDmaChSetRequest:
 590              	.LFB12:
 486:Generated_Source\PSoC5/CyDmac.c **** 
 487:Generated_Source\PSoC5/CyDmac.c **** 
 488:Generated_Source\PSoC5/CyDmac.c **** /*******************************************************************************
 489:Generated_Source\PSoC5/CyDmac.c **** * Function Name: CyDmaChSetRequest
 490:Generated_Source\PSoC5/CyDmac.c **** ****************************************************************************//**
 491:Generated_Source\PSoC5/CyDmac.c **** *
 492:Generated_Source\PSoC5/CyDmac.c **** *  Allows the caller to terminate a chain of TDs, terminate one TD, or create a
 493:Generated_Source\PSoC5/CyDmac.c **** *  direct request to start the DMA channel.
 494:Generated_Source\PSoC5/CyDmac.c **** *
 495:Generated_Source\PSoC5/CyDmac.c **** *  \param chHandle A handle previously returned by \ref CyDmaChAlloc() or \ref
 496:Generated_Source\PSoC5/CyDmac.c **** *  DMA_DmaInitalize().
 497:Generated_Source\PSoC5/CyDmac.c **** *
 498:Generated_Source\PSoC5/CyDmac.c **** *  \param request One of the following constants. Each of the constants is a
 499:Generated_Source\PSoC5/CyDmac.c **** *  three-bit value.
 500:Generated_Source\PSoC5/CyDmac.c **** *   CPU_REQ         - Create a direct request to start the DMA channel
 501:Generated_Source\PSoC5/CyDmac.c **** *   CPU_TERM_TD     - Terminate one TD
 502:Generated_Source\PSoC5/CyDmac.c **** *   CPU_TERM_CHAIN  - Terminate a chain of TDs
 503:Generated_Source\PSoC5/CyDmac.c **** *
 504:Generated_Source\PSoC5/CyDmac.c **** * \return CYRET_SUCCESS if successful.
 505:Generated_Source\PSoC5/CyDmac.c **** * \return CYRET_BAD_PARAM if chHandle is invalid.
 506:Generated_Source\PSoC5/CyDmac.c **** *
 507:Generated_Source\PSoC5/CyDmac.c **** *******************************************************************************/
 508:Generated_Source\PSoC5/CyDmac.c **** cystatus CyDmaChSetRequest(uint8 chHandle, uint8 request) 
 509:Generated_Source\PSoC5/CyDmac.c **** {
 591              		.loc 1 509 0
 592              		.cfi_startproc
 593              		@ args = 0, pretend = 0, frame = 0
 594              		@ frame_needed = 0, uses_anonymous_args = 0
 595              		@ link register save eliminated.
 596              	.LVL64:
 510:Generated_Source\PSoC5/CyDmac.c ****     cystatus status = CYRET_BAD_PARAM;
 511:Generated_Source\PSoC5/CyDmac.c **** 
 512:Generated_Source\PSoC5/CyDmac.c ****     if(chHandle < CY_DMA_NUMBEROF_CHANNELS)
 597              		.loc 1 512 0
 598 0000 1728     		cmp	r0, #23
 599 0002 09D8     		bhi	.L68
 513:Generated_Source\PSoC5/CyDmac.c ****     {
 514:Generated_Source\PSoC5/CyDmac.c ****         CY_DMA_CH_STRUCT_PTR[chHandle].action[0u] |= (request & (CPU_REQ | CPU_TERM_TD | CPU_TERM_C
 600              		.loc 1 514 0
 601 0004 054B     		ldr	r3, .L69
 602 0006 03EB0010 		add	r0, r3, r0, lsl #4
 603              	.LVL65:
 604 000a 0379     		ldrb	r3, [r0, #4]	@ zero_extendqisi2
 605 000c 01F00701 		and	r1, r1, #7
 606              	.LVL66:
 607 0010 1943     		orrs	r1, r1, r3
 608 0012 0171     		strb	r1, [r0, #4]
 609              	.LVL67:
 515:Generated_Source\PSoC5/CyDmac.c ****         status = CYRET_SUCCESS;
 610              		.loc 1 515 0
 611 0014 0020     		movs	r0, #0
 612 0016 7047     		bx	lr
 613              	.LVL68:
ARM GAS  C:\Users\antarp\AppData\Local\Temp\ccWfKDCN.s 			page 21


 614              	.L68:
 510:Generated_Source\PSoC5/CyDmac.c ****     cystatus status = CYRET_BAD_PARAM;
 615              		.loc 1 510 0
 616 0018 0120     		movs	r0, #1
 617              	.LVL69:
 516:Generated_Source\PSoC5/CyDmac.c ****     }
 517:Generated_Source\PSoC5/CyDmac.c **** 
 518:Generated_Source\PSoC5/CyDmac.c ****     return(status);
 519:Generated_Source\PSoC5/CyDmac.c **** }
 618              		.loc 1 519 0
 619 001a 7047     		bx	lr
 620              	.L70:
 621              		.align	2
 622              	.L69:
 623 001c 10700040 		.word	1073770512
 624              		.cfi_endproc
 625              	.LFE12:
 626              		.size	CyDmaChSetRequest, .-CyDmaChSetRequest
 627              		.section	.text.CyDmaChGetRequest,"ax",%progbits
 628              		.align	2
 629              		.global	CyDmaChGetRequest
 630              		.thumb
 631              		.thumb_func
 632              		.type	CyDmaChGetRequest, %function
 633              	CyDmaChGetRequest:
 634              	.LFB13:
 520:Generated_Source\PSoC5/CyDmac.c **** 
 521:Generated_Source\PSoC5/CyDmac.c **** 
 522:Generated_Source\PSoC5/CyDmac.c **** /*******************************************************************************
 523:Generated_Source\PSoC5/CyDmac.c **** * Function Name: CyDmaChGetRequest
 524:Generated_Source\PSoC5/CyDmac.c **** ****************************************************************************//**
 525:Generated_Source\PSoC5/CyDmac.c **** *
 526:Generated_Source\PSoC5/CyDmac.c **** * This function allows the caller of \ref CyDmaChSetRequest() to determine if the
 527:Generated_Source\PSoC5/CyDmac.c **** * request was completed.
 528:Generated_Source\PSoC5/CyDmac.c **** *
 529:Generated_Source\PSoC5/CyDmac.c **** * \param chHandle A handle previously returned by \ref CyDmaChAlloc() or \ref
 530:Generated_Source\PSoC5/CyDmac.c **** * DMA_DmaInitalize().
 531:Generated_Source\PSoC5/CyDmac.c **** *
 532:Generated_Source\PSoC5/CyDmac.c **** * \return Returns a three-bit field, corresponding to the three bits of the
 533:Generated_Source\PSoC5/CyDmac.c **** * request, which describes the state of the previously posted request. If the
 534:Generated_Source\PSoC5/CyDmac.c **** * value is zero, the request was completed. CY_DMA_INVALID_CHANNEL if the handle
 535:Generated_Source\PSoC5/CyDmac.c **** * is invalid.
 536:Generated_Source\PSoC5/CyDmac.c **** *
 537:Generated_Source\PSoC5/CyDmac.c **** *******************************************************************************/
 538:Generated_Source\PSoC5/CyDmac.c **** cystatus CyDmaChGetRequest(uint8 chHandle) 
 539:Generated_Source\PSoC5/CyDmac.c **** {
 635              		.loc 1 539 0
 636              		.cfi_startproc
 637              		@ args = 0, pretend = 0, frame = 0
 638              		@ frame_needed = 0, uses_anonymous_args = 0
 639              		@ link register save eliminated.
 640              	.LVL70:
 540:Generated_Source\PSoC5/CyDmac.c ****     cystatus status = CY_DMA_INVALID_CHANNEL;
 541:Generated_Source\PSoC5/CyDmac.c **** 
 542:Generated_Source\PSoC5/CyDmac.c ****     if(chHandle < CY_DMA_NUMBEROF_CHANNELS)
 641              		.loc 1 542 0
 642 0000 1728     		cmp	r0, #23
ARM GAS  C:\Users\antarp\AppData\Local\Temp\ccWfKDCN.s 			page 22


 643 0002 06D8     		bhi	.L73
 543:Generated_Source\PSoC5/CyDmac.c ****     {
 544:Generated_Source\PSoC5/CyDmac.c ****         status = (cystatus) ((uint32)CY_DMA_CH_STRUCT_PTR[chHandle].action[0u] &
 644              		.loc 1 544 0
 645 0004 044B     		ldr	r3, .L74
 646 0006 03EB0010 		add	r0, r3, r0, lsl #4
 647              	.LVL71:
 648 000a 0079     		ldrb	r0, [r0, #4]	@ zero_extendqisi2
 649 000c 00F00700 		and	r0, r0, #7
 650              	.LVL72:
 651 0010 7047     		bx	lr
 652              	.LVL73:
 653              	.L73:
 540:Generated_Source\PSoC5/CyDmac.c ****     cystatus status = CY_DMA_INVALID_CHANNEL;
 654              		.loc 1 540 0
 655 0012 FF20     		movs	r0, #255
 656              	.LVL74:
 545:Generated_Source\PSoC5/CyDmac.c ****                             (uint32)(CY_DMA_CPU_REQ | CY_DMA_CPU_TERM_TD | CY_DMA_CPU_TERM_CHAIN));
 546:Generated_Source\PSoC5/CyDmac.c ****     }
 547:Generated_Source\PSoC5/CyDmac.c **** 
 548:Generated_Source\PSoC5/CyDmac.c ****     return(status);
 549:Generated_Source\PSoC5/CyDmac.c **** }
 657              		.loc 1 549 0
 658 0014 7047     		bx	lr
 659              	.L75:
 660 0016 00BF     		.align	2
 661              	.L74:
 662 0018 10700040 		.word	1073770512
 663              		.cfi_endproc
 664              	.LFE13:
 665              		.size	CyDmaChGetRequest, .-CyDmaChGetRequest
 666              		.section	.text.CyDmaChStatus,"ax",%progbits
 667              		.align	2
 668              		.global	CyDmaChStatus
 669              		.thumb
 670              		.thumb_func
 671              		.type	CyDmaChStatus, %function
 672              	CyDmaChStatus:
 673              	.LFB14:
 550:Generated_Source\PSoC5/CyDmac.c **** 
 551:Generated_Source\PSoC5/CyDmac.c **** 
 552:Generated_Source\PSoC5/CyDmac.c **** /*******************************************************************************
 553:Generated_Source\PSoC5/CyDmac.c **** * Function Name: CyDmaChStatus
 554:Generated_Source\PSoC5/CyDmac.c **** ****************************************************************************//**
 555:Generated_Source\PSoC5/CyDmac.c **** *
 556:Generated_Source\PSoC5/CyDmac.c **** *  Determines the status of the DMA channel.
 557:Generated_Source\PSoC5/CyDmac.c **** *
 558:Generated_Source\PSoC5/CyDmac.c **** *  \param chHandle A handle previously returned by \ref CyDmaChAlloc() or \ref
 559:Generated_Source\PSoC5/CyDmac.c **** *  DMA_DmaInitalize().
 560:Generated_Source\PSoC5/CyDmac.c **** *
 561:Generated_Source\PSoC5/CyDmac.c **** *  \param currentTd The address to store the index of the current TD. Can be NULL
 562:Generated_Source\PSoC5/CyDmac.c **** *  if the value is not needed.
 563:Generated_Source\PSoC5/CyDmac.c **** *
 564:Generated_Source\PSoC5/CyDmac.c **** *  \param state The address to store the state of the channel. Can be NULL if the
 565:Generated_Source\PSoC5/CyDmac.c **** *  value is not needed.
 566:Generated_Source\PSoC5/CyDmac.c **** *
 567:Generated_Source\PSoC5/CyDmac.c **** *   STATUS_TD_ACTIVE
ARM GAS  C:\Users\antarp\AppData\Local\Temp\ccWfKDCN.s 			page 23


 568:Generated_Source\PSoC5/CyDmac.c **** *    \param 0: Channel is not currently being serviced by DMAC
 569:Generated_Source\PSoC5/CyDmac.c **** *    \param 1: Channel is currently being serviced by DMAC
 570:Generated_Source\PSoC5/CyDmac.c **** *
 571:Generated_Source\PSoC5/CyDmac.c **** *   STATUS_CHAIN_ACTIVE
 572:Generated_Source\PSoC5/CyDmac.c **** *    \param 0: TD chain is inactive; either no DMA requests have triggered a new chain
 573:Generated_Source\PSoC5/CyDmac.c **** *       or the previous chain has completed.
 574:Generated_Source\PSoC5/CyDmac.c **** *    \param 1: TD chain has been triggered by a DMA request
 575:Generated_Source\PSoC5/CyDmac.c **** *
 576:Generated_Source\PSoC5/CyDmac.c **** * \return CYRET_SUCCESS if successful.
 577:Generated_Source\PSoC5/CyDmac.c **** * \return CYRET_BAD_PARAM if chHandle is invalid.
 578:Generated_Source\PSoC5/CyDmac.c **** *
 579:Generated_Source\PSoC5/CyDmac.c **** * Theory:
 580:Generated_Source\PSoC5/CyDmac.c **** *   The caller can check on the activity of the Current TD and the Chain.
 581:Generated_Source\PSoC5/CyDmac.c **** *
 582:Generated_Source\PSoC5/CyDmac.c **** *******************************************************************************/
 583:Generated_Source\PSoC5/CyDmac.c **** cystatus CyDmaChStatus(uint8 chHandle, uint8 * currentTd, uint8 * state) 
 584:Generated_Source\PSoC5/CyDmac.c **** {
 674              		.loc 1 584 0
 675              		.cfi_startproc
 676              		@ args = 0, pretend = 0, frame = 0
 677              		@ frame_needed = 0, uses_anonymous_args = 0
 678              		@ link register save eliminated.
 679              	.LVL75:
 585:Generated_Source\PSoC5/CyDmac.c ****     cystatus status = CYRET_BAD_PARAM;
 586:Generated_Source\PSoC5/CyDmac.c **** 
 587:Generated_Source\PSoC5/CyDmac.c ****     if(chHandle < CY_DMA_NUMBEROF_CHANNELS)
 680              		.loc 1 587 0
 681 0000 1728     		cmp	r0, #23
 682 0002 0FD8     		bhi	.L79
 588:Generated_Source\PSoC5/CyDmac.c ****     {
 589:Generated_Source\PSoC5/CyDmac.c ****         if(NULL != currentTd)
 683              		.loc 1 589 0
 684 0004 31B1     		cbz	r1, .L78
 590:Generated_Source\PSoC5/CyDmac.c ****         {
 591:Generated_Source\PSoC5/CyDmac.c ****             *currentTd = CY_DMA_CH_STRUCT_PTR[chHandle].basic_status[1] & 0x7Fu;
 685              		.loc 1 591 0
 686 0006 094B     		ldr	r3, .L81
 687 0008 03EB0013 		add	r3, r3, r0, lsl #4
 688 000c 5B7A     		ldrb	r3, [r3, #9]	@ zero_extendqisi2
 689 000e 03F07F03 		and	r3, r3, #127
 690 0012 0B70     		strb	r3, [r1]
 691              	.L78:
 592:Generated_Source\PSoC5/CyDmac.c ****         }
 593:Generated_Source\PSoC5/CyDmac.c **** 
 594:Generated_Source\PSoC5/CyDmac.c ****         if(NULL != state)
 692              		.loc 1 594 0
 693 0014 42B1     		cbz	r2, .L80
 595:Generated_Source\PSoC5/CyDmac.c ****         {
 596:Generated_Source\PSoC5/CyDmac.c ****             *state= CY_DMA_CH_STRUCT_PTR[chHandle].basic_status[0];
 694              		.loc 1 596 0
 695 0016 054B     		ldr	r3, .L81
 696 0018 03EB0010 		add	r0, r3, r0, lsl #4
 697              	.LVL76:
 698 001c 037A     		ldrb	r3, [r0, #8]	@ zero_extendqisi2
 699 001e 1370     		strb	r3, [r2]
 597:Generated_Source\PSoC5/CyDmac.c ****         }
 598:Generated_Source\PSoC5/CyDmac.c **** 
ARM GAS  C:\Users\antarp\AppData\Local\Temp\ccWfKDCN.s 			page 24


 599:Generated_Source\PSoC5/CyDmac.c ****         status = CYRET_SUCCESS;
 700              		.loc 1 599 0
 701 0020 0020     		movs	r0, #0
 702 0022 7047     		bx	lr
 703              	.LVL77:
 704              	.L79:
 585:Generated_Source\PSoC5/CyDmac.c **** 
 705              		.loc 1 585 0
 706 0024 0120     		movs	r0, #1
 707              	.LVL78:
 708 0026 7047     		bx	lr
 709              	.LVL79:
 710              	.L80:
 711              		.loc 1 599 0
 712 0028 0020     		movs	r0, #0
 713              	.LVL80:
 600:Generated_Source\PSoC5/CyDmac.c ****     }
 601:Generated_Source\PSoC5/CyDmac.c **** 
 602:Generated_Source\PSoC5/CyDmac.c ****     return (status);
 603:Generated_Source\PSoC5/CyDmac.c **** }
 714              		.loc 1 603 0
 715 002a 7047     		bx	lr
 716              	.L82:
 717              		.align	2
 718              	.L81:
 719 002c 10700040 		.word	1073770512
 720              		.cfi_endproc
 721              	.LFE14:
 722              		.size	CyDmaChStatus, .-CyDmaChStatus
 723              		.section	.text.CyDmaChSetConfiguration,"ax",%progbits
 724              		.align	2
 725              		.global	CyDmaChSetConfiguration
 726              		.thumb
 727              		.thumb_func
 728              		.type	CyDmaChSetConfiguration, %function
 729              	CyDmaChSetConfiguration:
 730              	.LFB15:
 604:Generated_Source\PSoC5/CyDmac.c **** 
 605:Generated_Source\PSoC5/CyDmac.c **** 
 606:Generated_Source\PSoC5/CyDmac.c **** /*******************************************************************************
 607:Generated_Source\PSoC5/CyDmac.c **** * Function Name: CyDmaChSetConfiguration
 608:Generated_Source\PSoC5/CyDmac.c **** ****************************************************************************//**
 609:Generated_Source\PSoC5/CyDmac.c **** *
 610:Generated_Source\PSoC5/CyDmac.c **** * Sets configuration information of the channel.
 611:Generated_Source\PSoC5/CyDmac.c **** *
 612:Generated_Source\PSoC5/CyDmac.c **** *  \param uint8 chHandle:
 613:Generated_Source\PSoC5/CyDmac.c **** *   A handle previously returned by CyDmaChAlloc() or DMA_DmaInitialize().
 614:Generated_Source\PSoC5/CyDmac.c **** *
 615:Generated_Source\PSoC5/CyDmac.c **** *  \param uint8 burstCount:
 616:Generated_Source\PSoC5/CyDmac.c **** *   Specifies the size of bursts (1 to 127) the data transfer should be divided
 617:Generated_Source\PSoC5/CyDmac.c **** *   into. If this value is zero then the whole transfer is done in one burst.
 618:Generated_Source\PSoC5/CyDmac.c **** *
 619:Generated_Source\PSoC5/CyDmac.c **** *  \param uint8 requestPerBurst:
 620:Generated_Source\PSoC5/CyDmac.c **** *   The whole of the data can be split into multiple bursts, if this is
 621:Generated_Source\PSoC5/CyDmac.c **** *   \param required to complete the transaction:
 622:Generated_Source\PSoC5/CyDmac.c **** *    \param 0: All subsequent bursts after the first burst will be automatically
 623:Generated_Source\PSoC5/CyDmac.c **** *       requested and carried out
ARM GAS  C:\Users\antarp\AppData\Local\Temp\ccWfKDCN.s 			page 25


 624:Generated_Source\PSoC5/CyDmac.c **** *    \param 1: All subsequent bursts after the first burst must also be individually
 625:Generated_Source\PSoC5/CyDmac.c **** *       requested.
 626:Generated_Source\PSoC5/CyDmac.c **** *
 627:Generated_Source\PSoC5/CyDmac.c **** *  \param uint8 tdDone0:
 628:Generated_Source\PSoC5/CyDmac.c **** *   Selects one of the TERMOUT0 interrupt lines to signal completion. The line
 629:Generated_Source\PSoC5/CyDmac.c **** *   connected to the nrq terminal will determine the TERMOUT0_SEL definition and
 630:Generated_Source\PSoC5/CyDmac.c **** *   should be used as supplied by cyfitter.h
 631:Generated_Source\PSoC5/CyDmac.c **** *
 632:Generated_Source\PSoC5/CyDmac.c **** *  \param uint8 tdDone1:
 633:Generated_Source\PSoC5/CyDmac.c **** *   Selects one of the TERMOUT1 interrupt lines to signal completion. The line
 634:Generated_Source\PSoC5/CyDmac.c **** *   connected to the nrq terminal will determine the TERMOUT1_SEL definition and
 635:Generated_Source\PSoC5/CyDmac.c **** *   should be used as supplied by cyfitter.h
 636:Generated_Source\PSoC5/CyDmac.c **** *
 637:Generated_Source\PSoC5/CyDmac.c **** *  \param uint8 tdStop:
 638:Generated_Source\PSoC5/CyDmac.c **** *   Selects one of the TERMIN interrupt lines to signal to the DMAC that the TD
 639:Generated_Source\PSoC5/CyDmac.c **** *   should terminate. The signal connected to the trq terminal will determine
 640:Generated_Source\PSoC5/CyDmac.c **** *   which TERMIN (termination request) is used.
 641:Generated_Source\PSoC5/CyDmac.c **** *
 642:Generated_Source\PSoC5/CyDmac.c **** * \return
 643:Generated_Source\PSoC5/CyDmac.c **** *  CYRET_SUCCESS if successful.
 644:Generated_Source\PSoC5/CyDmac.c **** *  CYRET_BAD_PARAM if chHandle is invalid.
 645:Generated_Source\PSoC5/CyDmac.c **** *
 646:Generated_Source\PSoC5/CyDmac.c **** *******************************************************************************/
 647:Generated_Source\PSoC5/CyDmac.c **** cystatus CyDmaChSetConfiguration(uint8 chHandle, uint8 burstCount, uint8 requestPerBurst,
 648:Generated_Source\PSoC5/CyDmac.c ****                                  uint8 tdDone0, uint8 tdDone1, uint8 tdStop) 
 649:Generated_Source\PSoC5/CyDmac.c **** {
 731              		.loc 1 649 0
 732              		.cfi_startproc
 733              		@ args = 8, pretend = 0, frame = 0
 734              		@ frame_needed = 0, uses_anonymous_args = 0
 735              		@ link register save eliminated.
 736              	.LVL81:
 650:Generated_Source\PSoC5/CyDmac.c ****     cystatus status = CYRET_BAD_PARAM;
 651:Generated_Source\PSoC5/CyDmac.c **** 
 652:Generated_Source\PSoC5/CyDmac.c ****     if(chHandle < CY_DMA_NUMBEROF_CHANNELS)
 737              		.loc 1 652 0
 738 0000 1728     		cmp	r0, #23
 739 0002 1BD8     		bhi	.L85
 649:Generated_Source\PSoC5/CyDmac.c ****     cystatus status = CYRET_BAD_PARAM;
 740              		.loc 1 649 0
 741 0004 10B4     		push	{r4}
 742              		.cfi_def_cfa_offset 4
 743              		.cfi_offset 4, -4
 653:Generated_Source\PSoC5/CyDmac.c ****     {
 654:Generated_Source\PSoC5/CyDmac.c ****         CY_DMA_CFGMEM_STRUCT_PTR[chHandle].CFG0[0] = (burstCount & 0x7Fu) | ((uint8)((requestPerBur
 744              		.loc 1 654 0
 745 0006 C000     		lsls	r0, r0, #3
 746              	.LVL82:
 747 0008 00F18044 		add	r4, r0, #1073741824
 748 000c 04F5EC44 		add	r4, r4, #30208
 749 0010 D201     		lsls	r2, r2, #7
 750              	.LVL83:
 751 0012 D2B2     		uxtb	r2, r2
 752 0014 01F07F01 		and	r1, r1, #127
 753              	.LVL84:
 754 0018 1143     		orrs	r1, r1, r2
 755 001a 2170     		strb	r1, [r4]
ARM GAS  C:\Users\antarp\AppData\Local\Temp\ccWfKDCN.s 			page 26


 655:Generated_Source\PSoC5/CyDmac.c ****         CY_DMA_CFGMEM_STRUCT_PTR[chHandle].CFG0[1] = ((uint8)((tdDone1 & 0xFu) << 4u)) | (tdDone0 &
 756              		.loc 1 655 0
 757 001c 9DF80420 		ldrb	r2, [sp, #4]	@ zero_extendqisi2
 758 0020 1201     		lsls	r2, r2, #4
 759 0022 D2B2     		uxtb	r2, r2
 760 0024 03F00F03 		and	r3, r3, #15
 761              	.LVL85:
 762 0028 1343     		orrs	r3, r3, r2
 763 002a 6370     		strb	r3, [r4, #1]
 656:Generated_Source\PSoC5/CyDmac.c ****         CY_DMA_CFGMEM_STRUCT_PTR[chHandle].CFG0[2] = 0x0Fu & tdStop;
 764              		.loc 1 656 0
 765 002c 9DF80830 		ldrb	r3, [sp, #8]	@ zero_extendqisi2
 766 0030 03F00F03 		and	r3, r3, #15
 767 0034 A370     		strb	r3, [r4, #2]
 657:Generated_Source\PSoC5/CyDmac.c ****         CY_DMA_CFGMEM_STRUCT_PTR[chHandle].CFG0[3] = 0u; /* burstcount_remain. */
 768              		.loc 1 657 0
 769 0036 0020     		movs	r0, #0
 770 0038 E070     		strb	r0, [r4, #3]
 771              	.LVL86:
 772 003a 01E0     		b	.L84
 773              	.LVL87:
 774              	.L85:
 775              		.cfi_def_cfa_offset 0
 776              		.cfi_restore 4
 650:Generated_Source\PSoC5/CyDmac.c **** 
 777              		.loc 1 650 0
 778 003c 0120     		movs	r0, #1
 779              	.LVL88:
 780 003e 7047     		bx	lr
 781              	.LVL89:
 782              	.L84:
 783              		.cfi_def_cfa_offset 4
 784              		.cfi_offset 4, -4
 658:Generated_Source\PSoC5/CyDmac.c **** 
 659:Generated_Source\PSoC5/CyDmac.c ****         status = CYRET_SUCCESS;
 660:Generated_Source\PSoC5/CyDmac.c ****     }
 661:Generated_Source\PSoC5/CyDmac.c **** 
 662:Generated_Source\PSoC5/CyDmac.c ****     return (status);
 663:Generated_Source\PSoC5/CyDmac.c **** }
 785              		.loc 1 663 0
 786 0040 10BC     		pop	{r4}
 787              		.cfi_restore 4
 788              		.cfi_def_cfa_offset 0
 789              	.LVL90:
 790 0042 7047     		bx	lr
 791              		.cfi_endproc
 792              	.LFE15:
 793              		.size	CyDmaChSetConfiguration, .-CyDmaChSetConfiguration
 794              		.section	.text.CyDmaTdAllocate,"ax",%progbits
 795              		.align	2
 796              		.global	CyDmaTdAllocate
 797              		.thumb
 798              		.thumb_func
 799              		.type	CyDmaTdAllocate, %function
 800              	CyDmaTdAllocate:
 801              	.LFB16:
 664:Generated_Source\PSoC5/CyDmac.c **** 
ARM GAS  C:\Users\antarp\AppData\Local\Temp\ccWfKDCN.s 			page 27


 665:Generated_Source\PSoC5/CyDmac.c **** 
 666:Generated_Source\PSoC5/CyDmac.c **** /*******************************************************************************
 667:Generated_Source\PSoC5/CyDmac.c **** * Function Name: CyDmaTdAllocate
 668:Generated_Source\PSoC5/CyDmac.c **** ****************************************************************************//**
 669:Generated_Source\PSoC5/CyDmac.c **** *
 670:Generated_Source\PSoC5/CyDmac.c **** *  Allocates a TD for use with an allocated DMA channel.
 671:Generated_Source\PSoC5/CyDmac.c **** *
 672:Generated_Source\PSoC5/CyDmac.c **** * \return
 673:Generated_Source\PSoC5/CyDmac.c **** *  Zero-based index of the TD to be used by the caller. Since there are 128 TDs
 674:Generated_Source\PSoC5/CyDmac.c **** *  minus the reserved TDs (0 to 23), the value returned would range from 24 to
 675:Generated_Source\PSoC5/CyDmac.c **** *  127 not 24 to 128. DMA_INVALID_TD is returned if there are no free TDs
 676:Generated_Source\PSoC5/CyDmac.c **** *  available.
 677:Generated_Source\PSoC5/CyDmac.c **** *
 678:Generated_Source\PSoC5/CyDmac.c **** *******************************************************************************/
 679:Generated_Source\PSoC5/CyDmac.c **** uint8 CyDmaTdAllocate(void) 
 680:Generated_Source\PSoC5/CyDmac.c **** {
 802              		.loc 1 680 0
 803              		.cfi_startproc
 804              		@ args = 0, pretend = 0, frame = 0
 805              		@ frame_needed = 0, uses_anonymous_args = 0
 806 0000 10B5     		push	{r4, lr}
 807              		.cfi_def_cfa_offset 8
 808              		.cfi_offset 4, -8
 809              		.cfi_offset 14, -4
 810              	.LVL91:
 681:Generated_Source\PSoC5/CyDmac.c ****     uint8 interruptState;
 682:Generated_Source\PSoC5/CyDmac.c ****     uint8 element = CY_DMA_INVALID_TD;
 683:Generated_Source\PSoC5/CyDmac.c **** 
 684:Generated_Source\PSoC5/CyDmac.c ****     /* Enter critical section! */
 685:Generated_Source\PSoC5/CyDmac.c ****     interruptState = CyEnterCriticalSection();
 811              		.loc 1 685 0
 812 0002 FFF7FEFF 		bl	CyEnterCriticalSection
 813              	.LVL92:
 686:Generated_Source\PSoC5/CyDmac.c **** 
 687:Generated_Source\PSoC5/CyDmac.c ****     if(CyDmaTdCurrentNumber > NUMBEROF_CHANNELS)
 814              		.loc 1 687 0
 815 0006 0A4B     		ldr	r3, .L92
 816 0008 5B78     		ldrb	r3, [r3, #1]	@ zero_extendqisi2
 817 000a 182B     		cmp	r3, #24
 818 000c 0BD9     		bls	.L90
 688:Generated_Source\PSoC5/CyDmac.c ****     {
 689:Generated_Source\PSoC5/CyDmac.c ****         /* Get pointer to Next available. */
 690:Generated_Source\PSoC5/CyDmac.c ****         element = CyDmaTdFreeIndex;
 819              		.loc 1 690 0
 820 000e 084A     		ldr	r2, .L92
 821 0010 1478     		ldrb	r4, [r2]	@ zero_extendqisi2
 822              	.LVL93:
 691:Generated_Source\PSoC5/CyDmac.c **** 
 692:Generated_Source\PSoC5/CyDmac.c ****         /* Decrement the count. */
 693:Generated_Source\PSoC5/CyDmac.c ****         CyDmaTdCurrentNumber--;
 823              		.loc 1 693 0
 824 0012 013B     		subs	r3, r3, #1
 825 0014 5370     		strb	r3, [r2, #1]
 694:Generated_Source\PSoC5/CyDmac.c **** 
 695:Generated_Source\PSoC5/CyDmac.c ****         /* Update next available pointer. */
 696:Generated_Source\PSoC5/CyDmac.c ****         CyDmaTdFreeIndex = CY_DMA_TDMEM_STRUCT_PTR[element].TD0[0];
 826              		.loc 1 696 0
ARM GAS  C:\Users\antarp\AppData\Local\Temp\ccWfKDCN.s 			page 28


 827 0016 E300     		lsls	r3, r4, #3
 828 0018 03F18043 		add	r3, r3, #1073741824
 829 001c 03F5F043 		add	r3, r3, #30720
 830 0020 1B78     		ldrb	r3, [r3]	@ zero_extendqisi2
 831 0022 1370     		strb	r3, [r2]
 832 0024 00E0     		b	.L89
 833              	.LVL94:
 834              	.L90:
 682:Generated_Source\PSoC5/CyDmac.c **** 
 835              		.loc 1 682 0
 836 0026 FF24     		movs	r4, #255
 837              	.LVL95:
 838              	.L89:
 697:Generated_Source\PSoC5/CyDmac.c ****     }
 698:Generated_Source\PSoC5/CyDmac.c **** 
 699:Generated_Source\PSoC5/CyDmac.c ****     /* Exit critical section! */
 700:Generated_Source\PSoC5/CyDmac.c ****     CyExitCriticalSection(interruptState);
 839              		.loc 1 700 0
 840 0028 FFF7FEFF 		bl	CyExitCriticalSection
 841              	.LVL96:
 701:Generated_Source\PSoC5/CyDmac.c **** 
 702:Generated_Source\PSoC5/CyDmac.c ****     return(element);
 703:Generated_Source\PSoC5/CyDmac.c **** }
 842              		.loc 1 703 0
 843 002c 2046     		mov	r0, r4
 844 002e 10BD     		pop	{r4, pc}
 845              	.LVL97:
 846              	.L93:
 847              		.align	2
 848              	.L92:
 849 0030 00000000 		.word	.LANCHOR0
 850              		.cfi_endproc
 851              	.LFE16:
 852              		.size	CyDmaTdAllocate, .-CyDmaTdAllocate
 853              		.section	.text.CyDmaTdFree,"ax",%progbits
 854              		.align	2
 855              		.global	CyDmaTdFree
 856              		.thumb
 857              		.thumb_func
 858              		.type	CyDmaTdFree, %function
 859              	CyDmaTdFree:
 860              	.LFB17:
 704:Generated_Source\PSoC5/CyDmac.c **** 
 705:Generated_Source\PSoC5/CyDmac.c **** 
 706:Generated_Source\PSoC5/CyDmac.c **** /*******************************************************************************
 707:Generated_Source\PSoC5/CyDmac.c **** * Function Name: CyDmaTdFree
 708:Generated_Source\PSoC5/CyDmac.c **** ****************************************************************************//**
 709:Generated_Source\PSoC5/CyDmac.c **** *
 710:Generated_Source\PSoC5/CyDmac.c **** *  Returns a TD to the free list.
 711:Generated_Source\PSoC5/CyDmac.c **** *
 712:Generated_Source\PSoC5/CyDmac.c **** *  \param uint8 tdHandle:
 713:Generated_Source\PSoC5/CyDmac.c **** *   The TD handle returned by the CyDmaTdAllocate().
 714:Generated_Source\PSoC5/CyDmac.c **** *
 715:Generated_Source\PSoC5/CyDmac.c **** *******************************************************************************/
 716:Generated_Source\PSoC5/CyDmac.c **** void CyDmaTdFree(uint8 tdHandle) 
 717:Generated_Source\PSoC5/CyDmac.c **** {
 861              		.loc 1 717 0
ARM GAS  C:\Users\antarp\AppData\Local\Temp\ccWfKDCN.s 			page 29


 862              		.cfi_startproc
 863              		@ args = 0, pretend = 0, frame = 0
 864              		@ frame_needed = 0, uses_anonymous_args = 0
 865              	.LVL98:
 718:Generated_Source\PSoC5/CyDmac.c ****     if(tdHandle < CY_DMA_NUMBEROF_TDS)
 866              		.loc 1 718 0
 867 0000 10F0800F 		tst	r0, #128
 868 0004 12D1     		bne	.L97
 717:Generated_Source\PSoC5/CyDmac.c ****     if(tdHandle < CY_DMA_NUMBEROF_TDS)
 869              		.loc 1 717 0
 870 0006 10B5     		push	{r4, lr}
 871              		.cfi_def_cfa_offset 8
 872              		.cfi_offset 4, -8
 873              		.cfi_offset 14, -4
 874 0008 0446     		mov	r4, r0
 875              	.LBB2:
 719:Generated_Source\PSoC5/CyDmac.c ****     {
 720:Generated_Source\PSoC5/CyDmac.c ****         /* Enter critical section! */
 721:Generated_Source\PSoC5/CyDmac.c ****         uint8 interruptState = CyEnterCriticalSection();
 876              		.loc 1 721 0
 877 000a FFF7FEFF 		bl	CyEnterCriticalSection
 878              	.LVL99:
 722:Generated_Source\PSoC5/CyDmac.c **** 
 723:Generated_Source\PSoC5/CyDmac.c ****         /* Get pointer to Next available. */
 724:Generated_Source\PSoC5/CyDmac.c ****         CY_DMA_TDMEM_STRUCT_PTR[tdHandle].TD0[0u] = CyDmaTdFreeIndex;
 879              		.loc 1 724 0
 880 000e E300     		lsls	r3, r4, #3
 881 0010 03F18043 		add	r3, r3, #1073741824
 882 0014 03F5F043 		add	r3, r3, #30720
 883 0018 054A     		ldr	r2, .L98
 884 001a 1178     		ldrb	r1, [r2]	@ zero_extendqisi2
 885 001c 1970     		strb	r1, [r3]
 725:Generated_Source\PSoC5/CyDmac.c **** 
 726:Generated_Source\PSoC5/CyDmac.c ****         /* Set new Next Available. */
 727:Generated_Source\PSoC5/CyDmac.c ****         CyDmaTdFreeIndex = tdHandle;
 886              		.loc 1 727 0
 887 001e 1470     		strb	r4, [r2]
 728:Generated_Source\PSoC5/CyDmac.c **** 
 729:Generated_Source\PSoC5/CyDmac.c ****         /* Keep track of how many left. */
 730:Generated_Source\PSoC5/CyDmac.c ****         CyDmaTdCurrentNumber++;
 888              		.loc 1 730 0
 889 0020 5378     		ldrb	r3, [r2, #1]	@ zero_extendqisi2
 890 0022 0133     		adds	r3, r3, #1
 891 0024 5370     		strb	r3, [r2, #1]
 731:Generated_Source\PSoC5/CyDmac.c **** 
 732:Generated_Source\PSoC5/CyDmac.c ****         /* Exit critical section! */
 733:Generated_Source\PSoC5/CyDmac.c ****         CyExitCriticalSection(interruptState);
 892              		.loc 1 733 0
 893 0026 FFF7FEFF 		bl	CyExitCriticalSection
 894              	.LVL100:
 895 002a 10BD     		pop	{r4, pc}
 896              	.LVL101:
 897              	.L97:
 898              		.cfi_def_cfa_offset 0
 899              		.cfi_restore 4
 900              		.cfi_restore 14
 901 002c 7047     		bx	lr
ARM GAS  C:\Users\antarp\AppData\Local\Temp\ccWfKDCN.s 			page 30


 902              	.L99:
 903 002e 00BF     		.align	2
 904              	.L98:
 905 0030 00000000 		.word	.LANCHOR0
 906              	.LBE2:
 907              		.cfi_endproc
 908              	.LFE17:
 909              		.size	CyDmaTdFree, .-CyDmaTdFree
 910              		.section	.text.CyDmaTdFreeCount,"ax",%progbits
 911              		.align	2
 912              		.global	CyDmaTdFreeCount
 913              		.thumb
 914              		.thumb_func
 915              		.type	CyDmaTdFreeCount, %function
 916              	CyDmaTdFreeCount:
 917              	.LFB18:
 734:Generated_Source\PSoC5/CyDmac.c ****     }
 735:Generated_Source\PSoC5/CyDmac.c **** }
 736:Generated_Source\PSoC5/CyDmac.c **** 
 737:Generated_Source\PSoC5/CyDmac.c **** 
 738:Generated_Source\PSoC5/CyDmac.c **** /*******************************************************************************
 739:Generated_Source\PSoC5/CyDmac.c **** * Function Name: CyDmaTdFreeCount
 740:Generated_Source\PSoC5/CyDmac.c **** ****************************************************************************//**
 741:Generated_Source\PSoC5/CyDmac.c **** *
 742:Generated_Source\PSoC5/CyDmac.c **** *  Returns the number of free TDs available to be allocated.
 743:Generated_Source\PSoC5/CyDmac.c **** *
 744:Generated_Source\PSoC5/CyDmac.c **** * \return
 745:Generated_Source\PSoC5/CyDmac.c **** *  The number of free TDs.
 746:Generated_Source\PSoC5/CyDmac.c **** *
 747:Generated_Source\PSoC5/CyDmac.c **** *******************************************************************************/
 748:Generated_Source\PSoC5/CyDmac.c **** uint8 CyDmaTdFreeCount(void) 
 749:Generated_Source\PSoC5/CyDmac.c **** {
 918              		.loc 1 749 0
 919              		.cfi_startproc
 920              		@ args = 0, pretend = 0, frame = 0
 921              		@ frame_needed = 0, uses_anonymous_args = 0
 922              		@ link register save eliminated.
 750:Generated_Source\PSoC5/CyDmac.c ****     return(CyDmaTdCurrentNumber - CY_DMA_NUMBEROF_CHANNELS);
 923              		.loc 1 750 0
 924 0000 024B     		ldr	r3, .L101
 925 0002 5878     		ldrb	r0, [r3, #1]	@ zero_extendqisi2
 926 0004 1838     		subs	r0, r0, #24
 751:Generated_Source\PSoC5/CyDmac.c **** }
 927              		.loc 1 751 0
 928 0006 C0B2     		uxtb	r0, r0
 929 0008 7047     		bx	lr
 930              	.L102:
 931 000a 00BF     		.align	2
 932              	.L101:
 933 000c 00000000 		.word	.LANCHOR0
 934              		.cfi_endproc
 935              	.LFE18:
 936              		.size	CyDmaTdFreeCount, .-CyDmaTdFreeCount
 937              		.section	.text.CyDmaTdSetConfiguration,"ax",%progbits
 938              		.align	2
 939              		.global	CyDmaTdSetConfiguration
 940              		.thumb
ARM GAS  C:\Users\antarp\AppData\Local\Temp\ccWfKDCN.s 			page 31


 941              		.thumb_func
 942              		.type	CyDmaTdSetConfiguration, %function
 943              	CyDmaTdSetConfiguration:
 944              	.LFB19:
 752:Generated_Source\PSoC5/CyDmac.c **** 
 753:Generated_Source\PSoC5/CyDmac.c **** 
 754:Generated_Source\PSoC5/CyDmac.c **** /*******************************************************************************
 755:Generated_Source\PSoC5/CyDmac.c **** * Function Name: CyDmaTdSetConfiguration
 756:Generated_Source\PSoC5/CyDmac.c **** ****************************************************************************//**
 757:Generated_Source\PSoC5/CyDmac.c **** *
 758:Generated_Source\PSoC5/CyDmac.c **** *  Configures the TD.
 759:Generated_Source\PSoC5/CyDmac.c **** *
 760:Generated_Source\PSoC5/CyDmac.c **** *  \param uint8 tdHandle:
 761:Generated_Source\PSoC5/CyDmac.c **** *   A handle previously returned by CyDmaTdAlloc().
 762:Generated_Source\PSoC5/CyDmac.c **** *
 763:Generated_Source\PSoC5/CyDmac.c **** *  \param uint16 transferCount:
 764:Generated_Source\PSoC5/CyDmac.c **** *   The size of the data transfer (in bytes) for this TD. A size of zero will
 765:Generated_Source\PSoC5/CyDmac.c **** *   cause the transfer to continue indefinitely. This parameter is limited to
 766:Generated_Source\PSoC5/CyDmac.c **** *   4095 bytes; the TD is not initialized at all when a higher value is passed.
 767:Generated_Source\PSoC5/CyDmac.c **** *
 768:Generated_Source\PSoC5/CyDmac.c **** *  \param uint8 nextTd:
 769:Generated_Source\PSoC5/CyDmac.c **** *   Zero based index of the next Transfer Descriptor in the TD chain. Zero is a
 770:Generated_Source\PSoC5/CyDmac.c **** *   valid pointer to the next TD; DMA_END_CHAIN_TD is the end of the chain.
 771:Generated_Source\PSoC5/CyDmac.c **** *   DMA_DISABLE_TD indicates an end to the chain and the DMA is disabled. No
 772:Generated_Source\PSoC5/CyDmac.c **** *   further TDs are fetched. DMA_DISABLE_TD is only supported on PSoC3 and
 773:Generated_Source\PSoC5/CyDmac.c **** *   PSoC 5LP silicons.
 774:Generated_Source\PSoC5/CyDmac.c **** *
 775:Generated_Source\PSoC5/CyDmac.c **** *  \param uint8 configuration:
 776:Generated_Source\PSoC5/CyDmac.c **** *   Stores the Bit field of configuration bits.
 777:Generated_Source\PSoC5/CyDmac.c **** *
 778:Generated_Source\PSoC5/CyDmac.c **** *   CY_DMA_TD_SWAP_EN        - Perform endian swap
 779:Generated_Source\PSoC5/CyDmac.c **** *
 780:Generated_Source\PSoC5/CyDmac.c **** *   CY_DMA_TD_SWAP_SIZE4     - Swap size = 4 bytes
 781:Generated_Source\PSoC5/CyDmac.c **** *
 782:Generated_Source\PSoC5/CyDmac.c **** *   CY_DMA_TD_AUTO_EXEC_NEXT - The next TD in the chain will trigger
 783:Generated_Source\PSoC5/CyDmac.c **** *                              automatically when the current TD completes.
 784:Generated_Source\PSoC5/CyDmac.c **** *
 785:Generated_Source\PSoC5/CyDmac.c **** *   CY_DMA_TD_TERMIN_EN      - Terminate this TD if a positive edge on the trq
 786:Generated_Source\PSoC5/CyDmac.c **** *                              input line occurs. The positive edge must occur
 787:Generated_Source\PSoC5/CyDmac.c **** *                              during a burst. That is the only time the DMAC
 788:Generated_Source\PSoC5/CyDmac.c **** *                              will listen for it.
 789:Generated_Source\PSoC5/CyDmac.c **** *
 790:Generated_Source\PSoC5/CyDmac.c **** *   DMA__TD_TERMOUT_EN       - When this TD completes, the TERMOUT signal will
 791:Generated_Source\PSoC5/CyDmac.c **** *                              generate a pulse. Note that this option is
 792:Generated_Source\PSoC5/CyDmac.c **** *                              instance specific with the instance name followed
 793:Generated_Source\PSoC5/CyDmac.c **** *                              by two underscores. In this example, the instance
 794:Generated_Source\PSoC5/CyDmac.c **** *                              name is DMA.
 795:Generated_Source\PSoC5/CyDmac.c **** *
 796:Generated_Source\PSoC5/CyDmac.c **** *   CY_DMA_TD_INC_DST_ADR    - Increment DST_ADR according to the size of each
 797:Generated_Source\PSoC5/CyDmac.c **** *                              data transaction in the burst.
 798:Generated_Source\PSoC5/CyDmac.c **** *
 799:Generated_Source\PSoC5/CyDmac.c **** *   CY_DMA_TD_INC_SRC_ADR    - Increment SRC_ADR according to the size of each
 800:Generated_Source\PSoC5/CyDmac.c **** *                              data transaction in the burst.
 801:Generated_Source\PSoC5/CyDmac.c **** *
 802:Generated_Source\PSoC5/CyDmac.c **** * \return
 803:Generated_Source\PSoC5/CyDmac.c **** *  CYRET_SUCCESS if successful.
 804:Generated_Source\PSoC5/CyDmac.c **** *  CYRET_BAD_PARAM if tdHandle or transferCount is invalid.
ARM GAS  C:\Users\antarp\AppData\Local\Temp\ccWfKDCN.s 			page 32


 805:Generated_Source\PSoC5/CyDmac.c **** *
 806:Generated_Source\PSoC5/CyDmac.c **** *******************************************************************************/
 807:Generated_Source\PSoC5/CyDmac.c **** cystatus CyDmaTdSetConfiguration(uint8 tdHandle, uint16 transferCount, uint8 nextTd, uint8 configur
 808:Generated_Source\PSoC5/CyDmac.c ****     
 809:Generated_Source\PSoC5/CyDmac.c **** {
 945              		.loc 1 809 0
 946              		.cfi_startproc
 947              		@ args = 0, pretend = 0, frame = 0
 948              		@ frame_needed = 0, uses_anonymous_args = 0
 949              		@ link register save eliminated.
 950              	.LVL102:
 810:Generated_Source\PSoC5/CyDmac.c ****     cystatus status = CYRET_BAD_PARAM;
 811:Generated_Source\PSoC5/CyDmac.c **** 
 812:Generated_Source\PSoC5/CyDmac.c ****     if((tdHandle < CY_DMA_NUMBEROF_TDS) && (0u == (0xF000u & transferCount)))
 951              		.loc 1 812 0
 952 0000 10F0800F 		tst	r0, #128
 953 0004 0CD1     		bne	.L105
 954              		.loc 1 812 0 is_stmt 0 discriminator 1
 955 0006 11F4704F 		tst	r1, #61440
 956 000a 0BD1     		bne	.L106
 957              	.LBB3:
 813:Generated_Source\PSoC5/CyDmac.c ****     {
 814:Generated_Source\PSoC5/CyDmac.c ****         /* Set 12 bits transfer count. */
 815:Generated_Source\PSoC5/CyDmac.c ****         reg16 *convert = (reg16 *) &CY_DMA_TDMEM_STRUCT_PTR[tdHandle].TD0[0u];
 958              		.loc 1 815 0 is_stmt 1
 959 000c C000     		lsls	r0, r0, #3
 960              	.LVL103:
 961 000e 00F18040 		add	r0, r0, #1073741824
 962 0012 00F5F040 		add	r0, r0, #30720
 963              	.LVL104:
 816:Generated_Source\PSoC5/CyDmac.c ****         CY_SET_REG16(convert, transferCount);
 964              		.loc 1 816 0
 965 0016 0180     		strh	r1, [r0]	@ movhi
 817:Generated_Source\PSoC5/CyDmac.c **** 
 818:Generated_Source\PSoC5/CyDmac.c ****         /* Set Next TD pointer. */
 819:Generated_Source\PSoC5/CyDmac.c ****         CY_DMA_TDMEM_STRUCT_PTR[tdHandle].TD0[2u] = nextTd;
 966              		.loc 1 819 0
 967 0018 8270     		strb	r2, [r0, #2]
 820:Generated_Source\PSoC5/CyDmac.c **** 
 821:Generated_Source\PSoC5/CyDmac.c ****         /* Configure the TD */
 822:Generated_Source\PSoC5/CyDmac.c ****         CY_DMA_TDMEM_STRUCT_PTR[tdHandle].TD0[3u] = configuration;
 968              		.loc 1 822 0
 969 001a C370     		strb	r3, [r0, #3]
 970              	.LVL105:
 823:Generated_Source\PSoC5/CyDmac.c **** 
 824:Generated_Source\PSoC5/CyDmac.c ****         status = CYRET_SUCCESS;
 971              		.loc 1 824 0
 972 001c 0020     		movs	r0, #0
 973              	.LVL106:
 974 001e 7047     		bx	lr
 975              	.LVL107:
 976              	.L105:
 977              	.LBE3:
 810:Generated_Source\PSoC5/CyDmac.c **** 
 978              		.loc 1 810 0
 979 0020 0120     		movs	r0, #1
 980              	.LVL108:
ARM GAS  C:\Users\antarp\AppData\Local\Temp\ccWfKDCN.s 			page 33


 981 0022 7047     		bx	lr
 982              	.LVL109:
 983              	.L106:
 984 0024 0120     		movs	r0, #1
 985              	.LVL110:
 825:Generated_Source\PSoC5/CyDmac.c ****     }
 826:Generated_Source\PSoC5/CyDmac.c **** 
 827:Generated_Source\PSoC5/CyDmac.c ****     return(status);
 828:Generated_Source\PSoC5/CyDmac.c **** }
 986              		.loc 1 828 0
 987 0026 7047     		bx	lr
 988              		.cfi_endproc
 989              	.LFE19:
 990              		.size	CyDmaTdSetConfiguration, .-CyDmaTdSetConfiguration
 991              		.section	.text.CyDmaTdGetConfiguration,"ax",%progbits
 992              		.align	2
 993              		.global	CyDmaTdGetConfiguration
 994              		.thumb
 995              		.thumb_func
 996              		.type	CyDmaTdGetConfiguration, %function
 997              	CyDmaTdGetConfiguration:
 998              	.LFB20:
 829:Generated_Source\PSoC5/CyDmac.c **** 
 830:Generated_Source\PSoC5/CyDmac.c **** 
 831:Generated_Source\PSoC5/CyDmac.c **** /*******************************************************************************
 832:Generated_Source\PSoC5/CyDmac.c **** * Function Name: CyDmaTdGetConfiguration
 833:Generated_Source\PSoC5/CyDmac.c **** ****************************************************************************//**
 834:Generated_Source\PSoC5/CyDmac.c **** *
 835:Generated_Source\PSoC5/CyDmac.c **** *  Retrieves the configuration of the TD. If a NULL pointer is passed as a
 836:Generated_Source\PSoC5/CyDmac.c **** *  parameter, that parameter is skipped. You may request only the values you are
 837:Generated_Source\PSoC5/CyDmac.c **** *  interested in.
 838:Generated_Source\PSoC5/CyDmac.c **** *
 839:Generated_Source\PSoC5/CyDmac.c **** *  \param uint8 tdHandle:
 840:Generated_Source\PSoC5/CyDmac.c **** *   A handle previously returned by CyDmaTdAlloc().
 841:Generated_Source\PSoC5/CyDmac.c **** *
 842:Generated_Source\PSoC5/CyDmac.c **** *  \param uint16 * transferCount:
 843:Generated_Source\PSoC5/CyDmac.c **** *   The address to store the size of the data transfer (in bytes) for this TD.
 844:Generated_Source\PSoC5/CyDmac.c **** *   A size of zero could indicate that the TD has completed its transfer, or
 845:Generated_Source\PSoC5/CyDmac.c **** *   that the TD is doing an indefinite transfer.
 846:Generated_Source\PSoC5/CyDmac.c **** *
 847:Generated_Source\PSoC5/CyDmac.c **** *  \param uint8 * nextTd:
 848:Generated_Source\PSoC5/CyDmac.c **** *   The address to store the index of the next TD in the TD chain.
 849:Generated_Source\PSoC5/CyDmac.c **** *
 850:Generated_Source\PSoC5/CyDmac.c **** *  \param uint8 * configuration:
 851:Generated_Source\PSoC5/CyDmac.c **** *   The address to store the Bit field of configuration bits.
 852:Generated_Source\PSoC5/CyDmac.c **** *   See CyDmaTdSetConfiguration() function description.
 853:Generated_Source\PSoC5/CyDmac.c **** *
 854:Generated_Source\PSoC5/CyDmac.c **** * \return
 855:Generated_Source\PSoC5/CyDmac.c **** *  CYRET_SUCCESS if successful.
 856:Generated_Source\PSoC5/CyDmac.c **** *  CYRET_BAD_PARAM if tdHandle is invalid.
 857:Generated_Source\PSoC5/CyDmac.c **** *
 858:Generated_Source\PSoC5/CyDmac.c **** * \sideeffect
 859:Generated_Source\PSoC5/CyDmac.c **** *  If TD has a transfer count of N and is executed, the transfer count becomes
 860:Generated_Source\PSoC5/CyDmac.c **** *  0. If it is reexecuted, the Transfer count of zero will be interpreted as a
 861:Generated_Source\PSoC5/CyDmac.c **** *  request for indefinite transfer. Be careful when requesting TD with a
 862:Generated_Source\PSoC5/CyDmac.c **** *  transfer count of zero.
 863:Generated_Source\PSoC5/CyDmac.c **** *
ARM GAS  C:\Users\antarp\AppData\Local\Temp\ccWfKDCN.s 			page 34


 864:Generated_Source\PSoC5/CyDmac.c **** *******************************************************************************/
 865:Generated_Source\PSoC5/CyDmac.c **** cystatus CyDmaTdGetConfiguration(uint8 tdHandle, uint16 * transferCount, uint8 * nextTd, uint8 * co
 866:Generated_Source\PSoC5/CyDmac.c ****     
 867:Generated_Source\PSoC5/CyDmac.c **** {
 999              		.loc 1 867 0
 1000              		.cfi_startproc
 1001              		@ args = 0, pretend = 0, frame = 0
 1002              		@ frame_needed = 0, uses_anonymous_args = 0
 1003              		@ link register save eliminated.
 1004              	.LVL111:
 868:Generated_Source\PSoC5/CyDmac.c ****     cystatus status = CYRET_BAD_PARAM;
 869:Generated_Source\PSoC5/CyDmac.c **** 
 870:Generated_Source\PSoC5/CyDmac.c ****     if(tdHandle < CY_DMA_NUMBEROF_TDS)
 1005              		.loc 1 870 0
 1006 0000 10F0800F 		tst	r0, #128
 1007 0004 1CD1     		bne	.L111
 867:Generated_Source\PSoC5/CyDmac.c ****     cystatus status = CYRET_BAD_PARAM;
 1008              		.loc 1 867 0
 1009 0006 10B4     		push	{r4}
 1010              		.cfi_def_cfa_offset 4
 1011              		.cfi_offset 4, -4
 871:Generated_Source\PSoC5/CyDmac.c ****     {
 872:Generated_Source\PSoC5/CyDmac.c ****         /* If we have pointer */
 873:Generated_Source\PSoC5/CyDmac.c ****         if(NULL != transferCount)
 1012              		.loc 1 873 0
 1013 0008 41B1     		cbz	r1, .L109
 1014              	.LBB4:
 874:Generated_Source\PSoC5/CyDmac.c ****         {
 875:Generated_Source\PSoC5/CyDmac.c ****             /* Get 12 bits of transfer count */
 876:Generated_Source\PSoC5/CyDmac.c ****             reg16 *convert = (reg16 *) &CY_DMA_TDMEM_STRUCT_PTR[tdHandle].TD0[0];
 1015              		.loc 1 876 0
 1016 000a C400     		lsls	r4, r0, #3
 1017 000c 04F18044 		add	r4, r4, #1073741824
 1018 0010 04F5F044 		add	r4, r4, #30720
 1019              	.LVL112:
 877:Generated_Source\PSoC5/CyDmac.c ****             *transferCount = 0x0FFFu & CY_GET_REG16(convert);
 1020              		.loc 1 877 0
 1021 0014 2488     		ldrh	r4, [r4]
 1022              	.LVL113:
 1023 0016 C4F30B04 		ubfx	r4, r4, #0, #12
 1024 001a 0C80     		strh	r4, [r1]	@ movhi
 1025              	.LVL114:
 1026              	.L109:
 1027              	.LBE4:
 878:Generated_Source\PSoC5/CyDmac.c ****         }
 879:Generated_Source\PSoC5/CyDmac.c **** 
 880:Generated_Source\PSoC5/CyDmac.c ****         /* If we have pointer */
 881:Generated_Source\PSoC5/CyDmac.c ****         if(NULL != nextTd)
 1028              		.loc 1 881 0
 1029 001c 32B1     		cbz	r2, .L110
 882:Generated_Source\PSoC5/CyDmac.c ****         {
 883:Generated_Source\PSoC5/CyDmac.c ****             /* Get Next TD pointer */
 884:Generated_Source\PSoC5/CyDmac.c ****             *nextTd = CY_DMA_TDMEM_STRUCT_PTR[tdHandle].TD0[2u];
 1030              		.loc 1 884 0
 1031 001e C100     		lsls	r1, r0, #3
 1032              	.LVL115:
 1033 0020 01F18041 		add	r1, r1, #1073741824
ARM GAS  C:\Users\antarp\AppData\Local\Temp\ccWfKDCN.s 			page 35


 1034 0024 01F5F041 		add	r1, r1, #30720
 1035 0028 8978     		ldrb	r1, [r1, #2]	@ zero_extendqisi2
 1036 002a 1170     		strb	r1, [r2]
 1037              	.L110:
 885:Generated_Source\PSoC5/CyDmac.c ****         }
 886:Generated_Source\PSoC5/CyDmac.c **** 
 887:Generated_Source\PSoC5/CyDmac.c ****         /* If we have pointer */
 888:Generated_Source\PSoC5/CyDmac.c ****         if(NULL != configuration)
 1038              		.loc 1 888 0
 1039 002c 53B1     		cbz	r3, .L112
 889:Generated_Source\PSoC5/CyDmac.c ****         {
 890:Generated_Source\PSoC5/CyDmac.c ****             /* Get configuration TD */
 891:Generated_Source\PSoC5/CyDmac.c ****             *configuration = CY_DMA_TDMEM_STRUCT_PTR[tdHandle].TD0[3u];
 1040              		.loc 1 891 0
 1041 002e C000     		lsls	r0, r0, #3
 1042              	.LVL116:
 1043 0030 00F18040 		add	r0, r0, #1073741824
 1044 0034 00F5F040 		add	r0, r0, #30720
 1045 0038 C278     		ldrb	r2, [r0, #3]	@ zero_extendqisi2
 1046              	.LVL117:
 1047 003a 1A70     		strb	r2, [r3]
 892:Generated_Source\PSoC5/CyDmac.c ****         }
 893:Generated_Source\PSoC5/CyDmac.c **** 
 894:Generated_Source\PSoC5/CyDmac.c ****         status = CYRET_SUCCESS;
 1048              		.loc 1 894 0
 1049 003c 0020     		movs	r0, #0
 1050 003e 02E0     		b	.L108
 1051              	.LVL118:
 1052              	.L111:
 1053              		.cfi_def_cfa_offset 0
 1054              		.cfi_restore 4
 868:Generated_Source\PSoC5/CyDmac.c **** 
 1055              		.loc 1 868 0
 1056 0040 0120     		movs	r0, #1
 1057              	.LVL119:
 895:Generated_Source\PSoC5/CyDmac.c ****     }
 896:Generated_Source\PSoC5/CyDmac.c **** 
 897:Generated_Source\PSoC5/CyDmac.c ****     return(status);
 898:Generated_Source\PSoC5/CyDmac.c **** }
 1058              		.loc 1 898 0
 1059 0042 7047     		bx	lr
 1060              	.LVL120:
 1061              	.L112:
 1062              		.cfi_def_cfa_offset 4
 1063              		.cfi_offset 4, -4
 894:Generated_Source\PSoC5/CyDmac.c ****     }
 1064              		.loc 1 894 0
 1065 0044 0020     		movs	r0, #0
 1066              	.LVL121:
 1067              	.L108:
 1068              		.loc 1 898 0
 1069 0046 10BC     		pop	{r4}
 1070              		.cfi_restore 4
 1071              		.cfi_def_cfa_offset 0
 1072 0048 7047     		bx	lr
 1073              		.cfi_endproc
 1074              	.LFE20:
ARM GAS  C:\Users\antarp\AppData\Local\Temp\ccWfKDCN.s 			page 36


 1075              		.size	CyDmaTdGetConfiguration, .-CyDmaTdGetConfiguration
 1076 004a 00BF     		.section	.text.CyDmaTdSetAddress,"ax",%progbits
 1077              		.align	2
 1078              		.global	CyDmaTdSetAddress
 1079              		.thumb
 1080              		.thumb_func
 1081              		.type	CyDmaTdSetAddress, %function
 1082              	CyDmaTdSetAddress:
 1083              	.LFB21:
 899:Generated_Source\PSoC5/CyDmac.c **** 
 900:Generated_Source\PSoC5/CyDmac.c **** 
 901:Generated_Source\PSoC5/CyDmac.c **** /*******************************************************************************
 902:Generated_Source\PSoC5/CyDmac.c **** * Function Name: CyDmaTdSetAddress
 903:Generated_Source\PSoC5/CyDmac.c **** ****************************************************************************//**
 904:Generated_Source\PSoC5/CyDmac.c **** *
 905:Generated_Source\PSoC5/CyDmac.c **** *  Sets the lower 16 bits of the source and destination addresses for this TD
 906:Generated_Source\PSoC5/CyDmac.c **** *  only.
 907:Generated_Source\PSoC5/CyDmac.c **** *
 908:Generated_Source\PSoC5/CyDmac.c **** *  \param uint8 tdHandle:
 909:Generated_Source\PSoC5/CyDmac.c **** *   A handle previously returned by CyDmaTdAlloc().
 910:Generated_Source\PSoC5/CyDmac.c **** *
 911:Generated_Source\PSoC5/CyDmac.c **** *  \param uint16 source:
 912:Generated_Source\PSoC5/CyDmac.c **** *   The lower 16 address bits of the source of the data transfer.
 913:Generated_Source\PSoC5/CyDmac.c **** *
 914:Generated_Source\PSoC5/CyDmac.c **** *  \param uint16 destination:
 915:Generated_Source\PSoC5/CyDmac.c **** *   The lower 16 address bits of the destination of the data transfer.
 916:Generated_Source\PSoC5/CyDmac.c **** *
 917:Generated_Source\PSoC5/CyDmac.c **** * \return
 918:Generated_Source\PSoC5/CyDmac.c **** *  CYRET_SUCCESS if successful.
 919:Generated_Source\PSoC5/CyDmac.c **** *  CYRET_BAD_PARAM if tdHandle is invalid.
 920:Generated_Source\PSoC5/CyDmac.c **** *
 921:Generated_Source\PSoC5/CyDmac.c **** *******************************************************************************/
 922:Generated_Source\PSoC5/CyDmac.c **** cystatus CyDmaTdSetAddress(uint8 tdHandle, uint16 source, uint16 destination) 
 923:Generated_Source\PSoC5/CyDmac.c **** {
 1084              		.loc 1 923 0
 1085              		.cfi_startproc
 1086              		@ args = 0, pretend = 0, frame = 0
 1087              		@ frame_needed = 0, uses_anonymous_args = 0
 1088              		@ link register save eliminated.
 1089              	.LVL122:
 924:Generated_Source\PSoC5/CyDmac.c ****     cystatus status = CYRET_BAD_PARAM;
 925:Generated_Source\PSoC5/CyDmac.c ****     reg16 *convert;
 926:Generated_Source\PSoC5/CyDmac.c **** 
 927:Generated_Source\PSoC5/CyDmac.c ****     if(tdHandle < CY_DMA_NUMBEROF_TDS)
 1090              		.loc 1 927 0
 1091 0000 10F0800F 		tst	r0, #128
 1092 0004 08D1     		bne	.L116
 928:Generated_Source\PSoC5/CyDmac.c ****     {
 929:Generated_Source\PSoC5/CyDmac.c ****         /* Set source address */
 930:Generated_Source\PSoC5/CyDmac.c ****         convert = (reg16 *) &CY_DMA_TDMEM_STRUCT_PTR[tdHandle].TD1[0u];
 1093              		.loc 1 930 0
 1094 0006 C000     		lsls	r0, r0, #3
 1095              	.LVL123:
 1096 0008 00F18040 		add	r0, r0, #1073741824
 1097 000c 00F5F040 		add	r0, r0, #30720
 1098              	.LVL124:
 931:Generated_Source\PSoC5/CyDmac.c ****         CY_SET_REG16(convert, source);
ARM GAS  C:\Users\antarp\AppData\Local\Temp\ccWfKDCN.s 			page 37


 1099              		.loc 1 931 0
 1100 0010 8180     		strh	r1, [r0, #4]	@ movhi
 1101              	.LVL125:
 932:Generated_Source\PSoC5/CyDmac.c **** 
 933:Generated_Source\PSoC5/CyDmac.c ****         /* Set destination address */
 934:Generated_Source\PSoC5/CyDmac.c ****         convert = (reg16 *) &CY_DMA_TDMEM_STRUCT_PTR[tdHandle].TD1[2u];
 935:Generated_Source\PSoC5/CyDmac.c ****         CY_SET_REG16(convert, destination);
 1102              		.loc 1 935 0
 1103 0012 C280     		strh	r2, [r0, #6]	@ movhi
 1104              	.LVL126:
 936:Generated_Source\PSoC5/CyDmac.c **** 
 937:Generated_Source\PSoC5/CyDmac.c ****         status = CYRET_SUCCESS;
 1105              		.loc 1 937 0
 1106 0014 0020     		movs	r0, #0
 1107              	.LVL127:
 1108 0016 7047     		bx	lr
 1109              	.LVL128:
 1110              	.L116:
 924:Generated_Source\PSoC5/CyDmac.c ****     reg16 *convert;
 1111              		.loc 1 924 0
 1112 0018 0120     		movs	r0, #1
 1113              	.LVL129:
 938:Generated_Source\PSoC5/CyDmac.c ****     }
 939:Generated_Source\PSoC5/CyDmac.c **** 
 940:Generated_Source\PSoC5/CyDmac.c ****     return(status);
 941:Generated_Source\PSoC5/CyDmac.c **** }
 1114              		.loc 1 941 0
 1115 001a 7047     		bx	lr
 1116              		.cfi_endproc
 1117              	.LFE21:
 1118              		.size	CyDmaTdSetAddress, .-CyDmaTdSetAddress
 1119              		.section	.text.CyDmaTdGetAddress,"ax",%progbits
 1120              		.align	2
 1121              		.global	CyDmaTdGetAddress
 1122              		.thumb
 1123              		.thumb_func
 1124              		.type	CyDmaTdGetAddress, %function
 1125              	CyDmaTdGetAddress:
 1126              	.LFB22:
 942:Generated_Source\PSoC5/CyDmac.c **** 
 943:Generated_Source\PSoC5/CyDmac.c **** 
 944:Generated_Source\PSoC5/CyDmac.c **** /*******************************************************************************
 945:Generated_Source\PSoC5/CyDmac.c **** * Function Name: CyDmaTdGetAddress
 946:Generated_Source\PSoC5/CyDmac.c **** ****************************************************************************//**
 947:Generated_Source\PSoC5/CyDmac.c **** *
 948:Generated_Source\PSoC5/CyDmac.c **** *  Retrieves the lower 16 bits of the source and/or destination addresses for
 949:Generated_Source\PSoC5/CyDmac.c **** *  this TD only. If NULL is passed for a pointer parameter, that value is
 950:Generated_Source\PSoC5/CyDmac.c **** *  skipped. You may request only the values of interest.
 951:Generated_Source\PSoC5/CyDmac.c **** *
 952:Generated_Source\PSoC5/CyDmac.c **** *  \param uint8 tdHandle:
 953:Generated_Source\PSoC5/CyDmac.c **** *   A handle previously returned by CyDmaTdAlloc().
 954:Generated_Source\PSoC5/CyDmac.c **** *
 955:Generated_Source\PSoC5/CyDmac.c **** *  \param uint16 * source:
 956:Generated_Source\PSoC5/CyDmac.c **** *   The address to store the lower 16 address bits of the source of the data
 957:Generated_Source\PSoC5/CyDmac.c **** *   transfer.
 958:Generated_Source\PSoC5/CyDmac.c **** *
 959:Generated_Source\PSoC5/CyDmac.c **** *  \param uint16 * destination:
ARM GAS  C:\Users\antarp\AppData\Local\Temp\ccWfKDCN.s 			page 38


 960:Generated_Source\PSoC5/CyDmac.c **** *   The address to store the lower 16 address bits of the destination of the
 961:Generated_Source\PSoC5/CyDmac.c **** *   data transfer.
 962:Generated_Source\PSoC5/CyDmac.c **** *
 963:Generated_Source\PSoC5/CyDmac.c **** * \return
 964:Generated_Source\PSoC5/CyDmac.c **** *  CYRET_SUCCESS if successful.
 965:Generated_Source\PSoC5/CyDmac.c **** *  CYRET_BAD_PARAM if tdHandle is invalid.
 966:Generated_Source\PSoC5/CyDmac.c **** *
 967:Generated_Source\PSoC5/CyDmac.c **** *******************************************************************************/
 968:Generated_Source\PSoC5/CyDmac.c **** cystatus CyDmaTdGetAddress(uint8 tdHandle, uint16 * source, uint16 * destination) 
 969:Generated_Source\PSoC5/CyDmac.c **** {
 1127              		.loc 1 969 0
 1128              		.cfi_startproc
 1129              		@ args = 0, pretend = 0, frame = 0
 1130              		@ frame_needed = 0, uses_anonymous_args = 0
 1131              		@ link register save eliminated.
 1132              	.LVL130:
 970:Generated_Source\PSoC5/CyDmac.c ****     cystatus status = CYRET_BAD_PARAM;
 971:Generated_Source\PSoC5/CyDmac.c ****     reg16 *convert;
 972:Generated_Source\PSoC5/CyDmac.c **** 
 973:Generated_Source\PSoC5/CyDmac.c ****     if(tdHandle < CY_DMA_NUMBEROF_TDS)
 1133              		.loc 1 973 0
 1134 0000 10F0800F 		tst	r0, #128
 1135 0004 11D1     		bne	.L120
 974:Generated_Source\PSoC5/CyDmac.c ****     {
 975:Generated_Source\PSoC5/CyDmac.c ****         /* If we have a pointer. */
 976:Generated_Source\PSoC5/CyDmac.c ****         if(NULL != source)
 1136              		.loc 1 976 0
 1137 0006 31B1     		cbz	r1, .L119
 977:Generated_Source\PSoC5/CyDmac.c ****         {
 978:Generated_Source\PSoC5/CyDmac.c ****             /* Get source address */
 979:Generated_Source\PSoC5/CyDmac.c ****             convert = (reg16 *) &CY_DMA_TDMEM_STRUCT_PTR[tdHandle].TD1[0u];
 1138              		.loc 1 979 0
 1139 0008 C300     		lsls	r3, r0, #3
 1140 000a 03F18043 		add	r3, r3, #1073741824
 1141 000e 03F5F043 		add	r3, r3, #30720
 1142              	.LVL131:
 980:Generated_Source\PSoC5/CyDmac.c ****             *source = CY_GET_REG16(convert);
 1143              		.loc 1 980 0
 1144 0012 9B88     		ldrh	r3, [r3, #4]
 1145              	.LVL132:
 1146 0014 0B80     		strh	r3, [r1]	@ movhi
 1147              	.LVL133:
 1148              	.L119:
 981:Generated_Source\PSoC5/CyDmac.c ****         }
 982:Generated_Source\PSoC5/CyDmac.c **** 
 983:Generated_Source\PSoC5/CyDmac.c ****         /* If we have a pointer. */
 984:Generated_Source\PSoC5/CyDmac.c ****         if(NULL != destination)
 1149              		.loc 1 984 0
 1150 0016 52B1     		cbz	r2, .L121
 985:Generated_Source\PSoC5/CyDmac.c ****         {
 986:Generated_Source\PSoC5/CyDmac.c ****             /* Get Destination address. */
 987:Generated_Source\PSoC5/CyDmac.c ****             convert = (reg16 *) &CY_DMA_TDMEM_STRUCT_PTR[tdHandle].TD1[2u];
 1151              		.loc 1 987 0
 1152 0018 C000     		lsls	r0, r0, #3
 1153              	.LVL134:
 1154 001a 00F18040 		add	r0, r0, #1073741824
 1155 001e 00F5F040 		add	r0, r0, #30720
ARM GAS  C:\Users\antarp\AppData\Local\Temp\ccWfKDCN.s 			page 39


 1156              	.LVL135:
 988:Generated_Source\PSoC5/CyDmac.c ****             *destination = CY_GET_REG16(convert);
 1157              		.loc 1 988 0
 1158 0022 C388     		ldrh	r3, [r0, #6]
 1159 0024 1380     		strh	r3, [r2]	@ movhi
 989:Generated_Source\PSoC5/CyDmac.c ****         }
 990:Generated_Source\PSoC5/CyDmac.c **** 
 991:Generated_Source\PSoC5/CyDmac.c ****         status = CYRET_SUCCESS;
 1160              		.loc 1 991 0
 1161 0026 0020     		movs	r0, #0
 1162              	.LVL136:
 1163 0028 7047     		bx	lr
 1164              	.LVL137:
 1165              	.L120:
 970:Generated_Source\PSoC5/CyDmac.c ****     reg16 *convert;
 1166              		.loc 1 970 0
 1167 002a 0120     		movs	r0, #1
 1168              	.LVL138:
 1169 002c 7047     		bx	lr
 1170              	.LVL139:
 1171              	.L121:
 1172              		.loc 1 991 0
 1173 002e 0020     		movs	r0, #0
 1174              	.LVL140:
 992:Generated_Source\PSoC5/CyDmac.c ****     }
 993:Generated_Source\PSoC5/CyDmac.c **** 
 994:Generated_Source\PSoC5/CyDmac.c ****     return(status);
 995:Generated_Source\PSoC5/CyDmac.c **** }
 1175              		.loc 1 995 0
 1176 0030 7047     		bx	lr
 1177              		.cfi_endproc
 1178              	.LFE22:
 1179              		.size	CyDmaTdGetAddress, .-CyDmaTdGetAddress
 1180 0032 00BF     		.section	.text.CyDmaChRoundRobin,"ax",%progbits
 1181              		.align	2
 1182              		.global	CyDmaChRoundRobin
 1183              		.thumb
 1184              		.thumb_func
 1185              		.type	CyDmaChRoundRobin, %function
 1186              	CyDmaChRoundRobin:
 1187              	.LFB23:
 996:Generated_Source\PSoC5/CyDmac.c **** 
 997:Generated_Source\PSoC5/CyDmac.c **** 
 998:Generated_Source\PSoC5/CyDmac.c **** /*******************************************************************************
 999:Generated_Source\PSoC5/CyDmac.c **** * Function Name: CyDmaChRoundRobin
1000:Generated_Source\PSoC5/CyDmac.c **** ****************************************************************************//**
1001:Generated_Source\PSoC5/CyDmac.c **** *
1002:Generated_Source\PSoC5/CyDmac.c **** * Either enables or disables the Round-Robin scheduling enforcement algorithm.
1003:Generated_Source\PSoC5/CyDmac.c **** * Within a priority level a Round-Robin fairness algorithm is enforced.
1004:Generated_Source\PSoC5/CyDmac.c **** *
1005:Generated_Source\PSoC5/CyDmac.c **** * \param uint8 chHandle:
1006:Generated_Source\PSoC5/CyDmac.c **** *  A handle previously returned by CyDmaChAlloc() or Dma_DmaInitialize().
1007:Generated_Source\PSoC5/CyDmac.c **** *
1008:Generated_Source\PSoC5/CyDmac.c **** * \param uint8 enableRR:
1009:Generated_Source\PSoC5/CyDmac.c **** *  \param 0: Disable Round-Robin fairness algorithm
1010:Generated_Source\PSoC5/CyDmac.c **** *  \param 1: Enable Round-Robin fairness algorithm
1011:Generated_Source\PSoC5/CyDmac.c **** *
ARM GAS  C:\Users\antarp\AppData\Local\Temp\ccWfKDCN.s 			page 40


1012:Generated_Source\PSoC5/CyDmac.c **** * \return
1013:Generated_Source\PSoC5/CyDmac.c **** * CYRET_SUCCESS if successful.
1014:Generated_Source\PSoC5/CyDmac.c **** * CYRET_BAD_PARAM if chHandle is invalid.
1015:Generated_Source\PSoC5/CyDmac.c **** *
1016:Generated_Source\PSoC5/CyDmac.c **** *******************************************************************************/
1017:Generated_Source\PSoC5/CyDmac.c **** cystatus CyDmaChRoundRobin(uint8 chHandle, uint8 enableRR) 
1018:Generated_Source\PSoC5/CyDmac.c **** {
 1188              		.loc 1 1018 0
 1189              		.cfi_startproc
 1190              		@ args = 0, pretend = 0, frame = 0
 1191              		@ frame_needed = 0, uses_anonymous_args = 0
 1192              		@ link register save eliminated.
 1193              	.LVL141:
1019:Generated_Source\PSoC5/CyDmac.c ****     cystatus status = CYRET_BAD_PARAM;
1020:Generated_Source\PSoC5/CyDmac.c **** 
1021:Generated_Source\PSoC5/CyDmac.c ****     if(chHandle < CY_DMA_NUMBEROF_CHANNELS)
 1194              		.loc 1 1021 0
 1195 0000 1728     		cmp	r0, #23
 1196 0002 10D8     		bhi	.L125
1022:Generated_Source\PSoC5/CyDmac.c ****     {
1023:Generated_Source\PSoC5/CyDmac.c ****         if (0u != enableRR)
 1197              		.loc 1 1023 0
 1198 0004 39B1     		cbz	r1, .L124
1024:Generated_Source\PSoC5/CyDmac.c ****         {
1025:Generated_Source\PSoC5/CyDmac.c ****             CY_DMA_CH_STRUCT_PTR[chHandle].basic_cfg[0u] |= (uint8)CY_DMA_ROUND_ROBIN_ENABLE;
 1199              		.loc 1 1025 0
 1200 0006 0001     		lsls	r0, r0, #4
 1201              	.LVL142:
 1202 0008 084A     		ldr	r2, .L126
 1203 000a 835C     		ldrb	r3, [r0, r2]	@ zero_extendqisi2
 1204 000c 43F01003 		orr	r3, r3, #16
 1205 0010 8354     		strb	r3, [r0, r2]
1026:Generated_Source\PSoC5/CyDmac.c ****         }
1027:Generated_Source\PSoC5/CyDmac.c ****         else
1028:Generated_Source\PSoC5/CyDmac.c ****         {
1029:Generated_Source\PSoC5/CyDmac.c ****             CY_DMA_CH_STRUCT_PTR[chHandle].basic_cfg[0u] &= (uint8)(~CY_DMA_ROUND_ROBIN_ENABLE);
1030:Generated_Source\PSoC5/CyDmac.c ****         }
1031:Generated_Source\PSoC5/CyDmac.c **** 
1032:Generated_Source\PSoC5/CyDmac.c ****         status = CYRET_SUCCESS;
 1206              		.loc 1 1032 0
 1207 0012 0020     		movs	r0, #0
 1208 0014 7047     		bx	lr
 1209              	.LVL143:
 1210              	.L124:
1029:Generated_Source\PSoC5/CyDmac.c ****         }
 1211              		.loc 1 1029 0
 1212 0016 0001     		lsls	r0, r0, #4
 1213              	.LVL144:
 1214 0018 044A     		ldr	r2, .L126
 1215 001a 835C     		ldrb	r3, [r0, r2]	@ zero_extendqisi2
 1216 001c 03F0EF03 		and	r3, r3, #239
 1217 0020 8354     		strb	r3, [r0, r2]
 1218              		.loc 1 1032 0
 1219 0022 0020     		movs	r0, #0
 1220 0024 7047     		bx	lr
 1221              	.LVL145:
 1222              	.L125:
ARM GAS  C:\Users\antarp\AppData\Local\Temp\ccWfKDCN.s 			page 41


1019:Generated_Source\PSoC5/CyDmac.c **** 
 1223              		.loc 1 1019 0
 1224 0026 0120     		movs	r0, #1
 1225              	.LVL146:
1033:Generated_Source\PSoC5/CyDmac.c ****     }
1034:Generated_Source\PSoC5/CyDmac.c **** 
1035:Generated_Source\PSoC5/CyDmac.c ****     return(status);
1036:Generated_Source\PSoC5/CyDmac.c **** }
 1226              		.loc 1 1036 0
 1227 0028 7047     		bx	lr
 1228              	.L127:
 1229 002a 00BF     		.align	2
 1230              	.L126:
 1231 002c 10700040 		.word	1073770512
 1232              		.cfi_endproc
 1233              	.LFE23:
 1234              		.size	CyDmaChRoundRobin, .-CyDmaChRoundRobin
 1235              		.data
 1236              		.set	.LANCHOR0,. + 0
 1237              		.type	CyDmaTdFreeIndex, %object
 1238              		.size	CyDmaTdFreeIndex, 1
 1239              	CyDmaTdFreeIndex:
 1240 0000 7F       		.byte	127
 1241              		.type	CyDmaTdCurrentNumber, %object
 1242              		.size	CyDmaTdCurrentNumber, 1
 1243              	CyDmaTdCurrentNumber:
 1244 0001 80       		.byte	-128
 1245              		.bss
 1246              		.align	2
 1247              		.set	.LANCHOR1,. + 0
 1248              		.type	CyDmaChannels, %object
 1249              		.size	CyDmaChannels, 4
 1250              	CyDmaChannels:
 1251 0000 00000000 		.space	4
 1252              		.text
 1253              	.Letext0:
 1254              		.file 2 "Generated_Source\\PSoC5\\cytypes.h"
 1255              		.file 3 "Generated_Source\\PSoC5\\CyDmac.h"
 1256              		.file 4 "Generated_Source\\PSoC5\\CyLib.h"
