ARM GAS  C:\Users\antarp\AppData\Local\Temp\cceqIFkS.s 			page 1


   1              		.syntax unified
   2              		.cpu cortex-m3
   3              		.fpu softvfp
   4              		.eabi_attribute 20, 1
   5              		.eabi_attribute 21, 1
   6              		.eabi_attribute 23, 3
   7              		.eabi_attribute 24, 1
   8              		.eabi_attribute 25, 1
   9              		.eabi_attribute 26, 1
  10              		.eabi_attribute 30, 1
  11              		.eabi_attribute 34, 1
  12              		.eabi_attribute 18, 4
  13              		.thumb
  14              		.syntax unified
  15              		.file	"LCD.c"
  16              		.text
  17              	.Ltext0:
  18              		.cfi_sections	.debug_frame
  19              		.section	.text.LCD_WrCntrlNib,"ax",%progbits
  20              		.align	2
  21              		.thumb
  22              		.thumb_func
  23              		.type	LCD_WrCntrlNib, %function
  24              	LCD_WrCntrlNib:
  25              	.LFB11:
  26              		.file 1 "Generated_Source\\PSoC5\\LCD.c"
   1:Generated_Source\PSoC5/LCD.c **** /*******************************************************************************
   2:Generated_Source\PSoC5/LCD.c **** * File Name: LCD.c
   3:Generated_Source\PSoC5/LCD.c **** * Version 2.20
   4:Generated_Source\PSoC5/LCD.c **** *
   5:Generated_Source\PSoC5/LCD.c **** * Description:
   6:Generated_Source\PSoC5/LCD.c **** *  This file provides source code for the Character LCD component's API.
   7:Generated_Source\PSoC5/LCD.c **** *
   8:Generated_Source\PSoC5/LCD.c **** * Note:
   9:Generated_Source\PSoC5/LCD.c **** *
  10:Generated_Source\PSoC5/LCD.c **** ********************************************************************************
  11:Generated_Source\PSoC5/LCD.c **** * Copyright 2008-2014, Cypress Semiconductor Corporation.  All rights reserved.
  12:Generated_Source\PSoC5/LCD.c **** * You may use this file only in accordance with the license, terms, conditions,
  13:Generated_Source\PSoC5/LCD.c **** * disclaimers, and limitations in the end user license agreement accompanying
  14:Generated_Source\PSoC5/LCD.c **** * the software package with which this file was provided.
  15:Generated_Source\PSoC5/LCD.c **** *******************************************************************************/
  16:Generated_Source\PSoC5/LCD.c **** 
  17:Generated_Source\PSoC5/LCD.c **** #include "CyLib.h"
  18:Generated_Source\PSoC5/LCD.c **** #include "LCD.h"
  19:Generated_Source\PSoC5/LCD.c **** 
  20:Generated_Source\PSoC5/LCD.c **** 
  21:Generated_Source\PSoC5/LCD.c **** static void LCD_WrDatNib(uint8 nibble) ;
  22:Generated_Source\PSoC5/LCD.c **** static void LCD_WrCntrlNib(uint8 nibble) ;
  23:Generated_Source\PSoC5/LCD.c **** 
  24:Generated_Source\PSoC5/LCD.c **** /* Stores state of component. Indicates whether component is or not
  25:Generated_Source\PSoC5/LCD.c **** * in enable state.
  26:Generated_Source\PSoC5/LCD.c **** */
  27:Generated_Source\PSoC5/LCD.c **** uint8 LCD_enableState = 0u;
  28:Generated_Source\PSoC5/LCD.c **** 
  29:Generated_Source\PSoC5/LCD.c **** uint8 LCD_initVar = 0u;
  30:Generated_Source\PSoC5/LCD.c **** 
  31:Generated_Source\PSoC5/LCD.c **** 
ARM GAS  C:\Users\antarp\AppData\Local\Temp\cceqIFkS.s 			page 2


  32:Generated_Source\PSoC5/LCD.c **** /*******************************************************************************
  33:Generated_Source\PSoC5/LCD.c **** * Function Name: LCD_Init
  34:Generated_Source\PSoC5/LCD.c **** ********************************************************************************
  35:Generated_Source\PSoC5/LCD.c **** *
  36:Generated_Source\PSoC5/LCD.c **** * Summary:
  37:Generated_Source\PSoC5/LCD.c **** *  Performs initialization required for the components normal work.
  38:Generated_Source\PSoC5/LCD.c **** *  This function initializes the LCD hardware module as follows:
  39:Generated_Source\PSoC5/LCD.c **** *        Enables a 4-bit interface
  40:Generated_Source\PSoC5/LCD.c **** *        Clears the display
  41:Generated_Source\PSoC5/LCD.c **** *        Enables the auto cursor increment
  42:Generated_Source\PSoC5/LCD.c **** *        Resets the cursor to start position
  43:Generated_Source\PSoC5/LCD.c **** *  Also, it loads a custom character set to the LCD if it was defined in the customizer.
  44:Generated_Source\PSoC5/LCD.c **** *
  45:Generated_Source\PSoC5/LCD.c **** * Parameters:
  46:Generated_Source\PSoC5/LCD.c **** *  None.
  47:Generated_Source\PSoC5/LCD.c **** *
  48:Generated_Source\PSoC5/LCD.c **** * Return:
  49:Generated_Source\PSoC5/LCD.c **** *  None.
  50:Generated_Source\PSoC5/LCD.c **** *
  51:Generated_Source\PSoC5/LCD.c **** * Reentrant:
  52:Generated_Source\PSoC5/LCD.c **** *  No.
  53:Generated_Source\PSoC5/LCD.c **** *
  54:Generated_Source\PSoC5/LCD.c **** *******************************************************************************/
  55:Generated_Source\PSoC5/LCD.c **** void LCD_Init(void) 
  56:Generated_Source\PSoC5/LCD.c **** {
  57:Generated_Source\PSoC5/LCD.c ****     /* INIT CODE */
  58:Generated_Source\PSoC5/LCD.c ****     CyDelay(40u);                                                        /* Delay 40 ms */
  59:Generated_Source\PSoC5/LCD.c ****     LCD_WrCntrlNib(LCD_DISPLAY_8_BIT_INIT);    /* Selects 8-bit mode */
  60:Generated_Source\PSoC5/LCD.c ****     CyDelay(5u);                                                         /* Delay 5 ms */
  61:Generated_Source\PSoC5/LCD.c ****     LCD_WrCntrlNib(LCD_DISPLAY_8_BIT_INIT);    /* Selects 8-bit mode */
  62:Generated_Source\PSoC5/LCD.c ****     CyDelay(15u);                                                        /* Delay 15 ms */
  63:Generated_Source\PSoC5/LCD.c ****     LCD_WrCntrlNib(LCD_DISPLAY_8_BIT_INIT);    /* Selects 8-bit mode */
  64:Generated_Source\PSoC5/LCD.c ****     CyDelay(1u);                                                         /* Delay 1 ms */
  65:Generated_Source\PSoC5/LCD.c ****     LCD_WrCntrlNib(LCD_DISPLAY_4_BIT_INIT);    /* Selects 4-bit mode */
  66:Generated_Source\PSoC5/LCD.c ****     CyDelay(5u);                                                         /* Delay 5 ms */
  67:Generated_Source\PSoC5/LCD.c **** 
  68:Generated_Source\PSoC5/LCD.c ****     LCD_WriteControl(LCD_CURSOR_AUTO_INCR_ON);    /* Incr Cursor After Writes */
  69:Generated_Source\PSoC5/LCD.c ****     LCD_WriteControl(LCD_DISPLAY_CURSOR_ON);      /* Turn Display, Cursor ON */
  70:Generated_Source\PSoC5/LCD.c ****     LCD_WriteControl(LCD_DISPLAY_2_LINES_5x10);   /* 2 Lines by 5x10 Characters */
  71:Generated_Source\PSoC5/LCD.c ****     LCD_WriteControl(LCD_DISPLAY_CURSOR_OFF);     /* Turn Display, Cursor OFF */
  72:Generated_Source\PSoC5/LCD.c ****     LCD_WriteControl(LCD_CLEAR_DISPLAY);          /* Clear LCD Screen */
  73:Generated_Source\PSoC5/LCD.c ****     LCD_WriteControl(LCD_DISPLAY_ON_CURSOR_OFF);  /* Turn Display ON, Cursor OFF */
  74:Generated_Source\PSoC5/LCD.c ****     LCD_WriteControl(LCD_RESET_CURSOR_POSITION);  /* Set Cursor to 0,0 */
  75:Generated_Source\PSoC5/LCD.c ****     CyDelay(5u);
  76:Generated_Source\PSoC5/LCD.c **** 
  77:Generated_Source\PSoC5/LCD.c ****     #if(LCD_CUSTOM_CHAR_SET != LCD_NONE)
  78:Generated_Source\PSoC5/LCD.c ****         LCD_LoadCustomFonts(LCD_customFonts);
  79:Generated_Source\PSoC5/LCD.c ****     #endif /* LCD_CUSTOM_CHAR_SET != LCD_NONE */
  80:Generated_Source\PSoC5/LCD.c **** }
  81:Generated_Source\PSoC5/LCD.c **** 
  82:Generated_Source\PSoC5/LCD.c **** 
  83:Generated_Source\PSoC5/LCD.c **** /*******************************************************************************
  84:Generated_Source\PSoC5/LCD.c **** * Function Name: LCD_Enable
  85:Generated_Source\PSoC5/LCD.c **** ********************************************************************************
  86:Generated_Source\PSoC5/LCD.c **** *
  87:Generated_Source\PSoC5/LCD.c **** * Summary:
  88:Generated_Source\PSoC5/LCD.c **** *  Turns on the display.
ARM GAS  C:\Users\antarp\AppData\Local\Temp\cceqIFkS.s 			page 3


  89:Generated_Source\PSoC5/LCD.c **** *
  90:Generated_Source\PSoC5/LCD.c **** * Parameters:
  91:Generated_Source\PSoC5/LCD.c **** *  None.
  92:Generated_Source\PSoC5/LCD.c **** *
  93:Generated_Source\PSoC5/LCD.c **** * Return:
  94:Generated_Source\PSoC5/LCD.c **** *  None.
  95:Generated_Source\PSoC5/LCD.c **** *
  96:Generated_Source\PSoC5/LCD.c **** * Reentrant:
  97:Generated_Source\PSoC5/LCD.c **** *  No.
  98:Generated_Source\PSoC5/LCD.c **** *
  99:Generated_Source\PSoC5/LCD.c **** * Theory:
 100:Generated_Source\PSoC5/LCD.c **** *  This function has no effect when it is called the first time as
 101:Generated_Source\PSoC5/LCD.c **** *  LCD_Init() turns on the LCD.
 102:Generated_Source\PSoC5/LCD.c **** *
 103:Generated_Source\PSoC5/LCD.c **** *******************************************************************************/
 104:Generated_Source\PSoC5/LCD.c **** void LCD_Enable(void) 
 105:Generated_Source\PSoC5/LCD.c **** {
 106:Generated_Source\PSoC5/LCD.c ****     LCD_DisplayOn();
 107:Generated_Source\PSoC5/LCD.c ****     LCD_enableState = 1u;
 108:Generated_Source\PSoC5/LCD.c **** }
 109:Generated_Source\PSoC5/LCD.c **** 
 110:Generated_Source\PSoC5/LCD.c **** 
 111:Generated_Source\PSoC5/LCD.c **** /*******************************************************************************
 112:Generated_Source\PSoC5/LCD.c **** * Function Name: LCD_Start
 113:Generated_Source\PSoC5/LCD.c **** ********************************************************************************
 114:Generated_Source\PSoC5/LCD.c **** *
 115:Generated_Source\PSoC5/LCD.c **** * Summary:
 116:Generated_Source\PSoC5/LCD.c **** *  Performs initialization required for the components normal work.
 117:Generated_Source\PSoC5/LCD.c **** *  This function initializes the LCD hardware module as follows:
 118:Generated_Source\PSoC5/LCD.c **** *        Enables 4-bit interface
 119:Generated_Source\PSoC5/LCD.c **** *        Clears the display
 120:Generated_Source\PSoC5/LCD.c **** *        Enables auto cursor increment
 121:Generated_Source\PSoC5/LCD.c **** *        Resets the cursor to start position
 122:Generated_Source\PSoC5/LCD.c **** *  Also, it loads a custom character set to the LCD if it was defined in the customizer.
 123:Generated_Source\PSoC5/LCD.c **** *  If it was not the first call in this project, then it just turns on the
 124:Generated_Source\PSoC5/LCD.c **** *  display
 125:Generated_Source\PSoC5/LCD.c **** *
 126:Generated_Source\PSoC5/LCD.c **** *
 127:Generated_Source\PSoC5/LCD.c **** * Parameters:
 128:Generated_Source\PSoC5/LCD.c **** *  LCD_initVar - global variable.
 129:Generated_Source\PSoC5/LCD.c **** *
 130:Generated_Source\PSoC5/LCD.c **** * Return:
 131:Generated_Source\PSoC5/LCD.c **** *  LCD_initVar - global variable.
 132:Generated_Source\PSoC5/LCD.c **** *
 133:Generated_Source\PSoC5/LCD.c **** * Reentrant:
 134:Generated_Source\PSoC5/LCD.c **** *  No.
 135:Generated_Source\PSoC5/LCD.c **** *
 136:Generated_Source\PSoC5/LCD.c **** *******************************************************************************/
 137:Generated_Source\PSoC5/LCD.c **** void LCD_Start(void) 
 138:Generated_Source\PSoC5/LCD.c **** {
 139:Generated_Source\PSoC5/LCD.c ****     /* If not initialized, perform initialization */
 140:Generated_Source\PSoC5/LCD.c ****     if(LCD_initVar == 0u)
 141:Generated_Source\PSoC5/LCD.c ****     {
 142:Generated_Source\PSoC5/LCD.c ****         LCD_Init();
 143:Generated_Source\PSoC5/LCD.c ****         LCD_initVar = 1u;
 144:Generated_Source\PSoC5/LCD.c ****     }
 145:Generated_Source\PSoC5/LCD.c **** 
ARM GAS  C:\Users\antarp\AppData\Local\Temp\cceqIFkS.s 			page 4


 146:Generated_Source\PSoC5/LCD.c ****     /* Turn on the LCD */
 147:Generated_Source\PSoC5/LCD.c ****     LCD_Enable();
 148:Generated_Source\PSoC5/LCD.c **** }
 149:Generated_Source\PSoC5/LCD.c **** 
 150:Generated_Source\PSoC5/LCD.c **** 
 151:Generated_Source\PSoC5/LCD.c **** /*******************************************************************************
 152:Generated_Source\PSoC5/LCD.c **** * Function Name: LCD_Stop
 153:Generated_Source\PSoC5/LCD.c **** ********************************************************************************
 154:Generated_Source\PSoC5/LCD.c **** *
 155:Generated_Source\PSoC5/LCD.c **** * Summary:
 156:Generated_Source\PSoC5/LCD.c **** *  Turns off the display of the LCD screen.
 157:Generated_Source\PSoC5/LCD.c **** *
 158:Generated_Source\PSoC5/LCD.c **** * Parameters:
 159:Generated_Source\PSoC5/LCD.c **** *  None.
 160:Generated_Source\PSoC5/LCD.c **** *
 161:Generated_Source\PSoC5/LCD.c **** * Return:
 162:Generated_Source\PSoC5/LCD.c **** *  None.
 163:Generated_Source\PSoC5/LCD.c **** *
 164:Generated_Source\PSoC5/LCD.c **** * Reentrant:
 165:Generated_Source\PSoC5/LCD.c **** *  No.
 166:Generated_Source\PSoC5/LCD.c **** *
 167:Generated_Source\PSoC5/LCD.c **** *******************************************************************************/
 168:Generated_Source\PSoC5/LCD.c **** void LCD_Stop(void) 
 169:Generated_Source\PSoC5/LCD.c **** {
 170:Generated_Source\PSoC5/LCD.c ****     /* Calls LCD Off Macro */
 171:Generated_Source\PSoC5/LCD.c ****     LCD_DisplayOff();
 172:Generated_Source\PSoC5/LCD.c ****     LCD_enableState = 0u;
 173:Generated_Source\PSoC5/LCD.c **** }
 174:Generated_Source\PSoC5/LCD.c **** 
 175:Generated_Source\PSoC5/LCD.c **** 
 176:Generated_Source\PSoC5/LCD.c **** /*******************************************************************************
 177:Generated_Source\PSoC5/LCD.c **** *  Function Name: LCD_Position
 178:Generated_Source\PSoC5/LCD.c **** ********************************************************************************
 179:Generated_Source\PSoC5/LCD.c **** *
 180:Generated_Source\PSoC5/LCD.c **** * Summary:
 181:Generated_Source\PSoC5/LCD.c **** *  Moves the active cursor location to a point specified by the input arguments
 182:Generated_Source\PSoC5/LCD.c **** *
 183:Generated_Source\PSoC5/LCD.c **** * Parameters:
 184:Generated_Source\PSoC5/LCD.c **** *  row:    Specific row of LCD module to be written
 185:Generated_Source\PSoC5/LCD.c **** *  column: Column of LCD module to be written
 186:Generated_Source\PSoC5/LCD.c **** *
 187:Generated_Source\PSoC5/LCD.c **** * Return:
 188:Generated_Source\PSoC5/LCD.c **** *  None.
 189:Generated_Source\PSoC5/LCD.c **** *
 190:Generated_Source\PSoC5/LCD.c **** * Note:
 191:Generated_Source\PSoC5/LCD.c **** *  This only applies for LCD displays that use the 2X40 address mode.
 192:Generated_Source\PSoC5/LCD.c **** *  In this case Row 2 starts with a 0x28 offset from Row 1.
 193:Generated_Source\PSoC5/LCD.c **** *  When there are more than 2 rows, each row must be fewer than 20 characters.
 194:Generated_Source\PSoC5/LCD.c **** *
 195:Generated_Source\PSoC5/LCD.c **** *******************************************************************************/
 196:Generated_Source\PSoC5/LCD.c **** void LCD_Position(uint8 row, uint8 column) 
 197:Generated_Source\PSoC5/LCD.c **** {
 198:Generated_Source\PSoC5/LCD.c ****     switch (row)
 199:Generated_Source\PSoC5/LCD.c ****     {
 200:Generated_Source\PSoC5/LCD.c ****         case (uint8)0:
 201:Generated_Source\PSoC5/LCD.c ****             LCD_WriteControl(LCD_ROW_0_START + column);
 202:Generated_Source\PSoC5/LCD.c ****             break;
ARM GAS  C:\Users\antarp\AppData\Local\Temp\cceqIFkS.s 			page 5


 203:Generated_Source\PSoC5/LCD.c ****         case (uint8) 1:
 204:Generated_Source\PSoC5/LCD.c ****             LCD_WriteControl(LCD_ROW_1_START + column);
 205:Generated_Source\PSoC5/LCD.c ****             break;
 206:Generated_Source\PSoC5/LCD.c ****         case (uint8) 2:
 207:Generated_Source\PSoC5/LCD.c ****             LCD_WriteControl(LCD_ROW_2_START + column);
 208:Generated_Source\PSoC5/LCD.c ****             break;
 209:Generated_Source\PSoC5/LCD.c ****         case (uint8) 3:
 210:Generated_Source\PSoC5/LCD.c ****             LCD_WriteControl(LCD_ROW_3_START + column);
 211:Generated_Source\PSoC5/LCD.c ****             break;
 212:Generated_Source\PSoC5/LCD.c ****         default:
 213:Generated_Source\PSoC5/LCD.c ****             /* if default case is hit, invalid row argument was passed.*/
 214:Generated_Source\PSoC5/LCD.c ****             break;
 215:Generated_Source\PSoC5/LCD.c ****     }
 216:Generated_Source\PSoC5/LCD.c **** }
 217:Generated_Source\PSoC5/LCD.c **** 
 218:Generated_Source\PSoC5/LCD.c **** 
 219:Generated_Source\PSoC5/LCD.c **** /*******************************************************************************
 220:Generated_Source\PSoC5/LCD.c **** * Function Name: LCD_PrintString
 221:Generated_Source\PSoC5/LCD.c **** ********************************************************************************
 222:Generated_Source\PSoC5/LCD.c **** *
 223:Generated_Source\PSoC5/LCD.c **** * Summary:
 224:Generated_Source\PSoC5/LCD.c **** *  Writes a zero terminated string to the LCD.
 225:Generated_Source\PSoC5/LCD.c **** *
 226:Generated_Source\PSoC5/LCD.c **** * Parameters:
 227:Generated_Source\PSoC5/LCD.c **** *  string: Pointer to head of char8 array to be written to the LCD module
 228:Generated_Source\PSoC5/LCD.c **** *
 229:Generated_Source\PSoC5/LCD.c **** * Return:
 230:Generated_Source\PSoC5/LCD.c **** *  None.
 231:Generated_Source\PSoC5/LCD.c **** *
 232:Generated_Source\PSoC5/LCD.c **** *******************************************************************************/
 233:Generated_Source\PSoC5/LCD.c **** void LCD_PrintString(char8 const string[]) 
 234:Generated_Source\PSoC5/LCD.c **** {
 235:Generated_Source\PSoC5/LCD.c ****     uint8 indexU8 = 1u;
 236:Generated_Source\PSoC5/LCD.c ****     char8 current = *string;
 237:Generated_Source\PSoC5/LCD.c **** 
 238:Generated_Source\PSoC5/LCD.c ****     /* Until null is reached, print next character */
 239:Generated_Source\PSoC5/LCD.c ****     while((char8) '\0' != current)
 240:Generated_Source\PSoC5/LCD.c ****     {
 241:Generated_Source\PSoC5/LCD.c ****         LCD_WriteData((uint8)current);
 242:Generated_Source\PSoC5/LCD.c ****         current = string[indexU8];
 243:Generated_Source\PSoC5/LCD.c ****         indexU8++;
 244:Generated_Source\PSoC5/LCD.c ****     }
 245:Generated_Source\PSoC5/LCD.c **** }
 246:Generated_Source\PSoC5/LCD.c **** 
 247:Generated_Source\PSoC5/LCD.c **** 
 248:Generated_Source\PSoC5/LCD.c **** /*******************************************************************************
 249:Generated_Source\PSoC5/LCD.c **** *  Function Name: LCD_PutChar
 250:Generated_Source\PSoC5/LCD.c **** ********************************************************************************
 251:Generated_Source\PSoC5/LCD.c **** *
 252:Generated_Source\PSoC5/LCD.c **** * Summary:
 253:Generated_Source\PSoC5/LCD.c **** *  Writes a single character to the current cursor position of the LCD module.
 254:Generated_Source\PSoC5/LCD.c **** *  Custom character names (_CUSTOM_0 through
 255:Generated_Source\PSoC5/LCD.c **** *  _CUSTOM_7) are acceptable as inputs.
 256:Generated_Source\PSoC5/LCD.c **** *
 257:Generated_Source\PSoC5/LCD.c **** * Parameters:
 258:Generated_Source\PSoC5/LCD.c **** *  character: Character to be written to LCD
 259:Generated_Source\PSoC5/LCD.c **** *
ARM GAS  C:\Users\antarp\AppData\Local\Temp\cceqIFkS.s 			page 6


 260:Generated_Source\PSoC5/LCD.c **** * Return:
 261:Generated_Source\PSoC5/LCD.c **** *  None.
 262:Generated_Source\PSoC5/LCD.c **** *
 263:Generated_Source\PSoC5/LCD.c **** *******************************************************************************/
 264:Generated_Source\PSoC5/LCD.c **** void LCD_PutChar(char8 character) 
 265:Generated_Source\PSoC5/LCD.c **** {
 266:Generated_Source\PSoC5/LCD.c ****     LCD_WriteData((uint8)character);
 267:Generated_Source\PSoC5/LCD.c **** }
 268:Generated_Source\PSoC5/LCD.c **** 
 269:Generated_Source\PSoC5/LCD.c **** 
 270:Generated_Source\PSoC5/LCD.c **** /*******************************************************************************
 271:Generated_Source\PSoC5/LCD.c **** *  Function Name: LCD_WriteData
 272:Generated_Source\PSoC5/LCD.c **** ********************************************************************************
 273:Generated_Source\PSoC5/LCD.c **** *
 274:Generated_Source\PSoC5/LCD.c **** * Summary:
 275:Generated_Source\PSoC5/LCD.c **** *  Writes a data byte to the LCD module's Data Display RAM.
 276:Generated_Source\PSoC5/LCD.c **** *
 277:Generated_Source\PSoC5/LCD.c **** * Parameters:
 278:Generated_Source\PSoC5/LCD.c **** *  dByte: Byte to be written to the LCD module
 279:Generated_Source\PSoC5/LCD.c **** *
 280:Generated_Source\PSoC5/LCD.c **** * Return:
 281:Generated_Source\PSoC5/LCD.c **** *  None.
 282:Generated_Source\PSoC5/LCD.c **** *
 283:Generated_Source\PSoC5/LCD.c **** *******************************************************************************/
 284:Generated_Source\PSoC5/LCD.c **** void LCD_WriteData(uint8 dByte) 
 285:Generated_Source\PSoC5/LCD.c **** {
 286:Generated_Source\PSoC5/LCD.c ****     uint8 nibble;
 287:Generated_Source\PSoC5/LCD.c **** 
 288:Generated_Source\PSoC5/LCD.c ****     LCD_IsReady();
 289:Generated_Source\PSoC5/LCD.c ****     nibble = dByte >> LCD_NIBBLE_SHIFT;
 290:Generated_Source\PSoC5/LCD.c **** 
 291:Generated_Source\PSoC5/LCD.c ****     /* Write high nibble */
 292:Generated_Source\PSoC5/LCD.c ****     LCD_WrDatNib(nibble);
 293:Generated_Source\PSoC5/LCD.c **** 
 294:Generated_Source\PSoC5/LCD.c ****     nibble = dByte & LCD_NIBBLE_MASK;
 295:Generated_Source\PSoC5/LCD.c ****     /* Write low nibble */
 296:Generated_Source\PSoC5/LCD.c ****     LCD_WrDatNib(nibble);
 297:Generated_Source\PSoC5/LCD.c **** }
 298:Generated_Source\PSoC5/LCD.c **** 
 299:Generated_Source\PSoC5/LCD.c **** 
 300:Generated_Source\PSoC5/LCD.c **** /*******************************************************************************
 301:Generated_Source\PSoC5/LCD.c **** *  Function Name: LCD_WriteControl
 302:Generated_Source\PSoC5/LCD.c **** ********************************************************************************
 303:Generated_Source\PSoC5/LCD.c **** *
 304:Generated_Source\PSoC5/LCD.c **** * Summary:
 305:Generated_Source\PSoC5/LCD.c **** *  Writes a command byte to the LCD module.
 306:Generated_Source\PSoC5/LCD.c **** *
 307:Generated_Source\PSoC5/LCD.c **** * Parameters:
 308:Generated_Source\PSoC5/LCD.c **** *  cByte:  The byte to be written to theLCD module
 309:Generated_Source\PSoC5/LCD.c **** * 
 310:Generated_Source\PSoC5/LCD.c **** * Return:
 311:Generated_Source\PSoC5/LCD.c **** *  None.
 312:Generated_Source\PSoC5/LCD.c **** *
 313:Generated_Source\PSoC5/LCD.c **** *******************************************************************************/
 314:Generated_Source\PSoC5/LCD.c **** void LCD_WriteControl(uint8 cByte) 
 315:Generated_Source\PSoC5/LCD.c **** {
 316:Generated_Source\PSoC5/LCD.c ****     uint8 nibble;
ARM GAS  C:\Users\antarp\AppData\Local\Temp\cceqIFkS.s 			page 7


 317:Generated_Source\PSoC5/LCD.c **** 
 318:Generated_Source\PSoC5/LCD.c ****     LCD_IsReady();
 319:Generated_Source\PSoC5/LCD.c **** 
 320:Generated_Source\PSoC5/LCD.c ****     nibble = cByte >> LCD_NIBBLE_SHIFT;
 321:Generated_Source\PSoC5/LCD.c ****     
 322:Generated_Source\PSoC5/LCD.c ****     /* WrCntrlNib(High Nibble) */
 323:Generated_Source\PSoC5/LCD.c ****     LCD_WrCntrlNib(nibble);
 324:Generated_Source\PSoC5/LCD.c ****     nibble = cByte & LCD_NIBBLE_MASK;
 325:Generated_Source\PSoC5/LCD.c **** 
 326:Generated_Source\PSoC5/LCD.c ****     /* WrCntrlNib(Low Nibble) */
 327:Generated_Source\PSoC5/LCD.c ****     LCD_WrCntrlNib(nibble);
 328:Generated_Source\PSoC5/LCD.c **** }
 329:Generated_Source\PSoC5/LCD.c **** 
 330:Generated_Source\PSoC5/LCD.c **** 
 331:Generated_Source\PSoC5/LCD.c **** /*******************************************************************************
 332:Generated_Source\PSoC5/LCD.c **** * Function Name: LCD_IsReady
 333:Generated_Source\PSoC5/LCD.c **** ********************************************************************************
 334:Generated_Source\PSoC5/LCD.c **** *
 335:Generated_Source\PSoC5/LCD.c **** * Summary:
 336:Generated_Source\PSoC5/LCD.c **** *  Polls the LCD until the ready bit is set or a timeout occurs.
 337:Generated_Source\PSoC5/LCD.c **** *
 338:Generated_Source\PSoC5/LCD.c **** * Parameters:
 339:Generated_Source\PSoC5/LCD.c **** *  None.
 340:Generated_Source\PSoC5/LCD.c **** *
 341:Generated_Source\PSoC5/LCD.c **** * Return:
 342:Generated_Source\PSoC5/LCD.c **** *  None.
 343:Generated_Source\PSoC5/LCD.c **** *
 344:Generated_Source\PSoC5/LCD.c **** * Note:
 345:Generated_Source\PSoC5/LCD.c **** *  Changes the pins to High-Z.
 346:Generated_Source\PSoC5/LCD.c **** *
 347:Generated_Source\PSoC5/LCD.c **** *******************************************************************************/
 348:Generated_Source\PSoC5/LCD.c **** void LCD_IsReady(void) 
 349:Generated_Source\PSoC5/LCD.c **** {
 350:Generated_Source\PSoC5/LCD.c ****     uint8 value;
 351:Generated_Source\PSoC5/LCD.c ****     uint32 timeout;
 352:Generated_Source\PSoC5/LCD.c ****     timeout = LCD_READY_DELAY;
 353:Generated_Source\PSoC5/LCD.c **** 
 354:Generated_Source\PSoC5/LCD.c ****     /* Clear LCD port*/
 355:Generated_Source\PSoC5/LCD.c ****     LCD_PORT_DR_REG &= ((uint8)(~LCD_PORT_MASK));
 356:Generated_Source\PSoC5/LCD.c **** 
 357:Generated_Source\PSoC5/LCD.c ****     /* PSoC4 has a little different from PSoC3/5 port/pin organization for setting Drive Modes.
 358:Generated_Source\PSoC5/LCD.c ****   
 359:Generated_Source\PSoC5/LCD.c ****     */
 360:Generated_Source\PSoC5/LCD.c ****     #if (CY_PSOC4)
 361:Generated_Source\PSoC5/LCD.c ****         
 362:Generated_Source\PSoC5/LCD.c ****         /* Mask off data pins to clear old values out */
 363:Generated_Source\PSoC5/LCD.c ****         value = LCD_PORT_PC_REG & ((uint32) (~ LCD_DM_DATA_MASK));
 364:Generated_Source\PSoC5/LCD.c ****         /* Load in high Z values for data pins, others unchanged */
 365:Generated_Source\PSoC5/LCD.c ****         LCD_PORT_PC_REG = value | LCD_HIGH_Z_DATA_DM;
 366:Generated_Source\PSoC5/LCD.c **** 
 367:Generated_Source\PSoC5/LCD.c ****     #else
 368:Generated_Source\PSoC5/LCD.c ****     
 369:Generated_Source\PSoC5/LCD.c ****         /* Change Port to High-Z Status on data pins */
 370:Generated_Source\PSoC5/LCD.c **** 
 371:Generated_Source\PSoC5/LCD.c ****         /* Mask off data pins to clear old values out */
 372:Generated_Source\PSoC5/LCD.c ****         value = LCD_PORT_DM0_REG & ((uint8)(~LCD_DATA_MASK));
 373:Generated_Source\PSoC5/LCD.c ****         /* Load in high Z values for data pins, others unchanged */
ARM GAS  C:\Users\antarp\AppData\Local\Temp\cceqIFkS.s 			page 8


 374:Generated_Source\PSoC5/LCD.c ****         LCD_PORT_DM0_REG = value | (LCD_HIGH_Z_DM0 & LCD_DATA_MASK);
 375:Generated_Source\PSoC5/LCD.c **** 
 376:Generated_Source\PSoC5/LCD.c ****         /* Mask off data pins to clear old values out */
 377:Generated_Source\PSoC5/LCD.c ****         value = LCD_PORT_DM1_REG & ((uint8)(~LCD_DATA_MASK));
 378:Generated_Source\PSoC5/LCD.c ****         /* Load in high Z values for data pins, others unchanged */
 379:Generated_Source\PSoC5/LCD.c ****         LCD_PORT_DM1_REG = value;
 380:Generated_Source\PSoC5/LCD.c **** 
 381:Generated_Source\PSoC5/LCD.c ****         /* Mask off data pins to clear old values out */
 382:Generated_Source\PSoC5/LCD.c ****         value = LCD_PORT_DM2_REG & ((uint8)(~LCD_DATA_MASK));
 383:Generated_Source\PSoC5/LCD.c ****         /* Load in high Z values for data pins, others unchanged */
 384:Generated_Source\PSoC5/LCD.c ****         LCD_PORT_DM2_REG = value;
 385:Generated_Source\PSoC5/LCD.c ****     
 386:Generated_Source\PSoC5/LCD.c ****     #endif /* CY_PSOC4 */
 387:Generated_Source\PSoC5/LCD.c ****     
 388:Generated_Source\PSoC5/LCD.c ****     /* Make sure RS is low */
 389:Generated_Source\PSoC5/LCD.c ****     LCD_PORT_DR_REG &= ((uint8)(~LCD_RS));
 390:Generated_Source\PSoC5/LCD.c **** 
 391:Generated_Source\PSoC5/LCD.c ****     /* Set R/W high to read */
 392:Generated_Source\PSoC5/LCD.c ****     LCD_PORT_DR_REG |= LCD_RW;
 393:Generated_Source\PSoC5/LCD.c **** 
 394:Generated_Source\PSoC5/LCD.c ****     do
 395:Generated_Source\PSoC5/LCD.c ****     {
 396:Generated_Source\PSoC5/LCD.c ****         /* 40 ns delay required before rising Enable and 500ns between neighbour Enables */
 397:Generated_Source\PSoC5/LCD.c ****         CyDelayUs(0u);
 398:Generated_Source\PSoC5/LCD.c **** 
 399:Generated_Source\PSoC5/LCD.c ****         /* Set E high */
 400:Generated_Source\PSoC5/LCD.c ****         LCD_PORT_DR_REG |= LCD_E;
 401:Generated_Source\PSoC5/LCD.c **** 
 402:Generated_Source\PSoC5/LCD.c ****         /* 360 ns delay setup time for data pins */
 403:Generated_Source\PSoC5/LCD.c ****         CyDelayUs(1u);
 404:Generated_Source\PSoC5/LCD.c **** 
 405:Generated_Source\PSoC5/LCD.c ****         /* Get port state */
 406:Generated_Source\PSoC5/LCD.c ****         value = LCD_PORT_PS_REG;
 407:Generated_Source\PSoC5/LCD.c **** 
 408:Generated_Source\PSoC5/LCD.c ****         /* Set enable low */
 409:Generated_Source\PSoC5/LCD.c ****         LCD_PORT_DR_REG &= ((uint8)(~LCD_E));
 410:Generated_Source\PSoC5/LCD.c **** 
 411:Generated_Source\PSoC5/LCD.c ****         /* This gives true delay between disabling Enable bit and polling Ready bit */
 412:Generated_Source\PSoC5/LCD.c ****         CyDelayUs(0u);
 413:Generated_Source\PSoC5/LCD.c **** 
 414:Generated_Source\PSoC5/LCD.c ****         /* Extract ready bit */
 415:Generated_Source\PSoC5/LCD.c ****         value &= LCD_READY_BIT;
 416:Generated_Source\PSoC5/LCD.c **** 
 417:Generated_Source\PSoC5/LCD.c ****         /* Set E high as we in 4-bit interface we need extra operation */
 418:Generated_Source\PSoC5/LCD.c ****         LCD_PORT_DR_REG |= LCD_E;
 419:Generated_Source\PSoC5/LCD.c **** 
 420:Generated_Source\PSoC5/LCD.c ****         /* 360 ns delay setup time for data pins */
 421:Generated_Source\PSoC5/LCD.c ****         CyDelayUs(1u);
 422:Generated_Source\PSoC5/LCD.c **** 
 423:Generated_Source\PSoC5/LCD.c ****         /* Set enable low */
 424:Generated_Source\PSoC5/LCD.c ****         LCD_PORT_DR_REG &= ((uint8)(~LCD_E));
 425:Generated_Source\PSoC5/LCD.c **** 
 426:Generated_Source\PSoC5/LCD.c ****         /* If LCD is not ready make a delay */
 427:Generated_Source\PSoC5/LCD.c ****         if (value == 0u)
 428:Generated_Source\PSoC5/LCD.c ****         {
 429:Generated_Source\PSoC5/LCD.c ****             CyDelayUs(10u);
 430:Generated_Source\PSoC5/LCD.c ****         }
ARM GAS  C:\Users\antarp\AppData\Local\Temp\cceqIFkS.s 			page 9


 431:Generated_Source\PSoC5/LCD.c **** 
 432:Generated_Source\PSoC5/LCD.c ****         /* Repeat until bit 4 is not zero or until timeout. */
 433:Generated_Source\PSoC5/LCD.c ****         timeout--;
 434:Generated_Source\PSoC5/LCD.c **** 
 435:Generated_Source\PSoC5/LCD.c ****     } while ((value != 0u) && (timeout > 0u));
 436:Generated_Source\PSoC5/LCD.c **** 
 437:Generated_Source\PSoC5/LCD.c ****     /* Set R/W low to write */
 438:Generated_Source\PSoC5/LCD.c ****     LCD_PORT_DR_REG &= ((uint8)(~LCD_RW));
 439:Generated_Source\PSoC5/LCD.c **** 
 440:Generated_Source\PSoC5/LCD.c ****     /* Clear LCD port*/
 441:Generated_Source\PSoC5/LCD.c ****     LCD_PORT_DR_REG &= ((uint8)(~LCD_PORT_MASK));
 442:Generated_Source\PSoC5/LCD.c **** 
 443:Generated_Source\PSoC5/LCD.c ****     #if (CY_PSOC4)
 444:Generated_Source\PSoC5/LCD.c ****         
 445:Generated_Source\PSoC5/LCD.c ****         /* Mask off data pins to clear old values out */
 446:Generated_Source\PSoC5/LCD.c ****         value = LCD_PORT_PC_REG & ((uint32)(~ LCD_DM_DATA_MASK));
 447:Generated_Source\PSoC5/LCD.c ****         /* Load in high Z values for data pins, others unchanged */
 448:Generated_Source\PSoC5/LCD.c ****         LCD_PORT_PC_REG = value | LCD_STRONG_DATA_DM;
 449:Generated_Source\PSoC5/LCD.c **** 
 450:Generated_Source\PSoC5/LCD.c ****     #else
 451:Generated_Source\PSoC5/LCD.c **** 
 452:Generated_Source\PSoC5/LCD.c ****         /* Change Port to Output (Strong) on data pins */
 453:Generated_Source\PSoC5/LCD.c ****         /* Mask off data pins to clear high z values out. Configure data pins 
 454:Generated_Source\PSoC5/LCD.c ****         * to Strong Drive, others unchanged.
 455:Generated_Source\PSoC5/LCD.c ****         */
 456:Generated_Source\PSoC5/LCD.c ****         LCD_PORT_DM0_REG &= ((uint8)(~LCD_DATA_MASK));
 457:Generated_Source\PSoC5/LCD.c ****         /* Mask off data pins to clear high z values out */
 458:Generated_Source\PSoC5/LCD.c ****         value = LCD_PORT_DM1_REG & ((uint8)(~LCD_DATA_MASK));
 459:Generated_Source\PSoC5/LCD.c ****         /* Configure data pins to Strong Drive, others unchanged */
 460:Generated_Source\PSoC5/LCD.c ****         LCD_PORT_DM1_REG = value | (LCD_STRONG_DM1 & LCD_DATA_MASK);
 461:Generated_Source\PSoC5/LCD.c **** 
 462:Generated_Source\PSoC5/LCD.c ****         /* Mask off data pins to clear high z values out */
 463:Generated_Source\PSoC5/LCD.c ****         value = LCD_PORT_DM2_REG & ((uint8)(~LCD_DATA_MASK));
 464:Generated_Source\PSoC5/LCD.c ****         /* Configure data pins to Strong Drive, others unchanged */
 465:Generated_Source\PSoC5/LCD.c ****         LCD_PORT_DM2_REG = value | (LCD_STRONG_DM2 & LCD_DATA_MASK);
 466:Generated_Source\PSoC5/LCD.c ****     
 467:Generated_Source\PSoC5/LCD.c ****     #endif /* CY_PSOC4 */
 468:Generated_Source\PSoC5/LCD.c **** }
 469:Generated_Source\PSoC5/LCD.c **** 
 470:Generated_Source\PSoC5/LCD.c **** 
 471:Generated_Source\PSoC5/LCD.c **** /*******************************************************************************
 472:Generated_Source\PSoC5/LCD.c **** *  Function Name: LCD_WrDatNib
 473:Generated_Source\PSoC5/LCD.c **** ********************************************************************************
 474:Generated_Source\PSoC5/LCD.c **** *
 475:Generated_Source\PSoC5/LCD.c **** * Summary:
 476:Generated_Source\PSoC5/LCD.c **** *  Writes a data nibble to the LCD module.
 477:Generated_Source\PSoC5/LCD.c **** *
 478:Generated_Source\PSoC5/LCD.c **** * Parameters:
 479:Generated_Source\PSoC5/LCD.c **** *  nibble:  Byte containing nibble in the least significant nibble to be
 480:Generated_Source\PSoC5/LCD.c **** *           written to the LCD module.
 481:Generated_Source\PSoC5/LCD.c **** *
 482:Generated_Source\PSoC5/LCD.c **** * Return:
 483:Generated_Source\PSoC5/LCD.c **** *  None.
 484:Generated_Source\PSoC5/LCD.c **** *
 485:Generated_Source\PSoC5/LCD.c **** *******************************************************************************/
 486:Generated_Source\PSoC5/LCD.c **** static void LCD_WrDatNib(uint8 nibble) 
 487:Generated_Source\PSoC5/LCD.c **** {
ARM GAS  C:\Users\antarp\AppData\Local\Temp\cceqIFkS.s 			page 10


 488:Generated_Source\PSoC5/LCD.c ****     /* RS should be low to select data register */
 489:Generated_Source\PSoC5/LCD.c ****     LCD_PORT_DR_REG |= LCD_RS;
 490:Generated_Source\PSoC5/LCD.c ****     /* Reset RW for write operation */
 491:Generated_Source\PSoC5/LCD.c ****     LCD_PORT_DR_REG &= ((uint8)(~LCD_RW));
 492:Generated_Source\PSoC5/LCD.c **** 
 493:Generated_Source\PSoC5/LCD.c ****     /* Guaranteed delay between Setting RS and RW and setting E bits */
 494:Generated_Source\PSoC5/LCD.c ****     CyDelayUs(0u);
 495:Generated_Source\PSoC5/LCD.c ****     
 496:Generated_Source\PSoC5/LCD.c ****     /* Clear data pins */
 497:Generated_Source\PSoC5/LCD.c ****     LCD_PORT_DR_REG &= ((uint8)(~LCD_DATA_MASK));
 498:Generated_Source\PSoC5/LCD.c **** 
 499:Generated_Source\PSoC5/LCD.c ****     /* Write data, bring E high */
 500:Generated_Source\PSoC5/LCD.c ****     #if(0u != LCD_PORT_SHIFT) /* MISRA forbids shift by 0 so need to handle that */
 501:Generated_Source\PSoC5/LCD.c ****         LCD_PORT_DR_REG |= 
 502:Generated_Source\PSoC5/LCD.c ****             (LCD_E | ((uint8)(((uint8) nibble) << LCD_PORT_SHIFT)));
 503:Generated_Source\PSoC5/LCD.c ****     #else
 504:Generated_Source\PSoC5/LCD.c ****         LCD_PORT_DR_REG |= (LCD_E | nibble);
 505:Generated_Source\PSoC5/LCD.c ****     #endif /* (0u != LCD_PORT_SHIFT) */
 506:Generated_Source\PSoC5/LCD.c **** 
 507:Generated_Source\PSoC5/LCD.c ****     /* Minimum of 230 ns delay */
 508:Generated_Source\PSoC5/LCD.c ****     CyDelayUs(1u);
 509:Generated_Source\PSoC5/LCD.c **** 
 510:Generated_Source\PSoC5/LCD.c ****     LCD_PORT_DR_REG &= ((uint8)(~LCD_E));
 511:Generated_Source\PSoC5/LCD.c **** }
 512:Generated_Source\PSoC5/LCD.c **** 
 513:Generated_Source\PSoC5/LCD.c **** 
 514:Generated_Source\PSoC5/LCD.c **** /*******************************************************************************
 515:Generated_Source\PSoC5/LCD.c **** *  Function Name: LCD_WrCntrlNib
 516:Generated_Source\PSoC5/LCD.c **** ********************************************************************************
 517:Generated_Source\PSoC5/LCD.c **** *
 518:Generated_Source\PSoC5/LCD.c **** * Summary:
 519:Generated_Source\PSoC5/LCD.c **** *  Writes a control nibble to the LCD module.
 520:Generated_Source\PSoC5/LCD.c **** *
 521:Generated_Source\PSoC5/LCD.c **** * Parameters:
 522:Generated_Source\PSoC5/LCD.c **** *  nibble: The byte containing a nibble in the four least significant bits.????
 523:Generated_Source\PSoC5/LCD.c **** *
 524:Generated_Source\PSoC5/LCD.c **** * Return:
 525:Generated_Source\PSoC5/LCD.c **** *  None.
 526:Generated_Source\PSoC5/LCD.c **** *
 527:Generated_Source\PSoC5/LCD.c **** *******************************************************************************/
 528:Generated_Source\PSoC5/LCD.c **** static void LCD_WrCntrlNib(uint8 nibble) 
 529:Generated_Source\PSoC5/LCD.c **** {
  27              		.loc 1 529 0
  28              		.cfi_startproc
  29              		@ args = 0, pretend = 0, frame = 0
  30              		@ frame_needed = 0, uses_anonymous_args = 0
  31              	.LVL0:
  32 0000 10B5     		push	{r4, lr}
  33              		.cfi_def_cfa_offset 8
  34              		.cfi_offset 4, -8
  35              		.cfi_offset 14, -4
 530:Generated_Source\PSoC5/LCD.c ****     /* RS and RW should be low to select instruction register and  write operation respectively */
 531:Generated_Source\PSoC5/LCD.c ****     LCD_PORT_DR_REG &= ((uint8)(~(LCD_RS | LCD_RW)));
  36              		.loc 1 531 0
  37 0002 0B4C     		ldr	r4, .L3
  38 0004 2378     		ldrb	r3, [r4]	@ zero_extendqisi2
  39 0006 03F09F03 		and	r3, r3, #159
ARM GAS  C:\Users\antarp\AppData\Local\Temp\cceqIFkS.s 			page 11


  40 000a 2370     		strb	r3, [r4]
 532:Generated_Source\PSoC5/LCD.c **** 
 533:Generated_Source\PSoC5/LCD.c ****     /* Two following lines of code will give 40ns delay */
 534:Generated_Source\PSoC5/LCD.c ****     /* Clear data pins */
 535:Generated_Source\PSoC5/LCD.c ****     LCD_PORT_DR_REG &= ((uint8)(~LCD_DATA_MASK));
  41              		.loc 1 535 0
  42 000c 2378     		ldrb	r3, [r4]	@ zero_extendqisi2
  43 000e 03F0F003 		and	r3, r3, #240
  44 0012 2370     		strb	r3, [r4]
 536:Generated_Source\PSoC5/LCD.c **** 
 537:Generated_Source\PSoC5/LCD.c ****     /* Write control data and set enable signal */
 538:Generated_Source\PSoC5/LCD.c ****     #if(0u != LCD_PORT_SHIFT) /* MISRA forbids shift by 0 so need to handle that */
 539:Generated_Source\PSoC5/LCD.c ****         LCD_PORT_DR_REG |= 
 540:Generated_Source\PSoC5/LCD.c ****             (LCD_E | ((uint8)(((uint8) nibble) << LCD_PORT_SHIFT)));
 541:Generated_Source\PSoC5/LCD.c ****     #else
 542:Generated_Source\PSoC5/LCD.c ****         LCD_PORT_DR_REG |= (LCD_E | nibble);
  45              		.loc 1 542 0
  46 0014 2378     		ldrb	r3, [r4]	@ zero_extendqisi2
  47 0016 1843     		orrs	r0, r0, r3
  48              	.LVL1:
  49 0018 40F01000 		orr	r0, r0, #16
  50 001c 2070     		strb	r0, [r4]
 543:Generated_Source\PSoC5/LCD.c ****     #endif /* (0u != LCD_PORT_SHIFT) */
 544:Generated_Source\PSoC5/LCD.c **** 
 545:Generated_Source\PSoC5/LCD.c ****     /* Minimum of 230 ns delay */
 546:Generated_Source\PSoC5/LCD.c ****     CyDelayUs(1u);
  51              		.loc 1 546 0
  52 001e 0120     		movs	r0, #1
  53 0020 FFF7FEFF 		bl	CyDelayUs
  54              	.LVL2:
 547:Generated_Source\PSoC5/LCD.c **** 
 548:Generated_Source\PSoC5/LCD.c ****     LCD_PORT_DR_REG &= ((uint8)(~LCD_E));
  55              		.loc 1 548 0
  56 0024 2378     		ldrb	r3, [r4]	@ zero_extendqisi2
  57 0026 03F0EF03 		and	r3, r3, #239
  58 002a 2370     		strb	r3, [r4]
  59 002c 10BD     		pop	{r4, pc}
  60              	.L4:
  61 002e 00BF     		.align	2
  62              	.L3:
  63 0030 20510040 		.word	1073762592
  64              		.cfi_endproc
  65              	.LFE11:
  66              		.size	LCD_WrCntrlNib, .-LCD_WrCntrlNib
  67              		.section	.text.LCD_WrDatNib,"ax",%progbits
  68              		.align	2
  69              		.thumb
  70              		.thumb_func
  71              		.type	LCD_WrDatNib, %function
  72              	LCD_WrDatNib:
  73              	.LFB10:
 487:Generated_Source\PSoC5/LCD.c ****     /* RS should be low to select data register */
  74              		.loc 1 487 0
  75              		.cfi_startproc
  76              		@ args = 0, pretend = 0, frame = 0
  77              		@ frame_needed = 0, uses_anonymous_args = 0
  78              	.LVL3:
ARM GAS  C:\Users\antarp\AppData\Local\Temp\cceqIFkS.s 			page 12


  79 0000 38B5     		push	{r3, r4, r5, lr}
  80              		.cfi_def_cfa_offset 16
  81              		.cfi_offset 3, -16
  82              		.cfi_offset 4, -12
  83              		.cfi_offset 5, -8
  84              		.cfi_offset 14, -4
  85 0002 0546     		mov	r5, r0
 489:Generated_Source\PSoC5/LCD.c ****     /* Reset RW for write operation */
  86              		.loc 1 489 0
  87 0004 0E4C     		ldr	r4, .L7
  88 0006 2378     		ldrb	r3, [r4]	@ zero_extendqisi2
  89 0008 43F02003 		orr	r3, r3, #32
  90 000c 2370     		strb	r3, [r4]
 491:Generated_Source\PSoC5/LCD.c **** 
  91              		.loc 1 491 0
  92 000e 2378     		ldrb	r3, [r4]	@ zero_extendqisi2
  93 0010 03F0BF03 		and	r3, r3, #191
  94 0014 2370     		strb	r3, [r4]
 494:Generated_Source\PSoC5/LCD.c ****     
  95              		.loc 1 494 0
  96 0016 0020     		movs	r0, #0
  97              	.LVL4:
  98 0018 FFF7FEFF 		bl	CyDelayUs
  99              	.LVL5:
 497:Generated_Source\PSoC5/LCD.c **** 
 100              		.loc 1 497 0
 101 001c 2378     		ldrb	r3, [r4]	@ zero_extendqisi2
 102 001e 03F0F003 		and	r3, r3, #240
 103 0022 2370     		strb	r3, [r4]
 504:Generated_Source\PSoC5/LCD.c ****     #endif /* (0u != LCD_PORT_SHIFT) */
 104              		.loc 1 504 0
 105 0024 2378     		ldrb	r3, [r4]	@ zero_extendqisi2
 106 0026 1D43     		orrs	r5, r5, r3
 107 0028 45F01005 		orr	r5, r5, #16
 108 002c 2570     		strb	r5, [r4]
 508:Generated_Source\PSoC5/LCD.c **** 
 109              		.loc 1 508 0
 110 002e 0120     		movs	r0, #1
 111 0030 FFF7FEFF 		bl	CyDelayUs
 112              	.LVL6:
 510:Generated_Source\PSoC5/LCD.c **** }
 113              		.loc 1 510 0
 114 0034 2378     		ldrb	r3, [r4]	@ zero_extendqisi2
 115 0036 03F0EF03 		and	r3, r3, #239
 116 003a 2370     		strb	r3, [r4]
 117 003c 38BD     		pop	{r3, r4, r5, pc}
 118              	.L8:
 119 003e 00BF     		.align	2
 120              	.L7:
 121 0040 20510040 		.word	1073762592
 122              		.cfi_endproc
 123              	.LFE10:
 124              		.size	LCD_WrDatNib, .-LCD_WrDatNib
 125              		.section	.text.LCD_IsReady,"ax",%progbits
 126              		.align	2
 127              		.global	LCD_IsReady
 128              		.thumb
ARM GAS  C:\Users\antarp\AppData\Local\Temp\cceqIFkS.s 			page 13


 129              		.thumb_func
 130              		.type	LCD_IsReady, %function
 131              	LCD_IsReady:
 132              	.LFB9:
 349:Generated_Source\PSoC5/LCD.c ****     uint8 value;
 133              		.loc 1 349 0
 134              		.cfi_startproc
 135              		@ args = 0, pretend = 0, frame = 0
 136              		@ frame_needed = 0, uses_anonymous_args = 0
 137 0000 70B5     		push	{r4, r5, r6, lr}
 138              		.cfi_def_cfa_offset 16
 139              		.cfi_offset 4, -16
 140              		.cfi_offset 5, -12
 141              		.cfi_offset 6, -8
 142              		.cfi_offset 14, -4
 143              	.LVL7:
 355:Generated_Source\PSoC5/LCD.c **** 
 144              		.loc 1 355 0
 145 0002 354B     		ldr	r3, .L14
 146 0004 1A78     		ldrb	r2, [r3]	@ zero_extendqisi2
 147 0006 02F08002 		and	r2, r2, #128
 148 000a D2B2     		uxtb	r2, r2
 149 000c 1A70     		strb	r2, [r3]
 372:Generated_Source\PSoC5/LCD.c ****         /* Load in high Z values for data pins, others unchanged */
 150              		.loc 1 372 0
 151 000e 3349     		ldr	r1, .L14+4
 152 0010 0A78     		ldrb	r2, [r1]	@ zero_extendqisi2
 153 0012 02F0F002 		and	r2, r2, #240
 154              	.LVL8:
 374:Generated_Source\PSoC5/LCD.c **** 
 155              		.loc 1 374 0
 156 0016 42F00F02 		orr	r2, r2, #15
 157              	.LVL9:
 158 001a 0A70     		strb	r2, [r1]
 377:Generated_Source\PSoC5/LCD.c ****         /* Load in high Z values for data pins, others unchanged */
 159              		.loc 1 377 0
 160 001c 0131     		adds	r1, r1, #1
 161 001e 0A78     		ldrb	r2, [r1]	@ zero_extendqisi2
 162 0020 02F0F002 		and	r2, r2, #240
 163              	.LVL10:
 379:Generated_Source\PSoC5/LCD.c **** 
 164              		.loc 1 379 0
 165 0024 0A70     		strb	r2, [r1]
 382:Generated_Source\PSoC5/LCD.c ****         /* Load in high Z values for data pins, others unchanged */
 166              		.loc 1 382 0
 167 0026 0131     		adds	r1, r1, #1
 168 0028 0A78     		ldrb	r2, [r1]	@ zero_extendqisi2
 169              	.LVL11:
 170 002a 02F0F002 		and	r2, r2, #240
 171              	.LVL12:
 384:Generated_Source\PSoC5/LCD.c ****     
 172              		.loc 1 384 0
 173 002e 0A70     		strb	r2, [r1]
 389:Generated_Source\PSoC5/LCD.c **** 
 174              		.loc 1 389 0
 175 0030 1A78     		ldrb	r2, [r3]	@ zero_extendqisi2
 176              	.LVL13:
ARM GAS  C:\Users\antarp\AppData\Local\Temp\cceqIFkS.s 			page 14


 177 0032 02F0DF02 		and	r2, r2, #223
 178 0036 1A70     		strb	r2, [r3]
 179              	.LVL14:
 392:Generated_Source\PSoC5/LCD.c **** 
 180              		.loc 1 392 0
 181 0038 1A78     		ldrb	r2, [r3]	@ zero_extendqisi2
 182 003a 42F04002 		orr	r2, r2, #64
 183 003e 1A70     		strb	r2, [r3]
 352:Generated_Source\PSoC5/LCD.c **** 
 184              		.loc 1 352 0
 185 0040 4FF4CA76 		mov	r6, #404
 186              	.LVL15:
 187              	.L12:
 397:Generated_Source\PSoC5/LCD.c **** 
 188              		.loc 1 397 0
 189 0044 0020     		movs	r0, #0
 190 0046 FFF7FEFF 		bl	CyDelayUs
 191              	.LVL16:
 400:Generated_Source\PSoC5/LCD.c **** 
 192              		.loc 1 400 0
 193 004a 234D     		ldr	r5, .L14
 194 004c 2B78     		ldrb	r3, [r5]	@ zero_extendqisi2
 195 004e 43F01003 		orr	r3, r3, #16
 196 0052 2B70     		strb	r3, [r5]
 403:Generated_Source\PSoC5/LCD.c **** 
 197              		.loc 1 403 0
 198 0054 0120     		movs	r0, #1
 199 0056 FFF7FEFF 		bl	CyDelayUs
 200              	.LVL17:
 406:Generated_Source\PSoC5/LCD.c **** 
 201              		.loc 1 406 0
 202 005a 214B     		ldr	r3, .L14+8
 203 005c 1C78     		ldrb	r4, [r3]	@ zero_extendqisi2
 204 005e E4B2     		uxtb	r4, r4
 205              	.LVL18:
 409:Generated_Source\PSoC5/LCD.c **** 
 206              		.loc 1 409 0
 207 0060 2B78     		ldrb	r3, [r5]	@ zero_extendqisi2
 208 0062 03F0EF03 		and	r3, r3, #239
 209 0066 2B70     		strb	r3, [r5]
 412:Generated_Source\PSoC5/LCD.c **** 
 210              		.loc 1 412 0
 211 0068 0020     		movs	r0, #0
 212 006a FFF7FEFF 		bl	CyDelayUs
 213              	.LVL19:
 415:Generated_Source\PSoC5/LCD.c **** 
 214              		.loc 1 415 0
 215 006e 04F00804 		and	r4, r4, #8
 216              	.LVL20:
 217 0072 E4B2     		uxtb	r4, r4
 218              	.LVL21:
 418:Generated_Source\PSoC5/LCD.c **** 
 219              		.loc 1 418 0
 220 0074 2B78     		ldrb	r3, [r5]	@ zero_extendqisi2
 221 0076 43F01003 		orr	r3, r3, #16
 222 007a 2B70     		strb	r3, [r5]
 421:Generated_Source\PSoC5/LCD.c **** 
ARM GAS  C:\Users\antarp\AppData\Local\Temp\cceqIFkS.s 			page 15


 223              		.loc 1 421 0
 224 007c 0120     		movs	r0, #1
 225 007e FFF7FEFF 		bl	CyDelayUs
 226              	.LVL22:
 424:Generated_Source\PSoC5/LCD.c **** 
 227              		.loc 1 424 0
 228 0082 2B78     		ldrb	r3, [r5]	@ zero_extendqisi2
 229 0084 03F0EF03 		and	r3, r3, #239
 230 0088 2B70     		strb	r3, [r5]
 427:Generated_Source\PSoC5/LCD.c ****         {
 231              		.loc 1 427 0
 232 008a 14B9     		cbnz	r4, .L10
 429:Generated_Source\PSoC5/LCD.c ****         }
 233              		.loc 1 429 0
 234 008c 0A20     		movs	r0, #10
 235 008e FFF7FEFF 		bl	CyDelayUs
 236              	.LVL23:
 237              	.L10:
 433:Generated_Source\PSoC5/LCD.c **** 
 238              		.loc 1 433 0
 239 0092 013E     		subs	r6, r6, #1
 240              	.LVL24:
 435:Generated_Source\PSoC5/LCD.c **** 
 241              		.loc 1 435 0
 242 0094 0CB1     		cbz	r4, .L11
 435:Generated_Source\PSoC5/LCD.c **** 
 243              		.loc 1 435 0 is_stmt 0 discriminator 1
 244 0096 002E     		cmp	r6, #0
 245 0098 D4D1     		bne	.L12
 246              	.L11:
 438:Generated_Source\PSoC5/LCD.c **** 
 247              		.loc 1 438 0 is_stmt 1
 248 009a 0F4A     		ldr	r2, .L14
 249 009c 1378     		ldrb	r3, [r2]	@ zero_extendqisi2
 250 009e 03F0BF03 		and	r3, r3, #191
 251 00a2 1370     		strb	r3, [r2]
 441:Generated_Source\PSoC5/LCD.c **** 
 252              		.loc 1 441 0
 253 00a4 1378     		ldrb	r3, [r2]	@ zero_extendqisi2
 254 00a6 03F08003 		and	r3, r3, #128
 255 00aa DBB2     		uxtb	r3, r3
 256 00ac 1370     		strb	r3, [r2]
 456:Generated_Source\PSoC5/LCD.c ****         /* Mask off data pins to clear high z values out */
 257              		.loc 1 456 0
 258 00ae 0232     		adds	r2, r2, #2
 259 00b0 1378     		ldrb	r3, [r2]	@ zero_extendqisi2
 260 00b2 03F0F003 		and	r3, r3, #240
 261 00b6 1370     		strb	r3, [r2]
 458:Generated_Source\PSoC5/LCD.c ****         /* Configure data pins to Strong Drive, others unchanged */
 262              		.loc 1 458 0
 263 00b8 0132     		adds	r2, r2, #1
 264 00ba 1378     		ldrb	r3, [r2]	@ zero_extendqisi2
 265 00bc 03F0F003 		and	r3, r3, #240
 266              	.LVL25:
 460:Generated_Source\PSoC5/LCD.c **** 
 267              		.loc 1 460 0
 268 00c0 43F00F03 		orr	r3, r3, #15
ARM GAS  C:\Users\antarp\AppData\Local\Temp\cceqIFkS.s 			page 16


 269              	.LVL26:
 270 00c4 1370     		strb	r3, [r2]
 463:Generated_Source\PSoC5/LCD.c ****         /* Configure data pins to Strong Drive, others unchanged */
 271              		.loc 1 463 0
 272 00c6 0132     		adds	r2, r2, #1
 273 00c8 1378     		ldrb	r3, [r2]	@ zero_extendqisi2
 274 00ca 03F0F003 		and	r3, r3, #240
 275              	.LVL27:
 465:Generated_Source\PSoC5/LCD.c ****     
 276              		.loc 1 465 0
 277 00ce 43F00F03 		orr	r3, r3, #15
 278              	.LVL28:
 279 00d2 1370     		strb	r3, [r2]
 280 00d4 70BD     		pop	{r4, r5, r6, pc}
 281              	.LVL29:
 282              	.L15:
 283 00d6 00BF     		.align	2
 284              	.L14:
 285 00d8 20510040 		.word	1073762592
 286 00dc 22510040 		.word	1073762594
 287 00e0 21510040 		.word	1073762593
 288              		.cfi_endproc
 289              	.LFE9:
 290              		.size	LCD_IsReady, .-LCD_IsReady
 291              		.section	.text.LCD_WriteData,"ax",%progbits
 292              		.align	2
 293              		.global	LCD_WriteData
 294              		.thumb
 295              		.thumb_func
 296              		.type	LCD_WriteData, %function
 297              	LCD_WriteData:
 298              	.LFB7:
 285:Generated_Source\PSoC5/LCD.c ****     uint8 nibble;
 299              		.loc 1 285 0
 300              		.cfi_startproc
 301              		@ args = 0, pretend = 0, frame = 0
 302              		@ frame_needed = 0, uses_anonymous_args = 0
 303              	.LVL30:
 304 0000 10B5     		push	{r4, lr}
 305              		.cfi_def_cfa_offset 8
 306              		.cfi_offset 4, -8
 307              		.cfi_offset 14, -4
 308 0002 0446     		mov	r4, r0
 288:Generated_Source\PSoC5/LCD.c ****     nibble = dByte >> LCD_NIBBLE_SHIFT;
 309              		.loc 1 288 0
 310 0004 FFF7FEFF 		bl	LCD_IsReady
 311              	.LVL31:
 292:Generated_Source\PSoC5/LCD.c **** 
 312              		.loc 1 292 0
 313 0008 2009     		lsrs	r0, r4, #4
 314 000a FFF7FEFF 		bl	LCD_WrDatNib
 315              	.LVL32:
 296:Generated_Source\PSoC5/LCD.c **** }
 316              		.loc 1 296 0
 317 000e 04F00F00 		and	r0, r4, #15
 318 0012 FFF7FEFF 		bl	LCD_WrDatNib
 319              	.LVL33:
ARM GAS  C:\Users\antarp\AppData\Local\Temp\cceqIFkS.s 			page 17


 320 0016 10BD     		pop	{r4, pc}
 321              		.cfi_endproc
 322              	.LFE7:
 323              		.size	LCD_WriteData, .-LCD_WriteData
 324              		.section	.text.LCD_PrintString,"ax",%progbits
 325              		.align	2
 326              		.global	LCD_PrintString
 327              		.thumb
 328              		.thumb_func
 329              		.type	LCD_PrintString, %function
 330              	LCD_PrintString:
 331              	.LFB5:
 234:Generated_Source\PSoC5/LCD.c ****     uint8 indexU8 = 1u;
 332              		.loc 1 234 0
 333              		.cfi_startproc
 334              		@ args = 0, pretend = 0, frame = 0
 335              		@ frame_needed = 0, uses_anonymous_args = 0
 336              	.LVL34:
 337 0000 38B5     		push	{r3, r4, r5, lr}
 338              		.cfi_def_cfa_offset 16
 339              		.cfi_offset 3, -16
 340              		.cfi_offset 4, -12
 341              		.cfi_offset 5, -8
 342              		.cfi_offset 14, -4
 343 0002 0546     		mov	r5, r0
 344              	.LVL35:
 236:Generated_Source\PSoC5/LCD.c **** 
 345              		.loc 1 236 0
 346 0004 0078     		ldrb	r0, [r0]	@ zero_extendqisi2
 347              	.LVL36:
 235:Generated_Source\PSoC5/LCD.c ****     char8 current = *string;
 348              		.loc 1 235 0
 349 0006 0124     		movs	r4, #1
 239:Generated_Source\PSoC5/LCD.c ****     {
 350              		.loc 1 239 0
 351 0008 04E0     		b	.L19
 352              	.LVL37:
 353              	.L20:
 241:Generated_Source\PSoC5/LCD.c ****         current = string[indexU8];
 354              		.loc 1 241 0
 355 000a FFF7FEFF 		bl	LCD_WriteData
 356              	.LVL38:
 242:Generated_Source\PSoC5/LCD.c ****         indexU8++;
 357              		.loc 1 242 0
 358 000e 285D     		ldrb	r0, [r5, r4]	@ zero_extendqisi2
 359              	.LVL39:
 243:Generated_Source\PSoC5/LCD.c ****     }
 360              		.loc 1 243 0
 361 0010 0134     		adds	r4, r4, #1
 362              	.LVL40:
 363 0012 E4B2     		uxtb	r4, r4
 364              	.LVL41:
 365              	.L19:
 239:Generated_Source\PSoC5/LCD.c ****     {
 366              		.loc 1 239 0
 367 0014 0028     		cmp	r0, #0
 368 0016 F8D1     		bne	.L20
ARM GAS  C:\Users\antarp\AppData\Local\Temp\cceqIFkS.s 			page 18


 245:Generated_Source\PSoC5/LCD.c **** 
 369              		.loc 1 245 0
 370 0018 38BD     		pop	{r3, r4, r5, pc}
 371              		.cfi_endproc
 372              	.LFE5:
 373              		.size	LCD_PrintString, .-LCD_PrintString
 374 001a 00BF     		.section	.text.LCD_PutChar,"ax",%progbits
 375              		.align	2
 376              		.global	LCD_PutChar
 377              		.thumb
 378              		.thumb_func
 379              		.type	LCD_PutChar, %function
 380              	LCD_PutChar:
 381              	.LFB6:
 265:Generated_Source\PSoC5/LCD.c ****     LCD_WriteData((uint8)character);
 382              		.loc 1 265 0
 383              		.cfi_startproc
 384              		@ args = 0, pretend = 0, frame = 0
 385              		@ frame_needed = 0, uses_anonymous_args = 0
 386              	.LVL42:
 387 0000 08B5     		push	{r3, lr}
 388              		.cfi_def_cfa_offset 8
 389              		.cfi_offset 3, -8
 390              		.cfi_offset 14, -4
 266:Generated_Source\PSoC5/LCD.c **** }
 391              		.loc 1 266 0
 392 0002 FFF7FEFF 		bl	LCD_WriteData
 393              	.LVL43:
 394 0006 08BD     		pop	{r3, pc}
 395              		.cfi_endproc
 396              	.LFE6:
 397              		.size	LCD_PutChar, .-LCD_PutChar
 398              		.section	.text.LCD_WriteControl,"ax",%progbits
 399              		.align	2
 400              		.global	LCD_WriteControl
 401              		.thumb
 402              		.thumb_func
 403              		.type	LCD_WriteControl, %function
 404              	LCD_WriteControl:
 405              	.LFB8:
 315:Generated_Source\PSoC5/LCD.c ****     uint8 nibble;
 406              		.loc 1 315 0
 407              		.cfi_startproc
 408              		@ args = 0, pretend = 0, frame = 0
 409              		@ frame_needed = 0, uses_anonymous_args = 0
 410              	.LVL44:
 411 0000 10B5     		push	{r4, lr}
 412              		.cfi_def_cfa_offset 8
 413              		.cfi_offset 4, -8
 414              		.cfi_offset 14, -4
 415 0002 0446     		mov	r4, r0
 318:Generated_Source\PSoC5/LCD.c **** 
 416              		.loc 1 318 0
 417 0004 FFF7FEFF 		bl	LCD_IsReady
 418              	.LVL45:
 323:Generated_Source\PSoC5/LCD.c ****     nibble = cByte & LCD_NIBBLE_MASK;
 419              		.loc 1 323 0
ARM GAS  C:\Users\antarp\AppData\Local\Temp\cceqIFkS.s 			page 19


 420 0008 2009     		lsrs	r0, r4, #4
 421 000a FFF7FEFF 		bl	LCD_WrCntrlNib
 422              	.LVL46:
 327:Generated_Source\PSoC5/LCD.c **** }
 423              		.loc 1 327 0
 424 000e 04F00F00 		and	r0, r4, #15
 425 0012 FFF7FEFF 		bl	LCD_WrCntrlNib
 426              	.LVL47:
 427 0016 10BD     		pop	{r4, pc}
 428              		.cfi_endproc
 429              	.LFE8:
 430              		.size	LCD_WriteControl, .-LCD_WriteControl
 431              		.section	.text.LCD_Init,"ax",%progbits
 432              		.align	2
 433              		.global	LCD_Init
 434              		.thumb
 435              		.thumb_func
 436              		.type	LCD_Init, %function
 437              	LCD_Init:
 438              	.LFB0:
  56:Generated_Source\PSoC5/LCD.c ****     /* INIT CODE */
 439              		.loc 1 56 0
 440              		.cfi_startproc
 441              		@ args = 0, pretend = 0, frame = 0
 442              		@ frame_needed = 0, uses_anonymous_args = 0
 443 0000 08B5     		push	{r3, lr}
 444              		.cfi_def_cfa_offset 8
 445              		.cfi_offset 3, -8
 446              		.cfi_offset 14, -4
  58:Generated_Source\PSoC5/LCD.c ****     LCD_WrCntrlNib(LCD_DISPLAY_8_BIT_INIT);    /* Selects 8-bit mode */
 447              		.loc 1 58 0
 448 0002 2820     		movs	r0, #40
 449 0004 FFF7FEFF 		bl	CyDelay
 450              	.LVL48:
  59:Generated_Source\PSoC5/LCD.c ****     CyDelay(5u);                                                         /* Delay 5 ms */
 451              		.loc 1 59 0
 452 0008 0320     		movs	r0, #3
 453 000a FFF7FEFF 		bl	LCD_WrCntrlNib
 454              	.LVL49:
  60:Generated_Source\PSoC5/LCD.c ****     LCD_WrCntrlNib(LCD_DISPLAY_8_BIT_INIT);    /* Selects 8-bit mode */
 455              		.loc 1 60 0
 456 000e 0520     		movs	r0, #5
 457 0010 FFF7FEFF 		bl	CyDelay
 458              	.LVL50:
  61:Generated_Source\PSoC5/LCD.c ****     CyDelay(15u);                                                        /* Delay 15 ms */
 459              		.loc 1 61 0
 460 0014 0320     		movs	r0, #3
 461 0016 FFF7FEFF 		bl	LCD_WrCntrlNib
 462              	.LVL51:
  62:Generated_Source\PSoC5/LCD.c ****     LCD_WrCntrlNib(LCD_DISPLAY_8_BIT_INIT);    /* Selects 8-bit mode */
 463              		.loc 1 62 0
 464 001a 0F20     		movs	r0, #15
 465 001c FFF7FEFF 		bl	CyDelay
 466              	.LVL52:
  63:Generated_Source\PSoC5/LCD.c ****     CyDelay(1u);                                                         /* Delay 1 ms */
 467              		.loc 1 63 0
 468 0020 0320     		movs	r0, #3
ARM GAS  C:\Users\antarp\AppData\Local\Temp\cceqIFkS.s 			page 20


 469 0022 FFF7FEFF 		bl	LCD_WrCntrlNib
 470              	.LVL53:
  64:Generated_Source\PSoC5/LCD.c ****     LCD_WrCntrlNib(LCD_DISPLAY_4_BIT_INIT);    /* Selects 4-bit mode */
 471              		.loc 1 64 0
 472 0026 0120     		movs	r0, #1
 473 0028 FFF7FEFF 		bl	CyDelay
 474              	.LVL54:
  65:Generated_Source\PSoC5/LCD.c ****     CyDelay(5u);                                                         /* Delay 5 ms */
 475              		.loc 1 65 0
 476 002c 0220     		movs	r0, #2
 477 002e FFF7FEFF 		bl	LCD_WrCntrlNib
 478              	.LVL55:
  66:Generated_Source\PSoC5/LCD.c **** 
 479              		.loc 1 66 0
 480 0032 0520     		movs	r0, #5
 481 0034 FFF7FEFF 		bl	CyDelay
 482              	.LVL56:
  68:Generated_Source\PSoC5/LCD.c ****     LCD_WriteControl(LCD_DISPLAY_CURSOR_ON);      /* Turn Display, Cursor ON */
 483              		.loc 1 68 0
 484 0038 0620     		movs	r0, #6
 485 003a FFF7FEFF 		bl	LCD_WriteControl
 486              	.LVL57:
  69:Generated_Source\PSoC5/LCD.c ****     LCD_WriteControl(LCD_DISPLAY_2_LINES_5x10);   /* 2 Lines by 5x10 Characters */
 487              		.loc 1 69 0
 488 003e 0E20     		movs	r0, #14
 489 0040 FFF7FEFF 		bl	LCD_WriteControl
 490              	.LVL58:
  70:Generated_Source\PSoC5/LCD.c ****     LCD_WriteControl(LCD_DISPLAY_CURSOR_OFF);     /* Turn Display, Cursor OFF */
 491              		.loc 1 70 0
 492 0044 2C20     		movs	r0, #44
 493 0046 FFF7FEFF 		bl	LCD_WriteControl
 494              	.LVL59:
  71:Generated_Source\PSoC5/LCD.c ****     LCD_WriteControl(LCD_CLEAR_DISPLAY);          /* Clear LCD Screen */
 495              		.loc 1 71 0
 496 004a 0820     		movs	r0, #8
 497 004c FFF7FEFF 		bl	LCD_WriteControl
 498              	.LVL60:
  72:Generated_Source\PSoC5/LCD.c ****     LCD_WriteControl(LCD_DISPLAY_ON_CURSOR_OFF);  /* Turn Display ON, Cursor OFF */
 499              		.loc 1 72 0
 500 0050 0120     		movs	r0, #1
 501 0052 FFF7FEFF 		bl	LCD_WriteControl
 502              	.LVL61:
  73:Generated_Source\PSoC5/LCD.c ****     LCD_WriteControl(LCD_RESET_CURSOR_POSITION);  /* Set Cursor to 0,0 */
 503              		.loc 1 73 0
 504 0056 0C20     		movs	r0, #12
 505 0058 FFF7FEFF 		bl	LCD_WriteControl
 506              	.LVL62:
  74:Generated_Source\PSoC5/LCD.c ****     CyDelay(5u);
 507              		.loc 1 74 0
 508 005c 0320     		movs	r0, #3
 509 005e FFF7FEFF 		bl	LCD_WriteControl
 510              	.LVL63:
  75:Generated_Source\PSoC5/LCD.c **** 
 511              		.loc 1 75 0
 512 0062 0520     		movs	r0, #5
 513 0064 FFF7FEFF 		bl	CyDelay
 514              	.LVL64:
ARM GAS  C:\Users\antarp\AppData\Local\Temp\cceqIFkS.s 			page 21


 515 0068 08BD     		pop	{r3, pc}
 516              		.cfi_endproc
 517              	.LFE0:
 518              		.size	LCD_Init, .-LCD_Init
 519 006a 00BF     		.section	.text.LCD_Enable,"ax",%progbits
 520              		.align	2
 521              		.global	LCD_Enable
 522              		.thumb
 523              		.thumb_func
 524              		.type	LCD_Enable, %function
 525              	LCD_Enable:
 526              	.LFB1:
 105:Generated_Source\PSoC5/LCD.c ****     LCD_DisplayOn();
 527              		.loc 1 105 0
 528              		.cfi_startproc
 529              		@ args = 0, pretend = 0, frame = 0
 530              		@ frame_needed = 0, uses_anonymous_args = 0
 531 0000 08B5     		push	{r3, lr}
 532              		.cfi_def_cfa_offset 8
 533              		.cfi_offset 3, -8
 534              		.cfi_offset 14, -4
 106:Generated_Source\PSoC5/LCD.c ****     LCD_enableState = 1u;
 535              		.loc 1 106 0
 536 0002 0C20     		movs	r0, #12
 537 0004 FFF7FEFF 		bl	LCD_WriteControl
 538              	.LVL65:
 107:Generated_Source\PSoC5/LCD.c **** }
 539              		.loc 1 107 0
 540 0008 0122     		movs	r2, #1
 541 000a 014B     		ldr	r3, .L30
 542 000c 1A70     		strb	r2, [r3]
 543 000e 08BD     		pop	{r3, pc}
 544              	.L31:
 545              		.align	2
 546              	.L30:
 547 0010 00000000 		.word	.LANCHOR0
 548              		.cfi_endproc
 549              	.LFE1:
 550              		.size	LCD_Enable, .-LCD_Enable
 551              		.section	.text.LCD_Start,"ax",%progbits
 552              		.align	2
 553              		.global	LCD_Start
 554              		.thumb
 555              		.thumb_func
 556              		.type	LCD_Start, %function
 557              	LCD_Start:
 558              	.LFB2:
 138:Generated_Source\PSoC5/LCD.c ****     /* If not initialized, perform initialization */
 559              		.loc 1 138 0
 560              		.cfi_startproc
 561              		@ args = 0, pretend = 0, frame = 0
 562              		@ frame_needed = 0, uses_anonymous_args = 0
 563 0000 08B5     		push	{r3, lr}
 564              		.cfi_def_cfa_offset 8
 565              		.cfi_offset 3, -8
 566              		.cfi_offset 14, -4
 140:Generated_Source\PSoC5/LCD.c ****     {
ARM GAS  C:\Users\antarp\AppData\Local\Temp\cceqIFkS.s 			page 22


 567              		.loc 1 140 0
 568 0002 054B     		ldr	r3, .L35
 569 0004 5B78     		ldrb	r3, [r3, #1]	@ zero_extendqisi2
 570 0006 23B9     		cbnz	r3, .L33
 142:Generated_Source\PSoC5/LCD.c ****         LCD_initVar = 1u;
 571              		.loc 1 142 0
 572 0008 FFF7FEFF 		bl	LCD_Init
 573              	.LVL66:
 143:Generated_Source\PSoC5/LCD.c ****     }
 574              		.loc 1 143 0
 575 000c 0122     		movs	r2, #1
 576 000e 024B     		ldr	r3, .L35
 577 0010 5A70     		strb	r2, [r3, #1]
 578              	.L33:
 147:Generated_Source\PSoC5/LCD.c **** }
 579              		.loc 1 147 0
 580 0012 FFF7FEFF 		bl	LCD_Enable
 581              	.LVL67:
 582 0016 08BD     		pop	{r3, pc}
 583              	.L36:
 584              		.align	2
 585              	.L35:
 586 0018 00000000 		.word	.LANCHOR0
 587              		.cfi_endproc
 588              	.LFE2:
 589              		.size	LCD_Start, .-LCD_Start
 590              		.section	.text.LCD_Stop,"ax",%progbits
 591              		.align	2
 592              		.global	LCD_Stop
 593              		.thumb
 594              		.thumb_func
 595              		.type	LCD_Stop, %function
 596              	LCD_Stop:
 597              	.LFB3:
 169:Generated_Source\PSoC5/LCD.c ****     /* Calls LCD Off Macro */
 598              		.loc 1 169 0
 599              		.cfi_startproc
 600              		@ args = 0, pretend = 0, frame = 0
 601              		@ frame_needed = 0, uses_anonymous_args = 0
 602 0000 08B5     		push	{r3, lr}
 603              		.cfi_def_cfa_offset 8
 604              		.cfi_offset 3, -8
 605              		.cfi_offset 14, -4
 171:Generated_Source\PSoC5/LCD.c ****     LCD_enableState = 0u;
 606              		.loc 1 171 0
 607 0002 0820     		movs	r0, #8
 608 0004 FFF7FEFF 		bl	LCD_WriteControl
 609              	.LVL68:
 172:Generated_Source\PSoC5/LCD.c **** }
 610              		.loc 1 172 0
 611 0008 0022     		movs	r2, #0
 612 000a 014B     		ldr	r3, .L39
 613 000c 1A70     		strb	r2, [r3]
 614 000e 08BD     		pop	{r3, pc}
 615              	.L40:
 616              		.align	2
 617              	.L39:
ARM GAS  C:\Users\antarp\AppData\Local\Temp\cceqIFkS.s 			page 23


 618 0010 00000000 		.word	.LANCHOR0
 619              		.cfi_endproc
 620              	.LFE3:
 621              		.size	LCD_Stop, .-LCD_Stop
 622              		.section	.text.LCD_Position,"ax",%progbits
 623              		.align	2
 624              		.global	LCD_Position
 625              		.thumb
 626              		.thumb_func
 627              		.type	LCD_Position, %function
 628              	LCD_Position:
 629              	.LFB4:
 197:Generated_Source\PSoC5/LCD.c ****     switch (row)
 630              		.loc 1 197 0
 631              		.cfi_startproc
 632              		@ args = 0, pretend = 0, frame = 0
 633              		@ frame_needed = 0, uses_anonymous_args = 0
 634              	.LVL69:
 635 0000 08B5     		push	{r3, lr}
 636              		.cfi_def_cfa_offset 8
 637              		.cfi_offset 3, -8
 638              		.cfi_offset 14, -4
 198:Generated_Source\PSoC5/LCD.c ****     {
 639              		.loc 1 198 0
 640 0002 0328     		cmp	r0, #3
 641 0004 19D8     		bhi	.L41
 642 0006 DFE800F0 		tbb	[pc, r0]
 643              	.L44:
 644 000a 02       		.byte	(.L43-.L44)/2
 645 000b 07       		.byte	(.L45-.L44)/2
 646 000c 0D       		.byte	(.L46-.L44)/2
 647 000d 13       		.byte	(.L47-.L44)/2
 648              		.p2align 1
 649              	.L43:
 201:Generated_Source\PSoC5/LCD.c ****             break;
 650              		.loc 1 201 0
 651 000e 81F08000 		eor	r0, r1, #128
 652              	.LVL70:
 653 0012 FFF7FEFF 		bl	LCD_WriteControl
 654              	.LVL71:
 202:Generated_Source\PSoC5/LCD.c ****         case (uint8) 1:
 655              		.loc 1 202 0
 656 0016 08BD     		pop	{r3, pc}
 657              	.LVL72:
 658              	.L45:
 204:Generated_Source\PSoC5/LCD.c ****             break;
 659              		.loc 1 204 0
 660 0018 A1F14000 		sub	r0, r1, #64
 661              	.LVL73:
 662 001c C0B2     		uxtb	r0, r0
 663 001e FFF7FEFF 		bl	LCD_WriteControl
 664              	.LVL74:
 205:Generated_Source\PSoC5/LCD.c ****         case (uint8) 2:
 665              		.loc 1 205 0
 666 0022 08BD     		pop	{r3, pc}
 667              	.LVL75:
 668              	.L46:
ARM GAS  C:\Users\antarp\AppData\Local\Temp\cceqIFkS.s 			page 24


 207:Generated_Source\PSoC5/LCD.c ****             break;
 669              		.loc 1 207 0
 670 0024 A1F16C00 		sub	r0, r1, #108
 671              	.LVL76:
 672 0028 C0B2     		uxtb	r0, r0
 673 002a FFF7FEFF 		bl	LCD_WriteControl
 674              	.LVL77:
 208:Generated_Source\PSoC5/LCD.c ****         case (uint8) 3:
 675              		.loc 1 208 0
 676 002e 08BD     		pop	{r3, pc}
 677              	.LVL78:
 678              	.L47:
 210:Generated_Source\PSoC5/LCD.c ****             break;
 679              		.loc 1 210 0
 680 0030 A1F12C00 		sub	r0, r1, #44
 681              	.LVL79:
 682 0034 C0B2     		uxtb	r0, r0
 683 0036 FFF7FEFF 		bl	LCD_WriteControl
 684              	.LVL80:
 685              	.L41:
 686 003a 08BD     		pop	{r3, pc}
 687              		.cfi_endproc
 688              	.LFE4:
 689              		.size	LCD_Position, .-LCD_Position
 690              		.section	.text.LCD_PrintInt8,"ax",%progbits
 691              		.align	2
 692              		.global	LCD_PrintInt8
 693              		.thumb
 694              		.thumb_func
 695              		.type	LCD_PrintInt8, %function
 696              	LCD_PrintInt8:
 697              	.LFB12:
 549:Generated_Source\PSoC5/LCD.c **** }
 550:Generated_Source\PSoC5/LCD.c **** 
 551:Generated_Source\PSoC5/LCD.c **** 
 552:Generated_Source\PSoC5/LCD.c **** #if(LCD_CONVERSION_ROUTINES == 1u)
 553:Generated_Source\PSoC5/LCD.c **** 
 554:Generated_Source\PSoC5/LCD.c ****     /*******************************************************************************
 555:Generated_Source\PSoC5/LCD.c ****     *  Function Name: LCD_PrintInt8
 556:Generated_Source\PSoC5/LCD.c ****     ********************************************************************************
 557:Generated_Source\PSoC5/LCD.c ****     *
 558:Generated_Source\PSoC5/LCD.c ****     * Summary:
 559:Generated_Source\PSoC5/LCD.c ****     *  Print a byte as two ASCII characters.
 560:Generated_Source\PSoC5/LCD.c ****     *
 561:Generated_Source\PSoC5/LCD.c ****     * Parameters:
 562:Generated_Source\PSoC5/LCD.c ****     *  value: The byte to be printed out as ASCII characters.
 563:Generated_Source\PSoC5/LCD.c ****     *
 564:Generated_Source\PSoC5/LCD.c ****     * Return:
 565:Generated_Source\PSoC5/LCD.c ****     *  None.
 566:Generated_Source\PSoC5/LCD.c ****     *
 567:Generated_Source\PSoC5/LCD.c ****     *******************************************************************************/
 568:Generated_Source\PSoC5/LCD.c ****     void LCD_PrintInt8(uint8 value) 
 569:Generated_Source\PSoC5/LCD.c ****     {
 698              		.loc 1 569 0
 699              		.cfi_startproc
 700              		@ args = 0, pretend = 0, frame = 0
 701              		@ frame_needed = 0, uses_anonymous_args = 0
ARM GAS  C:\Users\antarp\AppData\Local\Temp\cceqIFkS.s 			page 25


 702              	.LVL81:
 703 0000 38B5     		push	{r3, r4, r5, lr}
 704              		.cfi_def_cfa_offset 16
 705              		.cfi_offset 3, -16
 706              		.cfi_offset 4, -12
 707              		.cfi_offset 5, -8
 708              		.cfi_offset 14, -4
 709 0002 0446     		mov	r4, r0
 570:Generated_Source\PSoC5/LCD.c ****         static char8 const CYCODE LCD_hex[16u] = "0123456789ABCDEF";
 571:Generated_Source\PSoC5/LCD.c ****         
 572:Generated_Source\PSoC5/LCD.c ****         LCD_PutChar((char8) LCD_hex[value >> LCD_BYTE_UPPER_NIBBLE_SHIFT]);
 710              		.loc 1 572 0
 711 0004 0309     		lsrs	r3, r0, #4
 712 0006 054D     		ldr	r5, .L51
 713 0008 E85C     		ldrb	r0, [r5, r3]	@ zero_extendqisi2
 714              	.LVL82:
 715 000a FFF7FEFF 		bl	LCD_PutChar
 716              	.LVL83:
 573:Generated_Source\PSoC5/LCD.c ****         LCD_PutChar((char8) LCD_hex[value & LCD_BYTE_LOWER_NIBBLE_MASK]);
 717              		.loc 1 573 0
 718 000e 04F00F04 		and	r4, r4, #15
 719 0012 285D     		ldrb	r0, [r5, r4]	@ zero_extendqisi2
 720 0014 FFF7FEFF 		bl	LCD_PutChar
 721              	.LVL84:
 722 0018 38BD     		pop	{r3, r4, r5, pc}
 723              	.L52:
 724 001a 00BF     		.align	2
 725              	.L51:
 726 001c 00000000 		.word	.LANCHOR1
 727              		.cfi_endproc
 728              	.LFE12:
 729              		.size	LCD_PrintInt8, .-LCD_PrintInt8
 730              		.section	.text.LCD_PrintInt16,"ax",%progbits
 731              		.align	2
 732              		.global	LCD_PrintInt16
 733              		.thumb
 734              		.thumb_func
 735              		.type	LCD_PrintInt16, %function
 736              	LCD_PrintInt16:
 737              	.LFB13:
 574:Generated_Source\PSoC5/LCD.c ****     }
 575:Generated_Source\PSoC5/LCD.c **** 
 576:Generated_Source\PSoC5/LCD.c **** 
 577:Generated_Source\PSoC5/LCD.c ****     /*******************************************************************************
 578:Generated_Source\PSoC5/LCD.c ****     *  Function Name: LCD_PrintInt16
 579:Generated_Source\PSoC5/LCD.c ****     ********************************************************************************
 580:Generated_Source\PSoC5/LCD.c ****     *
 581:Generated_Source\PSoC5/LCD.c ****     * Summary:
 582:Generated_Source\PSoC5/LCD.c ****     *  Print a uint16 as four ASCII characters.
 583:Generated_Source\PSoC5/LCD.c ****     *
 584:Generated_Source\PSoC5/LCD.c ****     * Parameters:
 585:Generated_Source\PSoC5/LCD.c ****     *  value: The uint16 to be printed out as ASCII characters.
 586:Generated_Source\PSoC5/LCD.c ****     *
 587:Generated_Source\PSoC5/LCD.c ****     * Return:
 588:Generated_Source\PSoC5/LCD.c ****     *  None.
 589:Generated_Source\PSoC5/LCD.c ****     *
 590:Generated_Source\PSoC5/LCD.c ****     *******************************************************************************/
ARM GAS  C:\Users\antarp\AppData\Local\Temp\cceqIFkS.s 			page 26


 591:Generated_Source\PSoC5/LCD.c ****     void LCD_PrintInt16(uint16 value) 
 592:Generated_Source\PSoC5/LCD.c ****     {
 738              		.loc 1 592 0
 739              		.cfi_startproc
 740              		@ args = 0, pretend = 0, frame = 0
 741              		@ frame_needed = 0, uses_anonymous_args = 0
 742              	.LVL85:
 743 0000 10B5     		push	{r4, lr}
 744              		.cfi_def_cfa_offset 8
 745              		.cfi_offset 4, -8
 746              		.cfi_offset 14, -4
 747 0002 0446     		mov	r4, r0
 593:Generated_Source\PSoC5/LCD.c ****         LCD_PrintInt8((uint8)(value >> LCD_U16_UPPER_BYTE_SHIFT));
 748              		.loc 1 593 0
 749 0004 000A     		lsrs	r0, r0, #8
 750              	.LVL86:
 751 0006 FFF7FEFF 		bl	LCD_PrintInt8
 752              	.LVL87:
 594:Generated_Source\PSoC5/LCD.c ****         LCD_PrintInt8((uint8)(value & LCD_U16_LOWER_BYTE_MASK));
 753              		.loc 1 594 0
 754 000a E0B2     		uxtb	r0, r4
 755 000c FFF7FEFF 		bl	LCD_PrintInt8
 756              	.LVL88:
 757 0010 10BD     		pop	{r4, pc}
 758              		.cfi_endproc
 759              	.LFE13:
 760              		.size	LCD_PrintInt16, .-LCD_PrintInt16
 761 0012 00BF     		.section	.text.LCD_PrintInt32,"ax",%progbits
 762              		.align	2
 763              		.global	LCD_PrintInt32
 764              		.thumb
 765              		.thumb_func
 766              		.type	LCD_PrintInt32, %function
 767              	LCD_PrintInt32:
 768              	.LFB14:
 595:Generated_Source\PSoC5/LCD.c ****     }
 596:Generated_Source\PSoC5/LCD.c **** 
 597:Generated_Source\PSoC5/LCD.c ****     
 598:Generated_Source\PSoC5/LCD.c ****     /*******************************************************************************
 599:Generated_Source\PSoC5/LCD.c ****     *  Function Name: LCD_PrintInt32
 600:Generated_Source\PSoC5/LCD.c ****     ********************************************************************************
 601:Generated_Source\PSoC5/LCD.c ****     *
 602:Generated_Source\PSoC5/LCD.c ****     * Summary:
 603:Generated_Source\PSoC5/LCD.c ****     *  Print a uint32 hexadecimal number as eight ASCII characters.
 604:Generated_Source\PSoC5/LCD.c ****     *
 605:Generated_Source\PSoC5/LCD.c ****     * Parameters:
 606:Generated_Source\PSoC5/LCD.c ****     *  value: The uint32 to be printed out as ASCII characters.
 607:Generated_Source\PSoC5/LCD.c ****     *
 608:Generated_Source\PSoC5/LCD.c ****     * Return:
 609:Generated_Source\PSoC5/LCD.c ****     *  None.
 610:Generated_Source\PSoC5/LCD.c ****     *
 611:Generated_Source\PSoC5/LCD.c ****     *******************************************************************************/
 612:Generated_Source\PSoC5/LCD.c ****     void LCD_PrintInt32(uint32 value) 
 613:Generated_Source\PSoC5/LCD.c ****     {
 769              		.loc 1 613 0
 770              		.cfi_startproc
 771              		@ args = 0, pretend = 0, frame = 0
ARM GAS  C:\Users\antarp\AppData\Local\Temp\cceqIFkS.s 			page 27


 772              		@ frame_needed = 0, uses_anonymous_args = 0
 773              	.LVL89:
 774 0000 38B5     		push	{r3, r4, r5, lr}
 775              		.cfi_def_cfa_offset 16
 776              		.cfi_offset 3, -16
 777              		.cfi_offset 4, -12
 778              		.cfi_offset 5, -8
 779              		.cfi_offset 14, -4
 780 0002 0546     		mov	r5, r0
 781              	.LVL90:
 614:Generated_Source\PSoC5/LCD.c ****         uint8 shift = LCD_32_BIT_SHIFT;
 782              		.loc 1 614 0
 783 0004 2024     		movs	r4, #32
 615:Generated_Source\PSoC5/LCD.c ****         
 616:Generated_Source\PSoC5/LCD.c ****         while (shift != 0u)
 784              		.loc 1 616 0
 785 0006 06E0     		b	.L56
 786              	.LVL91:
 787              	.L57:
 617:Generated_Source\PSoC5/LCD.c ****         {
 618:Generated_Source\PSoC5/LCD.c ****             /* "shift" var is to be subtracted by 8 prior shifting. This implements 
 619:Generated_Source\PSoC5/LCD.c ****             * shifting by 24, 16, 8 and 0u. 
 620:Generated_Source\PSoC5/LCD.c ****             */
 621:Generated_Source\PSoC5/LCD.c ****             shift -= LCD_8_BIT_SHIFT;
 788              		.loc 1 621 0
 789 0008 083C     		subs	r4, r4, #8
 790              	.LVL92:
 791 000a E4B2     		uxtb	r4, r4
 792              	.LVL93:
 622:Generated_Source\PSoC5/LCD.c ****             
 623:Generated_Source\PSoC5/LCD.c ****             /* Print 8 bits of uint32 hex number */
 624:Generated_Source\PSoC5/LCD.c ****             LCD_PrintInt8((uint8) ((uint32) (value >> shift)));
 793              		.loc 1 624 0
 794 000c 25FA04F0 		lsr	r0, r5, r4
 795 0010 C0B2     		uxtb	r0, r0
 796 0012 FFF7FEFF 		bl	LCD_PrintInt8
 797              	.LVL94:
 798              	.L56:
 616:Generated_Source\PSoC5/LCD.c ****         {
 799              		.loc 1 616 0
 800 0016 002C     		cmp	r4, #0
 801 0018 F6D1     		bne	.L57
 625:Generated_Source\PSoC5/LCD.c ****         }
 626:Generated_Source\PSoC5/LCD.c ****     }
 802              		.loc 1 626 0
 803 001a 38BD     		pop	{r3, r4, r5, pc}
 804              		.cfi_endproc
 805              	.LFE14:
 806              		.size	LCD_PrintInt32, .-LCD_PrintInt32
 807              		.section	.text.LCD_PrintU32Number,"ax",%progbits
 808              		.align	2
 809              		.global	LCD_PrintU32Number
 810              		.thumb
 811              		.thumb_func
 812              		.type	LCD_PrintU32Number, %function
 813              	LCD_PrintU32Number:
 814              	.LFB15:
ARM GAS  C:\Users\antarp\AppData\Local\Temp\cceqIFkS.s 			page 28


 627:Generated_Source\PSoC5/LCD.c ****     
 628:Generated_Source\PSoC5/LCD.c ****     
 629:Generated_Source\PSoC5/LCD.c ****     /*******************************************************************************
 630:Generated_Source\PSoC5/LCD.c ****     *  Function Name: LCD_PrintNumber
 631:Generated_Source\PSoC5/LCD.c ****     ********************************************************************************
 632:Generated_Source\PSoC5/LCD.c ****     *
 633:Generated_Source\PSoC5/LCD.c ****     * Summary:
 634:Generated_Source\PSoC5/LCD.c ****     *  Print an uint16 value as a left-justified decimal value.
 635:Generated_Source\PSoC5/LCD.c ****     *
 636:Generated_Source\PSoC5/LCD.c ****     * Parameters:
 637:Generated_Source\PSoC5/LCD.c ****     *  value: A 16-bit value to be printed in ASCII characters as a decimal number
 638:Generated_Source\PSoC5/LCD.c ****     *
 639:Generated_Source\PSoC5/LCD.c ****     * Return:
 640:Generated_Source\PSoC5/LCD.c ****     *  None.
 641:Generated_Source\PSoC5/LCD.c ****     *
 642:Generated_Source\PSoC5/LCD.c ****     * Note:
 643:Generated_Source\PSoC5/LCD.c ****     *  This function is implemented as a macro.
 644:Generated_Source\PSoC5/LCD.c ****     *
 645:Generated_Source\PSoC5/LCD.c ****     *******************************************************************************/
 646:Generated_Source\PSoC5/LCD.c **** 
 647:Generated_Source\PSoC5/LCD.c ****     
 648:Generated_Source\PSoC5/LCD.c ****     /*******************************************************************************
 649:Generated_Source\PSoC5/LCD.c ****     *  Function Name: LCD_PrintU32Number
 650:Generated_Source\PSoC5/LCD.c ****     ********************************************************************************
 651:Generated_Source\PSoC5/LCD.c ****     *
 652:Generated_Source\PSoC5/LCD.c ****     * Summary:
 653:Generated_Source\PSoC5/LCD.c ****     *  Print an uint32 value as a left-justified decimal value.
 654:Generated_Source\PSoC5/LCD.c ****     *
 655:Generated_Source\PSoC5/LCD.c ****     * Parameters:
 656:Generated_Source\PSoC5/LCD.c ****     *  value: A 32-bit value to be printed in ASCII characters as a decimal number
 657:Generated_Source\PSoC5/LCD.c ****     *
 658:Generated_Source\PSoC5/LCD.c ****     * Return:
 659:Generated_Source\PSoC5/LCD.c ****     *  None.
 660:Generated_Source\PSoC5/LCD.c ****     *
 661:Generated_Source\PSoC5/LCD.c ****     *******************************************************************************/
 662:Generated_Source\PSoC5/LCD.c ****     void LCD_PrintU32Number(uint32 value) 
 663:Generated_Source\PSoC5/LCD.c ****     {
 815              		.loc 1 663 0
 816              		.cfi_startproc
 817              		@ args = 0, pretend = 0, frame = 16
 818              		@ frame_needed = 0, uses_anonymous_args = 0
 819              	.LVL95:
 820 0000 10B5     		push	{r4, lr}
 821              		.cfi_def_cfa_offset 8
 822              		.cfi_offset 4, -8
 823              		.cfi_offset 14, -4
 824 0002 84B0     		sub	sp, sp, #16
 825              		.cfi_def_cfa_offset 24
 826              	.LVL96:
 664:Generated_Source\PSoC5/LCD.c ****         uint8 tmpDigit;
 665:Generated_Source\PSoC5/LCD.c ****         char8 number[LCD_NUMBER_OF_REMAINDERS_U32 + 1u];
 666:Generated_Source\PSoC5/LCD.c ****         uint8 digIndex = LCD_NUMBER_OF_REMAINDERS_U32;
 667:Generated_Source\PSoC5/LCD.c ****         
 668:Generated_Source\PSoC5/LCD.c ****         /* This API will output a decimal number as a string and that string will be 
 669:Generated_Source\PSoC5/LCD.c ****         * filled from end to start. Set Null termination character first.
 670:Generated_Source\PSoC5/LCD.c ****         */
 671:Generated_Source\PSoC5/LCD.c ****         number[digIndex] = (char8) '\0';
ARM GAS  C:\Users\antarp\AppData\Local\Temp\cceqIFkS.s 			page 29


 827              		.loc 1 671 0
 828 0004 0023     		movs	r3, #0
 829 0006 8DF80E30 		strb	r3, [sp, #14]
 830              	.LVL97:
 672:Generated_Source\PSoC5/LCD.c ****         digIndex--;
 831              		.loc 1 672 0
 832 000a 0922     		movs	r2, #9
 673:Generated_Source\PSoC5/LCD.c ****         
 674:Generated_Source\PSoC5/LCD.c ****         /* Load these in reverse order */
 675:Generated_Source\PSoC5/LCD.c ****         while(value >= LCD_TEN)
 833              		.loc 1 675 0
 834 000c 11E0     		b	.L60
 835              	.LVL98:
 836              	.L61:
 676:Generated_Source\PSoC5/LCD.c ****         {
 677:Generated_Source\PSoC5/LCD.c ****             /* Extract decimal digit, indexed by 'digIndex', from 'value' and
 678:Generated_Source\PSoC5/LCD.c ****             * convert it to ASCII character.
 679:Generated_Source\PSoC5/LCD.c ****             */
 680:Generated_Source\PSoC5/LCD.c ****             tmpDigit = (uint8) (((uint8) (value % LCD_TEN)) + (uint8) LCD_ZERO_CHAR_ASCII);
 837              		.loc 1 680 0
 838 000e 144B     		ldr	r3, .L63
 839 0010 A3FB0013 		umull	r1, r3, r3, r0
 840 0014 DB08     		lsrs	r3, r3, #3
 841 0016 1C46     		mov	r4, r3
 842 0018 03EB8303 		add	r3, r3, r3, lsl #2
 843 001c 5900     		lsls	r1, r3, #1
 844 001e 431A     		subs	r3, r0, r1
 845 0020 DBB2     		uxtb	r3, r3
 846 0022 3033     		adds	r3, r3, #48
 847              	.LVL99:
 681:Generated_Source\PSoC5/LCD.c ****             
 682:Generated_Source\PSoC5/LCD.c ****             /* Temporary variable 'tmpDigit' is used to avoid Violation of MISRA rule 
 683:Generated_Source\PSoC5/LCD.c ****             * #10.3.
 684:Generated_Source\PSoC5/LCD.c ****             */
 685:Generated_Source\PSoC5/LCD.c ****             number[digIndex] = (char8) tmpDigit;
 848              		.loc 1 685 0
 849 0024 04A9     		add	r1, sp, #16
 850 0026 1144     		add	r1, r1, r2
 851 0028 01F80C3C 		strb	r3, [r1, #-12]
 686:Generated_Source\PSoC5/LCD.c ****             value /= LCD_TEN;
 852              		.loc 1 686 0
 853 002c 2046     		mov	r0, r4
 854              	.LVL100:
 687:Generated_Source\PSoC5/LCD.c ****             digIndex--;
 855              		.loc 1 687 0
 856 002e 013A     		subs	r2, r2, #1
 857              	.LVL101:
 858 0030 D2B2     		uxtb	r2, r2
 859              	.LVL102:
 860              	.L60:
 675:Generated_Source\PSoC5/LCD.c ****         {
 861              		.loc 1 675 0
 862 0032 0928     		cmp	r0, #9
 863 0034 EBD8     		bhi	.L61
 688:Generated_Source\PSoC5/LCD.c ****         }
 689:Generated_Source\PSoC5/LCD.c ****         
 690:Generated_Source\PSoC5/LCD.c ****         /* Extract last decimal digit 'digIndex', from the 'value' and convert it
ARM GAS  C:\Users\antarp\AppData\Local\Temp\cceqIFkS.s 			page 30


 691:Generated_Source\PSoC5/LCD.c ****         * to ASCII character.
 692:Generated_Source\PSoC5/LCD.c ****         */
 693:Generated_Source\PSoC5/LCD.c ****         tmpDigit = (uint8) (((uint8)(value % LCD_TEN)) + (uint8) LCD_ZERO_CHAR_ASCII);
 864              		.loc 1 693 0
 865 0036 0A4B     		ldr	r3, .L63
 866 0038 A3FB0013 		umull	r1, r3, r3, r0
 867 003c DB08     		lsrs	r3, r3, #3
 868 003e 03EB8303 		add	r3, r3, r3, lsl #2
 869 0042 5900     		lsls	r1, r3, #1
 870 0044 431A     		subs	r3, r0, r1
 871 0046 DBB2     		uxtb	r3, r3
 872 0048 3033     		adds	r3, r3, #48
 873              	.LVL103:
 694:Generated_Source\PSoC5/LCD.c ****         number[digIndex] = (char8) tmpDigit;
 874              		.loc 1 694 0
 875 004a 04A9     		add	r1, sp, #16
 876 004c 1144     		add	r1, r1, r2
 877 004e 01F80C3C 		strb	r3, [r1, #-12]
 695:Generated_Source\PSoC5/LCD.c **** 
 696:Generated_Source\PSoC5/LCD.c ****         /* Print out number */
 697:Generated_Source\PSoC5/LCD.c ****         LCD_PrintString(&number[digIndex]);
 878              		.loc 1 697 0
 879 0052 01AB     		add	r3, sp, #4
 880              	.LVL104:
 881 0054 9818     		adds	r0, r3, r2
 882              	.LVL105:
 883 0056 FFF7FEFF 		bl	LCD_PrintString
 884              	.LVL106:
 698:Generated_Source\PSoC5/LCD.c ****     }
 885              		.loc 1 698 0
 886 005a 04B0     		add	sp, sp, #16
 887              		.cfi_def_cfa_offset 8
 888              		@ sp needed
 889 005c 10BD     		pop	{r4, pc}
 890              	.L64:
 891 005e 00BF     		.align	2
 892              	.L63:
 893 0060 CDCCCCCC 		.word	-858993459
 894              		.cfi_endproc
 895              	.LFE15:
 896              		.size	LCD_PrintU32Number, .-LCD_PrintU32Number
 897              		.global	LCD_initVar
 898              		.global	LCD_enableState
 899              		.section	.rodata
 900              		.align	2
 901              		.set	.LANCHOR1,. + 0
 902              		.type	LCD_hex.5028, %object
 903              		.size	LCD_hex.5028, 16
 904              	LCD_hex.5028:
 905 0000 30313233 		.ascii	"0123456789ABCDEF"
 905      34353637 
 905      38394142 
 905      43444546 
 906              		.bss
 907              		.set	.LANCHOR0,. + 0
 908              		.type	LCD_enableState, %object
 909              		.size	LCD_enableState, 1
ARM GAS  C:\Users\antarp\AppData\Local\Temp\cceqIFkS.s 			page 31


 910              	LCD_enableState:
 911 0000 00       		.space	1
 912              		.type	LCD_initVar, %object
 913              		.size	LCD_initVar, 1
 914              	LCD_initVar:
 915 0001 00       		.space	1
 916              		.text
 917              	.Letext0:
 918              		.file 2 "Generated_Source\\PSoC5\\cytypes.h"
 919              		.file 3 "Generated_Source\\PSoC5\\CyLib.h"
