ARM GAS  C:\Users\antarp\AppData\Local\Temp\ccbzMc7u.s 			page 1


   1              		.syntax unified
   2              		.cpu cortex-m3
   3              		.fpu softvfp
   4              		.eabi_attribute 20, 1
   5              		.eabi_attribute 21, 1
   6              		.eabi_attribute 23, 3
   7              		.eabi_attribute 24, 1
   8              		.eabi_attribute 25, 1
   9              		.eabi_attribute 26, 1
  10              		.eabi_attribute 30, 1
  11              		.eabi_attribute 34, 1
  12              		.eabi_attribute 18, 4
  13              		.thumb
  14              		.syntax unified
  15              		.file	"select_digit.c"
  16              		.text
  17              	.Ltext0:
  18              		.cfi_sections	.debug_frame
  19              		.section	.text.select_digit_Write,"ax",%progbits
  20              		.align	2
  21              		.global	select_digit_Write
  22              		.thumb
  23              		.thumb_func
  24              		.type	select_digit_Write, %function
  25              	select_digit_Write:
  26              	.LFB0:
  27              		.file 1 "Generated_Source\\PSoC5\\select_digit.c"
   1:Generated_Source\PSoC5/select_digit.c **** /*******************************************************************************
   2:Generated_Source\PSoC5/select_digit.c **** * File Name: select_digit.c  
   3:Generated_Source\PSoC5/select_digit.c **** * Version 2.20
   4:Generated_Source\PSoC5/select_digit.c **** *
   5:Generated_Source\PSoC5/select_digit.c **** * Description:
   6:Generated_Source\PSoC5/select_digit.c **** *  This file contains API to enable firmware control of a Pins component.
   7:Generated_Source\PSoC5/select_digit.c **** *
   8:Generated_Source\PSoC5/select_digit.c **** * Note:
   9:Generated_Source\PSoC5/select_digit.c **** *
  10:Generated_Source\PSoC5/select_digit.c **** ********************************************************************************
  11:Generated_Source\PSoC5/select_digit.c **** * Copyright 2008-2015, Cypress Semiconductor Corporation.  All rights reserved.
  12:Generated_Source\PSoC5/select_digit.c **** * You may use this file only in accordance with the license, terms, conditions, 
  13:Generated_Source\PSoC5/select_digit.c **** * disclaimers, and limitations in the end user license agreement accompanying 
  14:Generated_Source\PSoC5/select_digit.c **** * the software package with which this file was provided.
  15:Generated_Source\PSoC5/select_digit.c **** *******************************************************************************/
  16:Generated_Source\PSoC5/select_digit.c **** 
  17:Generated_Source\PSoC5/select_digit.c **** #include "cytypes.h"
  18:Generated_Source\PSoC5/select_digit.c **** #include "select_digit.h"
  19:Generated_Source\PSoC5/select_digit.c **** 
  20:Generated_Source\PSoC5/select_digit.c **** /* APIs are not generated for P15[7:6] on PSoC 5 */
  21:Generated_Source\PSoC5/select_digit.c **** #if !(CY_PSOC5A &&\
  22:Generated_Source\PSoC5/select_digit.c **** 	 select_digit__PORT == 15 && ((select_digit__MASK & 0xC0) != 0))
  23:Generated_Source\PSoC5/select_digit.c **** 
  24:Generated_Source\PSoC5/select_digit.c **** 
  25:Generated_Source\PSoC5/select_digit.c **** /*******************************************************************************
  26:Generated_Source\PSoC5/select_digit.c **** * Function Name: select_digit_Write
  27:Generated_Source\PSoC5/select_digit.c **** ****************************************************************************//**
  28:Generated_Source\PSoC5/select_digit.c **** *
  29:Generated_Source\PSoC5/select_digit.c **** * \brief Writes the value to the physical port (data output register), masking
  30:Generated_Source\PSoC5/select_digit.c **** *  and shifting the bits appropriately. 
ARM GAS  C:\Users\antarp\AppData\Local\Temp\ccbzMc7u.s 			page 2


  31:Generated_Source\PSoC5/select_digit.c **** *
  32:Generated_Source\PSoC5/select_digit.c **** * The data output register controls the signal applied to the physical pin in 
  33:Generated_Source\PSoC5/select_digit.c **** * conjunction with the drive mode parameter. This function avoids changing 
  34:Generated_Source\PSoC5/select_digit.c **** * other bits in the port by using the appropriate method (read-modify-write or
  35:Generated_Source\PSoC5/select_digit.c **** * bit banding).
  36:Generated_Source\PSoC5/select_digit.c **** *
  37:Generated_Source\PSoC5/select_digit.c **** * <b>Note</b> This function should not be used on a hardware digital output pin 
  38:Generated_Source\PSoC5/select_digit.c **** * as it is driven by the hardware signal attached to it.
  39:Generated_Source\PSoC5/select_digit.c **** *
  40:Generated_Source\PSoC5/select_digit.c **** * \param value
  41:Generated_Source\PSoC5/select_digit.c **** *  Value to write to the component instance.
  42:Generated_Source\PSoC5/select_digit.c **** *
  43:Generated_Source\PSoC5/select_digit.c **** * \return 
  44:Generated_Source\PSoC5/select_digit.c **** *  None 
  45:Generated_Source\PSoC5/select_digit.c **** *
  46:Generated_Source\PSoC5/select_digit.c **** * \sideeffect
  47:Generated_Source\PSoC5/select_digit.c **** *  If you use read-modify-write operations that are not atomic; the Interrupt 
  48:Generated_Source\PSoC5/select_digit.c **** *  Service Routines (ISR) can cause corruption of this function. An ISR that 
  49:Generated_Source\PSoC5/select_digit.c **** *  interrupts this function and performs writes to the Pins component data 
  50:Generated_Source\PSoC5/select_digit.c **** *  register can cause corrupted port data. To avoid this issue, you should 
  51:Generated_Source\PSoC5/select_digit.c **** *  either use the Per-Pin APIs (primary method) or disable interrupts around 
  52:Generated_Source\PSoC5/select_digit.c **** *  this function.
  53:Generated_Source\PSoC5/select_digit.c **** *
  54:Generated_Source\PSoC5/select_digit.c **** * \funcusage
  55:Generated_Source\PSoC5/select_digit.c **** *  \snippet select_digit_SUT.c usage_select_digit_Write
  56:Generated_Source\PSoC5/select_digit.c **** *******************************************************************************/
  57:Generated_Source\PSoC5/select_digit.c **** void select_digit_Write(uint8 value)
  58:Generated_Source\PSoC5/select_digit.c **** {
  28              		.loc 1 58 0
  29              		.cfi_startproc
  30              		@ args = 0, pretend = 0, frame = 0
  31              		@ frame_needed = 0, uses_anonymous_args = 0
  32              		@ link register save eliminated.
  33              	.LVL0:
  59:Generated_Source\PSoC5/select_digit.c ****     uint8 staticBits = (select_digit_DR & (uint8)(~select_digit_MASK));
  34              		.loc 1 59 0
  35 0000 044A     		ldr	r2, .L2
  36 0002 1378     		ldrb	r3, [r2]	@ zero_extendqisi2
  37 0004 03F0DF03 		and	r3, r3, #223
  38              	.LVL1:
  60:Generated_Source\PSoC5/select_digit.c ****     select_digit_DR = staticBits | ((uint8)(value << select_digit_SHIFT) & select_digit_MASK);
  39              		.loc 1 60 0
  40 0008 4001     		lsls	r0, r0, #5
  41              	.LVL2:
  42 000a 00F02000 		and	r0, r0, #32
  43 000e 1843     		orrs	r0, r0, r3
  44 0010 1070     		strb	r0, [r2]
  45 0012 7047     		bx	lr
  46              	.L3:
  47              		.align	2
  48              	.L2:
  49 0014 F0510040 		.word	1073762800
  50              		.cfi_endproc
  51              	.LFE0:
  52              		.size	select_digit_Write, .-select_digit_Write
  53              		.section	.text.select_digit_SetDriveMode,"ax",%progbits
  54              		.align	2
ARM GAS  C:\Users\antarp\AppData\Local\Temp\ccbzMc7u.s 			page 3


  55              		.global	select_digit_SetDriveMode
  56              		.thumb
  57              		.thumb_func
  58              		.type	select_digit_SetDriveMode, %function
  59              	select_digit_SetDriveMode:
  60              	.LFB1:
  61:Generated_Source\PSoC5/select_digit.c **** }
  62:Generated_Source\PSoC5/select_digit.c **** 
  63:Generated_Source\PSoC5/select_digit.c **** 
  64:Generated_Source\PSoC5/select_digit.c **** /*******************************************************************************
  65:Generated_Source\PSoC5/select_digit.c **** * Function Name: select_digit_SetDriveMode
  66:Generated_Source\PSoC5/select_digit.c **** ****************************************************************************//**
  67:Generated_Source\PSoC5/select_digit.c **** *
  68:Generated_Source\PSoC5/select_digit.c **** * \brief Sets the drive mode for each of the Pins component's pins.
  69:Generated_Source\PSoC5/select_digit.c **** * 
  70:Generated_Source\PSoC5/select_digit.c **** * <b>Note</b> This affects all pins in the Pins component instance. Use the
  71:Generated_Source\PSoC5/select_digit.c **** * Per-Pin APIs if you wish to control individual pin's drive modes.
  72:Generated_Source\PSoC5/select_digit.c **** *
  73:Generated_Source\PSoC5/select_digit.c **** * \param mode
  74:Generated_Source\PSoC5/select_digit.c **** *  Mode for the selected signals. Valid options are documented in 
  75:Generated_Source\PSoC5/select_digit.c **** *  \ref driveMode.
  76:Generated_Source\PSoC5/select_digit.c **** *
  77:Generated_Source\PSoC5/select_digit.c **** * \return
  78:Generated_Source\PSoC5/select_digit.c **** *  None
  79:Generated_Source\PSoC5/select_digit.c **** *
  80:Generated_Source\PSoC5/select_digit.c **** * \sideeffect
  81:Generated_Source\PSoC5/select_digit.c **** *  If you use read-modify-write operations that are not atomic, the ISR can
  82:Generated_Source\PSoC5/select_digit.c **** *  cause corruption of this function. An ISR that interrupts this function 
  83:Generated_Source\PSoC5/select_digit.c **** *  and performs writes to the Pins component Drive Mode registers can cause 
  84:Generated_Source\PSoC5/select_digit.c **** *  corrupted port data. To avoid this issue, you should either use the Per-Pin
  85:Generated_Source\PSoC5/select_digit.c **** *  APIs (primary method) or disable interrupts around this function.
  86:Generated_Source\PSoC5/select_digit.c **** *
  87:Generated_Source\PSoC5/select_digit.c **** * \funcusage
  88:Generated_Source\PSoC5/select_digit.c **** *  \snippet select_digit_SUT.c usage_select_digit_SetDriveMode
  89:Generated_Source\PSoC5/select_digit.c **** *******************************************************************************/
  90:Generated_Source\PSoC5/select_digit.c **** void select_digit_SetDriveMode(uint8 mode)
  91:Generated_Source\PSoC5/select_digit.c **** {
  61              		.loc 1 91 0
  62              		.cfi_startproc
  63              		@ args = 0, pretend = 0, frame = 0
  64              		@ frame_needed = 0, uses_anonymous_args = 0
  65              		@ link register save eliminated.
  66              	.LVL3:
  92:Generated_Source\PSoC5/select_digit.c **** 	CyPins_SetPinDriveMode(select_digit_0, mode);
  67              		.loc 1 92 0
  68 0000 044A     		ldr	r2, .L5
  69 0002 1378     		ldrb	r3, [r2]	@ zero_extendqisi2
  70 0004 03F0F103 		and	r3, r3, #241
  71 0008 00F00E00 		and	r0, r0, #14
  72              	.LVL4:
  73 000c 1843     		orrs	r0, r0, r3
  74 000e 1070     		strb	r0, [r2]
  75 0010 7047     		bx	lr
  76              	.L6:
  77 0012 00BF     		.align	2
  78              	.L5:
  79 0014 7D500040 		.word	1073762429
ARM GAS  C:\Users\antarp\AppData\Local\Temp\ccbzMc7u.s 			page 4


  80              		.cfi_endproc
  81              	.LFE1:
  82              		.size	select_digit_SetDriveMode, .-select_digit_SetDriveMode
  83              		.section	.text.select_digit_Read,"ax",%progbits
  84              		.align	2
  85              		.global	select_digit_Read
  86              		.thumb
  87              		.thumb_func
  88              		.type	select_digit_Read, %function
  89              	select_digit_Read:
  90              	.LFB2:
  93:Generated_Source\PSoC5/select_digit.c **** }
  94:Generated_Source\PSoC5/select_digit.c **** 
  95:Generated_Source\PSoC5/select_digit.c **** 
  96:Generated_Source\PSoC5/select_digit.c **** /*******************************************************************************
  97:Generated_Source\PSoC5/select_digit.c **** * Function Name: select_digit_Read
  98:Generated_Source\PSoC5/select_digit.c **** ****************************************************************************//**
  99:Generated_Source\PSoC5/select_digit.c **** *
 100:Generated_Source\PSoC5/select_digit.c **** * \brief Reads the associated physical port (pin status register) and masks 
 101:Generated_Source\PSoC5/select_digit.c **** *  the required bits according to the width and bit position of the component
 102:Generated_Source\PSoC5/select_digit.c **** *  instance. 
 103:Generated_Source\PSoC5/select_digit.c **** *
 104:Generated_Source\PSoC5/select_digit.c **** * The pin's status register returns the current logic level present on the 
 105:Generated_Source\PSoC5/select_digit.c **** * physical pin.
 106:Generated_Source\PSoC5/select_digit.c **** *
 107:Generated_Source\PSoC5/select_digit.c **** * \return 
 108:Generated_Source\PSoC5/select_digit.c **** *  The current value for the pins in the component as a right justified number.
 109:Generated_Source\PSoC5/select_digit.c **** *
 110:Generated_Source\PSoC5/select_digit.c **** * \funcusage
 111:Generated_Source\PSoC5/select_digit.c **** *  \snippet select_digit_SUT.c usage_select_digit_Read  
 112:Generated_Source\PSoC5/select_digit.c **** *******************************************************************************/
 113:Generated_Source\PSoC5/select_digit.c **** uint8 select_digit_Read(void)
 114:Generated_Source\PSoC5/select_digit.c **** {
  91              		.loc 1 114 0
  92              		.cfi_startproc
  93              		@ args = 0, pretend = 0, frame = 0
  94              		@ frame_needed = 0, uses_anonymous_args = 0
  95              		@ link register save eliminated.
 115:Generated_Source\PSoC5/select_digit.c ****     return (select_digit_PS & select_digit_MASK) >> select_digit_SHIFT;
  96              		.loc 1 115 0
  97 0000 024B     		ldr	r3, .L8
  98 0002 1878     		ldrb	r0, [r3]	@ zero_extendqisi2
 116:Generated_Source\PSoC5/select_digit.c **** }
  99              		.loc 1 116 0
 100 0004 C0F34010 		ubfx	r0, r0, #5, #1
 101 0008 7047     		bx	lr
 102              	.L9:
 103 000a 00BF     		.align	2
 104              	.L8:
 105 000c F1510040 		.word	1073762801
 106              		.cfi_endproc
 107              	.LFE2:
 108              		.size	select_digit_Read, .-select_digit_Read
 109              		.section	.text.select_digit_ReadDataReg,"ax",%progbits
 110              		.align	2
 111              		.global	select_digit_ReadDataReg
 112              		.thumb
ARM GAS  C:\Users\antarp\AppData\Local\Temp\ccbzMc7u.s 			page 5


 113              		.thumb_func
 114              		.type	select_digit_ReadDataReg, %function
 115              	select_digit_ReadDataReg:
 116              	.LFB3:
 117:Generated_Source\PSoC5/select_digit.c **** 
 118:Generated_Source\PSoC5/select_digit.c **** 
 119:Generated_Source\PSoC5/select_digit.c **** /*******************************************************************************
 120:Generated_Source\PSoC5/select_digit.c **** * Function Name: select_digit_ReadDataReg
 121:Generated_Source\PSoC5/select_digit.c **** ****************************************************************************//**
 122:Generated_Source\PSoC5/select_digit.c **** *
 123:Generated_Source\PSoC5/select_digit.c **** * \brief Reads the associated physical port's data output register and masks 
 124:Generated_Source\PSoC5/select_digit.c **** *  the correct bits according to the width and bit position of the component 
 125:Generated_Source\PSoC5/select_digit.c **** *  instance. 
 126:Generated_Source\PSoC5/select_digit.c **** *
 127:Generated_Source\PSoC5/select_digit.c **** * The data output register controls the signal applied to the physical pin in 
 128:Generated_Source\PSoC5/select_digit.c **** * conjunction with the drive mode parameter. This is not the same as the 
 129:Generated_Source\PSoC5/select_digit.c **** * preferred select_digit_Read() API because the 
 130:Generated_Source\PSoC5/select_digit.c **** * select_digit_ReadDataReg() reads the data register instead of the status 
 131:Generated_Source\PSoC5/select_digit.c **** * register. For output pins this is a useful function to determine the value 
 132:Generated_Source\PSoC5/select_digit.c **** * just written to the pin.
 133:Generated_Source\PSoC5/select_digit.c **** *
 134:Generated_Source\PSoC5/select_digit.c **** * \return 
 135:Generated_Source\PSoC5/select_digit.c **** *  The current value of the data register masked and shifted into a right 
 136:Generated_Source\PSoC5/select_digit.c **** *  justified number for the component instance.
 137:Generated_Source\PSoC5/select_digit.c **** *
 138:Generated_Source\PSoC5/select_digit.c **** * \funcusage
 139:Generated_Source\PSoC5/select_digit.c **** *  \snippet select_digit_SUT.c usage_select_digit_ReadDataReg 
 140:Generated_Source\PSoC5/select_digit.c **** *******************************************************************************/
 141:Generated_Source\PSoC5/select_digit.c **** uint8 select_digit_ReadDataReg(void)
 142:Generated_Source\PSoC5/select_digit.c **** {
 117              		.loc 1 142 0
 118              		.cfi_startproc
 119              		@ args = 0, pretend = 0, frame = 0
 120              		@ frame_needed = 0, uses_anonymous_args = 0
 121              		@ link register save eliminated.
 143:Generated_Source\PSoC5/select_digit.c ****     return (select_digit_DR & select_digit_MASK) >> select_digit_SHIFT;
 122              		.loc 1 143 0
 123 0000 024B     		ldr	r3, .L11
 124 0002 1878     		ldrb	r0, [r3]	@ zero_extendqisi2
 144:Generated_Source\PSoC5/select_digit.c **** }
 125              		.loc 1 144 0
 126 0004 C0F34010 		ubfx	r0, r0, #5, #1
 127 0008 7047     		bx	lr
 128              	.L12:
 129 000a 00BF     		.align	2
 130              	.L11:
 131 000c F0510040 		.word	1073762800
 132              		.cfi_endproc
 133              	.LFE3:
 134              		.size	select_digit_ReadDataReg, .-select_digit_ReadDataReg
 135              		.text
 136              	.Letext0:
 137              		.file 2 "Generated_Source\\PSoC5\\cytypes.h"
