ARM GAS  C:\Users\antarp\AppData\Local\Temp\ccZbt3Zo.s 			page 1


   1              		.syntax unified
   2              		.cpu cortex-m3
   3              		.fpu softvfp
   4              		.eabi_attribute 20, 1
   5              		.eabi_attribute 21, 1
   6              		.eabi_attribute 23, 3
   7              		.eabi_attribute 24, 1
   8              		.eabi_attribute 25, 1
   9              		.eabi_attribute 26, 1
  10              		.eabi_attribute 30, 1
  11              		.eabi_attribute 34, 1
  12              		.eabi_attribute 18, 4
  13              		.thumb
  14              		.syntax unified
  15              		.file	"transmit.c"
  16              		.text
  17              	.Ltext0:
  18              		.cfi_sections	.debug_frame
  19              		.section	.text.uart_init,"ax",%progbits
  20              		.align	2
  21              		.global	uart_init
  22              		.thumb
  23              		.thumb_func
  24              		.type	uart_init, %function
  25              	uart_init:
  26              	.LFB63:
  27              		.file 1 "transmit.c"
   1:transmit.c    **** /* ========================================
   2:transmit.c    ****  *
   3:transmit.c    ****  * Copyright YOUR COMPANY, THE YEAR
   4:transmit.c    ****  * All Rights Reserved
   5:transmit.c    ****  * UNPUBLISHED, LICENSED SOFTWARE.
   6:transmit.c    ****  *
   7:transmit.c    ****  * CONFIDENTIAL AND PROPRIETARY INFORMATION
   8:transmit.c    ****  * WHICH IS THE PROPERTY OF your company.
   9:transmit.c    ****  *
  10:transmit.c    ****  * ========================================
  11:transmit.c    **** */
  12:transmit.c    **** #include "project.h"
  13:transmit.c    **** #include "transmit.h"
  14:transmit.c    **** #include "receive.h"
  15:transmit.c    **** #include "addr_input.h"
  16:transmit.c    **** 
  17:transmit.c    **** #define USBUART_BUFFER_SIZE (64u)
  18:transmit.c    **** int counter = 0;
  19:transmit.c    **** //int flag = 0; //o if no ENTER, 1 if ENTER
  20:transmit.c    **** uint16 double_buffer[USBUART_BUFFER_SIZE*2] = {0};
  21:transmit.c    **** int have_dest_address = 0;
  22:transmit.c    **** 
  23:transmit.c    **** void uart_init()
  24:transmit.c    **** {
  28              		.loc 1 24 0
  29              		.cfi_startproc
  30              		@ args = 0, pretend = 0, frame = 0
  31              		@ frame_needed = 0, uses_anonymous_args = 0
  32 0000 08B5     		push	{r3, lr}
  33              		.cfi_def_cfa_offset 8
ARM GAS  C:\Users\antarp\AppData\Local\Temp\ccZbt3Zo.s 			page 2


  34              		.cfi_offset 3, -8
  35              		.cfi_offset 14, -4
  25:transmit.c    ****     USBUART_Start(0, USBUART_3V_OPERATION);
  36              		.loc 1 25 0
  37 0002 0021     		movs	r1, #0
  38 0004 0846     		mov	r0, r1
  39 0006 FFF7FEFF 		bl	USBUART_Start
  40              	.LVL0:
  26:transmit.c    ****     flag = 0;
  41              		.loc 1 26 0
  42 000a 0023     		movs	r3, #0
  43 000c 024A     		ldr	r2, .L3
  44 000e 1360     		str	r3, [r2]
  27:transmit.c    ****     isTransmitting = 0;
  45              		.loc 1 27 0
  46 0010 024A     		ldr	r2, .L3+4
  47 0012 1360     		str	r3, [r2]
  48 0014 08BD     		pop	{r3, pc}
  49              	.L4:
  50 0016 00BF     		.align	2
  51              	.L3:
  52 0018 00000000 		.word	flag
  53 001c 00000000 		.word	isTransmitting
  54              		.cfi_endproc
  55              	.LFE63:
  56              		.size	uart_init, .-uart_init
  57              		.section	.text.add_zeros,"ax",%progbits
  58              		.align	2
  59              		.global	add_zeros
  60              		.thumb
  61              		.thumb_func
  62              		.type	add_zeros, %function
  63              	add_zeros:
  64              	.LFB64:
  28:transmit.c    **** }
  29:transmit.c    **** void add_zeros(uint8* buffer_source, uint16* buffer_dest, int count)
  30:transmit.c    **** {
  65              		.loc 1 30 0
  66              		.cfi_startproc
  67              		@ args = 0, pretend = 0, frame = 0
  68              		@ frame_needed = 0, uses_anonymous_args = 0
  69              		@ link register save eliminated.
  70              	.LVL1:
  71 0000 F0B4     		push	{r4, r5, r6, r7}
  72              		.cfi_def_cfa_offset 16
  73              		.cfi_offset 4, -16
  74              		.cfi_offset 5, -12
  75              		.cfi_offset 6, -8
  76              		.cfi_offset 7, -4
  77              	.LVL2:
  78              	.LBB2:
  31:transmit.c    ****     uint16 temp;
  32:transmit.c    ****     for (int j = 0; j < count; j++) //start at 7th byte, after header
  79              		.loc 1 32 0
  80 0002 0026     		movs	r6, #0
  81 0004 15E0     		b	.L6
  82              	.LVL3:
ARM GAS  C:\Users\antarp\AppData\Local\Temp\ccZbt3Zo.s 			page 3


  83              	.L7:
  84              	.LBB3:
  33:transmit.c    ****     {
  34:transmit.c    ****         for(int i = 0; i < 8; i++)
  35:transmit.c    ****         {
  36:transmit.c    ****            temp = *buffer_source & (1 << i);
  85              		.loc 1 36 0 discriminator 3
  86 0006 0478     		ldrb	r4, [r0]	@ zero_extendqisi2
  87 0008 0123     		movs	r3, #1
  88 000a AB40     		lsls	r3, r3, r5
  89 000c 2340     		ands	r3, r3, r4
  90              	.LVL4:
  37:transmit.c    ****            temp = temp >> i;
  91              		.loc 1 37 0 discriminator 3
  92 000e 43FA05F4 		asr	r4, r3, r5
  93              	.LVL5:
  38:transmit.c    ****            temp = temp << (2*i+1);
  94              		.loc 1 38 0 discriminator 3
  95 0012 6B00     		lsls	r3, r5, #1
  96 0014 5F1C     		adds	r7, r3, #1
  97 0016 A3B2     		uxth	r3, r4
  98 0018 BB40     		lsls	r3, r3, r7
  99 001a 9BB2     		uxth	r3, r3
 100              	.LVL6:
  39:transmit.c    ****            *(buffer_dest) = *(buffer_dest) | temp;
 101              		.loc 1 39 0 discriminator 3
 102 001c 0C88     		ldrh	r4, [r1]
 103 001e 2343     		orrs	r3, r3, r4
 104              	.LVL7:
 105 0020 0B80     		strh	r3, [r1]	@ movhi
 106              	.LVL8:
  34:transmit.c    ****         {
 107              		.loc 1 34 0 discriminator 3
 108 0022 0135     		adds	r5, r5, #1
 109              	.LVL9:
 110 0024 00E0     		b	.L8
 111              	.LVL10:
 112              	.L9:
 113              	.LBE3:
 114 0026 0025     		movs	r5, #0
 115              	.L8:
 116              	.LVL11:
 117              	.LBB4:
  34:transmit.c    ****         {
 118              		.loc 1 34 0 is_stmt 0 discriminator 1
 119 0028 072D     		cmp	r5, #7
 120 002a ECDD     		ble	.L7
 121              	.LVL12:
 122              	.LBE4:
  40:transmit.c    ****         }
  41:transmit.c    ****         buffer_source++;
 123              		.loc 1 41 0 is_stmt 1 discriminator 2
 124 002c 0130     		adds	r0, r0, #1
 125              	.LVL13:
  42:transmit.c    ****         buffer_dest++;
 126              		.loc 1 42 0 discriminator 2
 127 002e 0231     		adds	r1, r1, #2
ARM GAS  C:\Users\antarp\AppData\Local\Temp\ccZbt3Zo.s 			page 4


 128              	.LVL14:
  32:transmit.c    ****     {
 129              		.loc 1 32 0 discriminator 2
 130 0030 0136     		adds	r6, r6, #1
 131              	.LVL15:
 132              	.L6:
  32:transmit.c    ****     {
 133              		.loc 1 32 0 is_stmt 0 discriminator 1
 134 0032 9642     		cmp	r6, r2
 135 0034 F7DB     		blt	.L9
 136              	.LBE2:
  43:transmit.c    ****     }
  44:transmit.c    ****     buffer_source = buffer_source - count;
  45:transmit.c    ****     buffer_dest = buffer_dest - (count+7);
  46:transmit.c    **** }
 137              		.loc 1 46 0 is_stmt 1
 138 0036 F0BC     		pop	{r4, r5, r6, r7}
 139              		.cfi_restore 7
 140              		.cfi_restore 6
 141              		.cfi_restore 5
 142              		.cfi_restore 4
 143              		.cfi_def_cfa_offset 0
 144              	.LVL16:
 145 0038 7047     		bx	lr
 146              		.cfi_endproc
 147              	.LFE64:
 148              		.size	add_zeros, .-add_zeros
 149 003a 00BF     		.section	.text.transmit,"ax",%progbits
 150              		.align	2
 151              		.global	transmit
 152              		.thumb
 153              		.thumb_func
 154              		.type	transmit, %function
 155              	transmit:
 156              	.LFB66:
  47:transmit.c    **** 
  48:transmit.c    **** void uart_getdata()
  49:transmit.c    **** {
  50:transmit.c    ****     uint8 buffer[USBUART_BUFFER_SIZE];
  51:transmit.c    ****     uint8 full_buffer[USBUART_BUFFER_SIZE];
  52:transmit.c    ****     
  53:transmit.c    ****     uint16 count;
  54:transmit.c    ****     flag = 0;
  55:transmit.c    ****     
  56:transmit.c    ****     if(0u != USBUART_IsConfigurationChanged())
  57:transmit.c    ****     {
  58:transmit.c    ****         if(0u != USBUART_GetConfiguration())
  59:transmit.c    ****         {
  60:transmit.c    ****             USBUART_CDC_Init();
  61:transmit.c    ****         }
  62:transmit.c    ****     }
  63:transmit.c    ****     
  64:transmit.c    ****     if(0u != USBUART_GetConfiguration())
  65:transmit.c    ****     {
  66:transmit.c    ****         if (0u != USBUART_DataIsReady())
  67:transmit.c    ****         {
  68:transmit.c    ****             
ARM GAS  C:\Users\antarp\AppData\Local\Temp\ccZbt3Zo.s 			page 5


  69:transmit.c    ****             count = USBUART_GetAll(buffer);
  70:transmit.c    ****             if(buffer[0] == 0x0D)
  71:transmit.c    ****             {
  72:transmit.c    ****                 flag = 1;
  73:transmit.c    ****                 
  74:transmit.c    ****             }
  75:transmit.c    ****             else
  76:transmit.c    ****             {
  77:transmit.c    ****                 full_buffer[counter] = buffer[0] + 0b10000000;
  78:transmit.c    ****                 counter = counter+1;
  79:transmit.c    ****             }
  80:transmit.c    ****             
  81:transmit.c    ****             
  82:transmit.c    ****             
  83:transmit.c    ****             if(count != 0)
  84:transmit.c    ****             {
  85:transmit.c    ****                 while(0u == USBUART_CDCIsReady());
  86:transmit.c    ****                 
  87:transmit.c    ****                 USBUART_PutData(buffer, count);
  88:transmit.c    ****                 
  89:transmit.c    ****                 
  90:transmit.c    ****                 if(USBUART_BUFFER_SIZE == count)
  91:transmit.c    ****                 {
  92:transmit.c    ****                     while(0u == USBUART_CDCIsReady());
  93:transmit.c    ****                     USBUART_PutData(NULL, 0u);
  94:transmit.c    ****                 }
  95:transmit.c    ****             }
  96:transmit.c    ****         }
  97:transmit.c    ****     }
  98:transmit.c    ****     
  99:transmit.c    ****     if (flag == 1)
 100:transmit.c    ****     {         
 101:transmit.c    ****         isTransmitting = 1;
 102:transmit.c    ****         
 103:transmit.c    ****         /*int addr = -1;
 104:transmit.c    ****         if(have_dest_address == 0)
 105:transmit.c    ****         {
 106:transmit.c    ****             addr = get_dest_address();
 107:transmit.c    ****         }
 108:transmit.c    ****         else
 109:transmit.c    ****         {
 110:transmit.c    ****             header(addr);
 111:transmit.c    ****             transmit();
 112:transmit.c    ****         }*/
 113:transmit.c    ****         
 114:transmit.c    ****         int addr = get_dest_address();
 115:transmit.c    **** 
 116:transmit.c    ****         header(addr);
 117:transmit.c    ****         transmit();
 118:transmit.c    **** 
 119:transmit.c    ****         counter = 0;
 120:transmit.c    ****         
 121:transmit.c    ****     }
 122:transmit.c    ****     else if (flag == 0)
 123:transmit.c    ****     {
 124:transmit.c    ****         
 125:transmit.c    ****         add_zeros(full_buffer,double_buffer+7, counter);
ARM GAS  C:\Users\antarp\AppData\Local\Temp\ccZbt3Zo.s 			page 6


 126:transmit.c    ****         
 127:transmit.c    ****     }
 128:transmit.c    ****        
 129:transmit.c    **** }
 130:transmit.c    **** 
 131:transmit.c    **** void transmit() 
 132:transmit.c    **** {
 157              		.loc 1 132 0
 158              		.cfi_startproc
 159              		@ args = 0, pretend = 0, frame = 0
 160              		@ frame_needed = 0, uses_anonymous_args = 0
 161 0000 38B5     		push	{r3, r4, r5, lr}
 162              		.cfi_def_cfa_offset 16
 163              		.cfi_offset 3, -16
 164              		.cfi_offset 4, -12
 165              		.cfi_offset 5, -8
 166              		.cfi_offset 14, -4
 167              	.LVL17:
 133:transmit.c    ****    
 134:transmit.c    ****     int i = 0;
 168              		.loc 1 134 0
 169 0002 0025     		movs	r5, #0
 135:transmit.c    ****     uint16 temp;
 136:transmit.c    ****     while (double_buffer[i] != 0 && flag == 1)
 170              		.loc 1 136 0
 171 0004 17E0     		b	.L12
 172              	.LVL18:
 173              	.L14:
 174              	.LBB5:
 137:transmit.c    ****     {       
 138:transmit.c    ****         for(int j = 15; j >= 0; j--)
 139:transmit.c    ****         {
 140:transmit.c    ****             if(flag == 1)
 175              		.loc 1 140 0
 176 0006 1A4B     		ldr	r3, .L22
 177 0008 1B68     		ldr	r3, [r3]
 178 000a 012B     		cmp	r3, #1
 179 000c 0DD1     		bne	.L13
 141:transmit.c    ****             {          
 142:transmit.c    ****                 //LCD_Position(1,0);
 143:transmit.c    ****                 //LCD_PrintNumber(flag);
 144:transmit.c    ****                 
 145:transmit.c    ****                 temp = double_buffer[i] & (1 << j);
 180              		.loc 1 145 0
 181 000e 194B     		ldr	r3, .L22+4
 182 0010 33F81500 		ldrh	r0, [r3, r5, lsl #1]
 183 0014 0123     		movs	r3, #1
 184 0016 A340     		lsls	r3, r3, r4
 185 0018 1840     		ands	r0, r0, r3
 186              	.LVL19:
 146:transmit.c    ****                 
 147:transmit.c    ****                 temp = temp >> j;
 187              		.loc 1 147 0
 188 001a 2041     		asrs	r0, r0, r4
 189              	.LVL20:
 148:transmit.c    ****                 //LCD_PrintDecUint16(temp);
 149:transmit.c    ****                 //CyDelay(500);
ARM GAS  C:\Users\antarp\AppData\Local\Temp\ccZbt3Zo.s 			page 7


 150:transmit.c    ****                 transmitted_data_Write(temp);
 190              		.loc 1 150 0
 191 001c C0B2     		uxtb	r0, r0
 192              	.LVL21:
 193 001e FFF7FEFF 		bl	transmitted_data_Write
 194              	.LVL22:
 151:transmit.c    ****                 
 152:transmit.c    ****                 CyDelayUs(485); //0.5 ms with code delay taken into account
 195              		.loc 1 152 0
 196 0022 40F2E510 		movw	r0, #485
 197 0026 FFF7FEFF 		bl	CyDelayUs
 198              	.LVL23:
 199              	.L13:
 138:transmit.c    ****         {
 200              		.loc 1 138 0 discriminator 2
 201 002a 013C     		subs	r4, r4, #1
 202              	.LVL24:
 203 002c 00E0     		b	.L16
 204              	.LVL25:
 205              	.L20:
 206              	.LBE5:
 207 002e 0F24     		movs	r4, #15
 208              	.L16:
 209              	.LVL26:
 210              	.LBB6:
 138:transmit.c    ****         {
 211              		.loc 1 138 0 is_stmt 0 discriminator 1
 212 0030 002C     		cmp	r4, #0
 213 0032 E8DA     		bge	.L14
 214              	.LBE6:
 153:transmit.c    ****             }
 154:transmit.c    ****         }
 155:transmit.c    ****         i++;
 215              		.loc 1 155 0 is_stmt 1
 216 0034 0135     		adds	r5, r5, #1
 217              	.LVL27:
 218              	.L12:
 136:transmit.c    ****     {       
 219              		.loc 1 136 0
 220 0036 0F4B     		ldr	r3, .L22+4
 221 0038 33F81530 		ldrh	r3, [r3, r5, lsl #1]
 222 003c 1BB1     		cbz	r3, .L15
 136:transmit.c    ****     {       
 223              		.loc 1 136 0 is_stmt 0 discriminator 1
 224 003e 0C4B     		ldr	r3, .L22
 225 0040 1B68     		ldr	r3, [r3]
 226 0042 012B     		cmp	r3, #1
 227 0044 F3D0     		beq	.L20
 228              	.L15:
 156:transmit.c    ****     }
 157:transmit.c    **** 
 158:transmit.c    ****     //LCD_Position(0,0);
 159:transmit.c    ****     //LCD_PrintInt32(flag);
 160:transmit.c    ****     
 161:transmit.c    ****     if(flag == 1)
 229              		.loc 1 161 0 is_stmt 1
 230 0046 0A4B     		ldr	r3, .L22
ARM GAS  C:\Users\antarp\AppData\Local\Temp\ccZbt3Zo.s 			page 8


 231 0048 1B68     		ldr	r3, [r3]
 232 004a 012B     		cmp	r3, #1
 233 004c 0FD1     		bne	.L11
 234              	.LBB7:
 162:transmit.c    ****     {
 163:transmit.c    ****         isTransmitting = 0;
 235              		.loc 1 163 0
 236 004e 0023     		movs	r3, #0
 237 0050 094A     		ldr	r2, .L22+8
 238 0052 1360     		str	r3, [r2]
 164:transmit.c    ****         flag = 0;
 239              		.loc 1 164 0
 240 0054 064A     		ldr	r2, .L22
 241 0056 1360     		str	r3, [r2]
 242              	.LVL28:
 165:transmit.c    ****         
 166:transmit.c    ****         //LCD_Position(1,0);
 167:transmit.c    ****         //LCD_PrintString("test1");
 168:transmit.c    ****         //clear out buffer
 169:transmit.c    ****         int i = 0;
 170:transmit.c    ****         while (double_buffer[i] != 0)
 243              		.loc 1 170 0
 244 0058 04E0     		b	.L18
 245              	.LVL29:
 246              	.L19:
 171:transmit.c    ****         {
 172:transmit.c    ****             double_buffer[i] = 0;
 247              		.loc 1 172 0
 248 005a 0021     		movs	r1, #0
 249 005c 054A     		ldr	r2, .L22+4
 250 005e 22F81310 		strh	r1, [r2, r3, lsl #1]	@ movhi
 173:transmit.c    ****             i++;
 251              		.loc 1 173 0
 252 0062 0133     		adds	r3, r3, #1
 253              	.LVL30:
 254              	.L18:
 170:transmit.c    ****         {
 255              		.loc 1 170 0
 256 0064 034A     		ldr	r2, .L22+4
 257 0066 32F81320 		ldrh	r2, [r2, r3, lsl #1]
 258 006a 002A     		cmp	r2, #0
 259 006c F5D1     		bne	.L19
 260              	.LVL31:
 261              	.L11:
 262 006e 38BD     		pop	{r3, r4, r5, pc}
 263              	.LVL32:
 264              	.L23:
 265              		.align	2
 266              	.L22:
 267 0070 00000000 		.word	flag
 268 0074 00000000 		.word	.LANCHOR0
 269 0078 00000000 		.word	isTransmitting
 270              	.LBE7:
 271              		.cfi_endproc
 272              	.LFE66:
 273              		.size	transmit, .-transmit
 274              		.section	.text.header,"ax",%progbits
ARM GAS  C:\Users\antarp\AppData\Local\Temp\ccZbt3Zo.s 			page 9


 275              		.align	2
 276              		.global	header
 277              		.thumb
 278              		.thumb_func
 279              		.type	header, %function
 280              	header:
 281              	.LFB67:
 174:transmit.c    ****         }
 175:transmit.c    ****     }
 176:transmit.c    ****     
 177:transmit.c    ****     //stop = 1;
 178:transmit.c    ****     //flag = 0;
 179:transmit.c    ****     
 180:transmit.c    **** }
 181:transmit.c    **** 
 182:transmit.c    **** void header(uint16 address)
 183:transmit.c    **** {
 282              		.loc 1 183 0
 283              		.cfi_startproc
 284              		@ args = 0, pretend = 0, frame = 0
 285              		@ frame_needed = 0, uses_anonymous_args = 0
 286              	.LVL33:
 287 0000 38B5     		push	{r3, r4, r5, lr}
 288              		.cfi_def_cfa_offset 16
 289              		.cfi_offset 3, -16
 290              		.cfi_offset 4, -12
 291              		.cfi_offset 5, -8
 292              		.cfi_offset 14, -4
 184:transmit.c    ****     //1st bye - 0x80
 185:transmit.c    ****     double_buffer[0] = 0x8000;
 293              		.loc 1 185 0
 294 0002 1B4B     		ldr	r3, .L30
 295 0004 4FF40042 		mov	r2, #32768
 296 0008 1A80     		strh	r2, [r3]	@ movhi
 186:transmit.c    ****     //2nd byte - 0x81
 187:transmit.c    ****     double_buffer[1] = 0x8002;
 297              		.loc 1 187 0
 298 000a 48F20202 		movw	r2, #32770
 299 000e 5A80     		strh	r2, [r3, #2]	@ movhi
 188:transmit.c    ****     //3rd byte - source address
 189:transmit.c    ****     double_buffer[2] = 0x8002; //address 1
 300              		.loc 1 189 0
 301 0010 9A80     		strh	r2, [r3, #4]	@ movhi
 190:transmit.c    ****     //4th byte - destination address
 191:transmit.c    ****     double_buffer[3] = address; //broadcast
 302              		.loc 1 191 0
 303 0012 D880     		strh	r0, [r3, #6]	@ movhi
 192:transmit.c    ****     //5th byte - logic 1 in MSB + length in binary
 193:transmit.c    ****     if(counter > 45 || counter < 1)
 304              		.loc 1 193 0
 305 0014 D3F80051 		ldr	r5, [r3, #256]
 306 0018 6B1E     		subs	r3, r5, #1
 307 001a 2C2B     		cmp	r3, #44
 308 001c 15D9     		bls	.L28
 194:transmit.c    ****     {
 195:transmit.c    ****         LCD_Position(0,0);
 309              		.loc 1 195 0
ARM GAS  C:\Users\antarp\AppData\Local\Temp\ccZbt3Zo.s 			page 10


 310 001e 0021     		movs	r1, #0
 311 0020 0846     		mov	r0, r1
 312              	.LVL34:
 313 0022 FFF7FEFF 		bl	LCD_Position
 314              	.LVL35:
 196:transmit.c    ****         LCD_PrintString("Wrong size! :(");
 315              		.loc 1 196 0
 316 0026 1348     		ldr	r0, .L30+4
 317 0028 FFF7FEFF 		bl	LCD_PrintString
 318              	.LVL36:
 319 002c 17E0     		b	.L26
 320              	.LVL37:
 321              	.L27:
 322              	.LBB8:
 323              	.LBB9:
 197:transmit.c    ****     }
 198:transmit.c    ****     else
 199:transmit.c    ****     {
 200:transmit.c    ****         uint16 temp;
 201:transmit.c    ****         uint16 result = 0;
 202:transmit.c    ****         for(int i = 0; i < 8; i++)
 203:transmit.c    ****         {
 204:transmit.c    ****            temp = counter & (1 << i);
 324              		.loc 1 204 0 discriminator 3
 325 002e 0123     		movs	r3, #1
 326 0030 8B40     		lsls	r3, r3, r1
 327 0032 2B40     		ands	r3, r3, r5
 328 0034 9BB2     		uxth	r3, r3
 329              	.LVL38:
 205:transmit.c    ****            temp = temp >> i;
 330              		.loc 1 205 0 discriminator 3
 331 0036 43FA01F2 		asr	r2, r3, r1
 332              	.LVL39:
 206:transmit.c    ****            temp = temp << (2*i+1);
 333              		.loc 1 206 0 discriminator 3
 334 003a 4B00     		lsls	r3, r1, #1
 335 003c 581C     		adds	r0, r3, #1
 336 003e 93B2     		uxth	r3, r2
 337 0040 8340     		lsls	r3, r3, r0
 338 0042 9BB2     		uxth	r3, r3
 339              	.LVL40:
 207:transmit.c    ****            result = result | temp;
 340              		.loc 1 207 0 discriminator 3
 341 0044 1C43     		orrs	r4, r4, r3
 342              	.LVL41:
 202:transmit.c    ****         {
 343              		.loc 1 202 0 discriminator 3
 344 0046 0131     		adds	r1, r1, #1
 345              	.LVL42:
 346 0048 01E0     		b	.L25
 347              	.LVL43:
 348              	.L28:
 349              	.LBE9:
 350              	.LBE8:
 351 004a 0021     		movs	r1, #0
 352 004c 0C46     		mov	r4, r1
 353              	.LVL44:
ARM GAS  C:\Users\antarp\AppData\Local\Temp\ccZbt3Zo.s 			page 11


 354              	.L25:
 355              	.LBB11:
 356              	.LBB10:
 202:transmit.c    ****         {
 357              		.loc 1 202 0 is_stmt 0 discriminator 1
 358 004e 0729     		cmp	r1, #7
 359 0050 EDDD     		ble	.L27
 360              	.LBE10:
 208:transmit.c    ****         }
 209:transmit.c    ****         double_buffer[4] = result | 0b1000000000000000;
 361              		.loc 1 209 0 is_stmt 1
 362 0052 6FEA4444 		mvn	r4, r4, lsl #17
 363              	.LVL45:
 364 0056 6FEA5444 		mvn	r4, r4, lsr #17
 365 005a 054B     		ldr	r3, .L30
 366 005c 1C81     		strh	r4, [r3, #8]	@ movhi
 367              	.LVL46:
 368              	.L26:
 369              	.LBE11:
 210:transmit.c    ****     }  
 211:transmit.c    ****     //6th byte - 128 (crc not used)
 212:transmit.c    ****     double_buffer[5] = 0x8000;
 370              		.loc 1 212 0
 371 005e 044B     		ldr	r3, .L30
 372 0060 4FF40042 		mov	r2, #32768
 373 0064 5A81     		strh	r2, [r3, #10]	@ movhi
 213:transmit.c    ****     //7th byte - 11110111 (crc not used)
 214:transmit.c    ****     double_buffer[6] = 0b1010101000101010;  
 374              		.loc 1 214 0
 375 0066 4AF62A22 		movw	r2, #43562
 376 006a 9A81     		strh	r2, [r3, #12]	@ movhi
 377 006c 38BD     		pop	{r3, r4, r5, pc}
 378              	.L31:
 379 006e 00BF     		.align	2
 380              	.L30:
 381 0070 00000000 		.word	.LANCHOR0
 382 0074 00000000 		.word	.LC0
 383              		.cfi_endproc
 384              	.LFE67:
 385              		.size	header, .-header
 386              		.section	.text.uart_getdata,"ax",%progbits
 387              		.align	2
 388              		.global	uart_getdata
 389              		.thumb
 390              		.thumb_func
 391              		.type	uart_getdata, %function
 392              	uart_getdata:
 393              	.LFB65:
  49:transmit.c    ****     uint8 buffer[USBUART_BUFFER_SIZE];
 394              		.loc 1 49 0
 395              		.cfi_startproc
 396              		@ args = 0, pretend = 0, frame = 128
 397              		@ frame_needed = 0, uses_anonymous_args = 0
 398 0000 10B5     		push	{r4, lr}
 399              		.cfi_def_cfa_offset 8
 400              		.cfi_offset 4, -8
 401              		.cfi_offset 14, -4
ARM GAS  C:\Users\antarp\AppData\Local\Temp\ccZbt3Zo.s 			page 12


 402 0002 A0B0     		sub	sp, sp, #128
 403              		.cfi_def_cfa_offset 136
  54:transmit.c    ****     
 404              		.loc 1 54 0
 405 0004 0022     		movs	r2, #0
 406 0006 2B4B     		ldr	r3, .L42
 407 0008 1A60     		str	r2, [r3]
  56:transmit.c    ****     {
 408              		.loc 1 56 0
 409 000a FFF7FEFF 		bl	USBUART_IsConfigurationChanged
 410              	.LVL47:
 411 000e 20B1     		cbz	r0, .L33
  58:transmit.c    ****         {
 412              		.loc 1 58 0
 413 0010 FFF7FEFF 		bl	USBUART_GetConfiguration
 414              	.LVL48:
 415 0014 08B1     		cbz	r0, .L33
  60:transmit.c    ****         }
 416              		.loc 1 60 0
 417 0016 FFF7FEFF 		bl	USBUART_CDC_Init
 418              	.LVL49:
 419              	.L33:
  64:transmit.c    ****     {
 420              		.loc 1 64 0
 421 001a FFF7FEFF 		bl	USBUART_GetConfiguration
 422              	.LVL50:
 423 001e 60B3     		cbz	r0, .L34
  66:transmit.c    ****         {
 424              		.loc 1 66 0
 425 0020 FFF7FEFF 		bl	USBUART_DataIsReady
 426              	.LVL51:
 427 0024 48B3     		cbz	r0, .L34
  69:transmit.c    ****             if(buffer[0] == 0x0D)
 428              		.loc 1 69 0
 429 0026 10A8     		add	r0, sp, #64
 430 0028 FFF7FEFF 		bl	USBUART_GetAll
 431              	.LVL52:
 432 002c 0446     		mov	r4, r0
 433              	.LVL53:
  70:transmit.c    ****             {
 434              		.loc 1 70 0
 435 002e 9DF84030 		ldrb	r3, [sp, #64]	@ zero_extendqisi2
 436 0032 0D2B     		cmp	r3, #13
 437 0034 03D1     		bne	.L35
  72:transmit.c    ****                 
 438              		.loc 1 72 0
 439 0036 0122     		movs	r2, #1
 440 0038 1E4B     		ldr	r3, .L42
 441 003a 1A60     		str	r2, [r3]
 442 003c 0AE0     		b	.L36
 443              	.L35:
  77:transmit.c    ****                 counter = counter+1;
 444              		.loc 1 77 0
 445 003e 1E49     		ldr	r1, .L42+4
 446 0040 D1F80021 		ldr	r2, [r1, #256]
 447 0044 20A8     		add	r0, sp, #128
 448 0046 1044     		add	r0, r0, r2
ARM GAS  C:\Users\antarp\AppData\Local\Temp\ccZbt3Zo.s 			page 13


 449 0048 803B     		subs	r3, r3, #128
 450 004a 00F8803C 		strb	r3, [r0, #-128]
  78:transmit.c    ****             }
 451              		.loc 1 78 0
 452 004e 0132     		adds	r2, r2, #1
 453 0050 C1F80021 		str	r2, [r1, #256]
 454              	.L36:
  83:transmit.c    ****             {
 455              		.loc 1 83 0
 456 0054 8CB1     		cbz	r4, .L34
 457              	.L37:
  85:transmit.c    ****                 
 458              		.loc 1 85 0 discriminator 1
 459 0056 FFF7FEFF 		bl	USBUART_CDCIsReady
 460              	.LVL54:
 461 005a 0028     		cmp	r0, #0
 462 005c FBD0     		beq	.L37
  87:transmit.c    ****                 
 463              		.loc 1 87 0
 464 005e 2146     		mov	r1, r4
 465 0060 10A8     		add	r0, sp, #64
 466 0062 FFF7FEFF 		bl	USBUART_PutData
 467              	.LVL55:
  90:transmit.c    ****                 {
 468              		.loc 1 90 0
 469 0066 402C     		cmp	r4, #64
 470 0068 07D1     		bne	.L34
 471              	.L38:
  92:transmit.c    ****                     USBUART_PutData(NULL, 0u);
 472              		.loc 1 92 0 discriminator 1
 473 006a FFF7FEFF 		bl	USBUART_CDCIsReady
 474              	.LVL56:
 475 006e 0028     		cmp	r0, #0
 476 0070 FBD0     		beq	.L38
  93:transmit.c    ****                 }
 477              		.loc 1 93 0
 478 0072 0021     		movs	r1, #0
 479 0074 0846     		mov	r0, r1
 480 0076 FFF7FEFF 		bl	USBUART_PutData
 481              	.LVL57:
 482              	.L34:
  99:transmit.c    ****     {         
 483              		.loc 1 99 0
 484 007a 0E4B     		ldr	r3, .L42
 485 007c 1B68     		ldr	r3, [r3]
 486 007e 012B     		cmp	r3, #1
 487 0080 0ED1     		bne	.L39
 488              	.LBB12:
 101:transmit.c    ****         
 489              		.loc 1 101 0
 490 0082 0122     		movs	r2, #1
 491 0084 0D4B     		ldr	r3, .L42+8
 492 0086 1A60     		str	r2, [r3]
 114:transmit.c    **** 
 493              		.loc 1 114 0
 494 0088 FFF7FEFF 		bl	get_dest_address
 495              	.LVL58:
ARM GAS  C:\Users\antarp\AppData\Local\Temp\ccZbt3Zo.s 			page 14


 116:transmit.c    ****         transmit();
 496              		.loc 1 116 0
 497 008c 80B2     		uxth	r0, r0
 498              	.LVL59:
 499 008e FFF7FEFF 		bl	header
 500              	.LVL60:
 117:transmit.c    **** 
 501              		.loc 1 117 0
 502 0092 FFF7FEFF 		bl	transmit
 503              	.LVL61:
 119:transmit.c    ****         
 504              		.loc 1 119 0
 505 0096 0022     		movs	r2, #0
 506 0098 074B     		ldr	r3, .L42+4
 507 009a C3F80021 		str	r2, [r3, #256]
 508              	.LBE12:
 509 009e 07E0     		b	.L32
 510              	.L39:
 122:transmit.c    ****     {
 511              		.loc 1 122 0
 512 00a0 33B9     		cbnz	r3, .L32
 125:transmit.c    ****         
 513              		.loc 1 125 0
 514 00a2 0549     		ldr	r1, .L42+4
 515 00a4 D1F80021 		ldr	r2, [r1, #256]
 516 00a8 0E31     		adds	r1, r1, #14
 517 00aa 6846     		mov	r0, sp
 518 00ac FFF7FEFF 		bl	add_zeros
 519              	.LVL62:
 520              	.L32:
 129:transmit.c    **** 
 521              		.loc 1 129 0
 522 00b0 20B0     		add	sp, sp, #128
 523              		.cfi_def_cfa_offset 8
 524              		@ sp needed
 525 00b2 10BD     		pop	{r4, pc}
 526              	.L43:
 527              		.align	2
 528              	.L42:
 529 00b4 00000000 		.word	flag
 530 00b8 00000000 		.word	.LANCHOR0
 531 00bc 00000000 		.word	isTransmitting
 532              		.cfi_endproc
 533              	.LFE65:
 534              		.size	uart_getdata, .-uart_getdata
 535              		.global	have_dest_address
 536              		.global	double_buffer
 537              		.global	counter
 538              		.comm	receive_bit_counter,4,4
 539              		.comm	isTransmitting,4,4
 540              		.comm	flag,4,4
 541              		.section	.rodata.str1.4,"aMS",%progbits,1
 542              		.align	2
 543              	.LC0:
 544 0000 57726F6E 		.ascii	"Wrong size! :(\000"
 544      67207369 
 544      7A652120 
ARM GAS  C:\Users\antarp\AppData\Local\Temp\ccZbt3Zo.s 			page 15


 544      3A2800
 545              		.bss
 546              		.align	2
 547              		.set	.LANCHOR0,. + 0
 548              		.type	double_buffer, %object
 549              		.size	double_buffer, 256
 550              	double_buffer:
 551 0000 00000000 		.space	256
 551      00000000 
 551      00000000 
 551      00000000 
 551      00000000 
 552              		.type	counter, %object
 553              		.size	counter, 4
 554              	counter:
 555 0100 00000000 		.space	4
 556              		.type	have_dest_address, %object
 557              		.size	have_dest_address, 4
 558              	have_dest_address:
 559 0104 00000000 		.space	4
 560              		.text
 561              	.Letext0:
 562              		.file 2 "c:\\program files (x86)\\cypress\\psoc creator\\4.1\\psoc creator\\import\\gnu\\arm\\5.4.
 563              		.file 3 "c:\\program files (x86)\\cypress\\psoc creator\\4.1\\psoc creator\\import\\gnu\\arm\\5.4.
 564              		.file 4 "Generated_Source\\PSoC5/cytypes.h"
 565              		.file 5 "Generated_Source\\PSoC5/core_cm3.h"
 566              		.file 6 "transmit.h"
 567              		.file 7 "receive.h"
 568              		.file 8 "Generated_Source\\PSoC5/USBUART.h"
 569              		.file 9 "Generated_Source\\PSoC5/transmitted_data.h"
 570              		.file 10 "Generated_Source\\PSoC5/CyLib.h"
 571              		.file 11 "Generated_Source\\PSoC5/LCD.h"
 572              		.file 12 "addr_input.h"
 573              		.file 13 "Generated_Source\\PSoC5/USBUART_cdc.h"
